###############################################################################
#
# IAR C/C++ Compiler V9.10.1.2146 for 8051                24/Nov/2020  16:52:57
# Copyright 2004-2014 IAR Systems AB.
# Standalone license - IAR Embedded Workbench for 8051
#
#    Core               =  plain
#    Code model         =  banked
#    Data model         =  large
#    Calling convention =  xdata reentrant
#    Constant location  =  data_rom
#    Dptr setup         =  1,16
#                          
#    Source file        =  
#        C:\Users\admin\Desktop\zstack-2.4.0-1.4.0x\zstack-2.4.0-1.4.0x\Projects\zstack\Samples\GreenHouse-3\Source\iic\iic.c
#    Command line       =  
#        -f
#        C:\Users\admin\Desktop\zstack-2.4.0-1.4.0x\zstack-2.4.0-1.4.0x\Projects\zstack\Samples\GreenHouse-3\CC2530DB\..\..\..\Tools\CC2530DB\f8wRouter.cfg
#        (-DCPU32MHZ -DROOT=__near_func -DMAC_CFG_APP_PENDING_QUEUE=TRUE
#        -DMAC_CFG_TX_DATA_MAX=5 -DMAC_CFG_TX_MAX=8 -DMAC_CFG_RX_MAX=5
#        -DRTR_NWK) -f
#        C:\Users\admin\Desktop\zstack-2.4.0-1.4.0x\zstack-2.4.0-1.4.0x\Projects\zstack\Samples\GreenHouse-3\CC2530DB\..\..\..\Tools\CC2530DB\f8wConfig.cfg
#        (-DZIGBEEPRO -DSECURE=0 -DZG_SECURE_DYNAMIC=0 -DREFLECTOR
#        -DDEFAULT_CHANLIST=0x00000800 -DZDAPP_CONFIG_PAN_ID=0x2002
#        -DNWK_START_DELAY=100 -DEXTENDED_JOINING_RANDOM_MASK=0x007F
#        -DBEACON_REQUEST_DELAY=100 -DBEACON_REQ_DELAY_MASK=0x00FF
#        -DLINK_STATUS_JITTER_MASK=0x007F -DROUTE_EXPIRY_TIME=30
#        -DAPSC_ACK_WAIT_DURATION_POLLED=3000 -DNWK_INDIRECT_MSG_TIMEOUT=7
#        -DMAX_RREQ_ENTRIES=8 -DAPSC_MAX_FRAME_RETRIES=3
#        -DNWK_MAX_DATA_RETRIES=2 -DMAX_POLL_FAILURE_RETRIES=2 -DMAX_BCAST=9
#        -DAPS_MAX_GROUPS=16 -DMAX_RTG_ENTRIES=40 -DNWK_MAX_BINDING_ENTRIES=4
#        -DMAX_BINDING_CLUSTER_IDS=4 "-DDEFAULT_KEY={0x01, 0x03, 0x05, 0x07,
#        0x09, 0x0B, 0x0D, 0x0F, 0x00, 0x02, 0x04, 0x06, 0x08, 0x0A, 0x0C,
#        0x0D}" -DMAC_MAX_FRAME_SIZE=116 -DZDNWKMGR_MIN_TRANSMISSIONS=20
#        "-DCONST=const __code" -DGENERIC=__generic -DRFD_RCVC_ALWAYS_ON=TRUE
#        -DPOLL_RATE=1000 -DQUEUED_POLL_RATE=100 -DRESPONSE_POLL_RATE=100)
#        -DREJOIN_POLL_RATE=440
#        C:\Users\admin\Desktop\zstack-2.4.0-1.4.0x\zstack-2.4.0-1.4.0x\Projects\zstack\Samples\GreenHouse-3\Source\iic\iic.c
#        -D HOLD_AUTO_START -D BUILD_ALL_DEVICES -D REFLECTOR -D NV_INIT -D
#        XLAB -D GreenHouse -D GH_node3 -lC
#        C:\Users\admin\Desktop\zstack-2.4.0-1.4.0x\zstack-2.4.0-1.4.0x\Projects\zstack\Samples\GreenHouse-3\CC2530DB\GreenHouse-3\List\
#        -lA
#        C:\Users\admin\Desktop\zstack-2.4.0-1.4.0x\zstack-2.4.0-1.4.0x\Projects\zstack\Samples\GreenHouse-3\CC2530DB\GreenHouse-3\List\
#        --diag_suppress Pe001,Pa010 -o
#        C:\Users\admin\Desktop\zstack-2.4.0-1.4.0x\zstack-2.4.0-1.4.0x\Projects\zstack\Samples\GreenHouse-3\CC2530DB\GreenHouse-3\Obj\
#        -e --no_cse --no_unroll --no_inline --no_code_motion --no_tbaa --debug
#        --core=plain --dptr=16,1 --data_model=large --code_model=banked
#        --calling_convention=xdata_reentrant --place_constants=data_rom
#        --nr_virtual_regs 8 -I
#        C:\Users\admin\Desktop\zstack-2.4.0-1.4.0x\zstack-2.4.0-1.4.0x\Projects\zstack\Samples\GreenHouse-3\CC2530DB\
#        -I
#        C:\Users\admin\Desktop\zstack-2.4.0-1.4.0x\zstack-2.4.0-1.4.0x\Projects\zstack\Samples\GreenHouse-3\CC2530DB\..\Source\
#        -I
#        C:\Users\admin\Desktop\zstack-2.4.0-1.4.0x\zstack-2.4.0-1.4.0x\Projects\zstack\Samples\GreenHouse-3\CC2530DB\..\..\common\
#        -I
#        C:\Users\admin\Desktop\zstack-2.4.0-1.4.0x\zstack-2.4.0-1.4.0x\Projects\zstack\Samples\GreenHouse-3\CC2530DB\..\..\..\ZMain\TI2530DB\
#        -I
#        C:\Users\admin\Desktop\zstack-2.4.0-1.4.0x\zstack-2.4.0-1.4.0x\Projects\zstack\Samples\GreenHouse-3\CC2530DB\..\..\..\..\..\Components\hal\include\
#        -I
#        C:\Users\admin\Desktop\zstack-2.4.0-1.4.0x\zstack-2.4.0-1.4.0x\Projects\zstack\Samples\GreenHouse-3\CC2530DB\..\..\..\..\..\Components\hal\target\CC2530EB\
#        -I
#        C:\Users\admin\Desktop\zstack-2.4.0-1.4.0x\zstack-2.4.0-1.4.0x\Projects\zstack\Samples\GreenHouse-3\CC2530DB\..\..\..\..\..\Components\mac\include\
#        -I
#        C:\Users\admin\Desktop\zstack-2.4.0-1.4.0x\zstack-2.4.0-1.4.0x\Projects\zstack\Samples\GreenHouse-3\CC2530DB\..\..\..\..\..\Components\mac\high_level\
#        -I
#        C:\Users\admin\Desktop\zstack-2.4.0-1.4.0x\zstack-2.4.0-1.4.0x\Projects\zstack\Samples\GreenHouse-3\CC2530DB\..\..\..\..\..\Components\mac\low_level\srf04\
#        -I
#        C:\Users\admin\Desktop\zstack-2.4.0-1.4.0x\zstack-2.4.0-1.4.0x\Projects\zstack\Samples\GreenHouse-3\CC2530DB\..\..\..\..\..\Components\mac\low_level\srf04\single_chip\
#        -I
#        C:\Users\admin\Desktop\zstack-2.4.0-1.4.0x\zstack-2.4.0-1.4.0x\Projects\zstack\Samples\GreenHouse-3\CC2530DB\..\..\..\..\..\Components\mt\
#        -I
#        C:\Users\admin\Desktop\zstack-2.4.0-1.4.0x\zstack-2.4.0-1.4.0x\Projects\zstack\Samples\GreenHouse-3\CC2530DB\..\..\..\..\..\Components\osal\include\
#        -I
#        C:\Users\admin\Desktop\zstack-2.4.0-1.4.0x\zstack-2.4.0-1.4.0x\Projects\zstack\Samples\GreenHouse-3\CC2530DB\..\..\..\..\..\Components\osal\mcu\ccsoc\
#        -I
#        C:\Users\admin\Desktop\zstack-2.4.0-1.4.0x\zstack-2.4.0-1.4.0x\Projects\zstack\Samples\GreenHouse-3\CC2530DB\..\..\..\..\..\Components\services\saddr\
#        -I
#        C:\Users\admin\Desktop\zstack-2.4.0-1.4.0x\zstack-2.4.0-1.4.0x\Projects\zstack\Samples\GreenHouse-3\CC2530DB\..\..\..\..\..\Components\services\sdata\
#        -I
#        C:\Users\admin\Desktop\zstack-2.4.0-1.4.0x\zstack-2.4.0-1.4.0x\Projects\zstack\Samples\GreenHouse-3\CC2530DB\..\..\..\..\..\Components\stack\af\
#        -I
#        C:\Users\admin\Desktop\zstack-2.4.0-1.4.0x\zstack-2.4.0-1.4.0x\Projects\zstack\Samples\GreenHouse-3\CC2530DB\..\..\..\..\..\Components\stack\nwk\
#        -I
#        C:\Users\admin\Desktop\zstack-2.4.0-1.4.0x\zstack-2.4.0-1.4.0x\Projects\zstack\Samples\GreenHouse-3\CC2530DB\..\..\..\..\..\Components\stack\sapi\
#        -I
#        C:\Users\admin\Desktop\zstack-2.4.0-1.4.0x\zstack-2.4.0-1.4.0x\Projects\zstack\Samples\GreenHouse-3\CC2530DB\..\..\..\..\..\Components\stack\sec\
#        -I
#        C:\Users\admin\Desktop\zstack-2.4.0-1.4.0x\zstack-2.4.0-1.4.0x\Projects\zstack\Samples\GreenHouse-3\CC2530DB\..\..\..\..\..\Components\stack\sys\
#        -I
#        C:\Users\admin\Desktop\zstack-2.4.0-1.4.0x\zstack-2.4.0-1.4.0x\Projects\zstack\Samples\GreenHouse-3\CC2530DB\..\..\..\..\..\Components\stack\zdo\
#        -I
#        C:\Users\admin\Desktop\zstack-2.4.0-1.4.0x\zstack-2.4.0-1.4.0x\Projects\zstack\Samples\GreenHouse-3\CC2530DB\..\..\..\..\..\Components\zmac\
#        -I
#        C:\Users\admin\Desktop\zstack-2.4.0-1.4.0x\zstack-2.4.0-1.4.0x\Projects\zstack\Samples\GreenHouse-3\CC2530DB\..\..\..\..\..\Components\zmac\f8w\
#        -I
#        C:\Users\admin\Desktop\zstack-2.4.0-1.4.0x\zstack-2.4.0-1.4.0x\Projects\zstack\Samples\GreenHouse-3\CC2530DB\..\Source\iic\
#        -I
#        C:\Users\admin\Desktop\zstack-2.4.0-1.4.0x\zstack-2.4.0-1.4.0x\Projects\zstack\Samples\GreenHouse-3\CC2530DB\..\Source\oled\
#        -On
#    List file          =  
#        C:\Users\admin\Desktop\zstack-2.4.0-1.4.0x\zstack-2.4.0-1.4.0x\Projects\zstack\Samples\GreenHouse-3\CC2530DB\GreenHouse-3\List\iic.lst
#    Object file        =  
#        C:\Users\admin\Desktop\zstack-2.4.0-1.4.0x\zstack-2.4.0-1.4.0x\Projects\zstack\Samples\GreenHouse-3\CC2530DB\GreenHouse-3\Obj\iic.r51
#
###############################################################################

C:\Users\admin\Desktop\zstack-2.4.0-1.4.0x\zstack-2.4.0-1.4.0x\Projects\zstack\Samples\GreenHouse-3\Source\iic\iic.c
      1          /*********************************************************************************************
                                                                                                              ^
Warning[Pa050]: non-native end of line sequence detected (this diagnostic is
          only issued once)
      2          * 文件：iic.c
      3          * 作者：zonesion
      4          * 说明：iic驱动程序
      5          * 修改：
      6          * 注释：
      7          *********************************************************************************************/
      8          
      9          /*********************************************************************************************
     10          * 头文件
     11          *********************************************************************************************/
     12          #include <ioCC2530.h>

   \                                 In  segment SFR_AN, at 0x80
   \   union <unnamed> volatile __sfr _A_P0
   \                     _A_P0:
   \   000000                DS 1

   \                                 In  segment SFR_AN, at 0xd0
   \   union <unnamed> volatile __sfr _A_PSW
   \                     _A_PSW:
   \   000000                DS 1

   \                                 In  segment SFR_AN, at 0xf3
   \   unsigned char volatile __sfr P0SEL
   \                     P0SEL:
   \   000000                DS 1

   \                                 In  segment SFR_AN, at 0xfd
   \   unsigned char volatile __sfr P0DIR
   \                     P0DIR:
   \   000000                DS 1
     13          #include <math.h>
     14          #include <stdio.h>
     15          
     16          /*********************************************************************************************
     17          * 宏定义
     18          *********************************************************************************************/
     19          #define    SCL	                P0_7       	                	//IIC时钟引脚定义
     20          #define    SDA	                P0_6       	                	//IIC数据引脚定义
     21          
     22          /*********************************************************************************************
     23          * 名称：iic_delay_us()
     24          * 功能：延时函数
     25          * 参数：i -- 延时设置
     26          * 返回：无
     27          * 修改：
     28          * 注释：
     29          *********************************************************************************************/

   \                                 In  segment BANKED_CODE, align 1, keep-with-next
     30          void  iic_delay_us(unsigned int i)
   \                     iic_delay_us:
     31          {
   \   000000                ; Saved register size: 0
   \   000000                ; Auto size: 0
     32              while(i--)
   \                     ??iic_delay_us_0:
   \   000000   EA           MOV     A,R2
   \   000001   F8           MOV     R0,A
   \   000002   EB           MOV     A,R3
   \   000003   F9           MOV     R1,A
   \   000004   E8           MOV     A,R0
   \   000005   24FF         ADD     A,#-0x1
   \   000007   FA           MOV     R2,A
   \   000008   E9           MOV     A,R1
   \   000009   34FF         ADDC    A,#-0x1
   \   00000B   FB           MOV     R3,A
   \   00000C   E8           MOV     A,R0
   \   00000D   49           ORL     A,R1
   \   00000E   70F0         JNZ     ??iic_delay_us_0
     33              {
     34                  //    asm("nop");asm("nop");asm("nop");asm("nop");asm("nop");
     35              }
     36          }
   \   000010   02....       LJMP    ?BRET
     37          
     38          /*********************************************************************************************
     39          * 名称：iic_init()
     40          * 功能：I2C初始化函数
     41          * 参数：无
     42          * 返回：无
     43          * 修改：
     44          * 注释：
     45          *********************************************************************************************/

   \                                 In  segment BANKED_CODE, align 1, keep-with-next
     46          void iic_init(void)
   \                     iic_init:
     47          {
   \   000000                ; Saved register size: 0
   \   000000                ; Auto size: 0
     48              P0SEL &= ~(1<<6);                                             //设置为普通IO模式
   \   000000   53F3BF       ANL     0xf3,#0xbf
     49              P0DIR |= (1<<6);                                              //设置为输出模式
   \   000003   43FD40       ORL     0xfd,#0x40
     50              P0SEL &= ~(1<<7);                                             //设置为普通IO模式
   \   000006   53F37F       ANL     0xf3,#0x7f
     51              P0DIR |= (1<<7);                                              //设置为输出模式
   \   000009   43FD80       ORL     0xfd,#0x80
     52              SDA = 1;                                                      //拉高数据线
   \   00000C   D286         SETB    0x80.6
     53              //  iic_delay_us(2);                                             //延时10us
     54              SCL = 1;                                                      //拉高时钟线
   \   00000E   D287         SETB    0x80.7
     55              //  iic_delay_us(2);                                             //延时10us
     56          }
   \   000010   02....       LJMP    ?BRET
   \   000013                REQUIRE P0SEL
   \   000013                REQUIRE P0DIR
   \   000013                REQUIRE _A_P0
     57          

   \                                 In  segment BANKED_CODE, align 1, keep-with-next
     58          void SDA_output()
   \                     SDA_output:
     59          {
   \   000000                ; Saved register size: 0
   \   000000                ; Auto size: 0
     60              P0DIR |= (1<<6); 
   \   000000   43FD40       ORL     0xfd,#0x40
     61          }
   \   000003   02....       LJMP    ?BRET
   \   000006                REQUIRE P0DIR
     62          

   \                                 In  segment BANKED_CODE, align 1, keep-with-next
     63          void SDA_input()
   \                     SDA_input:
     64          {
   \   000000                ; Saved register size: 0
   \   000000                ; Auto size: 0
     65              P0DIR &= ~(1<<6); 
   \   000000   53FDBF       ANL     0xfd,#0xbf
     66          }
   \   000003   02....       LJMP    ?BRET
   \   000006                REQUIRE P0DIR
     67          
     68          /*********************************************************************************************
     69          * 名称：iic_start()
     70          * 功能：I2C起始信号
     71          * 参数：无
     72          * 返回：无
     73          * 修改：
     74          * 注释：
     75          *********************************************************************************************/

   \                                 In  segment BANKED_CODE, align 1, keep-with-next
     76          void iic_start(void)
   \                     iic_start:
     77          {
   \   000000   C082         PUSH    DPL
   \   000002   C083         PUSH    DPH
   \   000004                ; Saved register size: 2
   \   000004                ; Auto size: 0
     78              SDA_output();
   \   000004                ; Setup parameters for call to function SDA_output
   \   000004   12....       LCALL   ??SDA_output?relay   ; Banked call to: SDA_output
     79              SDA = 1;                                                      //拉高数据线
   \   000007   D286         SETB    0x80.6
     80              SCL = 1;                                                      //拉高时钟线
   \   000009   D287         SETB    0x80.7
     81              iic_delay_us(2);                                              //延时
   \   00000B                ; Setup parameters for call to function iic_delay_us
   \   00000B   7A02         MOV     R2,#0x2
   \   00000D   7B00         MOV     R3,#0x0
   \   00000F   12....       LCALL   ??iic_delay_us?relay ; Banked call to: iic_delay_us
     82              SDA = 0;                                                      //产生下降沿
   \   000012   C286         CLR     0x80.6
     83              iic_delay_us(2);                                              //延时
   \   000014                ; Setup parameters for call to function iic_delay_us
   \   000014   7A02         MOV     R2,#0x2
   \   000016   7B00         MOV     R3,#0x0
   \   000018   12....       LCALL   ??iic_delay_us?relay ; Banked call to: iic_delay_us
     84              SCL = 0;                                                      //拉低时钟线
   \   00001B   C287         CLR     0x80.7
     85          }
   \   00001D   D083         POP     DPH
   \   00001F   D082         POP     DPL
   \   000021   02....       LJMP    ?BRET
   \   000024                REQUIRE _A_P0
     86          
     87          /*********************************************************************************************
     88          * 名称：iic_stop()
     89          * 功能：I2C停止信号
     90          * 参数：无
     91          * 返回：无
     92          * 修改：
     93          * 注释：
     94          *********************************************************************************************/

   \                                 In  segment BANKED_CODE, align 1, keep-with-next
     95          void iic_stop(void)
   \                     iic_stop:
     96          {
   \   000000   C082         PUSH    DPL
   \   000002   C083         PUSH    DPH
   \   000004                ; Saved register size: 2
   \   000004                ; Auto size: 0
     97              SDA_output();
   \   000004                ; Setup parameters for call to function SDA_output
   \   000004   12....       LCALL   ??SDA_output?relay   ; Banked call to: SDA_output
     98              SDA =0;                                                       //拉低数据线
   \   000007   C286         CLR     0x80.6
     99              SCL =1;                                                       //拉高时钟线
   \   000009   D287         SETB    0x80.7
    100              iic_delay_us(2);                                              //延时5us
   \   00000B                ; Setup parameters for call to function iic_delay_us
   \   00000B   7A02         MOV     R2,#0x2
   \   00000D   7B00         MOV     R3,#0x0
   \   00000F   12....       LCALL   ??iic_delay_us?relay ; Banked call to: iic_delay_us
    101              SDA=1;                                                        //产生上升沿
   \   000012   D286         SETB    0x80.6
    102              iic_delay_us(2);                                              //延时5us
   \   000014                ; Setup parameters for call to function iic_delay_us
   \   000014   7A02         MOV     R2,#0x2
   \   000016   7B00         MOV     R3,#0x0
   \   000018   12....       LCALL   ??iic_delay_us?relay ; Banked call to: iic_delay_us
    103          }
   \   00001B   D083         POP     DPH
   \   00001D   D082         POP     DPL
   \   00001F   02....       LJMP    ?BRET
   \   000022                REQUIRE _A_P0
    104          
    105          /*********************************************************************************************
    106          * 名称：iic_send_ack()
    107          * 功能：I2C发送应答
    108          * 参数：ack -- 应答信号
    109          * 返回：无
    110          * 修改：
    111          * 注释：
    112          *********************************************************************************************/

   \                                 In  segment BANKED_CODE, align 1, keep-with-next
    113          void iic_send_ack(int ack)
   \                     iic_send_ack:
    114          {
   \   000000                ; Saved register size: 0
   \   000000                ; Auto size: 0
    115              SDA = ack;                                                    //写应答信号
   \   000000   EA           MOV     A,R2
   \   000001   F8           MOV     R0,A
   \   000002   EA           MOV     A,R2
   \   000003   A2E0         MOV     C,0xE0 /* A   */.0
   \   000005   9286         MOV     0x80.6,C
    116              SCL = 1;                                                      //拉高时钟线
   \   000007   D287         SETB    0x80.7
    117              //  iic_delay_us(2);                                              //延时
    118              SCL = 0;                                                      //拉低时钟线
   \   000009   C287         CLR     0x80.7
    119              //  iic_delay_us(2);                                              //延时
    120          }
   \   00000B   02....       LJMP    ?BRET
   \   00000E                REQUIRE _A_P0
    121          
    122          /*********************************************************************************************
    123          * 名称：iic_recv_ack()
    124          * 功能：I2C接收应答
    125          * 参数：无
    126          * 返回：无
    127          * 修改：
    128          * 注释：
    129          *********************************************************************************************/

   \                                 In  segment BANKED_CODE, align 1, keep-with-next
    130          int iic_recv_ack(void)
   \                     iic_recv_ack:
    131          {
   \   000000                ; Saved register size: 0
   \   000000                ; Auto size: 0
    132              SCL = 1;                                                      //拉高时钟线
   \   000000   D287         SETB    0x80.7
    133              //  iic_delay_us(2);                                              //延时
    134              CY = SDA;                                                     //读应答信号
   \   000002   A286         MOV     C,0x80.6
   \   000004   E4           CLR     A
   \   000005   33           RLC     A
   \   000006   F8           MOV     R0,A
   \   000007   A286         MOV     C,0x80.6
   \   000009   92D7         MOV     0xd0.7,C
    135              SCL = 0;                                                      //拉低时钟线
   \   00000B   C287         CLR     0x80.7
    136              //  iic_delay_us(2);                                              //延时
    137              return CY;
   \   00000D   A2D7         MOV     C,0xd0.7
   \   00000F   E4           CLR     A
   \   000010   33           RLC     A
   \   000011   FA           MOV     R2,A
   \   000012   7B00         MOV     R3,#0x0
   \   000014   02....       LJMP    ?BRET
   \   000017                REQUIRE _A_P0
   \   000017                REQUIRE _A_PSW
    138          }
    139          
    140          /*********************************************************************************************
    141          * 名称：iic_write_byte()
    142          * 功能：I2C写一个字节数据，返回ACK或者NACK，从高到低，依次发送
    143          * 参数：data -- 要写的数据
    144          * 返回：无
    145          * 修改：
    146          * 注释：
    147          *********************************************************************************************/

   \                                 In  segment BANKED_CODE, align 1, keep-with-next
    148          unsigned char iic_write_byte(unsigned char data)
   \                     iic_write_byte:
    149          {
   \   000000   74F7         MOV     A,#-0x9
   \   000002   12....       LCALL   ?BANKED_ENTER_XDATA
   \   000005                ; Saved register size: 9
   \   000005                ; Auto size: 0
   \   000005   E9           MOV     A,R1
   \   000006   FF           MOV     R7,A
    150              unsigned char i;
    151              SDA_output();
   \   000007                ; Setup parameters for call to function SDA_output
   \   000007   12....       LCALL   ??SDA_output?relay   ; Banked call to: SDA_output
    152              SCL = 0;                                                      //拉低时钟线
   \   00000A   C287         CLR     0x80.7
    153              iic_delay_us(2);                                              //延时2us
   \   00000C                ; Setup parameters for call to function iic_delay_us
   \   00000C   7A02         MOV     R2,#0x2
   \   00000E   7B00         MOV     R3,#0x0
   \   000010   12....       LCALL   ??iic_delay_us?relay ; Banked call to: iic_delay_us
    154              for(i = 0;i < 8;i++){                                         
   \   000013   7E00         MOV     R6,#0x0
   \                     ??iic_write_byte_0:
   \   000015   EE           MOV     A,R6
   \   000016   C3           CLR     C
   \   000017   9408         SUBB    A,#0x8
   \   000019   501D         JNC     ??iic_write_byte_1
    155                  if(data & 0x80){                                            //判断数据最高位是否为1
   \   00001B   EF           MOV     A,R7
   \   00001C   A2E7         MOV     C,0xE0 /* A   */.7
   \   00001E   5004         JNC     ??iic_write_byte_2
    156                      SDA = 1;
   \   000020   D286         SETB    0x80.6
   \   000022   8002         SJMP    ??iic_write_byte_3
    157                      //iic_delay_us(2);                                            //延时5us
    158                  }
    159                  else{
    160                      SDA = 0;
   \                     ??iic_write_byte_2:
   \   000024   C286         CLR     0x80.6
    161                      //iic_delay_us(2);                                            //延时5us
    162                  }
    163                  // iic_delay_us(2);                                            //延时5us
    164                  SCL = 1;	                                                //输出SDA稳定后，拉高SCL给出上升沿，从机检测到后进行数据采样
   \                     ??iic_write_byte_3:
   \   000026   D287         SETB    0x80.7
    165                  iic_delay_us(2);                                            //延时5us
   \   000028                ; Setup parameters for call to function iic_delay_us
   \   000028   7A02         MOV     R2,#0x2
   \   00002A   7B00         MOV     R3,#0x0
   \   00002C   12....       LCALL   ??iic_delay_us?relay ; Banked call to: iic_delay_us
    166                  SCL = 0;                                                    //拉低时钟线
   \   00002F   C287         CLR     0x80.7
    167                  //iic_delay_us(2);                                            //延时5us
    168                  data <<= 1;                                                 //数组左移一位
   \   000031   EF           MOV     A,R7
   \   000032   C3           CLR     C
   \   000033   33           RLC     A
   \   000034   FF           MOV     R7,A
    169              } 
   \   000035   0E           INC     R6
   \   000036   80DD         SJMP    ??iic_write_byte_0
    170              //iic_delay_us(2);                                              //延时2us
    171              SDA = 1;                                                      //拉高数据线
   \                     ??iic_write_byte_1:
   \   000038   D286         SETB    0x80.6
    172              //iic_delay_us(2);                                              //延时2us
    173              SCL = 1;                                                      //拉高时钟线
   \   00003A   D287         SETB    0x80.7
    174              SDA_input();
   \   00003C                ; Setup parameters for call to function SDA_input
   \   00003C   12....       LCALL   ??SDA_input?relay    ; Banked call to: SDA_input
    175              //iic_delay_us(2);                                              //延时2us，等待从机应答
    176              if(SDA == 1){			                                //SDA为高，收到NACK
   \   00003F   A286         MOV     C,0x80.6
   \   000041   5004         JNC     ??iic_write_byte_4
    177                  return 1;	
   \   000043   7901         MOV     R1,#0x1
   \   000045   8004         SJMP    ??iic_write_byte_5
    178              }else{ 				                        //SDA为低，收到ACK
    179                  SCL = 0;
   \                     ??iic_write_byte_4:
   \   000047   C287         CLR     0x80.7
    180                  //iic_delay_us(2);
    181                  return 0;
   \   000049   7900         MOV     R1,#0x0
   \                     ??iic_write_byte_5:
   \   00004B   7F01         MOV     R7,#0x1
   \   00004D   02....       LJMP    ?BANKED_LEAVE_XDATA
   \   000050                REQUIRE _A_P0
    182              }
    183          }
    184          
    185          /*********************************************************************************************
    186          * 名称：iic_read_byte()
    187          * 功能：I2C写一个字节数据，返回ACK或者NACK，从高到低，依次发送
    188          * 参数：data -- 要写的数据
    189          * 返回：无
    190          * 修改：
    191          * 注释：
    192          *********************************************************************************************/

   \                                 In  segment BANKED_CODE, align 1, keep-with-next
    193          unsigned char iic_read_byte(unsigned char ack)
   \                     iic_read_byte:
    194          {
   \   000000                REQUIRE ?V0
   \   000000   74F7         MOV     A,#-0x9
   \   000002   12....       LCALL   ?BANKED_ENTER_XDATA
   \   000005                ; Saved register size: 9
   \   000005                ; Auto size: 0
   \   000005   89..         MOV     ?V0,R1
    195              unsigned char i,data = 0;
   \   000007   7E00         MOV     R6,#0x0
    196              SDA_output();
   \   000009                ; Setup parameters for call to function SDA_output
   \   000009   12....       LCALL   ??SDA_output?relay   ; Banked call to: SDA_output
    197              SCL = 0;
   \   00000C   C287         CLR     0x80.7
    198              SDA = 1;			                                //释放总线	
   \   00000E   D286         SETB    0x80.6
    199              SDA_input();
   \   000010                ; Setup parameters for call to function SDA_input
   \   000010   12....       LCALL   ??SDA_input?relay    ; Banked call to: SDA_input
    200              for(i = 0;i < 8;i++){
   \   000013   7F00         MOV     R7,#0x0
   \                     ??iic_read_byte_0:
   \   000015   EF           MOV     A,R7
   \   000016   C3           CLR     C
   \   000017   9408         SUBB    A,#0x8
   \   000019   5022         JNC     ??iic_read_byte_1
    201                  SCL = 0;		                                        //给出上升沿
   \   00001B   C287         CLR     0x80.7
    202                  //    iic_delay_us(2);	                                        //延时等待信号稳定
    203                  SCL = 1;		                                        //给出上升沿
   \   00001D   D287         SETB    0x80.7
    204                  //    iic_delay_us(2);	                                        //延时等待信号稳定
    205                  data <<= 1;	
   \   00001F   EE           MOV     A,R6
   \   000020   C3           CLR     C
   \   000021   33           RLC     A
   \   000022   FE           MOV     R6,A
    206                  if(SDA == 1){ 		                                //采样获取数据
   \   000023   A286         MOV     C,0x80.6
   \   000025   5007         JNC     ??iic_read_byte_2
    207                      data |= 0x01;
   \   000027   D3           SETB    C
   \   000028   EE           MOV     A,R6
   \   000029   92E0         MOV     0xE0 /* A   */.0,C
   \   00002B   FE           MOV     R6,A
   \   00002C   8005         SJMP    ??iic_read_byte_3
    208                  }else{
    209                      data &= 0xfe;
   \                     ??iic_read_byte_2:
   \   00002E   C3           CLR     C
   \   00002F   EE           MOV     A,R6
   \   000030   92E0         MOV     0xE0 /* A   */.0,C
   \   000032   FE           MOV     R6,A
    210                  }
    211                  iic_delay_us(2);
   \                     ??iic_read_byte_3:
   \   000033                ; Setup parameters for call to function iic_delay_us
   \   000033   7A02         MOV     R2,#0x2
   \   000035   7B00         MOV     R3,#0x0
   \   000037   12....       LCALL   ??iic_delay_us?relay ; Banked call to: iic_delay_us
    212              }   
   \   00003A   0F           INC     R7
   \   00003B   80D8         SJMP    ??iic_read_byte_0
    213              SDA_output();
   \                     ??iic_read_byte_1:
   \   00003D                ; Setup parameters for call to function SDA_output
   \   00003D   12....       LCALL   ??SDA_output?relay   ; Banked call to: SDA_output
    214              SDA = ack;	                                                //应答状态
   \   000040   A8..         MOV     R0,?V0
   \   000042   E5..         MOV     A,?V0
   \   000044   A2E0         MOV     C,0xE0 /* A   */.0
   \   000046   9286         MOV     0x80.6,C
    215              //  iic_delay_us(2);
    216              SCL = 1;                         
   \   000048   D287         SETB    0x80.7
    217              //  iic_delay_us(2);          
    218              SCL = 0;
   \   00004A   C287         CLR     0x80.7
    219              //  iic_delay_us(2);
    220              return data;
   \   00004C   EE           MOV     A,R6
   \   00004D   F9           MOV     R1,A
   \   00004E   7F01         MOV     R7,#0x1
   \   000050   02....       LJMP    ?BANKED_LEAVE_XDATA
   \   000053                REQUIRE _A_P0
    221          }
    222          
    223          /*********************************************************************************************
    224          * 名称：delay()
    225          * 功能：延时
    226          * 参数：t -- 设置时间
    227          * 返回：无
    228          * 修改：
    229          * 注释：
    230          *********************************************************************************************/

   \                                 In  segment BANKED_CODE, align 1, keep-with-next
    231          void delay(unsigned int t)
   \                     delay:
    232          {
   \   000000                ; Saved register size: 0
   \   000000                ; Auto size: 0
    233              unsigned char i;
    234              while(t--){
   \                     ??delay_0:
   \   000000   EA           MOV     A,R2
   \   000001   F8           MOV     R0,A
   \   000002   EB           MOV     A,R3
   \   000003   F9           MOV     R1,A
   \   000004   E8           MOV     A,R0
   \   000005   24FF         ADD     A,#-0x1
   \   000007   FA           MOV     R2,A
   \   000008   E9           MOV     A,R1
   \   000009   34FF         ADDC    A,#-0x1
   \   00000B   FB           MOV     R3,A
   \   00000C   E8           MOV     A,R0
   \   00000D   49           ORL     A,R1
   \   00000E   600B         JZ      ??delay_1
    235                  for(i = 0;i < 200;i++);
   \   000010   7C00         MOV     R4,#0x0
   \                     ??delay_2:
   \   000012   EC           MOV     A,R4
   \   000013   C3           CLR     C
   \   000014   94C8         SUBB    A,#-0x38
   \   000016   50E8         JNC     ??delay_0
   \   000018   0C           INC     R4
   \   000019   80F7         SJMP    ??delay_2
    236              }					   
    237          }
   \                     ??delay_1:
   \   00001B   02....       LJMP    ?BRET

   \                                 In  segment BANK_RELAYS, align 1
   \                     ??iic_delay_us?relay:
   \   000000   12....       LCALL   ?BDISPATCH
   \   000003   ......       DC24    iic_delay_us

   \                                 In  segment BANK_RELAYS, align 1
   \                     ??iic_init?relay:
   \   000000   12....       LCALL   ?BDISPATCH
   \   000003   ......       DC24    iic_init

   \                                 In  segment BANK_RELAYS, align 1
   \                     ??SDA_output?relay:
   \   000000   12....       LCALL   ?BDISPATCH
   \   000003   ......       DC24    SDA_output

   \                                 In  segment BANK_RELAYS, align 1
   \                     ??SDA_input?relay:
   \   000000   12....       LCALL   ?BDISPATCH
   \   000003   ......       DC24    SDA_input

   \                                 In  segment BANK_RELAYS, align 1
   \                     ??iic_start?relay:
   \   000000   12....       LCALL   ?BDISPATCH
   \   000003   ......       DC24    iic_start

   \                                 In  segment BANK_RELAYS, align 1
   \                     ??iic_stop?relay:
   \   000000   12....       LCALL   ?BDISPATCH
   \   000003   ......       DC24    iic_stop

   \                                 In  segment BANK_RELAYS, align 1
   \                     ??iic_send_ack?relay:
   \   000000   12....       LCALL   ?BDISPATCH
   \   000003   ......       DC24    iic_send_ack

   \                                 In  segment BANK_RELAYS, align 1
   \                     ??iic_recv_ack?relay:
   \   000000   12....       LCALL   ?BDISPATCH
   \   000003   ......       DC24    iic_recv_ack

   \                                 In  segment BANK_RELAYS, align 1
   \                     ??iic_write_byte?relay:
   \   000000   12....       LCALL   ?BDISPATCH
   \   000003   ......       DC24    iic_write_byte

   \                                 In  segment BANK_RELAYS, align 1
   \                     ??iic_read_byte?relay:
   \   000000   12....       LCALL   ?BDISPATCH
   \   000003   ......       DC24    iic_read_byte

   \                                 In  segment BANK_RELAYS, align 1
   \                     ??delay?relay:
   \   000000   12....       LCALL   ?BDISPATCH
   \   000003   ......       DC24    delay

   Maximum stack usage in bytes:

   ISTACK XSTACK Function
   ------ ------ --------
      0      9   SDA_input
      0      9   SDA_output
      0      0   delay
      0      9   iic_delay_us
      0      0   iic_init
      0      9   iic_read_byte
        0      9   -> SDA_input
        0      9   -> SDA_output
        0      9   -> iic_delay_us
      0      0   iic_recv_ack
      0      0   iic_send_ack
      2      0   iic_start
        2      0   -> SDA_output
        2      0   -> iic_delay_us
      2      0   iic_stop
        2      0   -> SDA_output
        2      0   -> iic_delay_us
      0      9   iic_write_byte
        0      9   -> SDA_input
        0      9   -> SDA_output
        0      9   -> iic_delay_us


   Segment part sizes:

   Bytes  Function/Label
   -----  --------------
       6  ??SDA_input?relay
       6  ??SDA_output?relay
       6  ??delay?relay
       6  ??iic_delay_us?relay
       6  ??iic_init?relay
       6  ??iic_read_byte?relay
       6  ??iic_recv_ack?relay
       6  ??iic_send_ack?relay
       6  ??iic_start?relay
       6  ??iic_stop?relay
       6  ??iic_write_byte?relay
       1  P0DIR
       1  P0SEL
       6  SDA_input
       6  SDA_output
       1  _A_P0
       1  _A_PSW
      30  delay
      19  iic_delay_us
      19  iic_init
      83  iic_read_byte
      23  iic_recv_ack
      14  iic_send_ack
      36  iic_start
      34  iic_stop
      80  iic_write_byte

 
 350 bytes in segment BANKED_CODE
  66 bytes in segment BANK_RELAYS
   4 bytes in segment SFR_AN
 
 416 bytes of CODE memory
   0 bytes of DATA memory (+ 4 bytes shared)

Errors: none
Warnings: 1
