###############################################################################
#
# IAR C/C++ Compiler V9.10.1.2146 for 8051                24/Nov/2020  16:50:51
# Copyright 2004-2014 IAR Systems AB.
# Standalone license - IAR Embedded Workbench for 8051
#
#    Core               =  plain
#    Code model         =  banked
#    Data model         =  large
#    Calling convention =  xdata reentrant
#    Constant location  =  data_rom
#    Dptr setup         =  1,16
#                          
#    Source file        =  
#        C:\Users\admin\Desktop\zstack-2.4.0-1.4.0x\zstack-2.4.0-1.4.0x\Projects\zstack\Samples\GreenHouse-1\Source\iic.c
#    Command line       =  
#        -f
#        C:\Users\admin\Desktop\zstack-2.4.0-1.4.0x\zstack-2.4.0-1.4.0x\Projects\zstack\Samples\GreenHouse-1\CC2530DB\..\..\..\Tools\CC2530DB\f8wRouter.cfg
#        (-DCPU32MHZ -DROOT=__near_func -DMAC_CFG_APP_PENDING_QUEUE=TRUE
#        -DMAC_CFG_TX_DATA_MAX=5 -DMAC_CFG_TX_MAX=8 -DMAC_CFG_RX_MAX=5
#        -DRTR_NWK) -f
#        C:\Users\admin\Desktop\zstack-2.4.0-1.4.0x\zstack-2.4.0-1.4.0x\Projects\zstack\Samples\GreenHouse-1\CC2530DB\..\..\..\Tools\CC2530DB\f8wConfig.cfg
#        (-DZIGBEEPRO -DSECURE=0 -DZG_SECURE_DYNAMIC=0 -DREFLECTOR
#        -DDEFAULT_CHANLIST=0x00000800 -DZDAPP_CONFIG_PAN_ID=0x2002
#        -DNWK_START_DELAY=100 -DEXTENDED_JOINING_RANDOM_MASK=0x007F
#        -DBEACON_REQUEST_DELAY=100 -DBEACON_REQ_DELAY_MASK=0x00FF
#        -DLINK_STATUS_JITTER_MASK=0x007F -DROUTE_EXPIRY_TIME=30
#        -DAPSC_ACK_WAIT_DURATION_POLLED=3000 -DNWK_INDIRECT_MSG_TIMEOUT=7
#        -DMAX_RREQ_ENTRIES=8 -DAPSC_MAX_FRAME_RETRIES=3
#        -DNWK_MAX_DATA_RETRIES=2 -DMAX_POLL_FAILURE_RETRIES=2 -DMAX_BCAST=9
#        -DAPS_MAX_GROUPS=16 -DMAX_RTG_ENTRIES=40 -DNWK_MAX_BINDING_ENTRIES=4
#        -DMAX_BINDING_CLUSTER_IDS=4 "-DDEFAULT_KEY={0x01, 0x03, 0x05, 0x07,
#        0x09, 0x0B, 0x0D, 0x0F, 0x00, 0x02, 0x04, 0x06, 0x08, 0x0A, 0x0C,
#        0x0D}" -DMAC_MAX_FRAME_SIZE=116 -DZDNWKMGR_MIN_TRANSMISSIONS=20
#        "-DCONST=const __code" -DGENERIC=__generic -DRFD_RCVC_ALWAYS_ON=TRUE
#        -DPOLL_RATE=1000 -DQUEUED_POLL_RATE=100 -DRESPONSE_POLL_RATE=100)
#        -DREJOIN_POLL_RATE=440
#        C:\Users\admin\Desktop\zstack-2.4.0-1.4.0x\zstack-2.4.0-1.4.0x\Projects\zstack\Samples\GreenHouse-1\Source\iic.c
#        -D HOLD_AUTO_START -D BUILD_ALL_DEVICES -D REFLECTOR -D NV_INIT -D
#        XLAB -D GreenHouse -lC
#        C:\Users\admin\Desktop\zstack-2.4.0-1.4.0x\zstack-2.4.0-1.4.0x\Projects\zstack\Samples\GreenHouse-1\CC2530DB\GreenHouse-1\List\
#        -lA
#        C:\Users\admin\Desktop\zstack-2.4.0-1.4.0x\zstack-2.4.0-1.4.0x\Projects\zstack\Samples\GreenHouse-1\CC2530DB\GreenHouse-1\List\
#        --diag_suppress Pe001,Pa010 -o
#        C:\Users\admin\Desktop\zstack-2.4.0-1.4.0x\zstack-2.4.0-1.4.0x\Projects\zstack\Samples\GreenHouse-1\CC2530DB\GreenHouse-1\Obj\
#        -e --no_cse --no_unroll --no_inline --no_code_motion --no_tbaa --debug
#        --core=plain --dptr=16,1 --data_model=large --code_model=banked
#        --calling_convention=xdata_reentrant --place_constants=data_rom
#        --nr_virtual_regs 8 -I
#        C:\Users\admin\Desktop\zstack-2.4.0-1.4.0x\zstack-2.4.0-1.4.0x\Projects\zstack\Samples\GreenHouse-1\CC2530DB\
#        -I
#        C:\Users\admin\Desktop\zstack-2.4.0-1.4.0x\zstack-2.4.0-1.4.0x\Projects\zstack\Samples\GreenHouse-1\CC2530DB\..\Source\
#        -I
#        C:\Users\admin\Desktop\zstack-2.4.0-1.4.0x\zstack-2.4.0-1.4.0x\Projects\zstack\Samples\GreenHouse-1\CC2530DB\..\..\common\
#        -I
#        C:\Users\admin\Desktop\zstack-2.4.0-1.4.0x\zstack-2.4.0-1.4.0x\Projects\zstack\Samples\GreenHouse-1\CC2530DB\..\..\..\ZMain\TI2530DB\
#        -I
#        C:\Users\admin\Desktop\zstack-2.4.0-1.4.0x\zstack-2.4.0-1.4.0x\Projects\zstack\Samples\GreenHouse-1\CC2530DB\..\..\..\..\..\Components\hal\include\
#        -I
#        C:\Users\admin\Desktop\zstack-2.4.0-1.4.0x\zstack-2.4.0-1.4.0x\Projects\zstack\Samples\GreenHouse-1\CC2530DB\..\..\..\..\..\Components\hal\target\CC2530EB\
#        -I
#        C:\Users\admin\Desktop\zstack-2.4.0-1.4.0x\zstack-2.4.0-1.4.0x\Projects\zstack\Samples\GreenHouse-1\CC2530DB\..\..\..\..\..\Components\mac\include\
#        -I
#        C:\Users\admin\Desktop\zstack-2.4.0-1.4.0x\zstack-2.4.0-1.4.0x\Projects\zstack\Samples\GreenHouse-1\CC2530DB\..\..\..\..\..\Components\mac\high_level\
#        -I
#        C:\Users\admin\Desktop\zstack-2.4.0-1.4.0x\zstack-2.4.0-1.4.0x\Projects\zstack\Samples\GreenHouse-1\CC2530DB\..\..\..\..\..\Components\mac\low_level\srf04\
#        -I
#        C:\Users\admin\Desktop\zstack-2.4.0-1.4.0x\zstack-2.4.0-1.4.0x\Projects\zstack\Samples\GreenHouse-1\CC2530DB\..\..\..\..\..\Components\mac\low_level\srf04\single_chip\
#        -I
#        C:\Users\admin\Desktop\zstack-2.4.0-1.4.0x\zstack-2.4.0-1.4.0x\Projects\zstack\Samples\GreenHouse-1\CC2530DB\..\..\..\..\..\Components\mt\
#        -I
#        C:\Users\admin\Desktop\zstack-2.4.0-1.4.0x\zstack-2.4.0-1.4.0x\Projects\zstack\Samples\GreenHouse-1\CC2530DB\..\..\..\..\..\Components\osal\include\
#        -I
#        C:\Users\admin\Desktop\zstack-2.4.0-1.4.0x\zstack-2.4.0-1.4.0x\Projects\zstack\Samples\GreenHouse-1\CC2530DB\..\..\..\..\..\Components\osal\mcu\ccsoc\
#        -I
#        C:\Users\admin\Desktop\zstack-2.4.0-1.4.0x\zstack-2.4.0-1.4.0x\Projects\zstack\Samples\GreenHouse-1\CC2530DB\..\..\..\..\..\Components\services\saddr\
#        -I
#        C:\Users\admin\Desktop\zstack-2.4.0-1.4.0x\zstack-2.4.0-1.4.0x\Projects\zstack\Samples\GreenHouse-1\CC2530DB\..\..\..\..\..\Components\services\sdata\
#        -I
#        C:\Users\admin\Desktop\zstack-2.4.0-1.4.0x\zstack-2.4.0-1.4.0x\Projects\zstack\Samples\GreenHouse-1\CC2530DB\..\..\..\..\..\Components\stack\af\
#        -I
#        C:\Users\admin\Desktop\zstack-2.4.0-1.4.0x\zstack-2.4.0-1.4.0x\Projects\zstack\Samples\GreenHouse-1\CC2530DB\..\..\..\..\..\Components\stack\nwk\
#        -I
#        C:\Users\admin\Desktop\zstack-2.4.0-1.4.0x\zstack-2.4.0-1.4.0x\Projects\zstack\Samples\GreenHouse-1\CC2530DB\..\..\..\..\..\Components\stack\sapi\
#        -I
#        C:\Users\admin\Desktop\zstack-2.4.0-1.4.0x\zstack-2.4.0-1.4.0x\Projects\zstack\Samples\GreenHouse-1\CC2530DB\..\..\..\..\..\Components\stack\sec\
#        -I
#        C:\Users\admin\Desktop\zstack-2.4.0-1.4.0x\zstack-2.4.0-1.4.0x\Projects\zstack\Samples\GreenHouse-1\CC2530DB\..\..\..\..\..\Components\stack\sys\
#        -I
#        C:\Users\admin\Desktop\zstack-2.4.0-1.4.0x\zstack-2.4.0-1.4.0x\Projects\zstack\Samples\GreenHouse-1\CC2530DB\..\..\..\..\..\Components\stack\zdo\
#        -I
#        C:\Users\admin\Desktop\zstack-2.4.0-1.4.0x\zstack-2.4.0-1.4.0x\Projects\zstack\Samples\GreenHouse-1\CC2530DB\..\..\..\..\..\Components\zmac\
#        -I
#        C:\Users\admin\Desktop\zstack-2.4.0-1.4.0x\zstack-2.4.0-1.4.0x\Projects\zstack\Samples\GreenHouse-1\CC2530DB\..\..\..\..\..\Components\zmac\f8w\
#        -On
#    List file          =  
#        C:\Users\admin\Desktop\zstack-2.4.0-1.4.0x\zstack-2.4.0-1.4.0x\Projects\zstack\Samples\GreenHouse-1\CC2530DB\GreenHouse-1\List\iic.lst
#    Object file        =  
#        C:\Users\admin\Desktop\zstack-2.4.0-1.4.0x\zstack-2.4.0-1.4.0x\Projects\zstack\Samples\GreenHouse-1\CC2530DB\GreenHouse-1\Obj\iic.r51
#
###############################################################################

C:\Users\admin\Desktop\zstack-2.4.0-1.4.0x\zstack-2.4.0-1.4.0x\Projects\zstack\Samples\GreenHouse-1\Source\iic.c
      1          /*********************************************************************************************
                                                                                                              ^
Warning[Pa050]: non-native end of line sequence detected (this diagnostic is
          only issued once)
      2          * 文件：iic.c
      3          * 作者：zonesion
      4          * 说明：iic驱动程序
      5          * 修改：
      6          * 注释：
      7          *********************************************************************************************/
      8          
      9          /*********************************************************************************************
     10          * 头文件
     11          *********************************************************************************************/
     12          #include <ioCC2530.h>

   \                                 In  segment SFR_AN, at 0x80
   \   union <unnamed> volatile __sfr _A_P0
   \                     _A_P0:
   \   000000                DS 1

   \                                 In  segment SFR_AN, at 0xd0
   \   union <unnamed> volatile __sfr _A_PSW
   \                     _A_PSW:
   \   000000                DS 1

   \                                 In  segment SFR_AN, at 0xf3
   \   unsigned char volatile __sfr P0SEL
   \                     P0SEL:
   \   000000                DS 1

   \                                 In  segment SFR_AN, at 0xfd
   \   unsigned char volatile __sfr P0DIR
   \                     P0DIR:
   \   000000                DS 1
     13          #include <math.h>
     14          #include <stdio.h>
     15          
     16          /*********************************************************************************************
     17          * 宏定义
     18          *********************************************************************************************/
     19          #define    SCL	                P0_7                            //IIC时钟引脚定义
     20          #define    SDA	                P0_6                            //IIC数据引脚定义
     21          
     22          /*********************************************************************************************
     23          * 名称：iic_delay_us()
     24          * 功能：延时函数
     25          * 参数：i -- 延时设置
     26          * 返回：无
     27          * 修改：
     28          * 注释：
     29          *********************************************************************************************/

   \                                 In  segment BANKED_CODE, align 1, keep-with-next
     30          void  iic_delay_us(unsigned int i)
   \                     iic_delay_us:
     31          {
   \   000000                ; Saved register size: 0
   \   000000                ; Auto size: 0
     32            while(i--){
   \                     ??iic_delay_us_0:
   \   000000   EA           MOV     A,R2
   \   000001   F8           MOV     R0,A
   \   000002   EB           MOV     A,R3
   \   000003   F9           MOV     R1,A
   \   000004   E8           MOV     A,R0
   \   000005   24FF         ADD     A,#-0x1
   \   000007   FA           MOV     R2,A
   \   000008   E9           MOV     A,R1
   \   000009   34FF         ADDC    A,#-0x1
   \   00000B   FB           MOV     R3,A
   \   00000C   E8           MOV     A,R0
   \   00000D   49           ORL     A,R1
   \   00000E   600D         JZ      ??iic_delay_us_1
     33              asm("nop"); asm("nop"); asm("nop"); asm("nop"); asm("nop");
   \   000010   00           nop
   \   000011   00           nop
   \   000012   00           nop
   \   000013   00           nop
   \   000014   00           nop
     34              asm("nop"); asm("nop"); asm("nop"); asm("nop"); asm("nop");
   \   000015   00           nop
   \   000016   00           nop
   \   000017   00           nop
   \   000018   00           nop
   \   000019   00           nop
     35              asm("nop"); 
   \   00001A   00           nop
   \   00001B   80E3         SJMP    ??iic_delay_us_0
     36            }
     37          }
   \                     ??iic_delay_us_1:
   \   00001D   02....       LJMP    ?BRET
     38          
     39          /*********************************************************************************************
     40          * 名称：iic_init()
     41          * 功能：I2C初始化函数
     42          * 参数：无
     43          * 返回：无
     44          * 修改：
     45          * 注释：
     46          *********************************************************************************************/

   \                                 In  segment BANKED_CODE, align 1, keep-with-next
     47          void iic_init(void)
   \                     iic_init:
     48          {
   \   000000   C082         PUSH    DPL
   \   000002   C083         PUSH    DPH
   \   000004                ; Saved register size: 2
   \   000004                ; Auto size: 0
     49            P0SEL &= ~(1<<6);                                               //设置为普通IO模式
   \   000004   53F3BF       ANL     0xf3,#0xbf
     50            P0DIR |= (1<<6);                                                //设置为输出模式
   \   000007   43FD40       ORL     0xfd,#0x40
     51            P0SEL &= ~(1<<7);                                               //设置为普通IO模式
   \   00000A   53F37F       ANL     0xf3,#0x7f
     52            P0DIR |= (1<<7);                                                //设置为输出模式
   \   00000D   43FD80       ORL     0xfd,#0x80
     53            SDA = 1;                                                      //拉高数据线
   \   000010   D286         SETB    0x80.6
     54            iic_delay_us(10);                                             //延时10us
   \   000012                ; Setup parameters for call to function iic_delay_us
   \   000012   7A0A         MOV     R2,#0xa
   \   000014   7B00         MOV     R3,#0x0
   \   000016   12....       LCALL   ??iic_delay_us?relay ; Banked call to: iic_delay_us
     55            SCL = 1;                                                      //拉高时钟线
   \   000019   D287         SETB    0x80.7
     56            iic_delay_us(10);                                             //延时10us
   \   00001B                ; Setup parameters for call to function iic_delay_us
   \   00001B   7A0A         MOV     R2,#0xa
   \   00001D   7B00         MOV     R3,#0x0
   \   00001F   12....       LCALL   ??iic_delay_us?relay ; Banked call to: iic_delay_us
     57          }
   \   000022   D083         POP     DPH
   \   000024   D082         POP     DPL
   \   000026   02....       LJMP    ?BRET
   \   000029                REQUIRE P0SEL
   \   000029                REQUIRE P0DIR
   \   000029                REQUIRE _A_P0
     58          
     59          /*********************************************************************************************
     60          * 名称：iic_start()
     61          * 功能：I2C起始信号
     62          * 参数：无
     63          * 返回：无
     64          * 修改：
     65          * 注释：
     66          *********************************************************************************************/

   \                                 In  segment BANKED_CODE, align 1, keep-with-next
     67          void iic_start(void)
   \                     iic_start:
     68          {
   \   000000   C082         PUSH    DPL
   \   000002   C083         PUSH    DPH
   \   000004                ; Saved register size: 2
   \   000004                ; Auto size: 0
     69            SDA = 1;                                                      //拉高数据线
   \   000004   D286         SETB    0x80.6
     70            SCL = 1;                                                      //拉高时钟线
   \   000006   D287         SETB    0x80.7
     71            iic_delay_us(5);                                              //延时
   \   000008                ; Setup parameters for call to function iic_delay_us
   \   000008   7A05         MOV     R2,#0x5
   \   00000A   7B00         MOV     R3,#0x0
   \   00000C   12....       LCALL   ??iic_delay_us?relay ; Banked call to: iic_delay_us
     72            SDA = 0;                                                      //产生下降沿
   \   00000F   C286         CLR     0x80.6
     73            iic_delay_us(5);                                              //延时
   \   000011                ; Setup parameters for call to function iic_delay_us
   \   000011   7A05         MOV     R2,#0x5
   \   000013   7B00         MOV     R3,#0x0
   \   000015   12....       LCALL   ??iic_delay_us?relay ; Banked call to: iic_delay_us
     74            SCL = 0;                                                      //拉低时钟线
   \   000018   C287         CLR     0x80.7
     75          }
   \   00001A   D083         POP     DPH
   \   00001C   D082         POP     DPL
   \   00001E   02....       LJMP    ?BRET
   \   000021                REQUIRE _A_P0
     76          
     77          /*********************************************************************************************
     78          * 名称：iic_stop()
     79          * 功能：I2C停止信号
     80          * 参数：无
     81          * 返回：无
     82          * 修改：
     83          * 注释：
     84          *********************************************************************************************/

   \                                 In  segment BANKED_CODE, align 1, keep-with-next
     85          void iic_stop(void)
   \                     iic_stop:
     86          {
   \   000000   C082         PUSH    DPL
   \   000002   C083         PUSH    DPH
   \   000004                ; Saved register size: 2
   \   000004                ; Auto size: 0
     87            SDA =0;                                                       //拉低数据线
   \   000004   C286         CLR     0x80.6
     88            SCL =1;                                                       //拉高时钟线
   \   000006   D287         SETB    0x80.7
     89            iic_delay_us(5);                                              //延时5us
   \   000008                ; Setup parameters for call to function iic_delay_us
   \   000008   7A05         MOV     R2,#0x5
   \   00000A   7B00         MOV     R3,#0x0
   \   00000C   12....       LCALL   ??iic_delay_us?relay ; Banked call to: iic_delay_us
     90            SDA=1;                                                        //产生上升沿
   \   00000F   D286         SETB    0x80.6
     91            iic_delay_us(5);                                              //延时5us
   \   000011                ; Setup parameters for call to function iic_delay_us
   \   000011   7A05         MOV     R2,#0x5
   \   000013   7B00         MOV     R3,#0x0
   \   000015   12....       LCALL   ??iic_delay_us?relay ; Banked call to: iic_delay_us
     92          }
   \   000018   D083         POP     DPH
   \   00001A   D082         POP     DPL
   \   00001C   02....       LJMP    ?BRET
   \   00001F                REQUIRE _A_P0
     93          
     94          /*********************************************************************************************
     95          * 名称：iic_send_ack()
     96          * 功能：I2C发送应答
     97          * 参数：ack -- 应答信号
     98          * 返回：无
     99          * 修改：
    100          * 注释：
    101          *********************************************************************************************/

   \                                 In  segment BANKED_CODE, align 1, keep-with-next
    102          void iic_send_ack(int ack)
   \                     iic_send_ack:
    103          {
   \   000000                REQUIRE ?V0
   \   000000   74F7         MOV     A,#-0x9
   \   000002   12....       LCALL   ?BANKED_ENTER_XDATA
   \   000005                ; Saved register size: 9
   \   000005                ; Auto size: 0
   \   000005   EA           MOV     A,R2
   \   000006   FE           MOV     R6,A
   \   000007   EB           MOV     A,R3
   \   000008   FF           MOV     R7,A
    104            SDA = ack;                                                    //写应答信号
   \   000009   EE           MOV     A,R6
   \   00000A   F5..         MOV     ?V0,A
   \   00000C   EE           MOV     A,R6
   \   00000D   A2E0         MOV     C,0xE0 /* A   */.0
   \   00000F   9286         MOV     0x80.6,C
    105            SCL = 1;                                                      //拉高时钟线
   \   000011   D287         SETB    0x80.7
    106            iic_delay_us(5);                                              //延时
   \   000013                ; Setup parameters for call to function iic_delay_us
   \   000013   7A05         MOV     R2,#0x5
   \   000015   7B00         MOV     R3,#0x0
   \   000017   12....       LCALL   ??iic_delay_us?relay ; Banked call to: iic_delay_us
    107            SCL = 0;                                                      //拉低时钟线
   \   00001A   C287         CLR     0x80.7
    108            iic_delay_us(5);                                              //延时
   \   00001C                ; Setup parameters for call to function iic_delay_us
   \   00001C   7A05         MOV     R2,#0x5
   \   00001E   7B00         MOV     R3,#0x0
   \   000020   12....       LCALL   ??iic_delay_us?relay ; Banked call to: iic_delay_us
    109          }
   \   000023   7F01         MOV     R7,#0x1
   \   000025   02....       LJMP    ?BANKED_LEAVE_XDATA
   \   000028                REQUIRE _A_P0
    110          
    111          /*********************************************************************************************
    112          * 名称：iic_recv_ack()
    113          * 功能：I2C接收应答
    114          * 参数：无
    115          * 返回：无
    116          * 修改：
    117          * 注释：
    118          *********************************************************************************************/

   \                                 In  segment BANKED_CODE, align 1, keep-with-next
    119          int iic_recv_ack(void)
   \                     iic_recv_ack:
    120          {
   \   000000   74F7         MOV     A,#-0x9
   \   000002   12....       LCALL   ?BANKED_ENTER_XDATA
   \   000005                ; Saved register size: 9
   \   000005                ; Auto size: 0
    121            SCL = 1;                                                      //拉高时钟线
   \   000005   D287         SETB    0x80.7
    122            iic_delay_us(5);                                              //延时
   \   000007                ; Setup parameters for call to function iic_delay_us
   \   000007   7A05         MOV     R2,#0x5
   \   000009   7B00         MOV     R3,#0x0
   \   00000B   12....       LCALL   ??iic_delay_us?relay ; Banked call to: iic_delay_us
    123            CY = SDA;                                                     //读应答信号
   \   00000E   A286         MOV     C,0x80.6
   \   000010   E4           CLR     A
   \   000011   33           RLC     A
   \   000012   FE           MOV     R6,A
   \   000013   A286         MOV     C,0x80.6
   \   000015   92D7         MOV     0xd0.7,C
    124            SCL = 0;                                                      //拉低时钟线
   \   000017   C287         CLR     0x80.7
    125            iic_delay_us(5);                                              //延时
   \   000019                ; Setup parameters for call to function iic_delay_us
   \   000019   7A05         MOV     R2,#0x5
   \   00001B   7B00         MOV     R3,#0x0
   \   00001D   12....       LCALL   ??iic_delay_us?relay ; Banked call to: iic_delay_us
    126            return CY;
   \   000020   A2D7         MOV     C,0xd0.7
   \   000022   E4           CLR     A
   \   000023   33           RLC     A
   \   000024   FA           MOV     R2,A
   \   000025   7B00         MOV     R3,#0x0
   \   000027   7F01         MOV     R7,#0x1
   \   000029   02....       LJMP    ?BANKED_LEAVE_XDATA
   \   00002C                REQUIRE _A_P0
   \   00002C                REQUIRE _A_PSW
    127          }
    128          
    129          /*********************************************************************************************
    130          * 名称：iic_write_byte()
    131          * 功能：I2C写一个字节数据，返回ACK或者NACK，从高到低，依次发送
    132          * 参数：data -- 要写的数据
    133          * 返回：无
    134          * 修改：
    135          * 注释：
    136          *********************************************************************************************/

   \                                 In  segment BANKED_CODE, align 1, keep-with-next
    137          unsigned char iic_write_byte(unsigned char data)
   \                     iic_write_byte:
    138          {
   \   000000   74F7         MOV     A,#-0x9
   \   000002   12....       LCALL   ?BANKED_ENTER_XDATA
   \   000005                ; Saved register size: 9
   \   000005                ; Auto size: 0
   \   000005   E9           MOV     A,R1
   \   000006   FF           MOV     R7,A
    139            unsigned char i;
    140            SCL = 0;                                                      //拉低时钟线
   \   000007   C287         CLR     0x80.7
    141            for(i = 0;i < 8;i++){                                         
   \   000009   7E00         MOV     R6,#0x0
   \                     ??iic_write_byte_0:
   \   00000B   EE           MOV     A,R6
   \   00000C   C3           CLR     C
   \   00000D   9408         SUBB    A,#0x8
   \   00000F   502B         JNC     ??iic_write_byte_1
    142              if(data & 0x80){                                            //判断数据最高位是否为1
   \   000011   EF           MOV     A,R7
   \   000012   A2E7         MOV     C,0xE0 /* A   */.7
   \   000014   5004         JNC     ??iic_write_byte_2
    143                SDA = 1;	                                                
   \   000016   D286         SETB    0x80.6
   \   000018   8002         SJMP    ??iic_write_byte_3
    144              }
    145              else
    146                SDA = 0;
   \                     ??iic_write_byte_2:
   \   00001A   C286         CLR     0x80.6
    147              iic_delay_us(5);                                            //延时5us
   \                     ??iic_write_byte_3:
   \   00001C                ; Setup parameters for call to function iic_delay_us
   \   00001C   7A05         MOV     R2,#0x5
   \   00001E   7B00         MOV     R3,#0x0
   \   000020   12....       LCALL   ??iic_delay_us?relay ; Banked call to: iic_delay_us
    148              SCL = 1;	                                                //输出SDA稳定后，拉高SCL给出上升沿，从机检测到后进行数据采样
   \   000023   D287         SETB    0x80.7
    149              iic_delay_us(5);                                            //延时5us
   \   000025                ; Setup parameters for call to function iic_delay_us
   \   000025   7A05         MOV     R2,#0x5
   \   000027   7B00         MOV     R3,#0x0
   \   000029   12....       LCALL   ??iic_delay_us?relay ; Banked call to: iic_delay_us
    150              SCL = 0;                                                    //拉低时钟线
   \   00002C   C287         CLR     0x80.7
    151              iic_delay_us(5);                                            //延时5us
   \   00002E                ; Setup parameters for call to function iic_delay_us
   \   00002E   7A05         MOV     R2,#0x5
   \   000030   7B00         MOV     R3,#0x0
   \   000032   12....       LCALL   ??iic_delay_us?relay ; Banked call to: iic_delay_us
    152              data <<= 1;                                                 //数组左移一位
   \   000035   EF           MOV     A,R7
   \   000036   C3           CLR     C
   \   000037   33           RLC     A
   \   000038   FF           MOV     R7,A
    153            } 
   \   000039   0E           INC     R6
   \   00003A   80CF         SJMP    ??iic_write_byte_0
    154            iic_delay_us(2);                                              //延时2us
   \                     ??iic_write_byte_1:
   \   00003C                ; Setup parameters for call to function iic_delay_us
   \   00003C   7A02         MOV     R2,#0x2
   \   00003E   7B00         MOV     R3,#0x0
   \   000040   12....       LCALL   ??iic_delay_us?relay ; Banked call to: iic_delay_us
    155            SDA = 1;                                                      //拉高数据线
   \   000043   D286         SETB    0x80.6
    156            SCL = 1;                                                      //拉高时钟线
   \   000045   D287         SETB    0x80.7
    157            iic_delay_us(2);                                              //延时2us，等待从机应答
   \   000047                ; Setup parameters for call to function iic_delay_us
   \   000047   7A02         MOV     R2,#0x2
   \   000049   7B00         MOV     R3,#0x0
   \   00004B   12....       LCALL   ??iic_delay_us?relay ; Banked call to: iic_delay_us
    158            if(SDA == 1){			                                //SDA为高，收到NACK
   \   00004E   A286         MOV     C,0x80.6
   \   000050   5004         JNC     ??iic_write_byte_4
    159              return 1;	
   \   000052   7901         MOV     R1,#0x1
   \   000054   800B         SJMP    ??iic_write_byte_5
    160            }else{ 				                        //SDA为低，收到ACK
    161              SCL = 0;
   \                     ??iic_write_byte_4:
   \   000056   C287         CLR     0x80.7
    162              iic_delay_us(50);
   \   000058                ; Setup parameters for call to function iic_delay_us
   \   000058   7A32         MOV     R2,#0x32
   \   00005A   7B00         MOV     R3,#0x0
   \   00005C   12....       LCALL   ??iic_delay_us?relay ; Banked call to: iic_delay_us
    163              return 0;
   \   00005F   7900         MOV     R1,#0x0
   \                     ??iic_write_byte_5:
   \   000061   7F01         MOV     R7,#0x1
   \   000063   02....       LJMP    ?BANKED_LEAVE_XDATA
   \   000066                REQUIRE _A_P0
    164            }
    165          }
    166          
    167          /*********************************************************************************************
    168          * 名称：iic_read_byte()
    169          * 功能：I2C写一个字节数据，返回ACK或者NACK，从高到低，依次发送
    170          * 参数：data -- 要写的数据
    171          * 返回：无
    172          * 修改：
    173          * 注释：
    174          *********************************************************************************************/

   \                                 In  segment BANKED_CODE, align 1, keep-with-next
    175          unsigned char iic_read_byte(unsigned char ack)
   \                     iic_read_byte:
    176          {
   \   000000                REQUIRE ?V0
   \   000000                REQUIRE ?V1
   \   000000   74F6         MOV     A,#-0xa
   \   000002   12....       LCALL   ?BANKED_ENTER_XDATA
   \   000005                ; Saved register size: 10
   \   000005                ; Auto size: 0
   \   000005   89..         MOV     ?V0,R1
    177            unsigned char i,data = 0;
   \   000007   7E00         MOV     R6,#0x0
    178            SCL = 0;
   \   000009   C287         CLR     0x80.7
    179            SDA = 1;			                                //释放总线	
   \   00000B   D286         SETB    0x80.6
    180            for(i = 0;i < 8;i++){
   \   00000D   7F00         MOV     R7,#0x0
   \                     ??iic_read_byte_0:
   \   00000F   EF           MOV     A,R7
   \   000010   C3           CLR     C
   \   000011   9408         SUBB    A,#0x8
   \   000013   5030         JNC     ??iic_read_byte_1
    181              SCL = 1;		                                        //给出上升沿
   \   000015   D287         SETB    0x80.7
    182              iic_delay_us(30);	                                        //延时等待信号稳定
   \   000017                ; Setup parameters for call to function iic_delay_us
   \   000017   7A1E         MOV     R2,#0x1e
   \   000019   7B00         MOV     R3,#0x0
   \   00001B   12....       LCALL   ??iic_delay_us?relay ; Banked call to: iic_delay_us
    183              data <<= 1;	
   \   00001E   EE           MOV     A,R6
   \   00001F   C3           CLR     C
   \   000020   33           RLC     A
   \   000021   FE           MOV     R6,A
    184              if(SDA == 1){ 		                                //采样获取数据
   \   000022   A286         MOV     C,0x80.6
   \   000024   5007         JNC     ??iic_read_byte_2
    185                data |= 0x01;
   \   000026   D3           SETB    C
   \   000027   EE           MOV     A,R6
   \   000028   92E0         MOV     0xE0 /* A   */.0,C
   \   00002A   FE           MOV     R6,A
   \   00002B   8005         SJMP    ??iic_read_byte_3
    186              }else{
    187                data &= 0xfe;
   \                     ??iic_read_byte_2:
   \   00002D   C3           CLR     C
   \   00002E   EE           MOV     A,R6
   \   00002F   92E0         MOV     0xE0 /* A   */.0,C
   \   000031   FE           MOV     R6,A
    188              }
    189              iic_delay_us(10);
   \                     ??iic_read_byte_3:
   \   000032                ; Setup parameters for call to function iic_delay_us
   \   000032   7A0A         MOV     R2,#0xa
   \   000034   7B00         MOV     R3,#0x0
   \   000036   12....       LCALL   ??iic_delay_us?relay ; Banked call to: iic_delay_us
    190              SCL = 0;   		                                        //下降沿，从机给出下一位值
   \   000039   C287         CLR     0x80.7
    191              iic_delay_us(20);
   \   00003B                ; Setup parameters for call to function iic_delay_us
   \   00003B   7A14         MOV     R2,#0x14
   \   00003D   7B00         MOV     R3,#0x0
   \   00003F   12....       LCALL   ??iic_delay_us?relay ; Banked call to: iic_delay_us
    192            }   
   \   000042   0F           INC     R7
   \   000043   80CA         SJMP    ??iic_read_byte_0
    193            SDA = ack;	                                                //应答状态
   \                     ??iic_read_byte_1:
   \   000045   85....       MOV     ?V1,?V0
   \   000048   E5..         MOV     A,?V0
   \   00004A   A2E0         MOV     C,0xE0 /* A   */.0
   \   00004C   9286         MOV     0x80.6,C
    194            iic_delay_us(10);
   \   00004E                ; Setup parameters for call to function iic_delay_us
   \   00004E   7A0A         MOV     R2,#0xa
   \   000050   7B00         MOV     R3,#0x0
   \   000052   12....       LCALL   ??iic_delay_us?relay ; Banked call to: iic_delay_us
    195            SCL = 1;                         
   \   000055   D287         SETB    0x80.7
    196            iic_delay_us(50);          
   \   000057                ; Setup parameters for call to function iic_delay_us
   \   000057   7A32         MOV     R2,#0x32
   \   000059   7B00         MOV     R3,#0x0
   \   00005B   12....       LCALL   ??iic_delay_us?relay ; Banked call to: iic_delay_us
    197            SCL = 0;
   \   00005E   C287         CLR     0x80.7
    198            iic_delay_us(50);
   \   000060                ; Setup parameters for call to function iic_delay_us
   \   000060   7A32         MOV     R2,#0x32
   \   000062   7B00         MOV     R3,#0x0
   \   000064   12....       LCALL   ??iic_delay_us?relay ; Banked call to: iic_delay_us
    199            return data;
   \   000067   EE           MOV     A,R6
   \   000068   F9           MOV     R1,A
   \   000069   7F02         MOV     R7,#0x2
   \   00006B   02....       LJMP    ?BANKED_LEAVE_XDATA
   \   00006E                REQUIRE _A_P0
    200          }
    201          
    202          /*********************************************************************************************
    203          * 名称：delay()
    204          * 功能：延时
    205          * 参数：t -- 设置时间
    206          * 返回：无
    207          * 修改：
    208          * 注释：
    209          *********************************************************************************************/

   \                                 In  segment BANKED_CODE, align 1, keep-with-next
    210          void delay(unsigned int t)
   \                     delay:
    211          {
   \   000000                ; Saved register size: 0
   \   000000                ; Auto size: 0
    212            unsigned char i;
    213            while(t--){
   \                     ??delay_0:
   \   000000   EA           MOV     A,R2
   \   000001   F8           MOV     R0,A
   \   000002   EB           MOV     A,R3
   \   000003   F9           MOV     R1,A
   \   000004   E8           MOV     A,R0
   \   000005   24FF         ADD     A,#-0x1
   \   000007   FA           MOV     R2,A
   \   000008   E9           MOV     A,R1
   \   000009   34FF         ADDC    A,#-0x1
   \   00000B   FB           MOV     R3,A
   \   00000C   E8           MOV     A,R0
   \   00000D   49           ORL     A,R1
   \   00000E   600B         JZ      ??delay_1
    214              for(i = 0;i < 200;i++);
   \   000010   7C00         MOV     R4,#0x0
   \                     ??delay_2:
   \   000012   EC           MOV     A,R4
   \   000013   C3           CLR     C
   \   000014   94C8         SUBB    A,#-0x38
   \   000016   50E8         JNC     ??delay_0
   \   000018   0C           INC     R4
   \   000019   80F7         SJMP    ??delay_2
    215            }					   
    216          }
   \                     ??delay_1:
   \   00001B   02....       LJMP    ?BRET

   \                                 In  segment BANK_RELAYS, align 1
   \                     ??iic_delay_us?relay:
   \   000000   12....       LCALL   ?BDISPATCH
   \   000003   ......       DC24    iic_delay_us

   \                                 In  segment BANK_RELAYS, align 1
   \                     ??iic_init?relay:
   \   000000   12....       LCALL   ?BDISPATCH
   \   000003   ......       DC24    iic_init

   \                                 In  segment BANK_RELAYS, align 1
   \                     ??iic_start?relay:
   \   000000   12....       LCALL   ?BDISPATCH
   \   000003   ......       DC24    iic_start

   \                                 In  segment BANK_RELAYS, align 1
   \                     ??iic_stop?relay:
   \   000000   12....       LCALL   ?BDISPATCH
   \   000003   ......       DC24    iic_stop

   \                                 In  segment BANK_RELAYS, align 1
   \                     ??iic_send_ack?relay:
   \   000000   12....       LCALL   ?BDISPATCH
   \   000003   ......       DC24    iic_send_ack

   \                                 In  segment BANK_RELAYS, align 1
   \                     ??iic_recv_ack?relay:
   \   000000   12....       LCALL   ?BDISPATCH
   \   000003   ......       DC24    iic_recv_ack

   \                                 In  segment BANK_RELAYS, align 1
   \                     ??iic_write_byte?relay:
   \   000000   12....       LCALL   ?BDISPATCH
   \   000003   ......       DC24    iic_write_byte

   \                                 In  segment BANK_RELAYS, align 1
   \                     ??iic_read_byte?relay:
   \   000000   12....       LCALL   ?BDISPATCH
   \   000003   ......       DC24    iic_read_byte

   \                                 In  segment BANK_RELAYS, align 1
   \                     ??delay?relay:
   \   000000   12....       LCALL   ?BDISPATCH
   \   000003   ......       DC24    delay

   Maximum stack usage in bytes:

   ISTACK XSTACK Function
   ------ ------ --------
      0      0   delay
      0     10   iic_delay_us
      2      0   iic_init
        2      0   -> iic_delay_us
      0     10   iic_read_byte
        0     10   -> iic_delay_us
      0      9   iic_recv_ack
        0      9   -> iic_delay_us
      0      9   iic_send_ack
        0      9   -> iic_delay_us
      2      0   iic_start
        2      0   -> iic_delay_us
      2      0   iic_stop
        2      0   -> iic_delay_us
      0      9   iic_write_byte
        0      9   -> iic_delay_us


   Segment part sizes:

   Bytes  Function/Label
   -----  --------------
       6  ??delay?relay
       6  ??iic_delay_us?relay
       6  ??iic_init?relay
       6  ??iic_read_byte?relay
       6  ??iic_recv_ack?relay
       6  ??iic_send_ack?relay
       6  ??iic_start?relay
       6  ??iic_stop?relay
       6  ??iic_write_byte?relay
       1  P0DIR
       1  P0SEL
       1  _A_P0
       1  _A_PSW
      30  delay
      32  iic_delay_us
      41  iic_init
     110  iic_read_byte
      44  iic_recv_ack
      40  iic_send_ack
      33  iic_start
      31  iic_stop
     102  iic_write_byte

 
 463 bytes in segment BANKED_CODE
  54 bytes in segment BANK_RELAYS
   4 bytes in segment SFR_AN
 
 517 bytes of CODE memory
   0 bytes of DATA memory (+ 4 bytes shared)

Errors: none
Warnings: 1
