###############################################################################
#
# IAR C/C++ Compiler V9.10.1.2146 for 8051                24/Nov/2020  16:50:56
# Copyright 2004-2014 IAR Systems AB.
# Standalone license - IAR Embedded Workbench for 8051
#
#    Core               =  plain
#    Code model         =  banked
#    Data model         =  large
#    Calling convention =  xdata reentrant
#    Constant location  =  data_rom
#    Dptr setup         =  1,16
#                          
#    Source file        =  
#        C:\Users\admin\Desktop\zstack-2.4.0-1.4.0x\zstack-2.4.0-1.4.0x\Projects\zstack\Samples\GreenHouse-1\Source\sensor.c
#    Command line       =  
#        -f
#        C:\Users\admin\Desktop\zstack-2.4.0-1.4.0x\zstack-2.4.0-1.4.0x\Projects\zstack\Samples\GreenHouse-1\CC2530DB\..\..\..\Tools\CC2530DB\f8wRouter.cfg
#        (-DCPU32MHZ -DROOT=__near_func -DMAC_CFG_APP_PENDING_QUEUE=TRUE
#        -DMAC_CFG_TX_DATA_MAX=5 -DMAC_CFG_TX_MAX=8 -DMAC_CFG_RX_MAX=5
#        -DRTR_NWK) -f
#        C:\Users\admin\Desktop\zstack-2.4.0-1.4.0x\zstack-2.4.0-1.4.0x\Projects\zstack\Samples\GreenHouse-1\CC2530DB\..\..\..\Tools\CC2530DB\f8wConfig.cfg
#        (-DZIGBEEPRO -DSECURE=0 -DZG_SECURE_DYNAMIC=0 -DREFLECTOR
#        -DDEFAULT_CHANLIST=0x00000800 -DZDAPP_CONFIG_PAN_ID=0x2002
#        -DNWK_START_DELAY=100 -DEXTENDED_JOINING_RANDOM_MASK=0x007F
#        -DBEACON_REQUEST_DELAY=100 -DBEACON_REQ_DELAY_MASK=0x00FF
#        -DLINK_STATUS_JITTER_MASK=0x007F -DROUTE_EXPIRY_TIME=30
#        -DAPSC_ACK_WAIT_DURATION_POLLED=3000 -DNWK_INDIRECT_MSG_TIMEOUT=7
#        -DMAX_RREQ_ENTRIES=8 -DAPSC_MAX_FRAME_RETRIES=3
#        -DNWK_MAX_DATA_RETRIES=2 -DMAX_POLL_FAILURE_RETRIES=2 -DMAX_BCAST=9
#        -DAPS_MAX_GROUPS=16 -DMAX_RTG_ENTRIES=40 -DNWK_MAX_BINDING_ENTRIES=4
#        -DMAX_BINDING_CLUSTER_IDS=4 "-DDEFAULT_KEY={0x01, 0x03, 0x05, 0x07,
#        0x09, 0x0B, 0x0D, 0x0F, 0x00, 0x02, 0x04, 0x06, 0x08, 0x0A, 0x0C,
#        0x0D}" -DMAC_MAX_FRAME_SIZE=116 -DZDNWKMGR_MIN_TRANSMISSIONS=20
#        "-DCONST=const __code" -DGENERIC=__generic -DRFD_RCVC_ALWAYS_ON=TRUE
#        -DPOLL_RATE=1000 -DQUEUED_POLL_RATE=100 -DRESPONSE_POLL_RATE=100)
#        -DREJOIN_POLL_RATE=440
#        C:\Users\admin\Desktop\zstack-2.4.0-1.4.0x\zstack-2.4.0-1.4.0x\Projects\zstack\Samples\GreenHouse-1\Source\sensor.c
#        -D HOLD_AUTO_START -D BUILD_ALL_DEVICES -D REFLECTOR -D NV_INIT -D
#        XLAB -D GreenHouse -lC
#        C:\Users\admin\Desktop\zstack-2.4.0-1.4.0x\zstack-2.4.0-1.4.0x\Projects\zstack\Samples\GreenHouse-1\CC2530DB\GreenHouse-1\List\
#        -lA
#        C:\Users\admin\Desktop\zstack-2.4.0-1.4.0x\zstack-2.4.0-1.4.0x\Projects\zstack\Samples\GreenHouse-1\CC2530DB\GreenHouse-1\List\
#        --diag_suppress Pe001,Pa010 -o
#        C:\Users\admin\Desktop\zstack-2.4.0-1.4.0x\zstack-2.4.0-1.4.0x\Projects\zstack\Samples\GreenHouse-1\CC2530DB\GreenHouse-1\Obj\
#        -e --no_cse --no_unroll --no_inline --no_code_motion --no_tbaa --debug
#        --core=plain --dptr=16,1 --data_model=large --code_model=banked
#        --calling_convention=xdata_reentrant --place_constants=data_rom
#        --nr_virtual_regs 8 -I
#        C:\Users\admin\Desktop\zstack-2.4.0-1.4.0x\zstack-2.4.0-1.4.0x\Projects\zstack\Samples\GreenHouse-1\CC2530DB\
#        -I
#        C:\Users\admin\Desktop\zstack-2.4.0-1.4.0x\zstack-2.4.0-1.4.0x\Projects\zstack\Samples\GreenHouse-1\CC2530DB\..\Source\
#        -I
#        C:\Users\admin\Desktop\zstack-2.4.0-1.4.0x\zstack-2.4.0-1.4.0x\Projects\zstack\Samples\GreenHouse-1\CC2530DB\..\..\common\
#        -I
#        C:\Users\admin\Desktop\zstack-2.4.0-1.4.0x\zstack-2.4.0-1.4.0x\Projects\zstack\Samples\GreenHouse-1\CC2530DB\..\..\..\ZMain\TI2530DB\
#        -I
#        C:\Users\admin\Desktop\zstack-2.4.0-1.4.0x\zstack-2.4.0-1.4.0x\Projects\zstack\Samples\GreenHouse-1\CC2530DB\..\..\..\..\..\Components\hal\include\
#        -I
#        C:\Users\admin\Desktop\zstack-2.4.0-1.4.0x\zstack-2.4.0-1.4.0x\Projects\zstack\Samples\GreenHouse-1\CC2530DB\..\..\..\..\..\Components\hal\target\CC2530EB\
#        -I
#        C:\Users\admin\Desktop\zstack-2.4.0-1.4.0x\zstack-2.4.0-1.4.0x\Projects\zstack\Samples\GreenHouse-1\CC2530DB\..\..\..\..\..\Components\mac\include\
#        -I
#        C:\Users\admin\Desktop\zstack-2.4.0-1.4.0x\zstack-2.4.0-1.4.0x\Projects\zstack\Samples\GreenHouse-1\CC2530DB\..\..\..\..\..\Components\mac\high_level\
#        -I
#        C:\Users\admin\Desktop\zstack-2.4.0-1.4.0x\zstack-2.4.0-1.4.0x\Projects\zstack\Samples\GreenHouse-1\CC2530DB\..\..\..\..\..\Components\mac\low_level\srf04\
#        -I
#        C:\Users\admin\Desktop\zstack-2.4.0-1.4.0x\zstack-2.4.0-1.4.0x\Projects\zstack\Samples\GreenHouse-1\CC2530DB\..\..\..\..\..\Components\mac\low_level\srf04\single_chip\
#        -I
#        C:\Users\admin\Desktop\zstack-2.4.0-1.4.0x\zstack-2.4.0-1.4.0x\Projects\zstack\Samples\GreenHouse-1\CC2530DB\..\..\..\..\..\Components\mt\
#        -I
#        C:\Users\admin\Desktop\zstack-2.4.0-1.4.0x\zstack-2.4.0-1.4.0x\Projects\zstack\Samples\GreenHouse-1\CC2530DB\..\..\..\..\..\Components\osal\include\
#        -I
#        C:\Users\admin\Desktop\zstack-2.4.0-1.4.0x\zstack-2.4.0-1.4.0x\Projects\zstack\Samples\GreenHouse-1\CC2530DB\..\..\..\..\..\Components\osal\mcu\ccsoc\
#        -I
#        C:\Users\admin\Desktop\zstack-2.4.0-1.4.0x\zstack-2.4.0-1.4.0x\Projects\zstack\Samples\GreenHouse-1\CC2530DB\..\..\..\..\..\Components\services\saddr\
#        -I
#        C:\Users\admin\Desktop\zstack-2.4.0-1.4.0x\zstack-2.4.0-1.4.0x\Projects\zstack\Samples\GreenHouse-1\CC2530DB\..\..\..\..\..\Components\services\sdata\
#        -I
#        C:\Users\admin\Desktop\zstack-2.4.0-1.4.0x\zstack-2.4.0-1.4.0x\Projects\zstack\Samples\GreenHouse-1\CC2530DB\..\..\..\..\..\Components\stack\af\
#        -I
#        C:\Users\admin\Desktop\zstack-2.4.0-1.4.0x\zstack-2.4.0-1.4.0x\Projects\zstack\Samples\GreenHouse-1\CC2530DB\..\..\..\..\..\Components\stack\nwk\
#        -I
#        C:\Users\admin\Desktop\zstack-2.4.0-1.4.0x\zstack-2.4.0-1.4.0x\Projects\zstack\Samples\GreenHouse-1\CC2530DB\..\..\..\..\..\Components\stack\sapi\
#        -I
#        C:\Users\admin\Desktop\zstack-2.4.0-1.4.0x\zstack-2.4.0-1.4.0x\Projects\zstack\Samples\GreenHouse-1\CC2530DB\..\..\..\..\..\Components\stack\sec\
#        -I
#        C:\Users\admin\Desktop\zstack-2.4.0-1.4.0x\zstack-2.4.0-1.4.0x\Projects\zstack\Samples\GreenHouse-1\CC2530DB\..\..\..\..\..\Components\stack\sys\
#        -I
#        C:\Users\admin\Desktop\zstack-2.4.0-1.4.0x\zstack-2.4.0-1.4.0x\Projects\zstack\Samples\GreenHouse-1\CC2530DB\..\..\..\..\..\Components\stack\zdo\
#        -I
#        C:\Users\admin\Desktop\zstack-2.4.0-1.4.0x\zstack-2.4.0-1.4.0x\Projects\zstack\Samples\GreenHouse-1\CC2530DB\..\..\..\..\..\Components\zmac\
#        -I
#        C:\Users\admin\Desktop\zstack-2.4.0-1.4.0x\zstack-2.4.0-1.4.0x\Projects\zstack\Samples\GreenHouse-1\CC2530DB\..\..\..\..\..\Components\zmac\f8w\
#        -On
#    List file          =  
#        C:\Users\admin\Desktop\zstack-2.4.0-1.4.0x\zstack-2.4.0-1.4.0x\Projects\zstack\Samples\GreenHouse-1\CC2530DB\GreenHouse-1\List\sensor.lst
#    Object file        =  
#        C:\Users\admin\Desktop\zstack-2.4.0-1.4.0x\zstack-2.4.0-1.4.0x\Projects\zstack\Samples\GreenHouse-1\CC2530DB\GreenHouse-1\Obj\sensor.r51
#
###############################################################################

C:\Users\admin\Desktop\zstack-2.4.0-1.4.0x\zstack-2.4.0-1.4.0x\Projects\zstack\Samples\GreenHouse-1\Source\sensor.c
      1          /*********************************************************************************************
                                                                                                              ^
Warning[Pa050]: non-native end of line sequence detected (this diagnostic is
          only issued once)
      2          * 文件：sensor.c
      3          * 作者：fuyou 2018.10.24
      4          * 说明：GreenHouse-1节点驱动
      5          * 修改：
      6          * 注释：
      7          *********************************************************************************************/
      8          
      9          /*********************************************************************************************
     10          * 头文件
     11          *********************************************************************************************/
     12          #include "sensor.h"

   \                                 In  segment SFR_AN, at 0x80
   \   union <unnamed> volatile __sfr _A_P0
   \                     _A_P0:
   \   000000                DS 1

   \                                 In  segment SFR_AN, at 0xf2
   \   unsigned char volatile __sfr APCFG
   \                     APCFG:
   \   000000                DS 1

   \                                 In  segment SFR_AN, at 0xf3
   \   unsigned char volatile __sfr P0SEL
   \                     P0SEL:
   \   000000                DS 1

   \                                 In  segment SFR_AN, at 0xfd
   \   unsigned char volatile __sfr P0DIR
   \                     P0DIR:
   \   000000                DS 1
     13          /*********************************************************************************************
     14          * 宏定义
     15          *********************************************************************************************/
     16          
     17          /*********************************************************************************************
     18          * 全局变量
     19          *********************************************************************************************/

   \                                 In  segment XDATA_I, align 1, keep-with-next
     20          static uint8 D0 = 0xFF;                                         // 默认打开主动上报功能
   \                     D0:
   \   000000                DS 1
   \   000001                REQUIRE `?<Initializer for D0>`
   \   000001                REQUIRE __INIT_XDATA_I

   \                                 In  segment XDATA_Z, align 1, keep-with-next
     21          static uint8 D1 = 0;                                            // 继电器初始状态为全关
   \                     D1:
   \   000000                DS 1
   \   000001                REQUIRE __INIT_XDATA_Z

   \                                 In  segment XDATA_Z, align 1, keep-with-next
     22          static float A0 = 0.0;                                          // A0存储温度值
   \                     A0:
   \   000000                DS 4
   \   000004                REQUIRE __INIT_XDATA_Z

   \                                 In  segment XDATA_Z, align 1, keep-with-next
     23          static float A1 = 0.0;                                          // A1存储湿度值
   \                     A1:
   \   000000                DS 4
   \   000004                REQUIRE __INIT_XDATA_Z

   \                                 In  segment XDATA_Z, align 1, keep-with-next
     24          static float A2 = 0.0;                                          // A2存储光照值
   \                     A2:
   \   000000                DS 4
   \   000004                REQUIRE __INIT_XDATA_Z

   \                                 In  segment XDATA_Z, align 1, keep-with-next
     25          static uint16 A3 = 0;                                           // A3存储空气质量
   \                     A3:
   \   000000                DS 2
   \   000002                REQUIRE __INIT_XDATA_Z

   \                                 In  segment XDATA_Z, align 1, keep-with-next
     26          static float A7 = 0;                                            // A7存储电池电压
   \                     A7:
   \   000000                DS 4
   \   000004                REQUIRE __INIT_XDATA_Z

   \                                 In  segment XDATA_I, align 1, keep-with-next
     27          static uint16 V0 = 30;                                          // V0设置为上报时间间隔，默认为30s
   \                     V0:
   \   000000                DS 2
   \   000002                REQUIRE `?<Initializer for V0>`
   \   000002                REQUIRE __INIT_XDATA_I

   \                                 In  segment XDATA_Z, align 1, keep-with-next
     28          unsigned short motorTick=0;
   \                     motorTick:
   \   000000                DS 2
   \   000002                REQUIRE __INIT_XDATA_Z
     29          
     30          float BatteryVoltage_Get();
     31          
     32          /*********************************************************************************************
     33          * 名称：updateV0()
     34          * 功能：更新V0的值
     35          * 参数：*val -- 待更新的变量
     36          * 返回：
     37          * 修改：
     38          * 注释：
     39          *********************************************************************************************/

   \                                 In  segment BANKED_CODE, align 1, keep-with-next
     40          void updateV0(char *val)
   \                     updateV0:
     41          {
   \   000000   74F7         MOV     A,#-0x9
   \   000002   12....       LCALL   ?BANKED_ENTER_XDATA
   \   000005                ; Saved register size: 9
   \   000005                ; Auto size: 0
   \   000005   EA           MOV     A,R2
   \   000006   FE           MOV     R6,A
   \   000007   EB           MOV     A,R3
   \   000008   FF           MOV     R7,A
     42              //将字符串变量val解析转换为整型变量赋值
     43              V0 = atoi(val);                                 // 获取数据上报时间更改值
   \   000009                ; Setup parameters for call to function atoi
   \   000009   EE           MOV     A,R6
   \   00000A   FA           MOV     R2,A
   \   00000B   EF           MOV     A,R7
   \   00000C   FB           MOV     R3,A
   \   00000D   12....       LCALL   ??atoi?relay         ; Banked call to: atoi
   \   000010   90....       MOV     DPTR,#V0
   \   000013   EA           MOV     A,R2
   \   000014   F0           MOVX    @DPTR,A
   \   000015   A3           INC     DPTR
   \   000016   EB           MOV     A,R3
   \   000017   F0           MOVX    @DPTR,A
     44          }
   \   000018   7F01         MOV     R7,#0x1
   \   00001A   02....       LJMP    ?BANKED_LEAVE_XDATA
     45          /*********************************************************************************************
     46          * 名称：updateA0()
     47          * 功能：更新A0的值
     48          * 参数：
     49          * 返回：
     50          * 修改：
     51          * 注释：
     52          *********************************************************************************************/

   \                                 In  segment BANKED_CODE, align 1, keep-with-next
     53          void updateA0(void)
   \                     updateA0:
     54          {
   \   000000                REQUIRE ?V0
   \   000000                REQUIRE ?V1
   \   000000                REQUIRE ?V2
   \   000000                REQUIRE ?V3
   \   000000                REQUIRE ?V4
   \   000000                REQUIRE ?V5
   \   000000                REQUIRE ?V6
   \   000000                REQUIRE ?V7
   \   000000   74F0         MOV     A,#-0x10
   \   000002   12....       LCALL   ?BANKED_ENTER_XDATA
   \   000005                ; Saved register size: 16
   \   000005                ; Auto size: 0
     55              // 读取温度值，并更新A0
     56              A0 = (htu21d_get_data(TEMP)/100.0f);
   \   000005                ; Setup parameters for call to function htu21d_get_data
   \   000005   79F3         MOV     R1,#-0xd
   \   000007   12....       LCALL   ??htu21d_get_data?relay; Banked call to: htu21d_get_data
   \   00000A   8A..         MOV     ?V0,R2
   \   00000C   EB           MOV     A,R3
   \   00000D   F5..         MOV     ?V1,A
   \   00000F   33           RLC     A
   \   000010   95E0         SUBB    A,0xE0 /* A   */
   \   000012   F5..         MOV     ?V2,A
   \   000014   F5..         MOV     ?V3,A
   \   000016   78..         MOV     R0,#?V0
   \   000018   12....       LCALL   ?L_TO_FLT
   \   00001B   90....       MOV     DPTR,#__Constant_42c80000
   \   00001E   78..         MOV     R0,#?V4
   \   000020   12....       LCALL   ?L_MOV_X
   \   000023   78..         MOV     R0,#?V0
   \   000025   79..         MOV     R1,#?V4
   \   000027   12....       LCALL   ?FLT_DIV
   \   00002A   90....       MOV     DPTR,#A0
   \   00002D   78..         MOV     R0,#?V0
   \   00002F   12....       LCALL   ?L_MOV_TO_X
     57          
     58          }
   \   000032   7F08         MOV     R7,#0x8
   \   000034   02....       LJMP    ?BANKED_LEAVE_XDATA
     59          /*********************************************************************************************
     60          * 名称：updateA1()
     61          * 功能：更新A1的值
     62          * 参数：
     63          * 返回：
     64          * 修改：
     65          * 注释：
     66          *********************************************************************************************/

   \                                 In  segment BANKED_CODE, align 1, keep-with-next
     67          void updateA1(void)
   \                     updateA1:
     68          {
   \   000000                REQUIRE ?V0
   \   000000                REQUIRE ?V1
   \   000000                REQUIRE ?V2
   \   000000                REQUIRE ?V3
   \   000000                REQUIRE ?V4
   \   000000                REQUIRE ?V5
   \   000000                REQUIRE ?V6
   \   000000                REQUIRE ?V7
   \   000000   74F0         MOV     A,#-0x10
   \   000002   12....       LCALL   ?BANKED_ENTER_XDATA
   \   000005                ; Saved register size: 16
   \   000005                ; Auto size: 0
     69              // 读取湿度值，并更新A1
     70              A1 = (htu21d_get_data(HUMI)/100.0f);
   \   000005                ; Setup parameters for call to function htu21d_get_data
   \   000005   79F5         MOV     R1,#-0xb
   \   000007   12....       LCALL   ??htu21d_get_data?relay; Banked call to: htu21d_get_data
   \   00000A   8A..         MOV     ?V0,R2
   \   00000C   EB           MOV     A,R3
   \   00000D   F5..         MOV     ?V1,A
   \   00000F   33           RLC     A
   \   000010   95E0         SUBB    A,0xE0 /* A   */
   \   000012   F5..         MOV     ?V2,A
   \   000014   F5..         MOV     ?V3,A
   \   000016   78..         MOV     R0,#?V0
   \   000018   12....       LCALL   ?L_TO_FLT
   \   00001B   90....       MOV     DPTR,#__Constant_42c80000
   \   00001E   78..         MOV     R0,#?V4
   \   000020   12....       LCALL   ?L_MOV_X
   \   000023   78..         MOV     R0,#?V0
   \   000025   79..         MOV     R1,#?V4
   \   000027   12....       LCALL   ?FLT_DIV
   \   00002A   90....       MOV     DPTR,#A1
   \   00002D   78..         MOV     R0,#?V0
   \   00002F   12....       LCALL   ?L_MOV_TO_X
     71          }
   \   000032   7F08         MOV     R7,#0x8
   \   000034   02....       LJMP    ?BANKED_LEAVE_XDATA
     72          /*********************************************************************************************
     73          * 名称：updateA2()
     74          * 功能：更新A2的值
     75          * 参数：
     76          * 返回：
     77          * 修改：
     78          * 注释：
     79          *********************************************************************************************/

   \                                 In  segment BANKED_CODE, align 1, keep-with-next
     80          void updateA2(void)
   \                     updateA2:
     81          {
   \   000000   C082         PUSH    DPL
   \   000002   C083         PUSH    DPH
   \   000004                ; Saved register size: 2
   \   000004                ; Auto size: 0
     82              // 读取光照值，并更新A2
     83              A2 = bh1750_get_data();
   \   000004                ; Setup parameters for call to function bh1750_get_data
   \   000004   12....       LCALL   ??bh1750_get_data?relay; Banked call to: bh1750_get_data
   \   000007   90....       MOV     DPTR,#A2
   \   00000A   12....       LCALL   ?XSTORE_R2345
     84          }
   \   00000D   D083         POP     DPH
   \   00000F   D082         POP     DPL
   \   000011   02....       LJMP    ?BRET
     85          /*********************************************************************************************
     86          * 名称：updateA3()
     87          * 功能：更新A3的值
     88          * 参数：
     89          * 返回：
     90          * 修改：
     91          * 注释：
     92          *********************************************************************************************/

   \                                 In  segment BANKED_CODE, align 1, keep-with-next
     93          void updateA3(void)
   \                     updateA3:
     94          {
   \   000000   C082         PUSH    DPL
   \   000002   C083         PUSH    DPH
   \   000004                ; Saved register size: 2
   \   000004                ; Auto size: 0
     95              // 读取空气有害气体浓度值，并更新A3
     96              A3 = get_airgas_data();
   \   000004                ; Setup parameters for call to function get_airgas_data
   \   000004   12....       LCALL   ??get_airgas_data?relay; Banked call to: get_airgas_data
   \   000007   90....       MOV     DPTR,#A3
   \   00000A   EA           MOV     A,R2
   \   00000B   F0           MOVX    @DPTR,A
   \   00000C   A3           INC     DPTR
   \   00000D   EB           MOV     A,R3
   \   00000E   F0           MOVX    @DPTR,A
     97          }
   \   00000F   D083         POP     DPH
   \   000011   D082         POP     DPL
   \   000013   02....       LJMP    ?BRET
     98          /*********************************************************************************************
     99          * 名称：updateA4()
    100          * 功能：更新A4的值
    101          * 参数：
    102          * 返回：
    103          * 修改：
    104          * 注释：
    105          *********************************************************************************************/

   \                                 In  segment BANKED_CODE, align 1, keep-with-next
    106          void updateA4(void)
   \                     updateA4:
    107          {
   \   000000                ; Saved register size: 0
   \   000000                ; Auto size: 0
    108          }
   \   000000   02....       LJMP    ?BRET
    109          /*********************************************************************************************
    110          * 名称： updateA5()
    111          * 功能：跌倒检测并上报状态
    112          * 参数：
    113          * 返回：
    114          * 修改：
    115          * 注释：
    116          *********************************************************************************************/

   \                                 In  segment BANKED_CODE, align 1, keep-with-next
    117          void updateA5(void)
   \                     updateA5:
    118          {
   \   000000                ; Saved register size: 0
   \   000000                ; Auto size: 0
    119          }
   \   000000   02....       LJMP    ?BRET
    120          /*********************************************************************************************
    121          * 名称：updateA6()
    122          * 功能：更新A6的值
    123          * 参数：
    124          * 返回：
    125          * 修改：
    126          * 注释：
    127          *********************************************************************************************/

   \                                 In  segment BANKED_CODE, align 1, keep-with-next
    128          void updateA6(void)
   \                     updateA6:
    129          {
   \   000000                ; Saved register size: 0
   \   000000                ; Auto size: 0
    130          }
   \   000000   02....       LJMP    ?BRET
    131          /*********************************************************************************************
    132          * 名称： updateA7()
    133          * 功能：监测语音识别数据，更新A7的值
    134          * 参数：
    135          * 返回：
    136          * 修改：
    137          * 注释：
    138          *********************************************************************************************/

   \                                 In  segment BANKED_CODE, align 1, keep-with-next
    139          void updateA7(void)
   \                     updateA7:
    140          {
   \   000000   C082         PUSH    DPL
   \   000002   C083         PUSH    DPH
   \   000004                ; Saved register size: 2
   \   000004                ; Auto size: 0
    141              /* 获取板载电压 */
    142              A7 = BatteryVoltage_Get();
   \   000004                ; Setup parameters for call to function BatteryVoltage_Get
   \   000004   12....       LCALL   ??BatteryVoltage_Get?relay; Banked call to: BatteryVoltage_Get
   \   000007   90....       MOV     DPTR,#A7
   \   00000A   12....       LCALL   ?XSTORE_R2345
    143          }
   \   00000D   D083         POP     DPH
   \   00000F   D082         POP     DPL
   \   000011   02....       LJMP    ?BRET
    144          
    145          /*********************************************************************************************
    146          * 名称：BatteryVoltage_init()
    147          * 功能：电池电压测量初始化
    148          * 参数：
    149          * 返回：
    150          * 修改：
    151          * 注释：
    152          *********************************************************************************************/

   \                                 In  segment BANKED_CODE, align 1, keep-with-next
    153          void BatteryVoltage_init()
   \                     BatteryVoltage_init:
    154          {
   \   000000                ; Saved register size: 0
   \   000000                ; Auto size: 0
    155              P0SEL |= (1<<4);                                            //端口0_4 功能选择外设功能
   \   000000   43F310       ORL     0xf3,#0x10
    156              P0DIR &= ~(1<<4);                                           //设置输入模式
   \   000003   53FDEF       ANL     0xfd,#0xef
    157              APCFG |= (1<<4);                                            //模拟 I/O 使能
   \   000006   43F210       ORL     0xf2,#0x10
    158          }
   \   000009   02....       LJMP    ?BRET
   \   00000C                REQUIRE P0SEL
   \   00000C                REQUIRE P0DIR
   \   00000C                REQUIRE APCFG
    159          
    160          /*********************************************************************************************
    161          * 名称：BatteryVoltage_init()
    162          * 功能：电池电压测量初始化
    163          * 参数：
    164          * 返回：
    165          * 修改：
    166          * 注释：
    167          *********************************************************************************************/

   \                                 In  segment BANKED_CODE, align 1, keep-with-next
    168          float BatteryVoltage_Get()
   \                     BatteryVoltage_Get:
    169          {
   \   000000                REQUIRE ?V0
   \   000000                REQUIRE ?V1
   \   000000                REQUIRE ?V2
   \   000000                REQUIRE ?V3
   \   000000                REQUIRE ?V4
   \   000000                REQUIRE ?V5
   \   000000                REQUIRE ?V6
   \   000000                REQUIRE ?V7
   \   000000   74F0         MOV     A,#-0x10
   \   000002   12....       LCALL   ?BANKED_ENTER_XDATA
   \   000005                ; Saved register size: 16
   \   000005                ; Auto size: 4
   \   000005   74FC         MOV     A,#-0x4
   \   000007   12....       LCALL   ?ALLOC_XSTACK8
    170              unsigned short adcValue=0;
   \   00000A   7E00         MOV     R6,#0x0
   \   00000C   7F00         MOV     R7,#0x0
    171              float value=0;
   \   00000E   7A00         MOV     R2,#0x0
   \   000010   7B00         MOV     R3,#0x0
   \   000012   7C00         MOV     R4,#0x0
   \   000014   7D00         MOV     R5,#0x0
   \   000016   85..82       MOV     DPL,?XSP + 0
   \   000019   85..83       MOV     DPH,?XSP + 1
   \   00001C   EA           MOV     A,R2
   \   00001D   F0           MOVX    @DPTR,A
   \   00001E   A3           INC     DPTR
   \   00001F   EB           MOV     A,R3
   \   000020   F0           MOVX    @DPTR,A
   \   000021   A3           INC     DPTR
   \   000022   EC           MOV     A,R4
   \   000023   F0           MOVX    @DPTR,A
   \   000024   A3           INC     DPTR
   \   000025   ED           MOV     A,R5
   \   000026   F0           MOVX    @DPTR,A
    172          
    173              adcValue = HalAdcRead(HAL_ADC_CHANNEL_4,HAL_ADC_RESOLUTION_12);
   \   000027                ; Setup parameters for call to function HalAdcRead
   \   000027   7A03         MOV     R2,#0x3
   \   000029   7904         MOV     R1,#0x4
   \   00002B   12....       LCALL   ??HalAdcRead?relay   ; Banked call to: HalAdcRead
   \   00002E   8A..         MOV     ?V0,R2
   \   000030   8B..         MOV     ?V1,R3
   \   000032   AE..         MOV     R6,?V0
   \   000034   AF..         MOV     R7,?V1
    174              value = ((float)adcValue*(3.3/2047.0))*13.6/3.6;
   \   000036   8E..         MOV     ?V0,R6
   \   000038   8F..         MOV     ?V1,R7
   \   00003A   E4           CLR     A
   \   00003B   F5..         MOV     ?V2,A
   \   00003D   F5..         MOV     ?V3,A
   \   00003F   78..         MOV     R0,#?V0
   \   000041   12....       LCALL   ?UL_TO_FLT
   \   000044   90....       MOV     DPTR,#__Constant_3ad34d9d
   \   000047   78..         MOV     R0,#?V4
   \   000049   12....       LCALL   ?L_MOV_X
   \   00004C   78..         MOV     R0,#?V0
   \   00004E   79..         MOV     R1,#?V4
   \   000050   12....       LCALL   ?FLT_MUL
   \   000053   90....       MOV     DPTR,#__Constant_4159999a
   \   000056   78..         MOV     R0,#?V4
   \   000058   12....       LCALL   ?L_MOV_X
   \   00005B   78..         MOV     R0,#?V0
   \   00005D   79..         MOV     R1,#?V4
   \   00005F   12....       LCALL   ?FLT_MUL
   \   000062   90....       MOV     DPTR,#__Constant_40666666
   \   000065   78..         MOV     R0,#?V4
   \   000067   12....       LCALL   ?L_MOV_X
   \   00006A   78..         MOV     R0,#?V0
   \   00006C   79..         MOV     R1,#?V4
   \   00006E   12....       LCALL   ?FLT_DIV
   \   000071   85..82       MOV     DPL,?XSP + 0
   \   000074   85..83       MOV     DPH,?XSP + 1
   \   000077   78..         MOV     R0,#?V0
   \   000079   12....       LCALL   ?L_MOV_TO_X
    175              return value;                                               //返回有效值
   \   00007C   85..82       MOV     DPL,?XSP + 0
   \   00007F   85..83       MOV     DPH,?XSP + 1
   \   000082   12....       LCALL   ?XLOAD_R2345
   \   000085   7404         MOV     A,#0x4
   \   000087   12....       LCALL   ?DEALLOC_XSTACK8
   \   00008A   7F08         MOV     R7,#0x8
   \   00008C   02....       LJMP    ?BANKED_LEAVE_XDATA
    176          }
    177          
    178          /*********************************************************************************************
    179          * 名称：sensorInit()
    180          * 功能：传感器硬件初始化
    181          * 参数：无
    182          * 返回：无
    183          * 修改：
    184          * 注释：
    185          *********************************************************************************************/

   \                                 In  segment BANKED_CODE, align 1, keep-with-next
    186          void sensorInit(void)
   \                     sensorInit:
    187          {
   \   000000                REQUIRE ?V0
   \   000000                REQUIRE ?V1
   \   000000   74F6         MOV     A,#-0xa
   \   000002   12....       LCALL   ?BANKED_ENTER_XDATA
   \   000005                ; Saved register size: 10
   \   000005                ; Auto size: 0
    188              // 初始化传感器代码
    189              relay_init();                                               // 继电器初始化
   \   000005                ; Setup parameters for call to function relay_init
   \   000005   12....       LCALL   ??relay_init?relay   ; Banked call to: relay_init
    190              htu21d_init();                                              // 温湿度传感器初始化
   \   000008                ; Setup parameters for call to function htu21d_init
   \   000008   12....       LCALL   ??htu21d_init?relay  ; Banked call to: htu21d_init
    191              bh1750_init();                                              // 光强度传感器初始化
   \   00000B                ; Setup parameters for call to function bh1750_init
   \   00000B   12....       LCALL   ??bh1750_init?relay  ; Banked call to: bh1750_init
    192              airgas_init();                                              // 空气质量传感器初始化
   \   00000E                ; Setup parameters for call to function airgas_init
   \   00000E   12....       LCALL   ??airgas_init?relay  ; Banked call to: airgas_init
    193              fan_init();                                                 // 风扇初始化
   \   000011                ; Setup parameters for call to function fan_init
   \   000011   12....       LCALL   ??fan_init?relay     ; Banked call to: fan_init
    194              stepmotor_init();                                           // 步进电机初始化
   \   000014                ; Setup parameters for call to function stepmotor_init
   \   000014   12....       LCALL   ??stepmotor_init?relay; Banked call to: stepmotor_init
    195              BatteryVoltage_init();                                      // 电压测量初始化
   \   000017                ; Setup parameters for call to function BatteryVoltage_init
   \   000017   12....       LCALL   ??BatteryVoltage_init?relay; Banked call to: BatteryVoltage_init
    196          
    197              // 启动定时器，触发传感器上报数据事件：MY_REPORT_EVT
    198              osal_start_timerEx(sapi_TaskID, MY_REPORT_EVT, (uint16)((osal_rand()%10) * 1000));
   \   00001A                ; Setup parameters for call to function osal_rand
   \   00001A   12....       LCALL   ??osal_rand?relay    ; Banked call to: osal_rand
   \   00001D   8A..         MOV     ?V0,R2
   \   00001F   8B..         MOV     ?V1,R3
   \   000021   A8..         MOV     R0,?V0
   \   000023   A9..         MOV     R1,?V1
   \   000025                ; Setup parameters for call to function osal_start_timerEx
   \   000025   7A0A         MOV     R2,#0xa
   \   000027   7B00         MOV     R3,#0x0
   \   000029   12....       LCALL   ?US_DIV_MOD
   \   00002C   EA           MOV     A,R2
   \   00002D   75F0E8       MOV     B,#-0x18
   \   000030   A4           MUL     AB
   \   000031   CA           XCH     A,R2
   \   000032   A8F0         MOV     R0,B
   \   000034   75F003       MOV     B,#0x3
   \   000037   A4           MUL     AB
   \   000038   28           ADD     A,R0
   \   000039   F8           MOV     R0,A
   \   00003A   75F0E8       MOV     B,#-0x18
   \   00003D   EB           MOV     A,R3
   \   00003E   A4           MUL     AB
   \   00003F   28           ADD     A,R0
   \   000040   FB           MOV     R3,A
   \   000041   EA           MOV     A,R2
   \   000042   FC           MOV     R4,A
   \   000043   EB           MOV     A,R3
   \   000044   FD           MOV     R5,A
   \   000045   7A01         MOV     R2,#0x1
   \   000047   7B00         MOV     R3,#0x0
   \   000049   90....       MOV     DPTR,#sapi_TaskID
   \   00004C   E0           MOVX    A,@DPTR
   \   00004D   F9           MOV     R1,A
   \   00004E   12....       LCALL   ??osal_start_timerEx?relay; Banked call to: osal_start_timerEx
   \   000051   E9           MOV     A,R1
    199              // 启动定时器，触发传感器监测事件：MY_CHECK_EVT
    200              osal_start_timerEx(sapi_TaskID, MY_CHECK_EVT, 100);
   \   000052                ; Setup parameters for call to function osal_start_timerEx
   \   000052   7C64         MOV     R4,#0x64
   \   000054   7D00         MOV     R5,#0x0
   \   000056   7A02         MOV     R2,#0x2
   \   000058   7B00         MOV     R3,#0x0
   \   00005A   90....       MOV     DPTR,#sapi_TaskID
   \   00005D   E0           MOVX    A,@DPTR
   \   00005E   F9           MOV     R1,A
   \   00005F   12....       LCALL   ??osal_start_timerEx?relay; Banked call to: osal_start_timerEx
   \   000062   E9           MOV     A,R1
    201          }
   \   000063   7F02         MOV     R7,#0x2
   \   000065   02....       LJMP    ?BANKED_LEAVE_XDATA
    202          /*********************************************************************************************
    203          * 名称：sensorLinkOn()
    204          * 功能：传感器节点入网成功调用函数
    205          * 参数：无
    206          * 返回：无
    207          * 修改：
    208          * 注释：
    209          *********************************************************************************************/

   \                                 In  segment BANKED_CODE, align 1, keep-with-next
    210          void sensorLinkOn(void)
   \                     sensorLinkOn:
    211          {
   \   000000   C082         PUSH    DPL
   \   000002   C083         PUSH    DPH
   \   000004                ; Saved register size: 2
   \   000004                ; Auto size: 0
    212              sensorUpdate();
   \   000004                ; Setup parameters for call to function sensorUpdate
   \   000004   12....       LCALL   ??sensorUpdate?relay ; Banked call to: sensorUpdate
    213          }
   \   000007   D083         POP     DPH
   \   000009   D082         POP     DPL
   \   00000B   02....       LJMP    ?BRET
    214          /*********************************************************************************************
    215          * 名称：sensorUpdate()
    216          * 功能：处理主动上报的数据
    217          * 参数：无
    218          * 返回：无
    219          * 修改：
    220          * 注释：
    221          *********************************************************************************************/

   \                                 In  segment BANKED_CODE, align 1, keep-with-next
    222          void sensorUpdate(void)
   \                     sensorUpdate:
    223          {
   \   000000                REQUIRE ?V0
   \   000000                REQUIRE ?V1
   \   000000   74F6         MOV     A,#-0xa
   \   000002   12....       LCALL   ?BANKED_ENTER_XDATA
   \   000005                ; Saved register size: 10
   \   000005                ; Auto size: 16
   \   000005   74F0         MOV     A,#-0x10
   \   000007   12....       LCALL   ?ALLOC_XSTACK8
    224              char pData[16];
    225              char *p = pData;
   \   00000A   A8..         MOV     R0,?XSP + 0
   \   00000C   A9..         MOV     R1,?XSP + 1
   \   00000E   88..         MOV     ?V0,R0
   \   000010   89..         MOV     ?V1,R1
   \   000012   AE..         MOV     R6,?V0
   \   000014   AF..         MOV     R7,?V1
    226          
    227              
    228              ZXBeeBegin();                                                 // 智云数据帧格式包头
   \   000016                ; Setup parameters for call to function ZXBeeBegin
   \   000016   12....       LCALL   ??ZXBeeBegin?relay   ; Banked call to: ZXBeeBegin
   \   000019   E9           MOV     A,R1
    229          
    230              // 根据D0的位状态判定需要主动上报的数值
    231              if ((D0 & 0x01) == 0x01)                                      // 若温度上报允许，则pData的数据包中添加温度数据
   \   00001A   90....       MOV     DPTR,#D0
   \   00001D   E0           MOVX    A,@DPTR
   \   00001E   A2E0         MOV     C,0xE0 /* A   */.0
   \   000020   5025         JNC     ??sensorUpdate_0
    232              {
    233                  updateA0();
   \   000022                ; Setup parameters for call to function updateA0
   \   000022   12....       LCALL   ??updateA0?relay     ; Banked call to: updateA0
    234                  sprintf(p, "%.1f", A0);
   \   000025                ; Setup parameters for call to function sprintf
   \   000025   90....       MOV     DPTR,#A0
   \   000028   12....       LCALL   ?PUSH_XSTACK8_X_FOUR
   \   00002B   7C..         MOV     R4,#`?<Constant "%.1f">` & 0xff
   \   00002D   7D..         MOV     R5,#(`?<Constant "%.1f">` >> 8) & 0xff
   \   00002F   EE           MOV     A,R6
   \   000030   FA           MOV     R2,A
   \   000031   EF           MOV     A,R7
   \   000032   FB           MOV     R3,A
   \   000033   12....       LCALL   ??sprintf?relay      ; Banked call to: sprintf
   \   000036   7404         MOV     A,#0x4
   \   000038   12....       LCALL   ?DEALLOC_XSTACK8
    235                  ZXBeeAdd("A0", p);
   \   00003B                ; Setup parameters for call to function ZXBeeAdd
   \   00003B   EE           MOV     A,R6
   \   00003C   FC           MOV     R4,A
   \   00003D   EF           MOV     A,R7
   \   00003E   FD           MOV     R5,A
   \   00003F   7A..         MOV     R2,#`?<Constant "A0">` & 0xff
   \   000041   7B..         MOV     R3,#(`?<Constant "A0">` >> 8) & 0xff
   \   000043   12....       LCALL   ??ZXBeeAdd?relay     ; Banked call to: ZXBeeAdd
   \   000046   E9           MOV     A,R1
    236              }
    237              if ((D0 & 0x02) == 0x02)                                      // 若湿度上报允许，则pData的数据包中添加湿度数据
   \                     ??sensorUpdate_0:
   \   000047   90....       MOV     DPTR,#D0
   \   00004A   E0           MOVX    A,@DPTR
   \   00004B   A2E1         MOV     C,0xE0 /* A   */.1
   \   00004D   5025         JNC     ??sensorUpdate_1
    238              {
    239                  updateA1();
   \   00004F                ; Setup parameters for call to function updateA1
   \   00004F   12....       LCALL   ??updateA1?relay     ; Banked call to: updateA1
    240                  sprintf(p, "%.1f", A1);
   \   000052                ; Setup parameters for call to function sprintf
   \   000052   90....       MOV     DPTR,#A1
   \   000055   12....       LCALL   ?PUSH_XSTACK8_X_FOUR
   \   000058   7C..         MOV     R4,#`?<Constant "%.1f">` & 0xff
   \   00005A   7D..         MOV     R5,#(`?<Constant "%.1f">` >> 8) & 0xff
   \   00005C   EE           MOV     A,R6
   \   00005D   FA           MOV     R2,A
   \   00005E   EF           MOV     A,R7
   \   00005F   FB           MOV     R3,A
   \   000060   12....       LCALL   ??sprintf?relay      ; Banked call to: sprintf
   \   000063   7404         MOV     A,#0x4
   \   000065   12....       LCALL   ?DEALLOC_XSTACK8
    241                  ZXBeeAdd("A1", p);
   \   000068                ; Setup parameters for call to function ZXBeeAdd
   \   000068   EE           MOV     A,R6
   \   000069   FC           MOV     R4,A
   \   00006A   EF           MOV     A,R7
   \   00006B   FD           MOV     R5,A
   \   00006C   7A..         MOV     R2,#`?<Constant "A1">` & 0xff
   \   00006E   7B..         MOV     R3,#(`?<Constant "A1">` >> 8) & 0xff
   \   000070   12....       LCALL   ??ZXBeeAdd?relay     ; Banked call to: ZXBeeAdd
   \   000073   E9           MOV     A,R1
    242              }
    243              if ((D0 & 0x04) == 0x04)                                      // 若光照上报允许，则pData的数据包中添加光照数据
   \                     ??sensorUpdate_1:
   \   000074   90....       MOV     DPTR,#D0
   \   000077   E0           MOVX    A,@DPTR
   \   000078   A2E2         MOV     C,0xE0 /* A   */.2
   \   00007A   5025         JNC     ??sensorUpdate_2
    244              {
    245                  updateA2();
   \   00007C                ; Setup parameters for call to function updateA2
   \   00007C   12....       LCALL   ??updateA2?relay     ; Banked call to: updateA2
    246                  sprintf(p, "%.1f", A2);
   \   00007F                ; Setup parameters for call to function sprintf
   \   00007F   90....       MOV     DPTR,#A2
   \   000082   12....       LCALL   ?PUSH_XSTACK8_X_FOUR
   \   000085   7C..         MOV     R4,#`?<Constant "%.1f">` & 0xff
   \   000087   7D..         MOV     R5,#(`?<Constant "%.1f">` >> 8) & 0xff
   \   000089   EE           MOV     A,R6
   \   00008A   FA           MOV     R2,A
   \   00008B   EF           MOV     A,R7
   \   00008C   FB           MOV     R3,A
   \   00008D   12....       LCALL   ??sprintf?relay      ; Banked call to: sprintf
   \   000090   7404         MOV     A,#0x4
   \   000092   12....       LCALL   ?DEALLOC_XSTACK8
    247                  ZXBeeAdd("A2", p);
   \   000095                ; Setup parameters for call to function ZXBeeAdd
   \   000095   EE           MOV     A,R6
   \   000096   FC           MOV     R4,A
   \   000097   EF           MOV     A,R7
   \   000098   FD           MOV     R5,A
   \   000099   7A..         MOV     R2,#`?<Constant "A2">` & 0xff
   \   00009B   7B..         MOV     R3,#(`?<Constant "A2">` >> 8) & 0xff
   \   00009D   12....       LCALL   ??ZXBeeAdd?relay     ; Banked call to: ZXBeeAdd
   \   0000A0   E9           MOV     A,R1
    248              }
    249              if ((D0 & 0x08) == 0x08)                                      // 若空气质量上报允许，则pData的数据包中添加空气质量数据
   \                     ??sensorUpdate_2:
   \   0000A1   90....       MOV     DPTR,#D0
   \   0000A4   E0           MOVX    A,@DPTR
   \   0000A5   A2E3         MOV     C,0xE0 /* A   */.3
   \   0000A7   5025         JNC     ??sensorUpdate_3
    250              {
    251                  updateA3();
   \   0000A9                ; Setup parameters for call to function updateA3
   \   0000A9   12....       LCALL   ??updateA3?relay     ; Banked call to: updateA3
    252                  sprintf(p, "%u", A3);
   \   0000AC                ; Setup parameters for call to function sprintf
   \   0000AC   90....       MOV     DPTR,#A3
   \   0000AF   12....       LCALL   ?PUSH_XSTACK8_X_TWO
   \   0000B2   7C..         MOV     R4,#`?<Constant "%u">` & 0xff
   \   0000B4   7D..         MOV     R5,#(`?<Constant "%u">` >> 8) & 0xff
   \   0000B6   EE           MOV     A,R6
   \   0000B7   FA           MOV     R2,A
   \   0000B8   EF           MOV     A,R7
   \   0000B9   FB           MOV     R3,A
   \   0000BA   12....       LCALL   ??sprintf?relay      ; Banked call to: sprintf
   \   0000BD   7402         MOV     A,#0x2
   \   0000BF   12....       LCALL   ?DEALLOC_XSTACK8
    253                  ZXBeeAdd("A3", p);
   \   0000C2                ; Setup parameters for call to function ZXBeeAdd
   \   0000C2   EE           MOV     A,R6
   \   0000C3   FC           MOV     R4,A
   \   0000C4   EF           MOV     A,R7
   \   0000C5   FD           MOV     R5,A
   \   0000C6   7A..         MOV     R2,#`?<Constant "A3">` & 0xff
   \   0000C8   7B..         MOV     R3,#(`?<Constant "A3">` >> 8) & 0xff
   \   0000CA   12....       LCALL   ??ZXBeeAdd?relay     ; Banked call to: ZXBeeAdd
   \   0000CD   E9           MOV     A,R1
    254              }
    255              if ((D0 & (1<<7)) == (1<<7))                                      // 若大气压力上报允许，则pData的数据包中添加大气压力数据
   \                     ??sensorUpdate_3:
   \   0000CE   90....       MOV     DPTR,#D0
   \   0000D1   E0           MOVX    A,@DPTR
   \   0000D2   A2E7         MOV     C,0xE0 /* A   */.7
   \   0000D4   5022         JNC     ??sensorUpdate_4
    256              {
    257                  //updateA7();
    258                  sprintf(p, "%.1f", A7);
   \   0000D6                ; Setup parameters for call to function sprintf
   \   0000D6   90....       MOV     DPTR,#A7
   \   0000D9   12....       LCALL   ?PUSH_XSTACK8_X_FOUR
   \   0000DC   7C..         MOV     R4,#`?<Constant "%.1f">` & 0xff
   \   0000DE   7D..         MOV     R5,#(`?<Constant "%.1f">` >> 8) & 0xff
   \   0000E0   EE           MOV     A,R6
   \   0000E1   FA           MOV     R2,A
   \   0000E2   EF           MOV     A,R7
   \   0000E3   FB           MOV     R3,A
   \   0000E4   12....       LCALL   ??sprintf?relay      ; Banked call to: sprintf
   \   0000E7   7404         MOV     A,#0x4
   \   0000E9   12....       LCALL   ?DEALLOC_XSTACK8
    259                  ZXBeeAdd("A7", p);
   \   0000EC                ; Setup parameters for call to function ZXBeeAdd
   \   0000EC   EE           MOV     A,R6
   \   0000ED   FC           MOV     R4,A
   \   0000EE   EF           MOV     A,R7
   \   0000EF   FD           MOV     R5,A
   \   0000F0   7A..         MOV     R2,#`?<Constant "A7">` & 0xff
   \   0000F2   7B..         MOV     R3,#(`?<Constant "A7">` >> 8) & 0xff
   \   0000F4   12....       LCALL   ??ZXBeeAdd?relay     ; Banked call to: ZXBeeAdd
   \   0000F7   E9           MOV     A,R1
    260              }
    261          
    262              sprintf(p, "%u", D1);                                  // 上报控制编码
   \                     ??sensorUpdate_4:
   \   0000F8                ; Setup parameters for call to function sprintf
   \   0000F8   90....       MOV     DPTR,#D1
   \   0000FB   E0           MOVX    A,@DPTR
   \   0000FC   F5..         MOV     ?V0,A
   \   0000FE   75..00       MOV     ?V1,#0x0
   \   000101   78..         MOV     R0,#?V0
   \   000103   12....       LCALL   ?PUSH_XSTACK_I_TWO
   \   000106   7C..         MOV     R4,#`?<Constant "%u">` & 0xff
   \   000108   7D..         MOV     R5,#(`?<Constant "%u">` >> 8) & 0xff
   \   00010A   EE           MOV     A,R6
   \   00010B   FA           MOV     R2,A
   \   00010C   EF           MOV     A,R7
   \   00010D   FB           MOV     R3,A
   \   00010E   12....       LCALL   ??sprintf?relay      ; Banked call to: sprintf
   \   000111   7402         MOV     A,#0x2
   \   000113   12....       LCALL   ?DEALLOC_XSTACK8
    263              ZXBeeAdd("D1", p);
   \   000116                ; Setup parameters for call to function ZXBeeAdd
   \   000116   EE           MOV     A,R6
   \   000117   FC           MOV     R4,A
   \   000118   EF           MOV     A,R7
   \   000119   FD           MOV     R5,A
   \   00011A   7A..         MOV     R2,#`?<Constant "D1">` & 0xff
   \   00011C   7B..         MOV     R3,#(`?<Constant "D1">` >> 8) & 0xff
   \   00011E   12....       LCALL   ??ZXBeeAdd?relay     ; Banked call to: ZXBeeAdd
   \   000121   E9           MOV     A,R1
    264          
    265              p = ZXBeeEnd();                                               // 智云数据帧格式包尾
   \   000122                ; Setup parameters for call to function ZXBeeEnd
   \   000122   12....       LCALL   ??ZXBeeEnd?relay     ; Banked call to: ZXBeeEnd
   \   000125   8A..         MOV     ?V0,R2
   \   000127   8B..         MOV     ?V1,R3
   \   000129   AE..         MOV     R6,?V0
   \   00012B   AF..         MOV     R7,?V1
    266              if (p != NULL)
   \   00012D   EE           MOV     A,R6
   \   00012E   4F           ORL     A,R7
   \   00012F   6016         JZ      ??sensorUpdate_5
    267              {
    268                  ZXBeeInfSend(p, strlen(p));	                                // 将需要上传的数据进行打包操作，并通过zb_SendDataRequest()发送到协调器
   \   000131                ; Setup parameters for call to function strlen
   \   000131   EE           MOV     A,R6
   \   000132   FA           MOV     R2,A
   \   000133   EF           MOV     A,R7
   \   000134   FB           MOV     R3,A
   \   000135   12....       LCALL   ??strlen?relay       ; Banked call to: strlen
   \   000138   8A..         MOV     ?V0,R2
   \   00013A   8B..         MOV     ?V1,R3
   \   00013C   AC..         MOV     R4,?V0
   \   00013E   AD..         MOV     R5,?V1
   \   000140                ; Setup parameters for call to function ZXBeeInfSend
   \   000140   EE           MOV     A,R6
   \   000141   FA           MOV     R2,A
   \   000142   EF           MOV     A,R7
   \   000143   FB           MOV     R3,A
   \   000144   12....       LCALL   ??ZXBeeInfSend?relay ; Banked call to: ZXBeeInfSend
    269              }
    270          }
   \                     ??sensorUpdate_5:
   \   000147   7410         MOV     A,#0x10
   \   000149   12....       LCALL   ?DEALLOC_XSTACK8
   \   00014C   7F02         MOV     R7,#0x2
   \   00014E   02....       LJMP    ?BANKED_LEAVE_XDATA
    271          
    272          /*********************************************************************************************
    273          * 名称：sensorCheck()
    274          * 功能：传感器监测
    275          * 参数：无
    276          * 返回：无
    277          * 修改：
    278          * 注释：
    279          *********************************************************************************************/

   \                                 In  segment BANKED_CODE, align 1, keep-with-next
    280          void sensorCheck(void)
   \                     sensorCheck:
    281          {
   \   000000   C082         PUSH    DPL
   \   000002   C083         PUSH    DPH
   \   000004                ; Saved register size: 2
   \   000004                ; Auto size: 0
    282              updateA7();
   \   000004                ; Setup parameters for call to function updateA7
   \   000004   12....       LCALL   ??updateA7?relay     ; Banked call to: updateA7
    283          }
   \   000007   D083         POP     DPH
   \   000009   D082         POP     DPL
   \   00000B   02....       LJMP    ?BRET
    284          /*********************************************************************************************
    285          * 名称：sensorControl()
    286          * 功能：传感器控制
    287          * 参数：cmd - 控制命令
    288          * 返回：无
    289          * 修改：
    290          * 注释：
    291          *********************************************************************************************/

   \                                 In  segment BANKED_CODE, align 1, keep-with-next
    292          void sensorControl(uint8 cmd)
   \                     sensorControl:
    293          {
   \   000000   74F7         MOV     A,#-0x9
   \   000002   12....       LCALL   ?BANKED_ENTER_XDATA
   \   000005                ; Saved register size: 9
   \   000005                ; Auto size: 0
   \   000005   E9           MOV     A,R1
   \   000006   FE           MOV     R6,A
    294              static uint8 stepmotor_dir=0;
    295              
    296              /* 电机控制 */
    297              if(cmd & 0x01)
   \   000007   EE           MOV     A,R6
   \   000008   A2E0         MOV     C,0xE0 /* A   */.0
   \   00000A   5015         JNC     ??sensorControl_0
    298              {
    299                  if(!stepmotor_dir)
   \   00000C   90....       MOV     DPTR,#??stepmotor_dir
   \   00000F   E0           MOVX    A,@DPTR
   \   000010   7022         JNZ     ??sensorControl_1
    300                  {
    301                      stepmotor_dir=1;
   \   000012   90....       MOV     DPTR,#??stepmotor_dir
   \   000015   7401         MOV     A,#0x1
   \   000017   F0           MOVX    @DPTR,A
    302                      forward(5000);
   \   000018                ; Setup parameters for call to function forward
   \   000018   7A88         MOV     R2,#-0x78
   \   00001A   7B13         MOV     R3,#0x13
   \   00001C   12....       LCALL   ??forward?relay      ; Banked call to: forward
   \   00001F   8013         SJMP    ??sensorControl_1
    303                  }
    304              }
    305              else
    306              {
    307                  if(stepmotor_dir)
   \                     ??sensorControl_0:
   \   000021   90....       MOV     DPTR,#??stepmotor_dir
   \   000024   E0           MOVX    A,@DPTR
   \   000025   600D         JZ      ??sensorControl_1
    308                  {
    309                      stepmotor_dir=0;
   \   000027   90....       MOV     DPTR,#??stepmotor_dir
   \   00002A   7400         MOV     A,#0x0
   \   00002C   F0           MOVX    @DPTR,A
    310                      reversion(5000);
   \   00002D                ; Setup parameters for call to function reversion
   \   00002D   7A88         MOV     R2,#-0x78
   \   00002F   7B13         MOV     R3,#0x13
   \   000031   12....       LCALL   ??reversion?relay    ; Banked call to: reversion
    311                  }
    312              }
    313          
    314              /* 风扇控制 */
    315              if(cmd & 0x02)
   \                     ??sensorControl_1:
   \   000034   EE           MOV     A,R6
   \   000035   A2E1         MOV     C,0xE0 /* A   */.1
   \   000037   5004         JNC     ??sensorControl_2
    316              {
    317                  FANIO = FAN_ON;                                         // 开启风扇
   \   000039   D283         SETB    0x80.3
   \   00003B   8002         SJMP    ??sensorControl_3
    318              }
    319              else
    320              {
    321                  FANIO = FAN_OFF;                                        // 开启风扇
   \                     ??sensorControl_2:
   \   00003D   C283         CLR     0x80.3
    322              }
    323              
    324              /*继电器控制*/
    325              if(D1&0x04)
   \                     ??sensorControl_3:
   \   00003F   90....       MOV     DPTR,#D1
   \   000042   E0           MOVX    A,@DPTR
   \   000043   A2E2         MOV     C,0xE0 /* A   */.2
   \   000045   5007         JNC     ??sensorControl_4
    326                  relay_on(0x01);
   \   000047                ; Setup parameters for call to function relay_on
   \   000047   7901         MOV     R1,#0x1
   \   000049   12....       LCALL   ??relay_on?relay     ; Banked call to: relay_on
   \   00004C   8005         SJMP    ??sensorControl_5
    327              else
    328                  relay_off(0x01);
   \                     ??sensorControl_4:
   \   00004E                ; Setup parameters for call to function relay_off
   \   00004E   7901         MOV     R1,#0x1
   \   000050   12....       LCALL   ??relay_off?relay    ; Banked call to: relay_off
    329              
    330              if(D1&0x08)
   \                     ??sensorControl_5:
   \   000053   90....       MOV     DPTR,#D1
   \   000056   E0           MOVX    A,@DPTR
   \   000057   A2E3         MOV     C,0xE0 /* A   */.3
   \   000059   5007         JNC     ??sensorControl_6
    331                  relay_on(0x02);
   \   00005B                ; Setup parameters for call to function relay_on
   \   00005B   7902         MOV     R1,#0x2
   \   00005D   12....       LCALL   ??relay_on?relay     ; Banked call to: relay_on
   \   000060   8005         SJMP    ??sensorControl_7
    332              else
    333                  relay_off(0x02);
   \                     ??sensorControl_6:
   \   000062                ; Setup parameters for call to function relay_off
   \   000062   7902         MOV     R1,#0x2
   \   000064   12....       LCALL   ??relay_off?relay    ; Banked call to: relay_off
    334          }
   \                     ??sensorControl_7:
   \   000067   7F01         MOV     R7,#0x1
   \   000069   02....       LJMP    ?BANKED_LEAVE_XDATA
   \   00006C                REQUIRE _A_P0

   \                                 In  segment XDATA_Z, align 1, keep-with-next
   \                     ??stepmotor_dir:
   \   000000                DS 1
   \   000001                REQUIRE __INIT_XDATA_Z
    335          /*********************************************************************************************
    336          * 名称：ZXBeeUserProcess()
    337          * 功能：解析收到的控制命令
    338          * 参数：*ptag -- 控制命令名称
    339          *       *pval -- 控制命令参数
    340          * 返回：<0:不支持指令，>=0 指令已处理
    341          * 修改：
    342          * 注释：
    343          *********************************************************************************************/

   \                                 In  segment BANKED_CODE, align 1, keep-with-next
    344          int ZXBeeUserProcess(char *ptag, char *pval)
   \                     ZXBeeUserProcess:
    345          {
   \   000000                REQUIRE ?V0
   \   000000                REQUIRE ?V1
   \   000000                REQUIRE ?V2
   \   000000                REQUIRE ?V3
   \   000000                REQUIRE ?V4
   \   000000                REQUIRE ?V5
   \   000000                REQUIRE ?V6
   \   000000                REQUIRE ?V7
   \   000000   74F0         MOV     A,#-0x10
   \   000002   12....       LCALL   ?BANKED_ENTER_XDATA
   \   000005                ; Saved register size: 16
   \   000005                ; Auto size: 18
   \   000005   74EE         MOV     A,#-0x12
   \   000007   12....       LCALL   ?ALLOC_XSTACK8
   \   00000A   85..82       MOV     DPL,?XSP + 0
   \   00000D   85..83       MOV     DPH,?XSP + 1
   \   000010   EC           MOV     A,R4
   \   000011   F0           MOVX    @DPTR,A
   \   000012   A3           INC     DPTR
   \   000013   ED           MOV     A,R5
   \   000014   F0           MOVX    @DPTR,A
   \   000015   8A..         MOV     ?V6,R2
   \   000017   8B..         MOV     ?V7,R3
    346              int val;
    347              int ret = 0;
   \   000019   75..00       MOV     ?V0,#0x0
   \   00001C   75..00       MOV     ?V1,#0x0
    348              char pData[16];
    349              char *p = pData;
   \   00001F   7402         MOV     A,#0x2
   \   000021   12....       LCALL   ?XSTACK_DISP100_8
   \   000024   88..         MOV     ?V4,R0
   \   000026   89..         MOV     ?V5,R1
   \   000028   85....       MOV     ?V2,?V4
   \   00002B   85....       MOV     ?V3,?V5
    350          
    351              // 将字符串变量pval解析转换为整型变量赋值
    352              val = atoi(pval);
   \   00002E                ; Setup parameters for call to function atoi
   \   00002E   85..82       MOV     DPL,?XSP + 0
   \   000031   85..83       MOV     DPH,?XSP + 1
   \   000034   E0           MOVX    A,@DPTR
   \   000035   FA           MOV     R2,A
   \   000036   A3           INC     DPTR
   \   000037   E0           MOVX    A,@DPTR
   \   000038   FB           MOV     R3,A
   \   000039   12....       LCALL   ??atoi?relay         ; Banked call to: atoi
   \   00003C   8A..         MOV     ?V4,R2
   \   00003E   8B..         MOV     ?V5,R3
   \   000040   AE..         MOV     R6,?V4
   \   000042   AF..         MOV     R7,?V5
    353              // 控制命令解析
    354              if (0 == strcmp("CD0", ptag))                                 // 对D0的位进行操作，CD0表示位清零操作
   \   000044                ; Setup parameters for call to function strcmp
   \   000044   AC..         MOV     R4,?V6
   \   000046   AD..         MOV     R5,?V7
   \   000048   7A..         MOV     R2,#`?<Constant "CD0">` & 0xff
   \   00004A   7B..         MOV     R3,#(`?<Constant "CD0">` >> 8) & 0xff
   \   00004C   12....       LCALL   ??strcmp?relay       ; Banked call to: strcmp
   \   00004F   8A..         MOV     ?V4,R2
   \   000051   8B..         MOV     ?V5,R3
   \   000053   E5..         MOV     A,?V4
   \   000055   45..         ORL     A,?V5
   \   000057   7009         JNZ     ??ZXBeeUserProcess_0
    355              {
    356                  D0 &= ~val;
   \   000059   EE           MOV     A,R6
   \   00005A   F4           CPL     A
   \   00005B   F8           MOV     R0,A
   \   00005C   90....       MOV     DPTR,#D0
   \   00005F   E0           MOVX    A,@DPTR
   \   000060   58           ANL     A,R0
   \   000061   F0           MOVX    @DPTR,A
    357              }
    358              if (0 == strcmp("OD0", ptag))                                 // 对D0的位进行操作，OD0表示位置一操作
   \                     ??ZXBeeUserProcess_0:
   \   000062                ; Setup parameters for call to function strcmp
   \   000062   AC..         MOV     R4,?V6
   \   000064   AD..         MOV     R5,?V7
   \   000066   7A..         MOV     R2,#`?<Constant "OD0">` & 0xff
   \   000068   7B..         MOV     R3,#(`?<Constant "OD0">` >> 8) & 0xff
   \   00006A   12....       LCALL   ??strcmp?relay       ; Banked call to: strcmp
   \   00006D   8A..         MOV     ?V4,R2
   \   00006F   8B..         MOV     ?V5,R3
   \   000071   E5..         MOV     A,?V4
   \   000073   45..         ORL     A,?V5
   \   000075   7008         JNZ     ??ZXBeeUserProcess_1
    359              {
    360                  D0 |= val;
   \   000077   EE           MOV     A,R6
   \   000078   F8           MOV     R0,A
   \   000079   90....       MOV     DPTR,#D0
   \   00007C   E0           MOVX    A,@DPTR
   \   00007D   48           ORL     A,R0
   \   00007E   F0           MOVX    @DPTR,A
    361              }
    362              if (0 == strcmp("D0", ptag))                                  // 查询上报使能编码
   \                     ??ZXBeeUserProcess_1:
   \   00007F                ; Setup parameters for call to function strcmp
   \   00007F   AC..         MOV     R4,?V6
   \   000081   AD..         MOV     R5,?V7
   \   000083   7A..         MOV     R2,#`?<Constant "D0">` & 0xff
   \   000085   7B..         MOV     R3,#(`?<Constant "D0">` >> 8) & 0xff
   \   000087   12....       LCALL   ??strcmp?relay       ; Banked call to: strcmp
   \   00008A   8A..         MOV     ?V4,R2
   \   00008C   8B..         MOV     ?V5,R3
   \   00008E   E5..         MOV     A,?V4
   \   000090   45..         ORL     A,?V5
   \   000092   7050         JNZ     ??ZXBeeUserProcess_2
    363              {
    364                  if (0 == strcmp("?", pval))
   \   000094                ; Setup parameters for call to function strcmp
   \   000094   85..82       MOV     DPL,?XSP + 0
   \   000097   85..83       MOV     DPH,?XSP + 1
   \   00009A   E0           MOVX    A,@DPTR
   \   00009B   FC           MOV     R4,A
   \   00009C   A3           INC     DPTR
   \   00009D   E0           MOVX    A,@DPTR
   \   00009E   FD           MOV     R5,A
   \   00009F   7A..         MOV     R2,#`?<Constant "?">` & 0xff
   \   0000A1   7B..         MOV     R3,#(`?<Constant "?">` >> 8) & 0xff
   \   0000A3   12....       LCALL   ??strcmp?relay       ; Banked call to: strcmp
   \   0000A6   8A..         MOV     ?V4,R2
   \   0000A8   8B..         MOV     ?V5,R3
   \   0000AA   E5..         MOV     A,?V4
   \   0000AC   45..         ORL     A,?V5
   \   0000AE   7034         JNZ     ??ZXBeeUserProcess_2
    365                  {
    366                      ret = sprintf(p, "%u", D0);
   \   0000B0                ; Setup parameters for call to function sprintf
   \   0000B0   90....       MOV     DPTR,#D0
   \   0000B3   E0           MOVX    A,@DPTR
   \   0000B4   F5..         MOV     ?V4,A
   \   0000B6   75..00       MOV     ?V5,#0x0
   \   0000B9   78..         MOV     R0,#?V4
   \   0000BB   12....       LCALL   ?PUSH_XSTACK_I_TWO
   \   0000BE   7C..         MOV     R4,#`?<Constant "%u">` & 0xff
   \   0000C0   7D..         MOV     R5,#(`?<Constant "%u">` >> 8) & 0xff
   \   0000C2   AA..         MOV     R2,?V2
   \   0000C4   AB..         MOV     R3,?V3
   \   0000C6   12....       LCALL   ??sprintf?relay      ; Banked call to: sprintf
   \   0000C9   7402         MOV     A,#0x2
   \   0000CB   12....       LCALL   ?DEALLOC_XSTACK8
   \   0000CE   8A..         MOV     ?V4,R2
   \   0000D0   8B..         MOV     ?V5,R3
   \   0000D2   85....       MOV     ?V0,?V4
   \   0000D5   85....       MOV     ?V1,?V5
    367                      ZXBeeAdd("D0", p);
   \   0000D8                ; Setup parameters for call to function ZXBeeAdd
   \   0000D8   AC..         MOV     R4,?V2
   \   0000DA   AD..         MOV     R5,?V3
   \   0000DC   7A..         MOV     R2,#`?<Constant "D0">` & 0xff
   \   0000DE   7B..         MOV     R3,#(`?<Constant "D0">` >> 8) & 0xff
   \   0000E0   12....       LCALL   ??ZXBeeAdd?relay     ; Banked call to: ZXBeeAdd
   \   0000E3   E9           MOV     A,R1
    368                  }
    369              }
    370              if (0 == strcmp("CD1", ptag))                                 // 对D1的位进行操作，CD1表示位清零操作
   \                     ??ZXBeeUserProcess_2:
   \   0000E4                ; Setup parameters for call to function strcmp
   \   0000E4   AC..         MOV     R4,?V6
   \   0000E6   AD..         MOV     R5,?V7
   \   0000E8   7A..         MOV     R2,#`?<Constant "CD1">` & 0xff
   \   0000EA   7B..         MOV     R3,#(`?<Constant "CD1">` >> 8) & 0xff
   \   0000EC   12....       LCALL   ??strcmp?relay       ; Banked call to: strcmp
   \   0000EF   8A..         MOV     ?V4,R2
   \   0000F1   8B..         MOV     ?V5,R3
   \   0000F3   E5..         MOV     A,?V4
   \   0000F5   45..         ORL     A,?V5
   \   0000F7   7011         JNZ     ??ZXBeeUserProcess_3
    371              {
    372                  D1 &= ~val;
   \   0000F9   EE           MOV     A,R6
   \   0000FA   F4           CPL     A
   \   0000FB   F8           MOV     R0,A
   \   0000FC   90....       MOV     DPTR,#D1
   \   0000FF   E0           MOVX    A,@DPTR
   \   000100   58           ANL     A,R0
   \   000101   F0           MOVX    @DPTR,A
    373                  sensorControl(D1);                                          // 处理执行命令
   \   000102                ; Setup parameters for call to function sensorControl
   \   000102   90....       MOV     DPTR,#D1
   \   000105   E0           MOVX    A,@DPTR
   \   000106   F9           MOV     R1,A
   \   000107   12....       LCALL   ??sensorControl?relay; Banked call to: sensorControl
    374              }
    375              if (0 == strcmp("OD1", ptag))                                 // 对D1的位进行操作，OD1表示位置一操作
   \                     ??ZXBeeUserProcess_3:
   \   00010A                ; Setup parameters for call to function strcmp
   \   00010A   AC..         MOV     R4,?V6
   \   00010C   AD..         MOV     R5,?V7
   \   00010E   7A..         MOV     R2,#`?<Constant "OD1">` & 0xff
   \   000110   7B..         MOV     R3,#(`?<Constant "OD1">` >> 8) & 0xff
   \   000112   12....       LCALL   ??strcmp?relay       ; Banked call to: strcmp
   \   000115   8A..         MOV     ?V4,R2
   \   000117   8B..         MOV     ?V5,R3
   \   000119   E5..         MOV     A,?V4
   \   00011B   45..         ORL     A,?V5
   \   00011D   7010         JNZ     ??ZXBeeUserProcess_4
    376              {
    377                  D1 |= val;
   \   00011F   EE           MOV     A,R6
   \   000120   F8           MOV     R0,A
   \   000121   90....       MOV     DPTR,#D1
   \   000124   E0           MOVX    A,@DPTR
   \   000125   48           ORL     A,R0
   \   000126   F0           MOVX    @DPTR,A
    378                  sensorControl(D1);                                          // 处理执行命令
   \   000127                ; Setup parameters for call to function sensorControl
   \   000127   90....       MOV     DPTR,#D1
   \   00012A   E0           MOVX    A,@DPTR
   \   00012B   F9           MOV     R1,A
   \   00012C   12....       LCALL   ??sensorControl?relay; Banked call to: sensorControl
    379              }
    380              if (0 == strcmp("D1", ptag))                                  // 查询执行器命令编码
   \                     ??ZXBeeUserProcess_4:
   \   00012F                ; Setup parameters for call to function strcmp
   \   00012F   AC..         MOV     R4,?V6
   \   000131   AD..         MOV     R5,?V7
   \   000133   7A..         MOV     R2,#`?<Constant "D1">` & 0xff
   \   000135   7B..         MOV     R3,#(`?<Constant "D1">` >> 8) & 0xff
   \   000137   12....       LCALL   ??strcmp?relay       ; Banked call to: strcmp
   \   00013A   8A..         MOV     ?V4,R2
   \   00013C   8B..         MOV     ?V5,R3
   \   00013E   E5..         MOV     A,?V4
   \   000140   45..         ORL     A,?V5
   \   000142   7050         JNZ     ??ZXBeeUserProcess_5
    381              {
    382                  if (0 == strcmp("?", pval))
   \   000144                ; Setup parameters for call to function strcmp
   \   000144   85..82       MOV     DPL,?XSP + 0
   \   000147   85..83       MOV     DPH,?XSP + 1
   \   00014A   E0           MOVX    A,@DPTR
   \   00014B   FC           MOV     R4,A
   \   00014C   A3           INC     DPTR
   \   00014D   E0           MOVX    A,@DPTR
   \   00014E   FD           MOV     R5,A
   \   00014F   7A..         MOV     R2,#`?<Constant "?">` & 0xff
   \   000151   7B..         MOV     R3,#(`?<Constant "?">` >> 8) & 0xff
   \   000153   12....       LCALL   ??strcmp?relay       ; Banked call to: strcmp
   \   000156   8A..         MOV     ?V4,R2
   \   000158   8B..         MOV     ?V5,R3
   \   00015A   E5..         MOV     A,?V4
   \   00015C   45..         ORL     A,?V5
   \   00015E   7034         JNZ     ??ZXBeeUserProcess_5
    383                  {
    384                      ret = sprintf(p, "%u", D1);
   \   000160                ; Setup parameters for call to function sprintf
   \   000160   90....       MOV     DPTR,#D1
   \   000163   E0           MOVX    A,@DPTR
   \   000164   F5..         MOV     ?V4,A
   \   000166   75..00       MOV     ?V5,#0x0
   \   000169   78..         MOV     R0,#?V4
   \   00016B   12....       LCALL   ?PUSH_XSTACK_I_TWO
   \   00016E   7C..         MOV     R4,#`?<Constant "%u">` & 0xff
   \   000170   7D..         MOV     R5,#(`?<Constant "%u">` >> 8) & 0xff
   \   000172   AA..         MOV     R2,?V2
   \   000174   AB..         MOV     R3,?V3
   \   000176   12....       LCALL   ??sprintf?relay      ; Banked call to: sprintf
   \   000179   7402         MOV     A,#0x2
   \   00017B   12....       LCALL   ?DEALLOC_XSTACK8
   \   00017E   8A..         MOV     ?V4,R2
   \   000180   8B..         MOV     ?V5,R3
   \   000182   85....       MOV     ?V0,?V4
   \   000185   85....       MOV     ?V1,?V5
    385                      ZXBeeAdd("D1", p);
   \   000188                ; Setup parameters for call to function ZXBeeAdd
   \   000188   AC..         MOV     R4,?V2
   \   00018A   AD..         MOV     R5,?V3
   \   00018C   7A..         MOV     R2,#`?<Constant "D1">` & 0xff
   \   00018E   7B..         MOV     R3,#(`?<Constant "D1">` >> 8) & 0xff
   \   000190   12....       LCALL   ??ZXBeeAdd?relay     ; Banked call to: ZXBeeAdd
   \   000193   E9           MOV     A,R1
    386                  }
    387              }
    388              if (0 == strcmp("A0", ptag))
   \                     ??ZXBeeUserProcess_5:
   \   000194                ; Setup parameters for call to function strcmp
   \   000194   AC..         MOV     R4,?V6
   \   000196   AD..         MOV     R5,?V7
   \   000198   7A..         MOV     R2,#`?<Constant "A0">` & 0xff
   \   00019A   7B..         MOV     R3,#(`?<Constant "A0">` >> 8) & 0xff
   \   00019C   12....       LCALL   ??strcmp?relay       ; Banked call to: strcmp
   \   00019F   8A..         MOV     ?V4,R2
   \   0001A1   8B..         MOV     ?V5,R3
   \   0001A3   E5..         MOV     A,?V4
   \   0001A5   45..         ORL     A,?V5
   \   0001A7   704B         JNZ     ??ZXBeeUserProcess_6
    389              {
    390                  if (0 == strcmp("?", pval))
   \   0001A9                ; Setup parameters for call to function strcmp
   \   0001A9   85..82       MOV     DPL,?XSP + 0
   \   0001AC   85..83       MOV     DPH,?XSP + 1
   \   0001AF   E0           MOVX    A,@DPTR
   \   0001B0   FC           MOV     R4,A
   \   0001B1   A3           INC     DPTR
   \   0001B2   E0           MOVX    A,@DPTR
   \   0001B3   FD           MOV     R5,A
   \   0001B4   7A..         MOV     R2,#`?<Constant "?">` & 0xff
   \   0001B6   7B..         MOV     R3,#(`?<Constant "?">` >> 8) & 0xff
   \   0001B8   12....       LCALL   ??strcmp?relay       ; Banked call to: strcmp
   \   0001BB   8A..         MOV     ?V4,R2
   \   0001BD   8B..         MOV     ?V5,R3
   \   0001BF   E5..         MOV     A,?V4
   \   0001C1   45..         ORL     A,?V5
   \   0001C3   702F         JNZ     ??ZXBeeUserProcess_6
    391                  {
    392                      updateA0();
   \   0001C5                ; Setup parameters for call to function updateA0
   \   0001C5   12....       LCALL   ??updateA0?relay     ; Banked call to: updateA0
    393                      ret = sprintf(p, "%.1f", A0);
   \   0001C8                ; Setup parameters for call to function sprintf
   \   0001C8   90....       MOV     DPTR,#A0
   \   0001CB   12....       LCALL   ?PUSH_XSTACK8_X_FOUR
   \   0001CE   7C..         MOV     R4,#`?<Constant "%.1f">` & 0xff
   \   0001D0   7D..         MOV     R5,#(`?<Constant "%.1f">` >> 8) & 0xff
   \   0001D2   AA..         MOV     R2,?V2
   \   0001D4   AB..         MOV     R3,?V3
   \   0001D6   12....       LCALL   ??sprintf?relay      ; Banked call to: sprintf
   \   0001D9   7404         MOV     A,#0x4
   \   0001DB   12....       LCALL   ?DEALLOC_XSTACK8
   \   0001DE   8A..         MOV     ?V4,R2
   \   0001E0   8B..         MOV     ?V5,R3
   \   0001E2   85....       MOV     ?V0,?V4
   \   0001E5   85....       MOV     ?V1,?V5
    394                      ZXBeeAdd("A0", p);
   \   0001E8                ; Setup parameters for call to function ZXBeeAdd
   \   0001E8   AC..         MOV     R4,?V2
   \   0001EA   AD..         MOV     R5,?V3
   \   0001EC   7A..         MOV     R2,#`?<Constant "A0">` & 0xff
   \   0001EE   7B..         MOV     R3,#(`?<Constant "A0">` >> 8) & 0xff
   \   0001F0   12....       LCALL   ??ZXBeeAdd?relay     ; Banked call to: ZXBeeAdd
   \   0001F3   E9           MOV     A,R1
    395                  }
    396              }
    397              if (0 == strcmp("A1", ptag))
   \                     ??ZXBeeUserProcess_6:
   \   0001F4                ; Setup parameters for call to function strcmp
   \   0001F4   AC..         MOV     R4,?V6
   \   0001F6   AD..         MOV     R5,?V7
   \   0001F8   7A..         MOV     R2,#`?<Constant "A1">` & 0xff
   \   0001FA   7B..         MOV     R3,#(`?<Constant "A1">` >> 8) & 0xff
   \   0001FC   12....       LCALL   ??strcmp?relay       ; Banked call to: strcmp
   \   0001FF   8A..         MOV     ?V4,R2
   \   000201   8B..         MOV     ?V5,R3
   \   000203   E5..         MOV     A,?V4
   \   000205   45..         ORL     A,?V5
   \   000207   704B         JNZ     ??ZXBeeUserProcess_7
    398              {
    399                  if (0 == strcmp("?", pval))
   \   000209                ; Setup parameters for call to function strcmp
   \   000209   85..82       MOV     DPL,?XSP + 0
   \   00020C   85..83       MOV     DPH,?XSP + 1
   \   00020F   E0           MOVX    A,@DPTR
   \   000210   FC           MOV     R4,A
   \   000211   A3           INC     DPTR
   \   000212   E0           MOVX    A,@DPTR
   \   000213   FD           MOV     R5,A
   \   000214   7A..         MOV     R2,#`?<Constant "?">` & 0xff
   \   000216   7B..         MOV     R3,#(`?<Constant "?">` >> 8) & 0xff
   \   000218   12....       LCALL   ??strcmp?relay       ; Banked call to: strcmp
   \   00021B   8A..         MOV     ?V4,R2
   \   00021D   8B..         MOV     ?V5,R3
   \   00021F   E5..         MOV     A,?V4
   \   000221   45..         ORL     A,?V5
   \   000223   702F         JNZ     ??ZXBeeUserProcess_7
    400                  {
    401                      updateA1();
   \   000225                ; Setup parameters for call to function updateA1
   \   000225   12....       LCALL   ??updateA1?relay     ; Banked call to: updateA1
    402                      ret = sprintf(p, "%.1f", A1);
   \   000228                ; Setup parameters for call to function sprintf
   \   000228   90....       MOV     DPTR,#A1
   \   00022B   12....       LCALL   ?PUSH_XSTACK8_X_FOUR
   \   00022E   7C..         MOV     R4,#`?<Constant "%.1f">` & 0xff
   \   000230   7D..         MOV     R5,#(`?<Constant "%.1f">` >> 8) & 0xff
   \   000232   AA..         MOV     R2,?V2
   \   000234   AB..         MOV     R3,?V3
   \   000236   12....       LCALL   ??sprintf?relay      ; Banked call to: sprintf
   \   000239   7404         MOV     A,#0x4
   \   00023B   12....       LCALL   ?DEALLOC_XSTACK8
   \   00023E   8A..         MOV     ?V4,R2
   \   000240   8B..         MOV     ?V5,R3
   \   000242   85....       MOV     ?V0,?V4
   \   000245   85....       MOV     ?V1,?V5
    403                      ZXBeeAdd("A1", p);
   \   000248                ; Setup parameters for call to function ZXBeeAdd
   \   000248   AC..         MOV     R4,?V2
   \   00024A   AD..         MOV     R5,?V3
   \   00024C   7A..         MOV     R2,#`?<Constant "A1">` & 0xff
   \   00024E   7B..         MOV     R3,#(`?<Constant "A1">` >> 8) & 0xff
   \   000250   12....       LCALL   ??ZXBeeAdd?relay     ; Banked call to: ZXBeeAdd
   \   000253   E9           MOV     A,R1
    404                  }
    405              }
    406              if (0 == strcmp("A2", ptag))
   \                     ??ZXBeeUserProcess_7:
   \   000254                ; Setup parameters for call to function strcmp
   \   000254   AC..         MOV     R4,?V6
   \   000256   AD..         MOV     R5,?V7
   \   000258   7A..         MOV     R2,#`?<Constant "A2">` & 0xff
   \   00025A   7B..         MOV     R3,#(`?<Constant "A2">` >> 8) & 0xff
   \   00025C   12....       LCALL   ??strcmp?relay       ; Banked call to: strcmp
   \   00025F   8A..         MOV     ?V4,R2
   \   000261   8B..         MOV     ?V5,R3
   \   000263   E5..         MOV     A,?V4
   \   000265   45..         ORL     A,?V5
   \   000267   704B         JNZ     ??ZXBeeUserProcess_8
    407              {
    408                  if (0 == strcmp("?", pval))
   \   000269                ; Setup parameters for call to function strcmp
   \   000269   85..82       MOV     DPL,?XSP + 0
   \   00026C   85..83       MOV     DPH,?XSP + 1
   \   00026F   E0           MOVX    A,@DPTR
   \   000270   FC           MOV     R4,A
   \   000271   A3           INC     DPTR
   \   000272   E0           MOVX    A,@DPTR
   \   000273   FD           MOV     R5,A
   \   000274   7A..         MOV     R2,#`?<Constant "?">` & 0xff
   \   000276   7B..         MOV     R3,#(`?<Constant "?">` >> 8) & 0xff
   \   000278   12....       LCALL   ??strcmp?relay       ; Banked call to: strcmp
   \   00027B   8A..         MOV     ?V4,R2
   \   00027D   8B..         MOV     ?V5,R3
   \   00027F   E5..         MOV     A,?V4
   \   000281   45..         ORL     A,?V5
   \   000283   702F         JNZ     ??ZXBeeUserProcess_8
    409                  {
    410                      updateA2();
   \   000285                ; Setup parameters for call to function updateA2
   \   000285   12....       LCALL   ??updateA2?relay     ; Banked call to: updateA2
    411                      ret = sprintf(p, "%.1f", A2);
   \   000288                ; Setup parameters for call to function sprintf
   \   000288   90....       MOV     DPTR,#A2
   \   00028B   12....       LCALL   ?PUSH_XSTACK8_X_FOUR
   \   00028E   7C..         MOV     R4,#`?<Constant "%.1f">` & 0xff
   \   000290   7D..         MOV     R5,#(`?<Constant "%.1f">` >> 8) & 0xff
   \   000292   AA..         MOV     R2,?V2
   \   000294   AB..         MOV     R3,?V3
   \   000296   12....       LCALL   ??sprintf?relay      ; Banked call to: sprintf
   \   000299   7404         MOV     A,#0x4
   \   00029B   12....       LCALL   ?DEALLOC_XSTACK8
   \   00029E   8A..         MOV     ?V4,R2
   \   0002A0   8B..         MOV     ?V5,R3
   \   0002A2   85....       MOV     ?V0,?V4
   \   0002A5   85....       MOV     ?V1,?V5
    412                      ZXBeeAdd("A2", p);
   \   0002A8                ; Setup parameters for call to function ZXBeeAdd
   \   0002A8   AC..         MOV     R4,?V2
   \   0002AA   AD..         MOV     R5,?V3
   \   0002AC   7A..         MOV     R2,#`?<Constant "A2">` & 0xff
   \   0002AE   7B..         MOV     R3,#(`?<Constant "A2">` >> 8) & 0xff
   \   0002B0   12....       LCALL   ??ZXBeeAdd?relay     ; Banked call to: ZXBeeAdd
   \   0002B3   E9           MOV     A,R1
    413                  }
    414              }
    415              if (0 == strcmp("A3", ptag))
   \                     ??ZXBeeUserProcess_8:
   \   0002B4                ; Setup parameters for call to function strcmp
   \   0002B4   AC..         MOV     R4,?V6
   \   0002B6   AD..         MOV     R5,?V7
   \   0002B8   7A..         MOV     R2,#`?<Constant "A3">` & 0xff
   \   0002BA   7B..         MOV     R3,#(`?<Constant "A3">` >> 8) & 0xff
   \   0002BC   12....       LCALL   ??strcmp?relay       ; Banked call to: strcmp
   \   0002BF   8A..         MOV     ?V4,R2
   \   0002C1   8B..         MOV     ?V5,R3
   \   0002C3   E5..         MOV     A,?V4
   \   0002C5   45..         ORL     A,?V5
   \   0002C7   704B         JNZ     ??ZXBeeUserProcess_9
    416              {
    417                  if (0 == strcmp("?", pval))
   \   0002C9                ; Setup parameters for call to function strcmp
   \   0002C9   85..82       MOV     DPL,?XSP + 0
   \   0002CC   85..83       MOV     DPH,?XSP + 1
   \   0002CF   E0           MOVX    A,@DPTR
   \   0002D0   FC           MOV     R4,A
   \   0002D1   A3           INC     DPTR
   \   0002D2   E0           MOVX    A,@DPTR
   \   0002D3   FD           MOV     R5,A
   \   0002D4   7A..         MOV     R2,#`?<Constant "?">` & 0xff
   \   0002D6   7B..         MOV     R3,#(`?<Constant "?">` >> 8) & 0xff
   \   0002D8   12....       LCALL   ??strcmp?relay       ; Banked call to: strcmp
   \   0002DB   8A..         MOV     ?V4,R2
   \   0002DD   8B..         MOV     ?V5,R3
   \   0002DF   E5..         MOV     A,?V4
   \   0002E1   45..         ORL     A,?V5
   \   0002E3   702F         JNZ     ??ZXBeeUserProcess_9
    418                  {
    419                      updateA3();
   \   0002E5                ; Setup parameters for call to function updateA3
   \   0002E5   12....       LCALL   ??updateA3?relay     ; Banked call to: updateA3
    420                      ret = sprintf(p, "%u", A3);
   \   0002E8                ; Setup parameters for call to function sprintf
   \   0002E8   90....       MOV     DPTR,#A3
   \   0002EB   12....       LCALL   ?PUSH_XSTACK8_X_TWO
   \   0002EE   7C..         MOV     R4,#`?<Constant "%u">` & 0xff
   \   0002F0   7D..         MOV     R5,#(`?<Constant "%u">` >> 8) & 0xff
   \   0002F2   AA..         MOV     R2,?V2
   \   0002F4   AB..         MOV     R3,?V3
   \   0002F6   12....       LCALL   ??sprintf?relay      ; Banked call to: sprintf
   \   0002F9   7402         MOV     A,#0x2
   \   0002FB   12....       LCALL   ?DEALLOC_XSTACK8
   \   0002FE   8A..         MOV     ?V4,R2
   \   000300   8B..         MOV     ?V5,R3
   \   000302   85....       MOV     ?V0,?V4
   \   000305   85....       MOV     ?V1,?V5
    421                      ZXBeeAdd("A3", p);
   \   000308                ; Setup parameters for call to function ZXBeeAdd
   \   000308   AC..         MOV     R4,?V2
   \   00030A   AD..         MOV     R5,?V3
   \   00030C   7A..         MOV     R2,#`?<Constant "A3">` & 0xff
   \   00030E   7B..         MOV     R3,#(`?<Constant "A3">` >> 8) & 0xff
   \   000310   12....       LCALL   ??ZXBeeAdd?relay     ; Banked call to: ZXBeeAdd
   \   000313   E9           MOV     A,R1
    422                  }
    423              }
    424              if (0 == strcmp("A7", ptag))
   \                     ??ZXBeeUserProcess_9:
   \   000314                ; Setup parameters for call to function strcmp
   \   000314   AC..         MOV     R4,?V6
   \   000316   AD..         MOV     R5,?V7
   \   000318   7A..         MOV     R2,#`?<Constant "A7">` & 0xff
   \   00031A   7B..         MOV     R3,#(`?<Constant "A7">` >> 8) & 0xff
   \   00031C   12....       LCALL   ??strcmp?relay       ; Banked call to: strcmp
   \   00031F   8A..         MOV     ?V4,R2
   \   000321   8B..         MOV     ?V5,R3
   \   000323   E5..         MOV     A,?V4
   \   000325   45..         ORL     A,?V5
   \   000327   7048         JNZ     ??ZXBeeUserProcess_10
    425              {
    426                  if (0 == strcmp("?", pval))
   \   000329                ; Setup parameters for call to function strcmp
   \   000329   85..82       MOV     DPL,?XSP + 0
   \   00032C   85..83       MOV     DPH,?XSP + 1
   \   00032F   E0           MOVX    A,@DPTR
   \   000330   FC           MOV     R4,A
   \   000331   A3           INC     DPTR
   \   000332   E0           MOVX    A,@DPTR
   \   000333   FD           MOV     R5,A
   \   000334   7A..         MOV     R2,#`?<Constant "?">` & 0xff
   \   000336   7B..         MOV     R3,#(`?<Constant "?">` >> 8) & 0xff
   \   000338   12....       LCALL   ??strcmp?relay       ; Banked call to: strcmp
   \   00033B   8A..         MOV     ?V4,R2
   \   00033D   8B..         MOV     ?V5,R3
   \   00033F   E5..         MOV     A,?V4
   \   000341   45..         ORL     A,?V5
   \   000343   702C         JNZ     ??ZXBeeUserProcess_10
    427                  {
    428                      //updateA7();
    429                      ret = sprintf(p, "%.1f", A7);
   \   000345                ; Setup parameters for call to function sprintf
   \   000345   90....       MOV     DPTR,#A7
   \   000348   12....       LCALL   ?PUSH_XSTACK8_X_FOUR
   \   00034B   7C..         MOV     R4,#`?<Constant "%.1f">` & 0xff
   \   00034D   7D..         MOV     R5,#(`?<Constant "%.1f">` >> 8) & 0xff
   \   00034F   AA..         MOV     R2,?V2
   \   000351   AB..         MOV     R3,?V3
   \   000353   12....       LCALL   ??sprintf?relay      ; Banked call to: sprintf
   \   000356   7404         MOV     A,#0x4
   \   000358   12....       LCALL   ?DEALLOC_XSTACK8
   \   00035B   8A..         MOV     ?V4,R2
   \   00035D   8B..         MOV     ?V5,R3
   \   00035F   85....       MOV     ?V0,?V4
   \   000362   85....       MOV     ?V1,?V5
    430                      ZXBeeAdd("A7", p);
   \   000365                ; Setup parameters for call to function ZXBeeAdd
   \   000365   AC..         MOV     R4,?V2
   \   000367   AD..         MOV     R5,?V3
   \   000369   7A..         MOV     R2,#`?<Constant "A7">` & 0xff
   \   00036B   7B..         MOV     R3,#(`?<Constant "A7">` >> 8) & 0xff
   \   00036D   12....       LCALL   ??ZXBeeAdd?relay     ; Banked call to: ZXBeeAdd
   \   000370   E9           MOV     A,R1
    431                  }
    432              }
    433              if (0 == strcmp("V0", ptag))
   \                     ??ZXBeeUserProcess_10:
   \   000371                ; Setup parameters for call to function strcmp
   \   000371   AC..         MOV     R4,?V6
   \   000373   AD..         MOV     R5,?V7
   \   000375   7A..         MOV     R2,#`?<Constant "V0">` & 0xff
   \   000377   7B..         MOV     R3,#(`?<Constant "V0">` >> 8) & 0xff
   \   000379   12....       LCALL   ??strcmp?relay       ; Banked call to: strcmp
   \   00037C   8A..         MOV     ?V4,R2
   \   00037E   8B..         MOV     ?V5,R3
   \   000380   E5..         MOV     A,?V4
   \   000382   45..         ORL     A,?V5
   \   000384   7058         JNZ     ??ZXBeeUserProcess_11
    434              {
    435                  if (0 == strcmp("?", pval))
   \   000386                ; Setup parameters for call to function strcmp
   \   000386   85..82       MOV     DPL,?XSP + 0
   \   000389   85..83       MOV     DPH,?XSP + 1
   \   00038C   E0           MOVX    A,@DPTR
   \   00038D   FC           MOV     R4,A
   \   00038E   A3           INC     DPTR
   \   00038F   E0           MOVX    A,@DPTR
   \   000390   FD           MOV     R5,A
   \   000391   7A..         MOV     R2,#`?<Constant "?">` & 0xff
   \   000393   7B..         MOV     R3,#(`?<Constant "?">` >> 8) & 0xff
   \   000395   12....       LCALL   ??strcmp?relay       ; Banked call to: strcmp
   \   000398   8A..         MOV     ?V4,R2
   \   00039A   8B..         MOV     ?V5,R3
   \   00039C   E5..         MOV     A,?V4
   \   00039E   45..         ORL     A,?V5
   \   0003A0   702E         JNZ     ??ZXBeeUserProcess_12
    436                  {
    437                      ret = sprintf(p, "%u", V0);                         	// 上报时间间隔
   \   0003A2                ; Setup parameters for call to function sprintf
   \   0003A2   90....       MOV     DPTR,#V0
   \   0003A5   12....       LCALL   ?PUSH_XSTACK8_X_TWO
   \   0003A8   7C..         MOV     R4,#`?<Constant "%u">` & 0xff
   \   0003AA   7D..         MOV     R5,#(`?<Constant "%u">` >> 8) & 0xff
   \   0003AC   AA..         MOV     R2,?V2
   \   0003AE   AB..         MOV     R3,?V3
   \   0003B0   12....       LCALL   ??sprintf?relay      ; Banked call to: sprintf
   \   0003B3   7402         MOV     A,#0x2
   \   0003B5   12....       LCALL   ?DEALLOC_XSTACK8
   \   0003B8   8A..         MOV     ?V4,R2
   \   0003BA   8B..         MOV     ?V5,R3
   \   0003BC   85....       MOV     ?V0,?V4
   \   0003BF   85....       MOV     ?V1,?V5
    438                      ZXBeeAdd("V0", p);
   \   0003C2                ; Setup parameters for call to function ZXBeeAdd
   \   0003C2   AC..         MOV     R4,?V2
   \   0003C4   AD..         MOV     R5,?V3
   \   0003C6   7A..         MOV     R2,#`?<Constant "V0">` & 0xff
   \   0003C8   7B..         MOV     R3,#(`?<Constant "V0">` >> 8) & 0xff
   \   0003CA   12....       LCALL   ??ZXBeeAdd?relay     ; Banked call to: ZXBeeAdd
   \   0003CD   E9           MOV     A,R1
   \   0003CE   800E         SJMP    ??ZXBeeUserProcess_11
    439                  }
    440                  else
    441                  {
    442                      updateV0(pval);
   \                     ??ZXBeeUserProcess_12:
   \   0003D0                ; Setup parameters for call to function updateV0
   \   0003D0   85..82       MOV     DPL,?XSP + 0
   \   0003D3   85..83       MOV     DPH,?XSP + 1
   \   0003D6   E0           MOVX    A,@DPTR
   \   0003D7   FA           MOV     R2,A
   \   0003D8   A3           INC     DPTR
   \   0003D9   E0           MOVX    A,@DPTR
   \   0003DA   FB           MOV     R3,A
   \   0003DB   12....       LCALL   ??updateV0?relay     ; Banked call to: updateV0
    443                  }
    444              }
    445              
    446              return ret;
   \                     ??ZXBeeUserProcess_11:
   \   0003DE   AA..         MOV     R2,?V0
   \   0003E0   AB..         MOV     R3,?V1
   \   0003E2   7412         MOV     A,#0x12
   \   0003E4   12....       LCALL   ?DEALLOC_XSTACK8
   \   0003E7   7F08         MOV     R7,#0x8
   \   0003E9   02....       LJMP    ?BANKED_LEAVE_XDATA
    447          }
    448          /*********************************************************************************************
    449          * 名称：MyEventProcess()
    450          * 功能：自定义事件处理
    451          * 参数：event -- 事件编号
    452          * 返回：无
    453          * 修改：
    454          * 注释：
    455          *********************************************************************************************/

   \                                 In  segment BANKED_CODE, align 1, keep-with-next
    456          void MyEventProcess( uint16 event )
   \                     MyEventProcess:
    457          {
   \   000000   74F7         MOV     A,#-0x9
   \   000002   12....       LCALL   ?BANKED_ENTER_XDATA
   \   000005                ; Saved register size: 9
   \   000005                ; Auto size: 0
   \   000005   EA           MOV     A,R2
   \   000006   FE           MOV     R6,A
   \   000007   EB           MOV     A,R3
   \   000008   FF           MOV     R7,A
    458              if (event & MY_REPORT_EVT)
   \   000009   EE           MOV     A,R6
   \   00000A   A2E0         MOV     C,0xE0 /* A   */.0
   \   00000C   502D         JNC     ??MyEventProcess_0
    459              {
    460                  sensorUpdate();
   \   00000E                ; Setup parameters for call to function sensorUpdate
   \   00000E   12....       LCALL   ??sensorUpdate?relay ; Banked call to: sensorUpdate
    461                  //启动定时器，触发事件：MY_REPORT_EVT
    462                  osal_start_timerEx(sapi_TaskID, MY_REPORT_EVT, V0*1000);
   \   000011                ; Setup parameters for call to function osal_start_timerEx
   \   000011   90....       MOV     DPTR,#V0
   \   000014   E0           MOVX    A,@DPTR
   \   000015   FC           MOV     R4,A
   \   000016   A3           INC     DPTR
   \   000017   E0           MOVX    A,@DPTR
   \   000018   FD           MOV     R5,A
   \   000019   EC           MOV     A,R4
   \   00001A   75F0E8       MOV     B,#-0x18
   \   00001D   A4           MUL     AB
   \   00001E   CC           XCH     A,R4
   \   00001F   A8F0         MOV     R0,B
   \   000021   75F003       MOV     B,#0x3
   \   000024   A4           MUL     AB
   \   000025   28           ADD     A,R0
   \   000026   F8           MOV     R0,A
   \   000027   75F0E8       MOV     B,#-0x18
   \   00002A   ED           MOV     A,R5
   \   00002B   A4           MUL     AB
   \   00002C   28           ADD     A,R0
   \   00002D   FD           MOV     R5,A
   \   00002E   7A01         MOV     R2,#0x1
   \   000030   7B00         MOV     R3,#0x0
   \   000032   90....       MOV     DPTR,#sapi_TaskID
   \   000035   E0           MOVX    A,@DPTR
   \   000036   F9           MOV     R1,A
   \   000037   12....       LCALL   ??osal_start_timerEx?relay; Banked call to: osal_start_timerEx
   \   00003A   E9           MOV     A,R1
    463              }
    464              if (event & MY_CHECK_EVT)
   \                     ??MyEventProcess_0:
   \   00003B   EE           MOV     A,R6
   \   00003C   5402         ANL     A,#0x2
   \   00003E   6014         JZ      ??MyEventProcess_1
    465              {
    466                  // 启动定时器，触发事件：MY_CHECK_EVT
    467                  osal_start_timerEx(sapi_TaskID, MY_CHECK_EVT, 100);
   \   000040                ; Setup parameters for call to function osal_start_timerEx
   \   000040   7C64         MOV     R4,#0x64
   \   000042   7D00         MOV     R5,#0x0
   \   000044   7A02         MOV     R2,#0x2
   \   000046   7B00         MOV     R3,#0x0
   \   000048   90....       MOV     DPTR,#sapi_TaskID
   \   00004B   E0           MOVX    A,@DPTR
   \   00004C   F9           MOV     R1,A
   \   00004D   12....       LCALL   ??osal_start_timerEx?relay; Banked call to: osal_start_timerEx
   \   000050   E9           MOV     A,R1
    468                  sensorCheck();
   \   000051                ; Setup parameters for call to function sensorCheck
   \   000051   12....       LCALL   ??sensorCheck?relay  ; Banked call to: sensorCheck
    469              }
    470          }
   \                     ??MyEventProcess_1:
   \   000054   7F01         MOV     R7,#0x1
   \   000056   02....       LJMP    ?BANKED_LEAVE_XDATA

   \                                 In  segment XDATA_ID, align 1, keep-with-next
   \                     `?<Initializer for D0>`:
   \   000000   FF           DB 255

   \                                 In  segment XDATA_ID, align 1, keep-with-next
   \                     `?<Initializer for V0>`:
   \   000000   1E00         DW 30

   \                                 In  segment BANK_RELAYS, align 1
   \                     ??updateV0?relay:
   \   000000   12....       LCALL   ?BDISPATCH
   \   000003   ......       DC24    updateV0

   \                                 In  segment BANK_RELAYS, align 1
   \                     ??updateA0?relay:
   \   000000   12....       LCALL   ?BDISPATCH
   \   000003   ......       DC24    updateA0

   \                                 In  segment BANK_RELAYS, align 1
   \                     ??updateA1?relay:
   \   000000   12....       LCALL   ?BDISPATCH
   \   000003   ......       DC24    updateA1

   \                                 In  segment BANK_RELAYS, align 1
   \                     ??updateA2?relay:
   \   000000   12....       LCALL   ?BDISPATCH
   \   000003   ......       DC24    updateA2

   \                                 In  segment BANK_RELAYS, align 1
   \                     ??updateA3?relay:
   \   000000   12....       LCALL   ?BDISPATCH
   \   000003   ......       DC24    updateA3

   \                                 In  segment BANK_RELAYS, align 1
   \                     ??updateA4?relay:
   \   000000   12....       LCALL   ?BDISPATCH
   \   000003   ......       DC24    updateA4

   \                                 In  segment BANK_RELAYS, align 1
   \                     ??updateA5?relay:
   \   000000   12....       LCALL   ?BDISPATCH
   \   000003   ......       DC24    updateA5

   \                                 In  segment BANK_RELAYS, align 1
   \                     ??updateA6?relay:
   \   000000   12....       LCALL   ?BDISPATCH
   \   000003   ......       DC24    updateA6

   \                                 In  segment BANK_RELAYS, align 1
   \                     ??updateA7?relay:
   \   000000   12....       LCALL   ?BDISPATCH
   \   000003   ......       DC24    updateA7

   \                                 In  segment BANK_RELAYS, align 1
   \                     ??BatteryVoltage_init?relay:
   \   000000   12....       LCALL   ?BDISPATCH
   \   000003   ......       DC24    BatteryVoltage_init

   \                                 In  segment BANK_RELAYS, align 1
   \                     ??BatteryVoltage_Get?relay:
   \   000000   12....       LCALL   ?BDISPATCH
   \   000003   ......       DC24    BatteryVoltage_Get

   \                                 In  segment BANK_RELAYS, align 1
   \                     ??sensorInit?relay:
   \   000000   12....       LCALL   ?BDISPATCH
   \   000003   ......       DC24    sensorInit

   \                                 In  segment BANK_RELAYS, align 1
   \                     ??sensorLinkOn?relay:
   \   000000   12....       LCALL   ?BDISPATCH
   \   000003   ......       DC24    sensorLinkOn

   \                                 In  segment BANK_RELAYS, align 1
   \                     ??sensorUpdate?relay:
   \   000000   12....       LCALL   ?BDISPATCH
   \   000003   ......       DC24    sensorUpdate

   \                                 In  segment BANK_RELAYS, align 1
   \                     ??sensorCheck?relay:
   \   000000   12....       LCALL   ?BDISPATCH
   \   000003   ......       DC24    sensorCheck

   \                                 In  segment BANK_RELAYS, align 1
   \                     ??sensorControl?relay:
   \   000000   12....       LCALL   ?BDISPATCH
   \   000003   ......       DC24    sensorControl

   \                                 In  segment BANK_RELAYS, align 1
   \                     ??ZXBeeUserProcess?relay:
   \   000000   12....       LCALL   ?BDISPATCH
   \   000003   ......       DC24    ZXBeeUserProcess

   \                                 In  segment BANK_RELAYS, align 1
   \                     ??MyEventProcess?relay:
   \   000000   12....       LCALL   ?BDISPATCH
   \   000003   ......       DC24    MyEventProcess

   \                                 In  segment XDATA_ROM_C, align 1
   \                     `?<Constant "%.1f">`:
   \   000000   252E3166     DB "%.1f"
   \            00      

   \                                 In  segment XDATA_ROM_C, align 1
   \                     `?<Constant "A0">`:
   \   000000   413000       DB "A0"

   \                                 In  segment XDATA_ROM_C, align 1
   \                     `?<Constant "A1">`:
   \   000000   413100       DB "A1"

   \                                 In  segment XDATA_ROM_C, align 1
   \                     `?<Constant "A2">`:
   \   000000   413200       DB "A2"

   \                                 In  segment XDATA_ROM_C, align 1
   \                     `?<Constant "%u">`:
   \   000000   257500       DB "%u"

   \                                 In  segment XDATA_ROM_C, align 1
   \                     `?<Constant "A3">`:
   \   000000   413300       DB "A3"

   \                                 In  segment XDATA_ROM_C, align 1
   \                     `?<Constant "A7">`:
   \   000000   413700       DB "A7"

   \                                 In  segment XDATA_ROM_C, align 1
   \                     `?<Constant "D1">`:
   \   000000   443100       DB "D1"

   \                                 In  segment XDATA_ROM_C, align 1
   \                     `?<Constant "CD0">`:
   \   000000   43443000     DB "CD0"

   \                                 In  segment XDATA_ROM_C, align 1
   \                     `?<Constant "OD0">`:
   \   000000   4F443000     DB "OD0"

   \                                 In  segment XDATA_ROM_C, align 1
   \                     `?<Constant "D0">`:
   \   000000   443000       DB "D0"

   \                                 In  segment XDATA_ROM_C, align 1
   \                     `?<Constant "?">`:
   \   000000   3F00         DB "?"

   \                                 In  segment XDATA_ROM_C, align 1
   \                     `?<Constant "CD1">`:
   \   000000   43443100     DB "CD1"

   \                                 In  segment XDATA_ROM_C, align 1
   \                     `?<Constant "OD1">`:
   \   000000   4F443100     DB "OD1"

   \                                 In  segment XDATA_ROM_C, align 1
   \                     `?<Constant "V0">`:
   \   000000   563000       DB "V0"

   \                                 In  segment XDATA_ROM_C, align 1
   \                     __Constant_42c80000:
   \   000000   0000C842     DD 42C80000H

   \                                 In  segment XDATA_ROM_C, align 1
   \                     __Constant_3ad34d9d:
   \   000000   9D4DD33A     DD 3AD34D9DH

   \                                 In  segment XDATA_ROM_C, align 1
   \                     __Constant_4159999a:
   \   000000   9A995941     DD 4159999AH

   \                                 In  segment XDATA_ROM_C, align 1
   \                     __Constant_40666666:
   \   000000   66666640     DD 40666666H

   Maximum stack usage in bytes:

   ISTACK XSTACK Function
   ------ ------ --------
      0     20   BatteryVoltage_Get
        0     20   -> HalAdcRead
      0     10   BatteryVoltage_init
      0      9   MyEventProcess
        0      9   -> osal_start_timerEx
        0      9   -> sensorCheck
        0      9   -> sensorUpdate
      0     38   ZXBeeUserProcess
        0     34   -> ZXBeeAdd
        0     34   -> atoi
        0     34   -> sensorControl
        0     36   -> sprintf
        0     38   -> sprintf
        0     34   -> strcmp
        0     34   -> updateA0
        0     34   -> updateA1
        0     34   -> updateA2
        0     34   -> updateA3
        0     34   -> updateV0
      2      9   sensorCheck
        2      0   -> updateA7
      0     43   sensorControl
        0      9   -> forward
        0      9   -> relay_off
        0      9   -> relay_on
        0      9   -> reversion
      0     10   sensorInit
        0     10   -> BatteryVoltage_init
        0     10   -> airgas_init
        0     10   -> bh1750_init
        0     10   -> fan_init
        0     10   -> htu21d_init
        0     10   -> osal_rand
        0     10   -> osal_start_timerEx
        0     10   -> relay_init
        0     10   -> stepmotor_init
      2      0   sensorLinkOn
        2      0   -> sensorUpdate
      0     39   sensorUpdate
        0     26   -> ZXBeeAdd
        0     26   -> ZXBeeBegin
        0     26   -> ZXBeeEnd
        0     26   -> ZXBeeInfSend
        0     28   -> sprintf
        0     30   -> sprintf
        0     26   -> strlen
        0     26   -> updateA0
        0     26   -> updateA1
        0     26   -> updateA2
        0     26   -> updateA3
      0     50   updateA0
        0     16   -> htu21d_get_data
      0     50   updateA1
        0     16   -> htu21d_get_data
      2     34   updateA2
        2      0   -> bh1750_get_data
      2     34   updateA3
        2      0   -> get_airgas_data
      0      0   updateA4
      0      0   updateA5
      0      0   updateA6
      2      0   updateA7
        2      0   -> BatteryVoltage_Get
      0     43   updateV0
        0      9   -> atoi


   Segment part sizes:

   Bytes  Function/Label
   -----  --------------
       5  ?<Constant "%.1f">
       3  ?<Constant "%u">
       2  ?<Constant "?">
       3  ?<Constant "A0">
       3  ?<Constant "A1">
       3  ?<Constant "A2">
       3  ?<Constant "A3">
       3  ?<Constant "A7">
       4  ?<Constant "CD0">
       4  ?<Constant "CD1">
       3  ?<Constant "D0">
       3  ?<Constant "D1">
       4  ?<Constant "OD0">
       4  ?<Constant "OD1">
       3  ?<Constant "V0">
       1  ?<Initializer for D0>
       2  ?<Initializer for V0>
       6  ??BatteryVoltage_Get?relay
       6  ??BatteryVoltage_init?relay
       6  ??MyEventProcess?relay
       6  ??ZXBeeUserProcess?relay
       6  ??sensorCheck?relay
       6  ??sensorControl?relay
       6  ??sensorInit?relay
       6  ??sensorLinkOn?relay
       6  ??sensorUpdate?relay
       6  ??updateA0?relay
       6  ??updateA1?relay
       6  ??updateA2?relay
       6  ??updateA3?relay
       6  ??updateA4?relay
       6  ??updateA5?relay
       6  ??updateA6?relay
       6  ??updateA7?relay
       6  ??updateV0?relay
       4  A0
       4  A1
       4  A2
       2  A3
       4  A7
       1  APCFG
     143  BatteryVoltage_Get
      12  BatteryVoltage_init
       1  D0
       1  D1
      89  MyEventProcess
       1  P0DIR
       1  P0SEL
       2  V0
    1004  ZXBeeUserProcess
       1  _A_P0
       4  __Constant_3ad34d9d
       4  __Constant_40666666
       4  __Constant_4159999a
       4  __Constant_42c80000
       2  motorTick
      14  sensorCheck
     108  sensorControl
     104  sensorInit
      14  sensorLinkOn
     337  sensorUpdate
       1  stepmotor_dir
      55  updateA0
      55  updateA1
      20  updateA2
      22  updateA3
       3  updateA4
       3  updateA5
       3  updateA6
      20  updateA7
      29  updateV0

 
 2 035 bytes in segment BANKED_CODE
   108 bytes in segment BANK_RELAYS
     4 bytes in segment SFR_AN
     3 bytes in segment XDATA_I
     3 bytes in segment XDATA_ID
    66 bytes in segment XDATA_ROM_C
    22 bytes in segment XDATA_Z
 
 2 146 bytes of CODE  memory
    50 bytes of CONST memory (+ 16 bytes shared)
     0 bytes of DATA  memory (+  4 bytes shared)
    25 bytes of XDATA memory

Errors: none
Warnings: 1
