:020000040000FA
:060000000212FD020824BB
:03001B00020F468B
:03002B00020FE8D9
:03003300020F9A1F
:030053000207722F
:100083000207B3010101010503010F10FEFFCF1B9E
:10009300CF1BCF1BCF1B851A7F1ACF1B452C00000C
:1000A3000000092D000000000C0000000C000100FE
:1000B30008000000100000002000000040000000C5
:1000C30080000000000100000002000000040000A6
:1000D30000080000001000000020000000400000A5
:1000E3000080000000000100000002000000040185
:1000F300020206FFFF1E000101005C0D000000B7B5
:100103000DE80364006400B8010202000800000562
:10011300020701051E02051E020A0A03B80B02802C
:100123003E01020332000102200A1401E00100B083
:10013300423BAAB83F0000003F8C906339AA0CA34E
:100143003A00941E3C8042633DCFFE753E157231EA
:100153003F0000803FF304353F8096184B30313227
:100163003334353637383941424344454600286EE7
:10017300756C6C20706F696E746572290030313252
:1001830033343536373839616263646566003F3F1F
:100193003F000000807FF9021550B743BA510000B9
:1001A300204100E7DB2E0000A040000080BF229228
:1001B300D43EDD9B2A3F04000040FFFF7F7FFFFF0B
:1001C3007FFF010080341872313F12131C60461206
:1001D300130D603DE9687008F618F618F618F62254
:1001E300748067F7120201090909748067F7221204
:1001F300130D601D12131C7005191919801A1211A1
:10020300E9701F1211FDC37003E667331919194012
:10021300071818182208080874FFF618F618F618B5
:10022300F6221211FD60171213AA702192F0121315
:10023300B37019501720F014080808090909E7F6E4
:100243001819E7F61819E7F61819E7F6221213B387
:1002530060E6E869701F0808E62480F608E436F6CD
:1002630018547FB47F0CE654806007F6E418F61840
:10027300F622181822E9C6CC08C6CD08C6CE08C691
:10028300CFC0E0E8C0E0EAC0E0EBC0E009E9F8096C
:10029300E7FA09E7FBE6F918E6F8C3EC98ED99EEFF
:1002A3009AEBC2E7F5F0EFC2E795F0500E600CEB66
:1002B300CFFBEACEFAE9CDF9E8CCF8EAA2E7D2E738
:1002C300FAEB33FB13F5F0EEA2E7D2E7FEEF33FFD1
:1002D300C5F013A2E730E601B313C5F0C3C0E0C015
:1002E300F07F00C39BFB605E9418600F401D146099
:1002F3001AD0E023F9D0E0F80203D38AF0E948608A
:1003030003D2F0E4AFF0FAF9F8803BEB30E40D8967
:10031300F0EA6003D2F0E4AFF0F9CAF8EB30E30D92
:1003230088F0EF6002D2F0AFF0E4CAC9F8EB5407EB
:100333006014FBC3EA13FAE913F9E813F8EF135057
:1003430002D2E0FFDBEDD0E0C0E030E739C3E49F49
:10035300FFF5F0EC98FC42F0ED99FD42F0EE9AFEC9
:1003630042F0D0E0F9D0E0F8E5F0607AE923F9EE65
:1003730020E742D8028067C3EF33FFEC33FCED3351
:10038300FDEE33FE80EAEC28FCED39FDEE3AFED0BB
:10039300E023F9D0E0F84002801BC3EE13FEED1317
:1003A300FDEC13FCEF135002D2E0FF08B800067F08
:1003B3007F74FF802EEF3350178CF020F002601013
:1003C3000CBC000C0DBD00080EBE000408E860DF85
:1003D300E933E813FFEE2313FE4F4D4C8008E95435
:1003E30080FFE4FEFDFCEE33EF33F47004FCFD7E8E
:1003F30080D0E0FBD0E0FAD0E0F8D0E0CFC618CE52
:10040300C618CDC618CCC6F92212130D70041818DD
:10041300182212131C700D74FFF61819F61819F62A
:100423001819F622E7548066F61213B3700F1213ED
:10043300AA70F014F608F608F608F680D11213AA8B
:10044300700CF608F608768008E6447F80EC1212FA
:1004530000700C1211EC60BFE65480F6E480BB120E
:1004630011EC700519191980A5E869700C763F180D
:10047300768018F618F6E8F922E6CDC0E018ECC04D
:10048300E0E633CD33CDD313F6E719FCE71919337F
:10049300CC33C3947F400ECD9D502408E65480F6A0
:1004A300E418F6800FF4043D14501408E6447FF674
:1004B300187680E418F618F6D0E0FCD0E0FD22CCE4
:1004C300D313CCFD18E4C6CBC0E018E4C6CAC0E021
:1004D3000808ED08C633E613F618E433C675F003CF
:1004E300C3CA97CA09CB97CB199C40047D08802EB9
:1004F300BD00030205B516B6FF050606081618C3A8
:10050300CA33CACB33CB33CA27CA09CB37CB193C3F
:10051300C37D08803E187D0820E75CC633C6CA3316
:10052300CACB33CB33DDF1D5F0EB30E77BCA97CAC7
:1005330009CB974ACB199C406F4B7025E620E021ED
:100543008066187D08C3CA97CA09CB97CB199CD379
:10055300C633C6CA33CACB33CB3350C9DDE7D5F074
:10056300E1D3E4C636C608C636C608C636C608C6CC
:1005730036C61818188031C3CA97CA09CB97CB1946
:100583009CB34097C633C6CA33CACB33CB33DD34AF
:10059300D5F02EC6A2E0C640C8CA27CA09CB371970
:1005A3004A70BECB3CB480B90808E63308E6336032
:1005B3001F181818D0E0FAD0E0FBD0E0FCD0E0FD23
:1005C30022187D08CA27CA09CB37CB193CD38080B0
:1005D30013F618E4B67F11F618B6FF0EF618C60424
:1005E30070D20808768080CAF618F618F680C5001F
:1005F30012130D604F12131C6012E7548066F6123B
:1006030011E970111213AA703B090909F4F618F6DF
:1006130018F618F6221211FD70151213B308080804
:1006230060EAE6447FF618768018E4F618F622129C
:1006330013B360161213AA7012E4F608F608F6084C
:10064300E65480F609090918181822EAC0E0EBC03D
:10065300E0ECC0E0EDC0E0E687F0A4FBACF008E618
:1006630087F0A42CFCE435F0FA1809E687F0A42CF3
:100673004B60027401CA35F0FCE433FB09E687F0F2
:10068300D2F7A42CCB35F0FC1908E687F0A42BCCC9
:1006930035F0FBE433FD0819E687F0D2E7A42C4AD2
:1006A300CB35F0CD3400FC09E687F0D2E7A42DCC9E
:1006B30035F0FDE433FA0918E687F0D2F7A42CCD20
:1006C30035F0CA3400FC08E687F0D2E7D2F7A42A53
:1006D300CC35F07A7E20E70B0ACB33CBCD33CDCCB0
:1006E30033CC33CB3350147004ED30E00ED2F1E44D
:1006F300CD3DCDCC3CCC3B5005DA05C2F1EB547F6C
:10070300C63308E63392F0FBE73309E733C39A5065
:100713002D2B70190C0D4C4D70151806E608C333BC
:10072300700D20F10AA2F013F6E418800B4024E4C4
:10073300F630F002768018F618F618F68024D33BCC
:1007430014501074FFA2F013F6187680E418F6180C
:10075300F6800FA2F013F618E63303F618ECF6183A
:10076300EDF6D0E0FDD0E0FCD0E0FBD0E0FA22C013
:10077300E074F2120B4CA2AFE433FED2AF85A708AC
:10078300AFA1EF550854106008121F4775A1EF8001
:1007930013EFA2E092F0E508A2E082F05006121FE8
:1007A300EF75A1FEEEF8EEA2E092AF7F01020BAB74
:1007B300C0E074F2120B4CA2AFE433FFD2AF9061EE
:1007C300A4E0FE759B00E5915E540860087591F7FF
:1007D300121F958026E5915E541060087591EF1203
:1007E3001F9B8017E591A2E092F0EEA2E082F05009
:1007F3000A9061A4E0C2E0F01220D99061A3E0FE68
:10080300E5E95E5404600E1220AF75E9FB90619335
:10081300E0A2E640F2EFF8EFA2E092AF7F01020B15
:10082300ABC0E074F2120B4CA2AFE433FED2AF9034
:1008330061A5E0FFE5BF5F5404600675BFFB1220AE
:10084300F1EEF8EEA2E092AF7F01020BABC3E498A6
:10085300F8E499F91208918026C3E49AFAE49BFB21
:10086300E920E7E9120891E498F8E499F922C3E44E
:1008730098F8E499F9120891E498F8E499F9C3E433
:100883009AFAE49BFB22EB20E7CFE920E7E0B900EB
:1008930010BB0008E88AF084F8AAF022E4FBC8FA47
:1008A30022EB70227B10C833C8C933C9335007C346
:1008B3009AC3DBF280069A50012ADBEAC833F4C8F4
:1008C300C933F4C9FA2275F008E4C833C8C933C977
:1008D30033C99AC99B5004C92AC93BD5F0ECFBC85C
:1008E30033F4C8E4C9FA2212092A20F01430E72BA2
:1008F30074FFFCFBFA747F8022E4FCFBFA748080B3
:100903001AB48008BC00F2BB00EF800F50EBF9E48F
:10091300C39AFAE49BFBE49CFCE499C6CC18C6CBCF
:1009230018C6CA18C6F922E4C9C608CAC608CBC67F
:10093300D3330308CCC63392F0C3947F402E94186C
:100943004019C9B90704CACBCC225025C309CA33FD
:10095300CACB33CBCC33CC33D9F422F4600DC9CC1E
:10096300C313CB13CBCA13CAD9F6CC22E4FCFBFACC
:100973002214FCFBFA22080808EAC0E0EBC0E08678
:10098300F0E7A4FA180986F0E7A42AFA180986F012
:10099300E7A42AFA180986F0E7A42AFA1986F0E7E9
:1009A300A4FBE5F02AFA190886F0E7A42BFBE5F08F
:1009B3003AFA190886F0E7A42BFBE5F03AFA18187F
:1009C3000986F0E7A4C5F02BFBE43AFA1908E7C55A
:1009D300F0C6A426F6E5F03BFBE43AFA1886F0E706
:1009E300A4F6E5F00826F6E43B08F6E43A08F6D068
:1009F300E0FBD0E0FA22080808E630E711121211F2
:100A0300120A11080808C64480C6181818221818B4
:100A130018E9799EC608CAC608CBC608CCC6C370F7
:100A2300207996CACBCC7019798ECBCC701379868A
:100A3300CC700EF9802ACA33CACB33CBCC33CC3338
:100A43001930E7F2CCCBCA3350147004EA30E00D0E
:100A5300E4CA3ACACB3BCBCC3CCC500209C3E91322
:100A6300C6CC182313C6CB18C6CA18C6F922E4CFBE
:100A7300C0E0E4CEC0E0E4CDC0E0E4CCC0E075F07B
:100A830020E626F608E633F608E633F608E633F6FC
:100A9300181818EC33FCED33FDEE33FEEF33FFC3D0
:100AA300EC9709ED9709EE9709EF97191919400F7C
:100AB300FFEC97FC09ED97FD09EE97FE191906D592
:100AC300F0BFECF709EDF709EEF709EFF71919197C
:100AD300D0E0FCD0E0FDD0E0FED0E0FF222518C539
:100AE30082C0E0E51934FFC583C0E0E518C39582F1
:100AF30024F810AF08858319858218800885831927
:100B0300858218D2AFCEF0A3E520F0A37808E608DB
:100B1300F0A3DEFAEFF0A3E58124FAF8E608F0A3E8
:100B2300E608F0A3E608F0A30808E608F0A3E60841
:100B3300F0A315811581D0E0FED0E0F81581158171
:100B43001581E8C0E0EEC0E022C0D02518C582C000
:100B5300E0E51934FFC583C0E0E518C3958224F3AB
:100B630010AF0885831985821880088583198582CB
:100B730018D2AFC8F0A3E9F0A3EAF0A3EBF0A3798E
:100B830008E709F0A3D8FAECF0A3EDF0A3EEF0A385
:100B9300EFF0A3D0E0F0A3D0E0F0A3D0E0F0A3E522
:100BA30020F0A3E5F0F0A322851983851882E0C025
:100BB300E0A3E0F9A3E0FAA3E0FBA37808E0F608DA
:100BC300A3DFFAE0FCA3E0FDA3E0FEA3E0FFA3E0C4
:100BD300C0E0A3E0C0E0A3E0F5D0A3E0F520A3E0EC
:100BE300A3F5F010AF0885831985821880088583E3
:100BF30019858218D2AFD082D083D0E0F8D0E0320A
:100C0300121395B90003020C42E4900401788D7924
:100C13000B8002F0A3D8FCD9FA7A8D7B0E90008664
:100C2300784879028015E493A3AD82AE838A828BE0
:100C330083F0A3AA82AB838D828E83D8E9D9E7752B
:100C430082547583C874041210AD7582617583294B
:100C530074001210AD75F0108E1A8F1B85821F85DC
:100C6300831E851882851983E0CEA3E0CF851F827A
:100C7300851E83EBC9EAC8EDCBECCAC3E833C8E9E8
:100C830033C9EA33CAEB33CBC3EA9EF51DEB9FF5B9
:100C93001CB35004AB1CAA1DEC33CCED33CDD5F003
:100CA300DAAE1AAF1B2212130D601C12131C60174D
:100CB3001213B370071213AA7001D322C0D01213F8
:100CC300AA7006D0D0B322C32233D0D0501430E060
:100CD300F6C3E7960809E7960809E7960809E79631
:100CE300B32220E0D5E6970809E6970809E69708B6
:100CF30009E697B322D083D082ECC0E0EDC0E0E4F4
:100D030093A3FCE493A3FDED4C600D120E1CEC24A5
:100D1300FFFCED34FFFD80EFE493A3FCE493A3FD1C
:100D2300ED4C600D120F1BEC24FFFCED34FFFD8036
:100D3300EFD0E0FDD0E0FCE493A3C0E0E493C0E097
:100D43002212130D601B12131C60161213B37007CB
:100D53001213AA600CB322C0D01213AA7005D0D00C
:100D630022C32233D0D0501330E0EBC3E7960809F7
:100D7300E7960809E7960809E7962220E0E4E69754
:100D83000809E6970809E6970809E69722D083D071
:100D930082E9C0E0E493A3C386F0C5F095F0F908B7
:100DA300E493A386F0C5F095F0700BE493A3C39985
:100DB3004005E9048002A3E475F002A42582F582CC
:100DC300E5F03583F583D0E0F9E493A3C0E0E49341
:100DD300C0E022851983851882E0A3FEE0A3F520F5
:100DE3007808E0A3F608DFFAE0A3FFE0A3C0E0E0A1
:100DF300A3C0E0E0A3C0E0E0A3C0E0E0A3C0E01034
:100E0300AF08858218858319800885821885831920
:100E1300D2AFD083D0820210B3C0E0C3E49396086C
:100E23007401939618400FE4936670080874019355
:100E3300661870007019A3A3C3E493960874019312
:100E43009618A3A3400DD0E0D0E0D0E0020D34A368
:100E5300A3A3A3A3A3D0E022D083D082C5F0E493BD
:100E6300A3C5F0C395F0F5F0E493A3C395F0400553
:100E7300E5F0048001E475F002A42582F582E5F033
:100E83003583F583E493A3C0E0E493C0E0227404C4
:100E9300800474028000CCC0E0EDC0E0E518C39C80
:100EA300CCAD1950011D10AF068C188D1980068C1E
:100EB300188D19D2AF12102FD0E0FDD0E0FC2274B0
:100EC300028000CCC0E0EDC0E0E518C39CCCAD19B6
:100ED30050011D10AF068C188D1980068C188D19C2
:100EE300D2AF12100DD0E0FDD0E0FC2212130D6042
:100EF3002512131C60201213B370030213AA0808EF
:100F030008E76670101819E766700A1819E7667023
:100F1300041819E76622F422C0E0C0F088F0E493D5
:100F23006670080874019366187000A8F0A3A37094
:100F33000BD0F0D0E0D0E0D0E0020D34A3A3D0F08A
:100F4300D0E022C0E074F2120B4CAEF99005EFE052
:100F5300F8A3E0F9E8496010EEF99005EFE0F8A393
:100F6300E0F58388821229667F01020BABD083D020
:100F730082CCC0E0E493A3600612106F1470FAE40D
:100F830093A3600612117F1470FAD0E0FCE493A3DC
:100F9300C0E0E493C0E022C0E074F2120B4CA2AFB5
:100FA300E433FED2AFE58BA2E05003121E75758BBE
:100FB30000C2E8EEF8EEA2E092AF7F01020BABC0F5
:100FC30008C3E096F50808A3E096420808A3E09654
:100FD300420808A3E0964208A2D265D033E5087020
:100FE30001D3D00822C0E0C0D0E8C0E0E9C0E0A24D
:100FF300AFE433F8D2AFC2C7E8F9E8A2E092AFD0CA
:10100300E0F9D0E0F8D0D0D0E032CAC0E0E493A356
:10101300C582CCC582C583CDC583F0A3C582CCC5AB
:1010230082C583CDC583DAE5D0E0CA22CAC0E0E039
:10103300A3C582CCC582C583CDC583F0A3C582CCAD
:10104300C582C583CDC583DAE6D0E0CA227009081C
:101053000808226016181818C6C333C608C633C654
:1010630008C633C608C633C6D5E0EA22C0E0E49317
:10107300A3D39C5010E493A3C39C400AD0E0D0E0D8
:10108300D0E0020F8DA3A3A3D0E022C008C3E09653
:10109300F50808A3E096420808A3E096420808A3CF
:1010A300E09645087001D3D00822C09FF59FE473F2
:1010B300D09F22D083D082C09FE493C0E074019379
:1010C300C0E0740293F59F227404800A74038006BF
:1010D300740280027401C0E0F4041210E6D0E0123E
:1010E3001358222518F58210AF08F518400C15196E
:1010F3008008F51840021519D2AF8519832200C064
:10110300D0251810AF08F518500C05198008F518EC
:1011130050020519D2AFD0D022BB0102E722C08210
:10112300C08389828A83BB0003E08002E493D08377
:10113300D082226016080808C6C313C618C613C691
:1011430018C613C618C613C6D5E0EA222518F8E454
:101153003519F9222518FAE43519FB222518FCE480
:101163003519FD22C3E0C696F608A3E0C696F60835
:10117300A3E0C696F608A3E0C696F622C0E0E49381
:10118300A36C7009D0E0D0E0D0E0020F8DA3A3D010
:10119300E022251810AF08F518400C15198008F542
:1011A3001840021519D2AF22E066701008A3E0665A
:1011B300700A08A3E066700408A3E06622C3E09601
:1011C30008A3E09608A3E09608A3E096A2D265D010
:1011D3003322C3E096F008A3E096F008A3E096F06C
:1011E30008A3E096F022181818E60846087009E6E6
:1011F30026087005E633F4220822191919E709476E
:10120300097009E727097005E733F4220922181842
:1012130018E4C396F608E496F608E496F608E4960E
:10122300F622E026F008A3E036F008A3E036F00843
:10123300A3E036F022E026F608A3E036F608A3E0A2
:1012430036F608A3E036F622E627F60809E637F66F
:101253000809E637F60809E637F622700422600D1E
:1012630018C6C333C608C633C6D5E0F41822E657FA
:10127300F60809E657F60809E657F60809E657F6A9
:1012830022E056F608A3E056F608A3E056F608A3B4
:10129300E056F622E056F008A3E056F008A3E05625
:1012A300F008A3E056F022E647F60809E647F608F9
:1012B30009E647F60809E647F622600D08C6A2E7E5
:1012C30013C618C613C6D5E0F322C6F4C608C6F47F
:1012D300C608C6F4C608C6F4C622C3E7960809E7DB
:1012E300960809E7960809E79622C3E09608A3E063
:1012F3009608A3E09608A3E0962275D00075814076
:1013030075180175190400020C03E6084608C31397
:101313004608336002E633F422E7094709C313475B
:1013230009336002E733F422600C08C6C313C618FE
:10133300C613C6D5E0F422E6F008A3E6F008A3E658
:10134300F008A3E6F022E0F608A3E0F608A3E0F62F
:1013530008A3E0F622CAC0E0E6F0A308DAFAD0E078
:10136300FA22E0FAA3E0FBA3E0FCA3E0FD22EAF00B
:10137300A3EBF0A3ECF0A3EDF022E0F8A3E0F9A3D4
:10138300E0FAA3E0FB22E8F0A3E9F0A3EAF0A3EB81
:10139300F022E5C754F84401F5C77901222518F571
:1013A30082E43519F58322E727194719471947229C
:1013B300E62618461846184622C2AF75D69F020085
:1013C30000221210B65E89021210B64D8A02121064
:1013D300B6A88A021210B6638B021210B66B8B0288
:1013E3001210B6148C021210B6718C021210B67B56
:1013F3008D021210B6F68D021210B6418E02121033
:10140300B6AB8E021210B60290021210B6229002F0
:101413001210B67B90021210B6FC90021210B65254
:1014230091021210B67592021210B63E9302121078
:10143300B69F93021210B61D94021210B672940254
:101443001210B6A794021210B6D995021210B6D094
:1014530096021210B63097021210B6799702121044
:10146300B69B97021210B62498021210B6B69802D1
:101473001210B63A99021210B65F99021210B670A2
:1014830099021210B6EC99021210B6949A02121035
:10149300B6ED9A021210B6C89B021210B6EC9B026C
:1014A3001210B6109D021210B6369D021210B683AA
:1014B3009D021210B6C09D021210B6699F0212104F
:1014C300B6BDA0021210B6F9A0021210B672A102A4
:1014D3001210B6B0A1021210B6CCA2021210B6E9D5
:1014E300A4021210B6F4A4021210B6FFA402121042
:1014F300B60AA5021210B614A5021210B61FA50251
:101503001210B639A5021210B643A5021210B64D39
:10151300A5021210B658A5021210B680A502121029
:10152300B6D0A5021210B6DAA5021210B6FEA502B5
:101533001210B622A6021210B688A6021210B6D84E
:10154300A6021210B6F6A6021210B672A702121065
:10155300B6B0A7021210B6FDA7021210B670A80209
:101563001210B64FA9021210B622AB021210B672B5
:10157300AB021210B6A2AC021210B6C8AC02121023
:10158300B678AE021210B611B2021210B6E7B30269
:101593001210B698B5021210B62FB6021210B68208
:1015A300B7021210B631B8021210B676B802121092
:1015B300B6E1B8021210B6EBB8021210B69CBB0229
:1015C3001210B636BD021210B6A5BD021210B677C0
:1015D300BE021210B684BF021210B6E5C00212108A
:1015E300B604C1021210B659C1021210B65AC20291
:1015F3001210B684C2021210B6DCC2021210B6C6B2
:10160300C3021210B60BC4021210B654C402121055
:10161300B6C4C4021210B624C6021210B684C6029F
:101623001210B6A2C7021210B62FCA021210B65574
:10163300CA021210B609CC021210B660CC02121004
:10164300B668CD021210B631CE021210B68BCE029E
:101653001210B64BCF021210B6DECF021210B66ACA
:10166300D0021210B6EED0021210B646820112104A
:10167300B69982011210B60F85011210B65B85016F
:101683001210B65C86011210B6C786011210B6FCA2
:1016930086011210B66B88011210B6028B0112106C
:1016A300B62D8C011210B6E88C011210B66C9501A0
:1016B3001210B60496011210B6E798011210B6D0B4
:1016C30099011210B6639A011210B6879B0112108A
:1016D300B6ED9C011210B6F29D011210B6E49F0103
:1016E3001210B6EDA1011210B64DA2011210B623CD
:1016F300A3011210B6DAA3011210B6E4A30112106B
:10170300B613A4011210B6C9A4011210B6AEA501F6
:101713001210B68CA6011210B652A7011210B67F92
:10172300A7011210B6A1A7011210B6E6A901121063
:10173300B6CAAA011210B61BAB011210B67EAB01DA
:101743001210B64AAC011210B67FAC011210B6C823
:10175300AC011210B6FDAC011210B651AD0112105E
:10176300B6ABAD011210B6B0AD011210B607AE01A3
:101773001210B62FAE011210B637AF011210B6A079
:10178300AF011210B603B0011210B67DB0011210F2
:10179300B647B3011210B62DB4011210B6B6B50197
:1017A3001210B6F1B7011210B69DB8011210B64F60
:1017B300B9011210B68FBB011210B632BC01121060
:1017C300B679BC011210B64DBE011210B661BE014E
:1017D3001210B66BBE011210B693BE011210B69F63
:1017E300BE011210B6BDBE011210B69FC001121089
:1017F300B6D8C0011210B6E2C0011210B630C10152
:101803001210B647C2011210B680C2011210B61BE5
:10181300C3011210B609C4011210B6BDC4011210DF
:10182300B6FBC5011210B6EBC6011210B695C7017F
:101833001210B61EC8011210B635C8011210B66ECA
:10184300C8011210B678C8011210B683C80112106D
:10185300B6A1C8011210B6E5C8011210B644C901F9
:101863001210B66BC9011210B685C9011210B61E4B
:10187300CA011210B64CCB011210B6B9CB0112102B
:10188300B6A6CC011210B6CBCC011210B63ACD01DC
:101893001210B698CD011210B6A3CE011210B6B431
:1018A300CF011210B654D0011210B617D101121085
:1018B300B6B6D1011210B63CD2011210B61ED30136
:1018C3001210B650D3011210B6B7D3011210B68A54
:1018D300D4011210B6B0D4011210B643D5011210C0
:1018E300B667D5011210B68AD5011210B6D3D50149
:1018F3001210B6ADD7011210B690D8011210B64F20
:10190300D9011210B6ABDB011210B6FBDB011210CA
:10191300B64EDC011210B6DADC011210B67CDD0122
:101923001210B6D3DD011210B6F9DD011210B63F65
:10193300DE011210B675DE011210B6AADE01121016
:10194300B603DF011210B664DF011210B667E001BF
:101953001210B699E2011210B60DE3011210B63659
:10196300E3011210B6CFE3011210B644E4011210E2
:10197300B68AE4011210B6C6E4011210B6EAE40115
:101983001210B630E5011210B64DE5011210B6047F
:10199300E6011210B61AE9041210B665E904121032
:1019A300B66A2F001210B6A42F001210B6633000CF
:1019B3001210B64F31001210B64A32001210B6CBD5
:1019C30033001210B63F34001210B609350012105E
:1019D300B61E36001210B68F36001210B6CB360084
:1019E3001210B61C37001210B62637001210B66458
:1019F30037001210B6C837001210B668380012103C
:101A0300B6E138001210B6B839001210B6243A0005
:101A13001210B6403A001210B6783A001210B6A56A
:101A23003A001210B6423B001210B6523B0012109D
:101A3300B6A53B001210B6B13B001210B6C23B0074
:101A43001210B6CB3B001210B6353C001210B68F05
:101A53003C001210B6DD3C001210B6F83C00121028
:101A6300B62E3D001210B64F3D001210B65B3D007E
:101A73001210B6D93E001210B6F73E001210B6602F
:101A83003F001210B6733F001210B6813F001210D0
:101A9300B62340001210B62D41001210B64B42007F
:101AA3001210B6C042001210B6CA42001210B63766
:101AB30043001210B64E43001210B68D43001210AD
:101AC300B6CE43001210B6FD43001210B6354400E3
:101AD3001210B65444001210B67244001210B6B37A
:101AE30044001210B68E45001210B6D445001210F1
:101AF300B6FF45001210B66746001210B69A4600AC
:101B03001210B6D346001210B6E146001210B639D1
:101B130047001210B67847001210B6B847001210EB
:101B2300B6FC47001210B61F48001210B62A480030
:101B33001210B64848001210B61149001210B61B15
:101B430049001210B65A49001210B670490012101B
:101B5300B6DF49001210B6F349001210B6024B006B
:101B63001210B6154B001210B62A4B001210B6DB3A
:101B73004B001210B64D4C001210B6124D0012104D
:101B8300B61D4D001210B6444E001210B6604E0042
:101B93001210B6BF4E001210B6FD4E001210B6174B
:101BA3004F001210B6944F001210B62B50001210B3
:101BB300B66250001210B6A252001210B6165300AD
:101BC3001210B68B53001210B6E755001210B6F779
:101BD30055001210B6FA55001210B6065600121030
:101BE300B61A56001210B62256001210B6575600F7
:101BF3001210B61B57001210B68C57001210B6F213
:101C030057001210B68E58001210B6275900121042
:101C1300B65559001210B6F859001210B6045A00FE
:101C23001210B6335A001210B6365A001210B6A666
:101C33005A001210B6A85B001210B6885C0012108E
:101C4300B6135D001210B6385E001210B6F15E00D6
:101C53001210B62A5F001210B65B5F001210B66452
:101C63005F001210B6A05F001210B67A6000121067
:101C7300B62C61001210B6BE61001210B67B620072
:101C83001210B6FA62001210B62C63001210B66B73
:101C930063001210B69FCF031210B6B4CF03121015
:101CA300B66CD0031210B6B2D0031210B631D10302
:101CB3001210B6ADD4031210B628D7031210B6E42F
:101CC300DA031210B629DB031210B655DB03121028
:101CD300B6DFDB031210B635DC031210B668DC0383
:101CE3001210B6A7DC031210B6D5DC031210B62807
:101CF300DD031210B62EF8021210B633F8021210DA
:101D0300B653F9021210B656F9021210B676F9025A
:101D13001210B679F9021210B67CF9021210B67FCE
:101D2300F9021210B682F9021210B685F9021210E6
:101D3300B6FDF9021210B6DCFA021210B6FFFB026E
:101D43001210B60FFC021210B61FFC021210B66777
:101D5300FC021210B6E8FC021210B66BFD02121060
:101D6300B66CFE021210B695FE021210B60BFF02FD
:101D73001210B625B1041210B6B9B3041210B61E70
:101D8300B4041210B629B4041210B63DB4041210F0
:101D9300B64EB4041210B639E8031210B69DE80328
:101DA3001210B60BE9031210B61CE9031210B60D9C
:101DB30083021210B647EB031210B667EB0312103F
:101DC300B6ABEB031210B691F1031210B6BCF103DC
:101DD3001210B6B3E0041210B6D7E0041210B646E0
:101DE300E1041210B654E1041210B6BAE30412105F
:101DF300B643E4041210B695E4041210B61EC304ED
:101E03001210B658C5041210B6EBFF011210B6BF7C
:101E1300E1041210B6D0E1041210B6A6E2041210C7
:101E2300B64BD5041210B659D5041210B654890214
:101E33001210B6ADE4041210B6BDE4041210B6D706
:101E4300E4041210B670E5041210B671B704121050
:101E5300B615B8041210B657BA041210B660DE04F1
:101E63001210B68DDE041210B6FDDE041210B61485
:101E7300DF041210B65FDF041210B655FB03121015
:101E8300B66EFB031210B603FC031210B6EDFC038F
:101E93001210B692FF031210B6ABCA041210B6CBDF
:101EA300CA041210B6AED8041210B6CED80412105B
:101EB300B6F7D8041210B618D9041210B637D904DD
:101EC3001210B69DD9041210B60BDA041210B6E440
:101ED3008F041210B64C90041210B66B91041210BA
:101EE300B6BB91041210B6E791041210B600920427
:101EF3001210B61E92041210B6BB92041210B6E76B
:101F030093041210B69294041210B68D9504121015
:101F1300B6E895041210B62A96041210B6F9CC044A
:101F23001210B62BCD041210B63CCD041210B68697
:101F3300CD041210B6D1CD041210B61CCE0412106B
:101F4300B699CE041210B6C0CE041210B685FC01A9
:101F53001210B6BFFC011210B627FD011210B655C0
:101F6300FD011210B6A2FD011210B6D4FD0112102C
:101F7300B60FFE011210B639FE011210B65FFE0154
:101F83001210B6C2FE011210B6F0FE011210B68690
:101F9300FF011210B69EFF011210B6B3FF0112101B
:101FA300B606EA041210B623EA041210B635A104E9
:101FB3001210B6C3A2041210B6D1A2041210B6F1C5
:101FC300A2041210B61AA3041210B677A3041210B7
:101FD300B6D3A3041210B668A4041210B6EDA40479
:101FE3001210B66EA5041210B682A5041210B6958F
:101FF300A5041210B635E6041210B666E6041210F4
:10200300B697E6041210B6C4E6041210B6D7AD04B0
:102013001210B6FEAD041210B629AE041210B6C9E2
:10202300AE041210B661B4041210B684B4041210D4
:10203300B696B4041210B6A4B4041210B6CDB40408
:102043001210B6E9B4041210B605B5041210B62086
:10205300B5041210B696B5041210B6D9B504121011
:10206300B610B6041210B665B6041210B6BAB604AA
:102073001210B6E8B6041210B6F6B6041210B61073
:10208300B7041210B65EB7041210B6ABE804121010
:10209300B6ADDD031210B6F6DD031210B622DE0371
:1020A3001210B63BDE031210B65BDE031210B6CF7E
:1020B300DE031210B609DF031210B673E303121026
:1020C300B618E5031210B65AE5031210B6BBE503C2
:1020D3001210B6D9E6031210B609E7031210B6239D
:1020E300E7031210B637E7031210B687E70312109F
:1020F300B6EAE7031210B6FFE7031210B629D704B6
:102103001210B640D7041210B669D7041210B68F56
:10211300D7041210B6BCD7041210B6ECD7041210B1
:10212300B60DD8041210B644D8041210B66CD804F5
:102133001210B6BBE9041210B6B7A5041210B6CE3E
:10214300A5041210B635A7041210B66AA70412101C
:10215300B692A7041210B6BFA7041210B6D8A704EC
:102163001210B619A8041210B696A8041210B6E2FB
:10217300A8041210B636A9041210B66DA9041210E1
:10218300B693A9041210B6E5EA041210B6F7EA04EE
:102193001210B603DD041210B629DD041210B65A6C
:1021A300DE041210B65DDE041210B6C0E204121093
:1021B300B6E9E2041210B608E3041210B628E304E9
:1021C3001210B686E3041210B6ACE3041210B6CDB7
:1021D300F1031210B62AF2031210B6D8F20312104A
:1021E300B601F3031210B625F4031210B633F40349
:1021F3001210B695F4031210B6D3F4031210B658A6
:10220300F5031210B6FDF5031210B650F6031210C3
:10221300B6D3F6031210B643F7031210B67CF703D6
:102223001210B607F8031210B699F8031210B6F09D
:10223300F8031210B64EF9031210B660F903121028
:10224300B672F9031210B698F9031210B6A1F90386
:102253001210B6E4FA031210B698DB041210B6A7F4
:10226300DC041210B64AC0041210B68FC004121058
:10227300B6DCC0041210B6A5C2041210B60EA20337
:102283001210B6CEA3031210B61DA4031210B6C6C5
:10229300A6031210B62BA7031210B653AA031210EB
:1022A300B6B9AA031210B6F5AC031210B6E1AD032A
:1022B3001210B644AE031210B6D4AE031210B68891
:1022C300AF031210B6E1AF031210B640B003121001
:1022D300B69FB0031210B6A8B2031210B6AAB40385
:1022E3001210B698B7031210B6DAB7031210B63A43
:1022F300B8031210B64CB8031210B6C1B8031210CB
:10230300B677B9031210B655BE031210B6BAEA0473
:102313001210B6D5EA041210B6087B001210B628C4
:102323007B001210B63B7C001210B6857C001210A5
:10233300B6A37C001210B6E87C001210B6477D00ED
:102343001210B68D7D001210B6DB7D001210B6C2DE
:102353007F001210B682EA041210B698EA04121033
:10236300B6A9EA041210B629DA041210B6C3DA04C5
:102373001210B627DB041210B66ADB041210B60083
:1023830080041210B60680041210B6638004121083
:10239300B65381041210B69781041210B6C8810493
:1023A3001210B6D981041210B6EE81041210B607CA
:1023B30082041210B61C82041210B63D820412105D
:1023C300B68182041210B60F85041210B659860422
:1023D3001210B62587041210B67B87041210B6FAC2
:1023E30087041210B61788041210B64E8804121010
:1023F300B68588041210B69988041210B6AF880403
:102403001210B6C388041210B6CF88041210B65E39
:1024130089041210B6C689041210B6D489041210A6
:10242300B6258B041210B6338B041210B69F8B049F
:102433001210B68B8F041210B673E5041210B68A0D
:10244300E5041210B6DAE5041210B605E60412101C
:10245300B630E6041210B6F6FF011210B658E601C4
:102463001210B6BEE6011210B6CFE6011210B60284
:10247300E8011210B6CCE8011210B62EE9011210D1
:10248300B6ABE9011210B6AEE9011210B6C7E90105
:102493001210B660EC011210B698ED011210B6FEE0
:1024A300ED011210B661F0011210B680F0011210A6
:1024B300B6D7F0011210B61CF1011210B68CF1015F
:1024C3001210B6A4F1011210B6CFF1011210B633F7
:1024D300F2011210B68FF2011210B604F4011210B9
:1024E300B631F4011210B69EF7011210B6CBF70104
:1024F3001210B65DF8011210B67EF8011210B697ED
:10250300F8011210B6F6F8011210B65FF9011210B5
:10251300B643FA011210B68AFA011210B698FA01FC
:102523001210B69BFA011210B62AFB011210B65C08
:10253300FB011210B691FB011210B6D9FB01121068
:10254300B6DCFB011210B6E6FB011210B645FC0126
:102553001210B63AD1041210B64BD1041210B62899
:10256300D2041210B63ED1021210B661D10212107B
:10257300B681D1021210B608D3021210B68FD3025D
:102583001210B6FAD3021210B6D0D4021210B666E5
:10259300D5021210B61AD6021210B6CED6021210F7
:1025A300B6D9D7021210B6ACD8021210B615D9029A
:1025B3001210B636E0021210B673E2021210B6BA67
:1025C300E2021210B6BDE2021210B6CAE402121001
:1025D300B683E9021210B6E4EA021210B6E5EC0281
:1025E3001210B699F1021210B6AEF1021210B61B18
:1025F300F4021210B62FF5021210B6C0F602121032
:10260300B6ABF7021210B6A163001210B6826400D3
:102613001210B64865001210B60966001210B6BB58
:1026230066001210B66667001210B6806C001210B6
:10263300B6E66E001210B6FB6F001210B6B573004B
:102643001210B6EA74001210B69275001210B6603A
:1026530077001210B64678001210B6657900121092
:10266300B609EB041210B618EB041210B626EB04ED
:102673001210B6C6C5041210B64CC6041210B680AA
:10268300C6041210B64EC7041210B6BCC70412100B
:10269300B6869C041210B6A89C041210B6059D04BD
:1026A3001210B6339D041210B65D9D041210B6804D
:1026B3009D041210B6A19D041210B6C49D041210FD
:1026C300B6D59E041210B6219F041210B6389F048B
:1026D3001210B649A0041210B65EA0041210B67B05
:1026E300A0041210B698A0041210B6ABA0041210E6
:1026F300B66C96041210B6E59B041210B6059C0442
:102703001210B6D7C8041210B6F4C8041210B6A833
:10271300CA041210B61CE8041210B61FE804121003
:10272300B670E8041210B672BA041210B649D30494
:102733001210B662D3041210B6AAD3041210B6F55F
:10274300D3041210B6E2FF031210B68BE704121083
:10275300B669BD041210B695DF041210B699FF02D4
:102763001210B639BF031210B64CC4031210B62BA5
:10277300CF041210B66FE9041210B6D37F00121003
:10278300B6EDA9041210B6F5E6041210B61FE7045D
:102793001210B62BEB041210B647EA041210B64C13
:1027A300EB041210B6EA82021210B6A682021210CD
:1027B300B66B82021210B64782021210B62C820246
:1027C3001210B6D481021210B62B81021210B6A6D3
:1027D30080021210B64880021210B642890212100B
:1027E300B62489021210B61780021210B6058002B1
:1027F3001210B6F888021210B6D688021210B6E884
:10280300A1031210B6C9A1031210B6DDA003121062
:10281300B63DA0031210B6009F031210B6949C039A
:102823001210B6299C031210B6E39B031210B6AA2A
:1028330098031210B67698031210B630980312104C
:10284300B60698031210B64897031210B6F896030B
:102853001210B64695031210B6B394031210B6B015
:1028630094031210B6AC93031210B67893031210AC
:10287300B6A392031210B6D790031210B660880263
:102883001210B63A87021210B6FE86021210B6B2C2
:1028930086021210B68E86021210B66786021210D6
:1028A300B6AE85021210B69290031210B66490036E
:1028B3001210B66190031210B64E90031210B6F0C8
:1028C30084021210B60D90031210B600900312107A
:1028D300B6E98E031210B6738E031210B635840256
:1028E3001210B6398E031210B66AEB041210B6DD5D
:1028F3008D031210B6AC8D031210B6678A03121043
:10290300B6258A031210B6198A031210B674890306
:102913001210B6AC88031210B66A86031210B6E71B
:1029230083031210B6A583031210B66C8203121030
:10293300B61882031210B65881031210B629810308
:102943001210B66A80031210B65883021210B63AF8
:1029530080031210B60080031210B606EB030000CA
:102963000080FBE4738F000100210E87000100202B
:102973000E240002000B0F250002000D0F2600029B
:10298300000F0F27000200110F28000100130F2969
:10299300000100140F84000400150F8600010019C4
:1029A3000F2A0001001A0F2B0001001B0F2C00013E
:1029B300001E0F2D0008000C0E2E0001001F0F2F0C
:1029C300000100200F30000100210F31000100221F
:1029D3000F32000100140E33000100150E34000104
:1029E30000230F36000100160E38000100240F39B2
:1029F3000001001D0F83000200310F630001001F5F
:102A03000E64000100090E650001001C0F6D00013A
:102A130000300F6E0002000A0E43000100250F4430
:102A2300000200260F45000100280F46000200297E
:102A33000F47000800170E480001002B0F49000143
:102A4300002D0F4A0002002E0F4B0001002C0F0433
:102A5300000100330FA1000100360F3700010035DC
:102A63000F88000100340F00000000000000013651
:102A73003601010001020100010301000104010606
:102A83000605020000070100340801000F090401D4
:102A9300010D0100FF0E08000017020000190100DC
:102AA300FF1A0100011B0100FE1C0100081D0200AA
:102AB300001F010001200100012102000023010089
:102AC3000F2402000026010001270100082802004C
:102AD300FF2A0100072B0102402C0100002D0100F9
:102AE300012E0100012F0100FF30010B1C310800F2
:102AF300003A0100083B01000F2F010000002020D5
:102B0300202020202020202828282828202020209A
:102B1300202020202020202020202020202088105A
:102B230010101010101010101010101010100404BA
:102B330004040404040404041010101010101041C1
:102B43004141414141010101010101010101010132
:102B530001010101010101010110101010101042C7
:102B63004242424242020202020202020202020202
:102B730002020202020202020210101010200302DB
:102B830071023001600211027002010202020202AC
:102B93008002100261023A00410063027302720272
:102BA3006202430200021302380000020002040220
:102BB30012020002000200020002040204023700B3
:102BC30037003C02440200023900000200026502A1
:102BD3000002350281020002050282028302000222
:102BE3000101710101010101110101013101010122
:102BF30001018001100161013B00140063017301B5
:102C03007201620143010001130106013D01350018
:102C1300040112010001000100010001040104018B
:102C2300330133013C01440132013600000100014C
:102C33006501000135008101000105018201830165
:102C430000010300710030016000110070003102C7
:102C53002003500480001000610000001400630092
:102C630073007200620043000000130006000000BE
:102C73000000040012000000000000000000040037
:102C83000400370037003C0244000000000000004D
:102C93000000650000003500810000000500000011
:102CA300830000000304710402046004110470042F
:102CB3000204020401040204100461040004140465
:102CC30063047304720462044304000413040604DB
:102CD30000040004040412040004000400040004BB
:102CE30051046400000400040004440400040004CC
:102CF3000004000465040004350481046400050431
:102D030000048304000401037103010301030103AD
:102D13000103010322030203010310030003000361
:102D23000003000300030003000342030003240322
:102D330006030003000304031203250323032503EF
:102D430023030403040300030003000344030003F9
:102D530000032303000365032100350381030003FC
:102D63000503000300030003360001000600000012
:102D73000F0000000000000000000000000003FF3F
:102D8300FF00000403FFFF0000FFFF0FF401000535
:102D9300C4040320000100000B0000000000000039
:102DA3000003010F000025261300C5250100252679
:102DB30002008F250300952504009B250500A1250E
:102DC3000600AD25FFFF000001B31606E91608E370
:102DD300160B0117102F1602B91605D71607BF16C3
:102DE3000C95160DA716FF0000DF1A0F1BE51AEB53
:102DF3001A091BFD1AF71A151B1B1B211B2D1BF18F
:102E03001AD91AD31A03EAF5E5D5D5C5B5A595950B
:102E130085857575656555554545353525251515DF
:102E23000500160F00000B150B020002220F3200E3
:102E33000006CF1BE11BE71BA91AED1BA31AAF1A50
:102E4300E319DD19191A1F1A131ACB192F1C4D1C5C
:102E5300531C351C411C3B1C000119161816161572
:102E63002303000C0E020B040B0A0708000F0003D8
:102E73004948424D181725050230301718192130DB
:102E83001B1D1F30303016181920231A1C1E30004A
:102E9300383C3E363B3B352B432C031B271B471C3F
:102EA300331B391B231CF31BF91B051CFF1B0204DB
:102EB30002010101010902EF19F519E919251A00A7
:102EC30005150D09100804FB190D1A00BE040A1597
:102ED300000E0004007F0028000C00E803100C0A19
:102EE30003080900040008FF1E1E09030401000C67
:102EF300080F05900514E0FAA3E0FB121A0722E07D
:102F0300F508750900750A00750B00227409121182
:102F1300017F04020DD690074DE0FA900732E022BC
:102F2300EE2412FAEF3400FB121BABE922F09007F8
:102F330032E0640F221211017F03020DD6E0FAA3DF
:102F4300E0F9EA22A3A3E024F5C3941222121F2F6F
:102F53008A0C8B0D8C0E8D0F22121C8F9007521230
:102F630057077A147B0022C082C083900514E07057
:102F730002A3E060099005141246611222779005BE
:102F8300111243F57408900513F0900514E4F0A3AF
:102F9300F0900560F09005168003F0A3E0F0024383
:102FA3004774F7120AE074F7121195EAFEEBFF1269
:102FB3003B38740512457E7403F01231028A828B0A
:102FC300831249D9EE2421FCEF3400FD8C828D83DA
:102FD30012536F123058600BEE241F123B3B74FFE9
:102FE300F0A3F0EE241FEF34001C1CFD8C828D83B4
:102FF300A3E0C0E0124226D0E012305888828983D1
:10300300F074038E828F83A3A3A3A312570D851895
:1030130082851983AA82AB8312237974081213A0C1
:103023007403F0900747120E9574021213A0AC823A
:10303300AD837903EEFA123050121101E97007EEF5
:10304300FAEFFB121A9D02442D79031A1AEFFB12B1
:103053001BB174022212525612537F125AA0E0225D
:1030630074F0120AE0EAFEEBFF890874101213A051
:1030730012530E74121213A012311D123102850F56
:103083000D123136E50E12313CE508123128900756
:103093004C12312590074B123125850B0D12313619
:1030A300E50AF088098A828B83E0C395098E828FB3
:1030B30083A3A3A3A31252561249D98C828D83A34F
:1030C300A3A3A3A3A3A3A3E064037007123B3874D1
:1030D300018009EE240EF582EF124BCD12457E746A
:1030E30009F0750AFF750BFF780A1210D312304CE2
:1030F300121101E97007EEFAEFFB121A9D8048EEF8
:1031030024020A0AEF3400FB8A828B8312311322D2
:10311300E024FFF8A3E034FFF922E0F50AA3E0F589
:103123000B2212536F12312C22F0E824FF18E934DA
:10313300FFF922E50D8882898312312C88828983E5
:10314300221236891211017F08020DD674F0120A79
:10315300E0EAFEEBFF890B8C0E8D0F750A00A2AF20
:10316300E492E0F50CC2AF900517803512322E5071
:103173002D12323B6403702612525C850882850946
:1031830083A3A3E02405FCA3E03400FDEEFAEFFBE8
:103193001223791252657410250AF50A150B12428F
:1031A3000A125EC2E50B6008E5087002E50970BC0F
:1031B300E50CA2E092AFA2AFE492E0F50CC2AF90AF
:1031C3000517801B2402F8E5091248FB124104127B
:1031D30033B31242261233B3050A150B12420A12F5
:1031E30042177002E509602512323B640270ED124A
:1031F300322EE50840CE125276E50912322850DC11
:103203007401850E82850F83F0E50B70CFE50CA268
:10321300E092AF8E828F83E50AF0EE24FFFAEF345B
:10322300FFFB02314A123439A2E522E50812528427
:10323300E509123439A2E622850882850983A3A30E
:10324300124108124F8C2274ED120AE074F6121127
:103253009589128A108B0FE4851882851983F09063
:10326300051DE0C3940840057511078003E0F511BF
:10327300E51133333354F8900731FAE02A2433F558
:103283000A124C387001EB7003023390EA250AF8F6
:10329300EB3400F9EA24021255781249D990073128
:1032A300E0FCFAC3E49AFAE49400FBE82AFEE93B63
:1032B300FF90072F1233A8780C1210CF7D00EEFA7F
:1032C300EF124D00121101851882851983AC82AD6E
:1032D30083A911EE24FFFAEF34FFFB1219B38A0C12
:1032E3008B0DAE0CAF0DE41233B9E50FC454F0C02F
:1032F300E0900561E0C4333354C0C0E090072BE095
:10330300A2E0E492E013135480FAD0E04AFAD0E04A
:103313004A440F1233B9E510C454F045128E828F1C
:1033230083F0EEFA850A82850B83E0C39A850882CF
:10333300850983A3A3A3A3F0850A82850B83EEF0FB
:10334300A3EFF0E508240E12339EE508240D123393
:103353009E74091213A0E4F0F50AF50B780A121013
:10336300D374031213A0AE82AF83121B99EEFCEF4A
:10337300FDAA08AB09123052121101851882851972
:1033830083E060031234FBAA08AB0980047A007B54
:1033930000740A1211017F0B020DD6F582E50912A2
:1033A3004589E4F022E0F50CA3E0F50D750E00224B
:1033B300A3A3A3A3A3E08E828F831233C122F0EED3
:1033C30024FF1EEF34FFFF2274F3120AE08A0A8BF4
:1033D3000BA2AFE492E0F50CC2AF750800750900CB
:1033E3009005178026123618501E850A82850B8396
:1033F300A3A3124EB912465B121B9FE9600A123453
:103403002FC2E6F08E088F0912360D12385D700157
:10341300EF70D2E5087002E50960061234F0D2E6D7
:10342300F0E50CA2E092AF7F05020DD612343322F1
:10343300EE2410F582EF3400F583E02274F0120AD3
:10344300E0EAFEEBFF8C0C8D0D750E00A2AFE4924B
:10345300E0F50FC2AF7508007509009005178025C8
:10346300850A08850B091234F0D2E4F0E5081252FC
:1034730076E5091237C4D2E7F0E50A24FBF582E5C5
:103483000B34FFF58312311DE50A7002E50B60442E
:10349300E50A125284E50B1237C4A2E750DB850A12
:1034A30082850B83A3A3120E95AC0CAD0DEEFAEF40
:1034B300FB121BA57402121101E960BDE50870023D
:1034C300E509609CE508240DF582E509123857707B
:1034D300031234FBE50FA2E092AFE5087002E509A1
:1034E3006006121A97750E01A90E02314AE50812F9
:1034F3005284E50912343922850882850983A3128F
:103503003E9BD2E4F02274F2120AE074FE1211958B
:10351300750C00750D00851882851983E4F0A3F0FE
:10352300A2AF92E0F50AC2AF90051712386280315C
:10353300EE24FBF582EF34FF125EC0780C1210D339
:103543001235FF121101EEFCEFFD851882851983F8
:10355300AA82AB8312220BAE08AF0990051DE014BB
:10356300F0EE7001EF602A123618501CEE240BF8AF
:10357300EF1255A9E024FFF0A3E034FFF08882891D
:1035830083E07002A3E060A88E0C8F0D12360D80CD
:103593009AE50AA2E092AF90051DE0602C900732F5
:1035A300E0640F6006900560E0701E7A0B7B0512E5
:1035B3001C8F9081E3120E917A0B7B0512368912D0
:1035C3001101800574F01242B4851882851983AA0B
:1035D30082AB831222118A088B09AE08AF09EE7001
:1035E30001EF600E1219BF12342FA2E250D674E914
:1035F30080D474021211017F06020DD6EEFCEFFD9A
:103603007A177B0512221D740222EE24FBF582EF4A
:1036130034FFF58322123433A2E72274F7120AE04F
:10362300EAFEEBFF1219BF900EA212422A1229667C
:10363300E9640190074E700AE02401F8A3E0340026
:103643008004E0F8A3E0F9EE240B123B3B1249D9C6
:1036530090051DE0701F900732E0640F70177A0B1E
:103663007B05121C8F9081E3120E917A0B7B05125E
:103673003689121101E5A8FAC2AF90051DE004F0E6
:10368300EAA2E7024EB4121C8374042274F7120AEE
:10369300E0EAFEEBFF1236C5F01219BFEEFCEFFDB8
:1036A3007A177B05122217E5A8FAC2AF90051D12FF
:1036B3003EA9900732E0640F70057908121B51028E
:1036C3004695123433C2E42274F7120AE074EA1204
:1036D3001195EAFEEBFF90072BE060387401851823
:1036E30082851983F01213A0E412375E1213A0AA85
:1036F30082AB831223798E828F83A3A312422AE0A3
:10370300C0E0740A1213A0D0E01255DD740B12133B
:10371300A01248C4741602442FC082C0831219A792
:1037230002434774F7120AE074EB121195EAFEEBB9
:10373300FF740685188285198312375E1213A0AAB7
:1037430082AB83122379EE2407FCEF3400FD740A65
:103753001213A01248C4741502442F12556E74023A
:103763002274F7120AE074F7121195EAFEEBFFEEEA
:1037730024211237C160411257128518828519839B
:10378300AA82AB8312237974081213A07403F090F6
:103793000747120E95EE241F123B3B120E9590071E
:1037A3005AE0F974041213A0AC82AD83EEFAEFFB76
:1037B3001219AD740412110102442DEE2423F58273
:1037C300EF1234392274F2120AE08A088B09750A5F
:1037D30000750B00750CE7A2AFE492E0F50DC2AFE4
:1037E30090051780078E0A8F0B12360D12385D7005
:1037F30001EF602F12361850EC12385170E7EE24A7
:103803002EF582EF1259508508828B83A3A3E06AB9
:1038130070D3780A1210D31235FF12110190051DCF
:10382300E014F0E50DA2E092AFEE7001EF6013EE4D
:10383300FAEFFB1219BF79F0EEFAEFFB121B577583
:103843000C00A90CAA08AB09121B570235FAEE2487
:103853000DF582EF123439640122123862EE22E050
:10386300FEA3E0FF2274F4120AE074F7121195EA42
:10387300FEEBFF121A01E9F508704CEE240E123725
:10388300C160447A007909121A49EA7001EB603782
:1038930074081213A01238DA120E957508FF750911
:1038A300FF78081210D38E828F83A3A3A3A3A3A3AD
:1038B300A3A3E0F974041213A0AC82AD831219AD73
:1038C3007404121101800D8E828F83A3E508123ACE
:1038D30072121A0D022F0F125C76125B972274F18B
:1038E300120AE0EAFEEBFF7508008E828F83A3A322
:1038F300A3A3A3A3122F4740037508E88E828F83E7
:10390300A3A3A3A3A3A3A3A3A3A3E0C394104005CA
:103913007508E880138E828F83A3A3A3A3A3A3A315
:10392300A3A3A3E0640F600B90053DE0540870036C
:103933007508E88E828F83A3A3A3A3A3A3A3A3A342
:10394300A3E0C0E0EE240BF582EF125950D0E0C3A0
:103953009A5008E0640F60037508E890074BE06431
:10396300FF7004A3E064FF70037508EC7A237B0007
:10397300122271900514124E1C900514E07002A3DC
:10398300E060288E828F83A3A3A982AA83890C8AED
:103993000D750E00780C1210CF7C237D009005145A
:1039A300124661124D01121101800375081AA9080C
:1039B3007F07020DD674F7120AE0EAFEEBFF8E8250
:1039C3008F83A3A3A3A3A3A3A3A3E0900732125BB4
:1039D300A090074DF0EE240B1237C190072D125B18
:1039E30093A3A3A3A3E0900561F0F91220379005F8
:1039F30061E0600CEE2404124560EE2406123A19CD
:103A03007401900560122F30600474018001E4900A
:103A13000516F0024695FAEF3400FB79E112201FF8
:103A23002274F7120AE0EAFEEBFF8E828F83A3E093
:103A33007003122EF6742C12578102469574F712F6
:103A43000AE0EAFEEBFF900514E07002A3E06010C9
:103A5300900514124661900514E4F0A3F012227746
:103A630074088E828F83123A721226F1024695F001
:103A7300EEFAEFFB2274F6120AE0900560E06012A2
:103A8300900516E0700C123A98EA7001EB6003128D
:103A93001A9D02588990072DE0FB122F19F912196C
:103AA300B92274F7120AE074FA121195EAFEEBFFD9
:103AB3008E828F83A3A3A3A3A3A3E0A2E25071EEFC
:103AC300242A123B3B124EB9EE2412FAEF3400FBC8
:103AD3001219C5E9705A90817DE064017032EE24B9
:103AE3001A124578702A7410851882851983F0EEAE
:103AF30024121256F574021213A01249D9EE242A85
:103B03001256F574041213A0E8F0A3125F53802039
:103B1300121B99E9FAEE242A123B3B120E957B30D5
:103B2300EE2412FCEF3400FD7901125C82121101C4
:103B3300740602442FEE240EF582EF12458922C04B
:103B430082C083900561E06003121C0B024347C0EF
:103B530082C08390055874CAF0A3742EF090055A5E
:103B63007443F0A3742EF090055C74BAF0A3742E22
:103B7300F0900EAE74A7F0A3742CF090054274A1DC
:103B8300F0A37419F0900E9874D1F0A37419F09007
:103B93000E9A74D7F0A37419F090053DE044020225
:103BA3002F9DC082C083125946790302496AC0829D
:103BB300C083125946790502496A740102442FC031
:103BC30082C08379080259FEC082C08374FE121139
:103BD3009580077A177B05123C11900517E0700258
:103BE300A3E070EF900519E07002A3E060097A1971
:103BF3007B05123C1180ED900517E4F0A3F09005CE
:103C03001DF090051EF090051FF07402801E122215
:103C130011851882851983EAF0A3EB123C25121B48
:103C23008D22123EBBAA82AB8322741112110102B0
:103C3300434774F4120AE0E9FE2492F582E4342E39
:103C4300F583E493F508FA7B001221EDEA7001EBAA
:103C5300600F1249CBE48A828B83A3A3A3A3F080D2
:103C6300287A027B001221EDEA7001EB6017EE2443
:103C73007CF582E4342EF583E4938A828B83F0749B
:103C83001AA31240197A007B00022F14E9FDEAFC03
:103C930074062DFAECA2E0501EEA75F00A84ABF02C
:103CA300EB6014740A2AC39BFAEBC39405400474B3
:103CB3000A2AFA740B2AFAEDC39413400478148089
:103CC300027806E82AF8740928F8E43400F97A0A35
:103CD3007B00120889E8F90210B3C082C083900503
:103CE3003DE05402600A1226F7E96004790180027C
:103CF3007900024347C082C08390053DE0540260CF
:103D03001D90051DE07013900520E07002A3E06094
:103D13000D900520E0123D265004790180027900C0
:103D23000243472410124237A2E722C082C0839085
:103D3300051FE0C0E090817BE0FCD0E0C39C500510
:103D43001221ED80047A007B00024347C082C083C6
:103D5300121B8D7900024347C082C08374FE121187
:103D630095851882851983123EC3120E5B00037575
:103D73003E7C3DD63D753EFA3D900732E0640F60D0
:103D830018121B63E9701285188285198312466124
:103D9300900E9C12422A12296690075AE0C0E085D1
:103DA30018828519831248D9D0E0123EB212422BF1
:103DB3007414123EB2FCA3E0FD7A197B0512220BA8
:103DC300E5A8FAC2AF90051F123EA97920121B5134
:103DD300023C0D121B5DE98518828519836011125F
:103DE300422A740D123EB2FAA3E0FB1226F180E0E0
:103DF30012422A741580BB12423D60768518828573
:103E03001983123E94C0E0851882851983123E8F70
:103E1300A3A3D0E0123EB22402F81240FD2401FA1B
:103E2300A3E03400FB88828983123EC314C3940940
:103E3300501512423DFA123E8524B0F582E4342E29
:103E4300F583E4936A600E123E856408702412427F
:103E53003D6408701D12423D14123EC7240AC0E09F
:103E630085188285198312422CD0E0123EC70402C2
:103E73003DB5851882851983AA82AB83121B8D02F7
:103E83003DD3851882851983123ECF22126114A374
:103E93002212410A123E9B22A312411EE022E5A8F0
:103EA300FAC2AF90051EE004F0EAA2E792AF221235
:103EB3003EB622123EBBE022F0851882851983228A
:103EC300EAF0A3EB123EB6F8123ECF22124120A332
:103ED300A3A3A3A3E022C082C083900522E07002C3
:103EE300A3E0600B90052212422A12296680027910
:103EF3000002434774F7120AE0EAFEEBFFEE240DDB
:103F0300123B3B7401F0EE242F1237C1C0E0123B89
:103F130038D0E0F0EE24301237C1C0E0EE241212A4
:103F23003B3BD0E01255D5C0E0EE2413123B3BD00F
:103F3300E0F0EE242B123B3B120E95EE2422FCEF15
:103F43003400FDEE242D1237C1F912305212110143
:103F5300E97007EEFAEFFB121A9D024695C082C084
:103F630083121B63E96004792080027901024347CD
:103F7300C082C083EA12527BE0D2E0022FA0C0824B
:103F8300C08312526E123857701112400D400C8AC2
:103F9300828B83A3E0F9121B57806CEA125276EBF3
:103FA3001237C4A2E650128A828B83A3E0F9900EE3
:103FB3009E12422A122966804E12526E1238577090
:103FC3000912400D5004743080368A828B83A3E03B
:103FD300641B7004742280288A828B83A3E0700F91
:103FE30012526E1237C42487F582E4342E800D12E8
:103FF300526E1237C4247CF582E4342EF583E493A5
:104003008A828B83124019024347EA240FF582EB1D
:10401300123439A2E322F0900538E0F91221F92293
:1040230074F7120AE0E9FE900520E07002A3E06055
:1040330041EE7006124101E48014741B6E703690D9
:104043000520125597E0640570EA124101EE124112
:1040530027FAA3E0FB121A8B900520E0240E123DF1
:104063002850031259E7900520E4F0A3F0791012C9
:104073001B5102469574E96E705C900520E0241193
:10408300F81240FD9005206045E0240E1818181220
:1040930040FDA2E2900520E0400C24111240FA14E6
:1040A300F012215780CC240F1240FCC2E7124127A3
:1040B300240DF81240FD6403700C900520E02410D9
:1040C3001240FAD2E2F012410F122966808A12419D
:1040D3000474E9024051741C6E600302404D900564
:1040E30020124661900EA412422A122966900520DE
:1040F300E4F0A3F002407508080812423822900544
:104103002012410822E0F8124120A322900520E06A
:10411300FAA3E0FB900E9A12411E22E0F8A3E0F509
:1041230083888222F0900520E02274F4120AE0755D
:104133000A00750B00A2AFE492E0FEC2AF90052027
:10414300E07002A3E06008EEA2E092AF02420290A8
:104153000EA212422A122966E94410FA900517802A
:104163000985080A85090B12420A1242177002E5F3
:104173000960D41234F05A6A70E7780A1210D3AC8B
:1041830008AD09123603121101900520E508F0A3CA
:10419300E509124127123D26406890051EE014F000
:1041A300EEA2E092AF900520E0240E1818A3E034AD
:1041B30000F9E8FEE9FF8E828F83E0FA900520E0A4
:1041C300F8124243F9121A4FE990051BF0A3E412C7
:1041D3005289E0A2E75018900520E02412124221F0
:1041E30012205B900520E0241312422112204F90ED
:1041F3000520124230A2E1B3E492E0F912213F021A
:104203002F1490051D8096E50824FBF582E50934FB
:10421300FFF58322E0F508A3E0F509E50822124241
:1042230037F9228A828B83E0F812412022E0240F9F
:1042330012423722F81255A3E0228518828519838A
:1042430012410AA3A3A3E02274F7120AE0EAFEEBE9
:10425300FF121B87125275EF124013400A12385196
:104263007005908179800390817AE0F9EEFCEFFD8F
:104273007A177B05122223E9602FEEFAEFFB900EEB
:10428300A012422A122966EE240EF582EF12433160
:104293004008123EA1121A978014EEFAEFFB900E1B
:1042A3009812422A122966800574F11242B402461A
:1042B300958E828F83A3123A72121A8B22C082C008
:1042C30083121A97024347C082C083790090053D49
:1042D300E05402700712432B500279E890053DE049
:1042E3005460700FEA242FF582EB1237C4A2E15019
:1042F3000279E88A828B83A3A3A3A3E0C3947540C6
:104303000279E8EA242DF582EB1237C47012EA240D
:104313002AF582EB1237C4700779F5121B578024F4
:10432300E970F8121A7980F6EA242FF582EB123439
:1043330039A2E222C082C083740D8A828B83F01279
:1043430026F18000D083D0820210B3C082C083E400
:104353008A828B83F0A3F012432B401890051EE052
:10436300C0E0908179E0FCD0E0C39C401879F11261
:104373001B5780D090051DE0C0E0908179E0FCD010
:10438300E0C39C50E8124C4480E874F3120AE089BD
:104393000CEA24C2F582E4342EF583E493244AFE26
:1043A300890A250AFAE43400FB1221EDEA7001EBD5
:1043B30060128A828B83A3A3A3A3E50CF08E081259
:1043C30049CB80047A007B0002342AC082C083E494
:1043D300900536F0900537F090052A1243F57402E4
:1043E30090052CF09005331243F5740190053502C6
:1043F3002FA07451F0A3741BF02274F7120AE07417
:10440300F11211957402851882851983F0740112D3
:1044130013A0E9F060047AFF7BFF74021213A0EA91
:10442300F0A3EB125F54740F80027409121101029E
:10443300469574F7120AE074FE121195740A8518F2
:1044430082851983F074011213A0125F53740280E2
:10445300DB74F0120AE0125D071213497808790C35
:1044630012097978081210CB7A2D7B050231447436
:10447300F4120AE074CE121195900732E0640F60D3
:1044830007742E124E3580237A247B05122F5C127B
:10449300089188088909750A00750B0078081210BD
:1044A300CB7A247B051236891211017432022F1143
:1044B30074F7120AE0EAFEEBFF7A00124575600713
:1044C300E0640360027AE8EE2417123B3B122F49A3
:1044D3005022EA7021EE2417123A19EE24221245D3
:1044E300601245757026EE24191256F59007411295
:1044F30049D9802B7AE8EA8E828F83A3F074178ED2
:10450300828F83F0EEFA121B69024695900741747D
:10451300FEF0A374FFF0EE241912456B1223799079
:104523000536E04401C0E0123B38D0E012457E740A
:104533000212537524241253572422123B3B120EAA
:1045430095EE2419FCEF3400FD798312304E1211DD
:1045530001E970B5EEFAEFFB121A9D80ACFAEF3465
:1045630000FB795012201F22FCEF3400FD7A387BC8
:104573000722EE2421123436640222F0EE240D12B7
:10458300458622F582EF3400F58322C082C083740E
:10459300F7121195900537E070327401F0F912218A
:1045A30009851882851983AA82AB83121B9390070E
:1045B30047120E95900536E04401FB74021213A0D6
:1045C300AC82AD837A03125C801211017409023C40
:1045D3002F74F7120AE012479C700474EBA3F09057
:1045E3000537E0A2E25003C2E2F0E0A2E150051277
:1045F30047AD8005742A12578102469574F7120A53
:10460300E074FE1211951246BB1248E585188285A7
:104613001983124907E0F5087012851882851983FA
:10462300AA82AB83795312201F125EB2851882854A
:104633001983124661A908121AC7900537E0A2E14F
:10464300500A8E828F83A3E0F9121ACDE4900536C7
:10465300F0900537F00244508E828F83A3A3E0FAD3
:10466300A3E0FB2274F7120AE0EAFEEBFF74EB8E81
:10467300828F83A3F0900537E0A2E1500579EB1216
:104683001ACDEEFAEFFB121AFD8007EEFAEFFB12DA
:104693001BFF7F01020DD674F7120AE01246BBE43A
:1046A300900536F0900537F07AFF7BFF8E828F837B
:1046B300A3E0F9121AC780DAEAFEEBFF79011221AF
:1046C3000F7A247B05121C8F7A2D7B05121C8F22F7
:1046D30074F7120AE0EAFEEBFF121AF780AD74F7E3
:1046E300120AE074FF121195EAFEEBFF7901122121
:1046F3000F8E828F83A3A3A3A3E06003E4800274DD
:10470300EB851882851983F0E01247EF5003C2E26C
:10471300F0E0A2E150051247AD8011A2E0500D7404
:104723002A8E828F83F074EBA3125785EEFAEFFB88
:10473300121AAF023BBD74F7120AE0EAFEEBFF90D8
:104743000537E0D2E1F07901122109EE240B123B87
:104753003B120E95EE2402EF3400FF0E0E7401C0DF
:10476300E0121B99E9FAD0E0FBEEFCEFFD790512AC
:104773001BB702445074F7120AE012479C7004748A
:10478300EBA3F0900537E0A2E25003C2E2F0E0A20F
:10479300E150031247AD024695EAFEEBFF790112A1
:1047A300210F8E828F83E0642022C2E11255C0E084
:1047B300F9121ACD2274F7120AE0EAFEEBFF79012F
:1047C30012210F7A247B05126101E06003E4800269
:1047D30074EB1247EF5003C2E2F0E0A2E150031280
:1047E30047ADEEFAEFFB121AAF0246958E828F8326
:1047F300A3F0900537E0A2E22274F7120AE0EAFE82
:10480300EBFF790112210F74EB1247EF5003C2E261
:10481300F0E0A2E150031247AD02469574F7120A85
:10482300E012483502468E74F7120AE01248350248
:104833004695EAFEEBFF7A247B05121C8FEEFAEF16
:10484300FB121B212274F7120AE074EF121195EA8E
:10485300FEEBFFEE241212456B122367E9605D74D1
:1048630009851882851983F074011213A074EFF07F
:104873001248E5F874021213A0E8124907A3A3E053
:10488300C0E074041213A0D0E0125289A3A3A3A31F
:10489300E0640870168E828F83A3A31248D9A3E025
:1048A300C0E074051213A0D0E0800674051213A0B3
:1048B300E41255DD74061213A01248C474110244A5
:1048C3002FAA82AB83121BC9851882851983AA82FA
:1048D300AB831226F1221248DD22126118A3A3A38F
:1048E300A3221248F612570788828983E0FCA3E0CB
:1048F300F9EC22EE2402F8EF3400F9E8FAE9FB8A36
:10490300828B8322F0A3E912525612611422C082D1
:10491300C083121C0B024347C082C08390055474AA
:10492300ECF0A3742DF0900556749DF0A3742EF053
:10493300900EA874E3F0A3742BF0900EAA7481F088
:10494300A3742BF090054074C1F0A3741AF0900582
:104953003DE04401022F9DC082C083EAFCEBFDEAE7
:10496300241612594D7902121B7502434774F6122D
:104973000AE074FE121195900539E07002A3E0601D
:10498300077A397B05121B8DE490053FF0900D1FCC
:10499300E07002A3E0602E800D851882851983AA3A
:1049A30082AB83121B8D900538E0F91221FF8A0830
:1049B3008B09A808A9098518828519831249D9E8A2
:1049C3007001E970D4025884EA2508F8EB3400F941
:1049D3008A828B83A3A3E8F0A3E9F02274F7120A77
:1049E300E0E9FA7B00900538E0F9122229024695A6
:1049F30074F4120AE074F0121195E9FE8A828B8333
:104A0300E02466F582E4342EF583E493C0E0740178
:104A13001213A0D0E0F0640B700DEE8A828B83A397
:104A2300F0121BED024AFDE07003024AFD640C60C4
:104A330003024AEA74041213A0124E1CEA242EF550
:104A430082EB1237C4C0E074031213A0D0E01255F6
:104A5300C7A3A3A3A3780812134974061213A0785B
:104A63000812133A8A828B83A3A3A3A3A3A3A3A3AA
:104A7300A31256FB740A1213A01249D9EA240EF5A5
:104A830082EB1237C4A2E45003E48010EA2411F548
:104A930082EB1237C4FC900754E0C39C85188285CF
:104AA3001983F0E0C0E0740C1213A0D0E0F0EA2404
:104AB30014F582EB1237C4C0E0740D1213A0D0E0DA
:104AC300F0EA2415F582EB1237C4C0E0740E12131A
:104AD300A0D0E0F0EA2416F582EB1237C4C0E074EC
:104AE3000F1213A0D0E0F074021213A0EEF07401C1
:104AF3001213A0AA82AB831226F17410022F11C0E5
:104B030082C08390053FE07004790180027900023E
:104B13004347C082C08390053FE06403700479017A
:104B23008002790002434774F6120AE090053F12AF
:104B33004BC124A6F582E9340EF583124EF5E0C28B
:104B4300E7F0C333FCE82CF582E9123B3EA3E49380
:104B5300FEC333FCE433FDEC24A6F582ED340EF5FD
:104B630083E07002A3E06005EE90053FF08A828B3C
:104B730083E0C333FCE433FDE82CF582E93DF583A0
:104B8300E493F508C4540FC333244EF582E434058B
:104B9300F583124BD67001E97005121BDB801C7480
:104BA3000F5508C333FCE82CF582E9124BCD93C0B3
:104BB300E0740193F583D082122966025889E0C319
:104BC30033F8E433F9E822F582EB124589E4228EC7
:104BD300828F83125707E82274F0120AE074FE12E0
:104BE3001195890FEAFEEBFF124CDE124C3870016F
:104BF300EB60328A828B83E50FF0E4A3F08E0C8F97
:104C03000DF50E780C1210CF850F0AE50A124CEB46
:104C1300EA24020A0AEB124CFA121101AA08AB09A0
:104C2300124C44800B851882851983E50F124D07BA
:104C33007402023147FA7B001221ED8A088B09EADC
:104C430022900538E0F91221F92274F0120AE07477
:104C5300FE121195890B8C088D09124CDEF50CEAB6
:104C630060067405250CF50CAA0C7B001221ED8A55
:104C73000E8B0FAE0EAF0FEE7001EF604E8E828F74
:104C830083E50BF0E4A3F0EE250CF8EF3400F98E86
:104C9300828F831249D7E48E828F83A3A3A3A3F0C9
:104CA30085080C85090DF50E780C1210CF850B08BD
:104CB300E508124CEBEE2417FAEF124CFA1211012D
:104CC300EEFAEFFB124C447900800D8518828519AA
:104CD30083E50B124D07791A024C33E92471F582EF
:104CE300E4342EF583E49322245BF582E4342EF539
:104CF30083E493FC7D00223400124D0022FB122139
:104D0300CF740322F0791AAA82AB83121B5722C0F5
:104D130082C083E9900538022FA074F6120AE0746A
:104D2300FE121195EAFEEBFFEE54207034803FE54E
:104D3300A8FCC2AF90051FE014F0ECA2E792AF8A83
:104D4300828B83124E0D90053B124E1C121B6985FC
:104D53001882851983E0641560077A3B7B05121B73
:104D63008D7A197B05122211EA7001EB70C17480F0
:104D73005FF9E47001E970058011124E2290053845
:104D8300E0F91221FFEA7001EB70EFEE54106005B9
:104D9300742D124E35EEA2E050057424124E35EEFA
:104DA300540260057425124E35EE540460057426D2
:104DB300124E35EE540860057428124E35EE5440F9
:104DC300600C74011213A0E4F0742C124E35EE54EF
:104DD30080600C74011213A0E4F0742F124E35900E
:104DE3000539E07002A3E0601AE5A8FCC2AF9005A4
:104DF30039124661900539E4F0A3F0ECA2E792AFD3
:104E0300124E227A007B00025884E08518828519AD
:104E130083F022A3A3A3A3A3A3EAF0A3EBF022901E
:104E2300053BEAF0A3EBF0121B697A3B7B05121BEF
:104E33008D22851882851983F0AA82AB83121B69A0
:104E430022C082C08390053B1256FBEA687002EBD6
:104E530069700790053BE4F0A3F002434774F7122F
:104E63000AE0EAFEEBFFEE7001EF7003121E21A2CF
:104E7300AFE492E0F508C2AF8E828F83E07002A3A5
:104E8300E0602A124BD224FBFAE934FFFB90053B86
:104E9300124EB9E86C7002E96D700790053BE4F0BF
:104EA300A3F08E828F83E4F0A3F0122277E508A2A9
:104EB300E092AF024695E0FCA3E0FD22C082C083EE
:104EC300900741E064FE7004A3E064FF70097C383E
:104ED3007D0712236D801574028A828B83A3A3A39B
:104EE300A3A3A3A3A3F0124EF21249D902434790FE
:104EF30007411257078A828B8322C082C08390079F
:104F03004BC3E094FEA3E094FF400479038002794D
:104F13000202434774F7120AE08A828B83125026F7
:104F23008C828D83124F876E705574026E70368A31
:104F3300828B83A3A3A3A3A3E0FE8C828D83A3A36D
:104F4300A3A3A3E06E70388A828B83A3A3A3A3A336
:104F5300A3E0FA8C828D83A3A3A3A3A3A3E06A7027
:104F63001E7901801C74036E7015EC2405FCED346E
:104F730000FDEA2405FAEB3400FB12237380027967
:104F830000024695124F8B22A3E01313543F5403A0
:104F93002274F7120AE074091213A01256FB750863
:104FA30000888289831250268A828B83A3A3A3A3BA
:104FB300A3A3A3A3E06E706674026E704E8A828B05
:104FC30083C082C08388828983A3A3A3A3A3E0FEB3
:104FD30088828983A3A3A3A3A3A3E0FBEEFAD083D0
:104FE300D082E06A7003A3E06B703388828983A365
:104FF300A3A3E0FA88828983A3A3A3A3E0F9EA6CBD
:105003007002E96D7018750801801374036E700ED9
:10501300E82405FCE93400FD122373E9F508A90827
:10502300024695124F8BFE22C082C0838A828B83F5
:10503300A3A3A3A3A3A3A3A3E064027014124EF239
:10504300E0687003A3E06970047901800F79008040
:105053000BEAFCEBFD7A387B0712236702434774A4
:10506300EA120AE08A088B098C108D117416121348
:10507300A012530E750A008C828D83A3A3A3A3A34E
:10508300A3A3A3E0F512E9A2E75008750CFF750D81
:10509300FF800A900747E0F50CA3E0F50DE9C2E7AE
:1050A300F513EA240EF582EB123228EA500B125262
:1050B30076EB123B3E74088005240F124BCA125242
:1050C3008FA2E2EA500712527B7480800512527B52
:1050D300741012528FA2E45008EA2411124BCA80B2
:1050E30011900754E0C0E0EA2411F582EB123B3E35
:1050F300D0E012528FA2E05003750A20A2E35006BB
:105103007410450AF50A8A828B83A3A3E024FFFE69
:10511300A3E034FFFF12526E1237C4C39402E0407F
:1051230006141233B97403450AF50A851314751569
:1051330000740E781412125EE515F50B74026513F4
:10514300701490074C1233B890074BE08E828F8314
:10515300F0125265801A74036513701012525C7C4E
:105163005B7D07EEFAEFFB12237980E5E5136026FA
:10517300E5126014E50E650C7004E50F650D70080B
:105183007440450AF50A800E8E828F83E50D125214
:105193009AE50C1233BD85120C750D00740A780C58
:1051A30012125EE50D450BF50B74026512701A853C
:1051B30010828511831233B7851082851183E08EA7
:1051C300828F83F0125265801A7403651270101275
:1051D300525CAC10AD11EEFAEFFB12237980E5E5DA
:1051E30012600E8E828F83E50F12529AE50E1233F0
:1051F300BDEEF8EFF9E824FF1EE934FFFFE50824CC
:105203000DF582E5091237C47005900737800390C6
:105213000743E0FA04F0EA88828983125289E50B96
:1052230012529AE50AF0E5082404F8E5093400F976
:10523300E5082402FAE5093400FBEEFC12536BFD8A
:10524300E02DC39C125256EEF0A3EFF079007F0ECF
:10525300020DD6F08A828B8322EE24F9FEEF34FF0F
:10526300FF22EE24FF1EEF34FFFF22EA240DF58216
:10527300EB22EE240FF58222125284EB124589228F
:10528300E82410F58222F08E828F8322F0EA240E26
:10529300F582EB123439221233C18E828F8322744A
:1052A300EE120AE0890A8A0C8C088D098B0B7412A2
:1052B3001213A012530EAA0B121A498A108B11A8AB
:1052C30010A911E8FEE9FFE87001E96039123B38E3
:1052D300E50B12457EE50AF0780E1210D3AC08AD4B
:1052E30009A90C123052121101E9701AE50A120EC3
:1052F3005B07010253FC52FC5212342FD2E5F0EE4D
:10530300FAEFFB121A9D7F0A020DD6E0F50EA3E019
:10531300F50F2274F7120AE0EAFEEBFF7A01123767
:10532300BE60027A05123B38EA12457E74041253BA
:105333007524221253572420123B3B120E95125709
:105343001212304C121101E97007EEFAEFFB121A38
:105353009D02469512458612536FF074018E828F1B
:1053630083A3A3A3A3F0EE228A828B83E08882899E
:105373008322F01248F612537FF0EE221231138A81
:10538300828B83E8F0A3E92274EE120AE08A088B89
:1053930009ECFEEDFF74058A828B831255D58A8250
:1053A3008B83A3A3F0EA2403125578E0F510A3E05E
:1053B300F511EE2424123B3B780C121349E510241B
:1053C30011F582E511123B3EE50CF0A3E50DF0A3C8
:1053D300E50EF0A3E50F12556EAA10AB1112236D63
:1053E300850A82850B8312591DFAA3E0FB88828903
:1053F30083A3A3A3124E16EE242E1237C1C0E012CC
:105403005283E9123B3ED0E01255B1241512559256
:105413001255B1240E1255921255DD850A82850B61
:1054230083E02416FAA3E03400FB121BC98E828F9B
:1054330083A3A3A3A3A3A3E0C0E0850A82850B8370
:10544300125597D0E01255BAFAA3E0FB850A82857C
:105453000B83124BD6240BFCE93400FD8A828B8329
:10546300E08C828D83F0A3E41255CCE0F50B8C82A3
:105473008D83E0F0A3E0450B1255C7E0FCA30A0AB5
:10548300AB83A2E7E492E0C0E0E8125276E9123B74
:105493003ED0E0F074075C60047801800278007508
:1054A300F00374075CA428F8EA28FAEB3400FBE560
:1054B300082405F8E5093400F912536B1255CC851D
:1054C3000882850983124E1688828983E0F50CF5DC
:1054D3000A7407550AC333FC7470550CC430E302D5
:1054E30044F0F50A3395E0F50B7403780A12125E63
:1054F300E50A2CF8E50B3400F9EA28F8EB39F985CD
:105503000882850983A3A3A3A3A3A3A31249D78EC8
:10551300828F83125585E02AFAA3E03400FBC3EAA5
:1055230098EB9940278E828F83A3A3E0F8850882A6
:10553300850983A3A3A3A3A3125585A3A3E0C39AB9
:1055430028850882850983A3A3A38016E48508829E
:10555300850983A3A3A3A3A3A3A3A3F0850882859B
:105563000983A3A3A3A3A3F0025309F0EE2412FC1F
:10557300EF3400FD22F50AEB3400F50B850A82F5C2
:105583008322A3A3A3A3E0FA8E828F83A3A3221271
:10559300559EE422E0240D12559E22F81255A322B3
:1055A300A3E01255A9223400F98882898322F08569
:1055B3000A82850B83E0221255C0A3E022F08E827B
:1055C3008F83A322125256A322125256A3AA82AB4E
:1055D3008322F0EE243112343622F0EE2407FCEF5E
:1055E3003400FD22C082C0837C0B7D007900122130
:1055F300DB0243470210B3C082C0837918121B57E2
:10560300024347C082C0838A828B83E0C3940B50DA
:1056130003121BD5024347C082C083791980DE740D
:10562300F7120AE0EAFEEBFF900539E07002A3E00F
:105633006010900539124661121BE17A397B05121D
:105643001B8DEEFAEFFB121B87900539EEF0A3EFEB
:10565300F002469574F7120AE074DE121195EAFE21
:10566300EBFF8E828F83E0120F70011E1FBE560365
:10567300037E5605BE56187E56C75674161213A0DF
:10568300E412570D740B1213A0AA82AB8312237971
:1056930074131213A07403F090074B1256FB740299
:1056A3001213A01249D9740A1213A074021256FFDE
:1056B30074141213A0E8F0A3E9801074161213A057
:1056C300740180BD74161213A07402F0740B851854
:1056D30082851983125289A3E0C0E074011213A0DA
:1056E300D0E01255DD74171213A01248C4742202BD
:1056F300442FF582EF12458912570722F09007478E
:1057030012570722E0F8A3E0F922F012571222EE13
:105713002417FCEF3400FD2274F7120AE0EAFEEBD3
:10572300FF750800EE24201257737003A3E069602D
:10573300037508E8EE2417122F266016EE2423F5CE
:1057430082EF1233A2E5087017EEFAEFFB121BBDCE
:10575300801B1237BE60EE900560E070E87508E8C4
:105763008E828F83A3E508F0741912578102469540
:10577300124586125707900747E0682274298E82E4
:105783008F83123A72121B6922C082C08374F11292
:10579300119574021213A074041255C7E0C0E0748B
:1057A300031213A0D0E0F0EA2420F582EB1256F89E
:1057B300740D1213A01249D9EA2417FCEB3400FD2F
:1057C30074041213A0AA82AB8312236D7404121300
:1057D300A0AA82AB83121BABE9600312586974025F
:1057E3001213A0AA82AB831226F1740F023C2F740A
:1057F300F6120AE074E81211958A088B09740212F2
:1058030013A07403F0EA2412FEEB3400FFEEFCEF66
:10581300FD74041213A0AA82AB8312237985088234
:10582300850983A3A312422AE0C0E0740C1213A0DB
:10583300D0E0F0E5082407FCE5093400FD740D12FF
:1058430013A0AA82AB83121BC9EEFAEFFB121BABA8
:10585300E9600312586974021213A0AA82AB83127F
:1058630026F17418801D85188285198374FFF0A3AF
:10587300123C25795312201F90074174FFF0A3F0C7
:105883002274021211017F02020DD674F7120AE08C
:1058930074D4121195EAFEEBFF8E828F83A3A312B9
:1058A3004104E0A2E6501790074712591D687003A0
:1058B300A3E0697009900561E0603C121C0B740B56
:1058C3001213A0A882A98374031213A0125E217479
:1058D3002B124E3590072CE0600874081213A0E0D9
:1058E30060107405851882851983F0AA82AB831230
:1058F30026F1742C02442F900750E060C1122F232D
:1059030070BC900747120E957B017C387D077A03A4
:105913007906125C8212110180D8125707EE242AED
:1059230012343622C082C08374EF12119574098534
:105933001882851983F074011213A074EE125F5458
:10594300023C2DEAFCEBFDEA2413F582EB12343919
:10595300FA2274F7120AE0E9FFA2AFE492E0F50835
:10596300C2AFEF600312200D121FA71259E7900573
:1059730061E0F912203790074712466112203D90EB
:10598300074B1246611220437A5B7B071220497E44
:1059930000EEC333F8E433F91259DCE07002A3E0FC
:1059A30060091259DC12422A1229660EEEC39407CB
:1059B30040DF121C5F121B4BE4900562F0121A4386
:1059C300E4900561F07A4A7B07795212201FE508BB
:1059D300A2E092AF7900024695E82440F582E934CB
:1059E30005F5832290075AE0F912205B900759E0EE
:1059F300F912204F22C082C0837909121B6F024320
:105A030047C082C08390054E7435F0A3742EF09086
:105A1300055074A7F0A3742EF0900552744FF0A3B1
:105A2300742EF090053DE4F0A3F0121FA10243474A
:105A33000210B374F4120AE074078A828B83125A39
:105A430096E08A828B83A3A3125A96A3A3E08A8249
:105A53008B83A3A3A3125AA0A3A378081213498A82
:105A6300828B83A3A3A3A3780812133AE48A828BBD
:105A730083A3A3A3A3A3A3A3A3F0EC2415F582ED0F
:105A8300123B3E124EF5A3A3A3A3A3A3A31249D78C
:105A9300022F14125AA0A3A3A3A3A3A322F08C82C0
:105AA3008D832274F4120AE0EAFEEBFFE4900564AE
:105AB300125B93E0C39404400674E8900564F08E8F
:105AC300828F83A3A3A3A3A3A3A3E0C3940F40152F
:105AD3008E828F83A3A3A3A3A3A3E064036015749F
:105AE300E8900564F08E828F83A3A3A3A3A3A3E00E
:105AF3006403700E90053DE0A2E0400674E8900553
:105B030064F0EEFCEFFD7A637B05121C298E828F15
:105B130083A3A37808121349740A780812113690E4
:105B23000577780812133A8E828F83A3A3A3A3A3C6
:105B3300A3A3E090057B125BA090057CF0740A9010
:105B4300057DF090075AE090057EF09005741243AE
:105B5300F57404900576F0900564E0702290056575
:105B6300E0600674EA900564F0900565E0F91220A0
:105B73006774268E828F83F0790412210380077461
:105B8300298E828F83F0EEFAEFFB121B69022F142A
:105B9300125B97221255C0A3A3A3A3A322125B9760
:105BA300A3A3A3E02274F4120AE074F7121195EA96
:105BB300FEEBFF900565E0703190057DE0640A60BF
:105BC30029122079E9C0E090057DE0F890056CE0AA
:105BD30028F8A3E03400F974F528F58274FF39F549
:105BE30083D0E0F090056BE004F09005777808121D
:105BF3001349740178081211369005777808121347
:105C03003A90057DE004F0E508A2E04006E0C39485
:105C13001D40D7E0641D60557A7D7B0579E1122034
:105C23001F900565E0600464027009EEFAEFFB1251
:105C33001C3B803C74081213A0125C76F09005653F
:105C4300E06401700679087A80800479077A8375A5
:105C530008FF7509FF78081210D37B007402121332
:105C6300A0AC82AD83125C82121101800312577FB4
:105C7300022F0F7402123EBB74FFF0A322790512A8
:105C83001BB774022274F0120AE07508017509004B
:105C9300750A00750B0090057DE0780812105078A6
:105CA300081212CD9005677808121297900565E0E7
:105CB3006403700F125D071213497808790C1209F7
:105CC300798035750801750900750A00750B009018
:105CD300057BE078081210509081A77808121238DB
:105CE3009081E3780C1213497808790C12097990A2
:105CF3000565E0700312207378081210CB7A6E7B6F
:105D030005023144900755122F029081E3780C224B
:105D130074F5120AE074D4121195EAFEEBFF9005B4
:105D230065E064026008E064016003025E1CE490C5
:105D33000564F0740B1213A0A882A98374031213D1
:105D4300A0125E2190056BE0C0E090057CE0FAD0E4
:105D5300E0C39A4003025DE690056C125EC29005B3
:105D63006BE0F50A8041850882850983A3A3A3A379
:105D7300A3A3A3A3A31256FB74141213A0E0687089
:105D830003A3E0697013740B1213A0AC82AD83AA52
:105D930008AB09122367E9704A150AE5082421F5BF
:105DA30008E5093400F509E50A70BB740B1213A06A
:105DB300A982AA8389088A09750A0078081210CF74
:105DC3007C217D0090056BE08CF0A4F8A9F0900590
:105DD3006CE028FAA3E039124D0012110190056B13
:105DE300E004F090072CE0600E74081213A0E0703A
:105DF3000690057CE0700D851882851983AA82AB15
:105E0300831226F190057CE0600F90056BE0FA9019
:105E1300057CE06A700312577F742C022F38E8F078
:105E2300A3E9F0EEFCEFFD851882851983AA82AB06
:105E330083121BC32274F6120AE074FE121195EA50
:105E4300FEEBFFEE241A1237C1640370551237BEFE
:105E53006403704E125EB28E828F83A3A3125EC25E
:105E6300850882F583125ECA7950125EA8125ECA53
:105E7300794B12201FAA08AB0979E1125EA8A3127D
:105E83002F408518828519831249DA85188285196E
:105E930083AA82AB83795312201FE4900564F01226
:105EA300577F02588412201F85088285098322EEBA
:105EB3002412FAEF3400FB794A12201F22F583E003
:105EC300F508A3E0F50922E0FAA3E0F9EA851882D0
:105ED300851983F0A3E9F0E5082402F508E5093400
:105EE30000F509851882851983AA82AB8322C082B3
:105EF300C083900564E064E860267A6E7B05121C1B
:105F03008F12206D790412210F900565E0640370F0
:105F130006900564E060097A7E7B0579E112201F13
:105F23007A637B05024342C082C08374F5121195E4
:105F3300EAFCEBFD851882851983AA82AB83121CC8
:105F43002974011213A074FC125F54740B023C2FCA
:105F5300E9123C251226F122C082C0837907025937
:105F6300FE74F4120AE090057FE4F0A3F09005813B
:105F7300F0A3F09081CB7808121349900EB0780803
:105F830012133A9081CB7808121349900EB4780813
:105F930012133A900583E4F0A3F0022F1474F41261
:105FA3000AE0900583E4F0A3F090057FE07002A37C
:105FB300E0603D90057F126110C082C083900EB0F7
:105FC3007808121349D083D08278081211C0502068
:105FD30012606790057F1261261211C05009900567
:105FE3007F12612612133A90057F1260731249D90A
:105FF300900581E07002A3E0900583602DE07002BC
:10600300A3E0601B900581126110C082C0831261FE
:1060130023121349D083D08278081211C0501290F2
:1060230005811260731249D98007E07002A3E06012
:106033002D12610DC082C083900EB07808121349EF
:10604300D083D08278081211C05013126123121327
:1060530049AA08AB09AC0AAD0B121F3B8003121F00
:1060630041022F14121F2F8A088B098C0A8D0B22D1
:106073001257079005832274F0120AE0900583E01B
:106083007002A3E0607512612312134975830E75C4
:1060930082B078081211C0500D121E21900583E0C2
:1060A3007002A3E0605512606712610D780C121341
:1060B30049780C79081212DD404112610DC082C08B
:1060C300839081BF7808121349D083D08278081255
:1060D30011C05003121E2190058312385DFAEFFBA5
:1060E300126101A3A3A3A3E0F98E828F83A3A3A3C9
:1060F300A3A3A312422A12296680A102314A121CC9
:106103008F8E828F83A3A3A3A3229005831261148E
:106113002212611822E0F8A3E0F5838882A3A32268
:1061230090058312611478082274F0120AE08A0839
:106133008B098C0A8D0B74101213A080248E828F0E
:1061430083A3A3C082C0839081BF780C121349D06C
:1061530083D082780C1211C05003121E218E828FBD
:106163008312385D7001EF60468E828F83A3A3781C
:10617300081212251261B57002EF6970C08E828F0A
:1061830083A3A3C082C0839081BF780C121349D02C
:1061930083D082780C1211C050A39081BF780C1267
:1061A30013498E828F83A3A3780C12133A80AE0215
:1061B300314A900583125707EE682274F0120AE001
:1061C300A2AFE492E0F508C2AF9005811238629065
:1061D300057F120E95900EB0780C121349780C12AD
:1061E3001214AA0CAB0DAC0EAD0F121C717402127B
:1061F300110180368E828F83A3A3C082C083900E49
:10620300B0780C121349D083D082780C1211C0409D
:1062130013900EB0780C1213498E828F83A3A37848
:106223000C1211D5124BD2FEE9FFEE7001EF70C4D0
:10623300900EB0C082900EB4780C12134975830E81
:10624300D082780C1211AB6023900EB4780C121329
:1062530049900EB0780C12133A900EB0780C1213CA
:1062630049AA0CAB0DAC0EAD0F121F29121C65E52C
:1062730008A2E092AF02314A74F0120AE0EAFEEBA0
:10628300FFA2AFE492E0F50CC2AFECFAEDFB8C8217
:106293008D838008AA0EAB0F8A828B8312530EE57F
:1062A3000E7002E50F60228E828F83A3A3C082C08B
:1062B30083850E82850F83A3A37808121349D083A5
:1062C300D08278081211C050CB8A828B83EEF0A360
:1062D300EF125289E50EF0A3E50F125AA01261B82E
:1062E3007002EF697003121C65E50C8084EEFAEF0F
:1062F300FB121C7D02314A74F0120AE0EAFEEBFF46
:1063030074101213A0780812134912632412124B4B
:106313008E828F83A3A3780812133A7C7F7D058036
:10632300CC122F507808790C2274F7120AE0ECF89B
:10633300EDF98C828D838004A882A983124EB98CD7
:10634300828D83E5827002E5836018EA65827003BB
:10635300EB658370E312466188828983124E1C7950
:10636300018002790002469574F7120AE0EAFEEB17
:10637300FFA2AFE492E0F508C2AF7C7F7D05121C5B
:1063830089E9700B7C817D05EEFAEFFB121C891203
:1063930061B57002EF697003121C65024EB074F1AF
:1063A300120AE074F41211958A0A8B0B8C088D097A
:1063B300890E741B1213A0E0FEA3E0FF7C0C7D008A
:1063C3007900AA18AB191221DB902EF1E493C0E0F7
:1063D30074091213A0D0E0F0850882850983A3A372
:1063E300A3A3A3A3A3A3E0C0E074081213A0D0E067
:1063F300F0850882850983E0F8A3E0F98518828592
:106403001983E8F0A3E9F0850A82850B83E0C0E0F5
:10641300900F09E0F8A3E0C824FFF582C834FFF524
:1064230083D0E0F0750C1E780C1210D7780A121086
:10643300D3900F09E024FFF50CA3E034FFF50D78AA
:106443000C1210D3A80E7900E82401F50CE439F5F9
:106453000D780C1210D38E0C8F0D780C1210D39074
:106463000E06E0F97C037D0F7409121157121CB953
:106473007409121101740C1211017F07020DD674F5
:10648300F0120AE074FC12119574021213A0EAF0E0
:10649300A3EBF0851882851983ECF0A3EDF0890E48
:1064A30074141213A0E0F50CA3E0F50D7416121387
:1064B300A0E0F50AA3E0F50B900F09E0F508A3E0CF
:1064C300F509AE0EEEFF74FF2FFEEF602E850A82F4
:1064D300850B83E0C0E0850882850983D0E0F085E1
:1064E3000A82850B83A385820A85830B85088285AF
:1064F3000983A385820885830980C974181213A0B0
:10650300E06004744080027400900E06F0780C1270
:1065130010D3A90E74021213A0E0FCA3E0FD7404CF
:106523001213A0E0FAA3E0FB122607740212110172
:10653300E9F50F900E067400F0A90F74041211010F
:106543007F08020DD674F0120AE074F71211958ACF
:106553000E8B0F89098C088D0D900F09E0FEA3E0C7
:10656300FF750C0AAC0EAD0F7AF17B04122373E9AD
:10657300701774081213A0740FF08518828519839D
:1065830074FDF0A374FFF0801B74081213A074024F
:10659300F0900D40E0F8A3E0F9851882851983E8AF
:1065A300F0A3E9F0AC0EAD0FEEFAEFFB1223798AFC
:1065B3000A8B0BAE0AAF0BE509C0E08E828F83D046
:1065C300E0F08E828F83A3AE82AF83E508C0E08EB6
:1065D300828F83D0E0F08E828F83A3AE82AF83E479
:1065E300F50AF50B780A1210D3A90C740212115F85
:1065F3007AB57B0D12260774021211017409121168
:10660300017F08020DD674F0120AE074F712119597
:106613008A088B09890E8C0A8D0F900F09E0FEA35F
:10662300E0FF750B0474081213A07402F08518823E
:10663300851983E508F0A3E509F0E508C0E08E823B
:106643008F83D0E0F08E828F83A3AE82AF83A808BE
:10665300A909E4C9F8E8C0E08E828F83D0E0F08E08
:10666300828F83A3AE82AF83E50EC0E08E828F83D9
:10667300D0E0F08E828F83A3AE82AF83E50AC0E0C1
:106683008E828F83D0E0F08E828F83A3AE82AF831E
:10669300750C01750D00780C1210D3A90B7402123E
:1066A300115F7AB57B0D122607740212110174096A
:1066B3001211017F08020DD674F2120AE074F71268
:1066C3001195EAFEEBFF8C0C8D0D890974081213EA
:1066D300A0740FF085188285198374FDF0A374FFED
:1066E300F0EEC0E0900F09E0F8A3E0F5838882D0D4
:1066F300E0F0EEF8EFF9E4C9F8E8C0E0900F09E044
:10670300F8A3E0F5838882A3D0E0F0AC0CAD0D9044
:106713000F09E02402FAA3E03400FB122379750881
:106723000AE509C0E0900F09E0F8A3E0C8240AF5E0
:1067330082C83400F583D0E0F00508750A13750BA1
:1067430000780A1210D3A908740212115F7AB57B7C
:106753000D122607740212110174091211017F062A
:10676300020DD674F0120AE074E91211958A0E8BA9
:106773000F7508FE7509FF750A00750B00E50E24F9
:106783000CF582E4350FF583E0F8A3E0F9E84970EE
:106793000678087900800478027900E50E2413F561
:1067A30082E4350FF583E028FAA3E0398A82F58382
:1067B300E0C0E074011213A0D0E0F0E50E240CF564
:1067C30082E4350FF583E0F8A3E0F9E849600302BA
:1067D3006878E50E2413F582E4350FF583E0F8A31A
:1067E300E0F9880A890BAC0AAD0B7AF17B0412231A
:1067F30073E9600D900D40E0F508A3E0F509026927
:1068030058900E20E0600B900E20E06401600302BC
:106813006958AA0AAB0B121E2D8A0C8B0DA80CA962
:106823000D74041213A0E8F0A3E9F0E84970030221
:10683300695874041213A0E0F8A3E0F5838882A3D7
:10684300A3A3A3E06401600302695874041213A0B4
:10685300E0F8A3E0F5838882E0F508A3E0F5097486
:10686300011213A0E0700302695874011213A0749B
:10687300FFF0026958E50E2413F582E4350FF58322
:10688300E0F8A3E0F5838882E0FA7B00E50E2413A9
:10689300F582E4350FF583E0F8A3E0F5838882A35E
:1068A300E0F87900E4C8F9EA28F8EB39F9880889AF
:1068B30009900D40E065087004A3E065097009754F
:1068C3000AF1750B04026958900E20E06008900EDF
:1068D30020E06401707FAA08AB091227DB8A0C8BC6
:1068E3000DA80CA90D74041213A0E8F0A3E9F0E8B5
:1068F30049606274041213A0E0F8A3E0F583888270
:10690300A3A3A3A3E06401704C740A1213A0740040
:10691300F074041213A0E0F8A3E0F5838882A3A324
:10692300E0F8A3E0F974151213A0E8F0A3E9F074FA
:106933000A1211571228BFE9600B740D1213A085B8
:10694300820A85830B74011213A0E060087401129C
:1069530013A074FFF074FE6508700474FF6509608A
:1069630006E50A450B7011E50E240BF582E4350F9D
:10697300F583E06003026C76900F09E0FEA3E0FF6D
:1069830074021213A0740BF074FE6508700474FF94
:106993006509602AE50A450B602474011213A0E01F
:1069A300600A74011213A0E0640170047400800291
:1069B3007480C0E074031213A0D0E0F0802E74033F
:1069C3001213A07481F0E50E240CF582E4350FF563
:1069D30083E0F8A3E0F9E849700C900D40E0F50876
:1069E300A3E0F5098006750AF1750B04740312130D
:1069F300A0E0C0E08E828F83D0E0F08E828F83A3ED
:106A0300AE82AF83AC0AAD0BEEFAEFFB1223798AA9
:106A13000C8B0DAE0CAF0DE508C0E08E828F83D0DA
:106A2300E0F08E828F83A3AE82AF83A808A909E426
:106A3300C9F8E8C0E08E828F83D0E0F08E828F8326
:106A4300A3AE82AF83900E20E0600B900E20E06433
:106A5300016003026C2D74011213A0E06401600352
:106A6300026C2D900D40E065087004A3E065096099
:106A730003026C2D74031213A0E06003026C2D85D6
:106A830018828519837400F0AA18AB191213DD74E8
:106A9300081213A0EAF0A3EBF074081213A0E0F8B5
:106AA300A3E0F9E8497003026C14E50E240CF582A7
:106AB300E4350FF583E0F8A3E0F9E84970067808B8
:106AC3007900800478027900E50E2413F582E43519
:106AD3000FF583E028FAA3E0398A82F583A3E0F572
:106AE3000CA80C7900E875F002A4C8AAF075F000B0
:106AF300A42AFA75F002E9A42AF974081213A0E093
:106B030028F8A3E039F974061213A0E8F0A3E9F01A
:106B1300851882851983E0F8E50CC3985022A80CE8
:106B2300851882851983E0C398F075F00285188271
:106B3300851983E0A4F874021213A0E028F08009F9
:106B43008518828519837400F0851882851983E07E
:106B5300C0E08E828F83D0E0F08E828F83A3AE82DB
:106B6300AF8374021213A0E02401F0E50CC0E08EA1
:106B7300828F83D0E0F08E828F83A3AE82AF837443
:106B8300021213A0E02401F0851882851983E060C6
:106B93007174061213A0E0F8A3E0F5838882E0F88D
:106BA300A3E0F9E8C0E08E828F83D0E0F08E828F7D
:106BB30083A3AE82AF8374061213A0E0F8A3E0F5BB
:106BC300838882E0F8A3E0F9E4C9F8E8C0E08E82A4
:106BD3008F83D0E0F08E828F83A3AE82AF8374065F
:106BE3001213A0E02402F8A3E03400F97406121390
:106BF300A0E8F0A3E9F0851882851983E024FFF06B
:106C0300808674081213A0E0FAA3E0FB12227780B7
:106C1300198E828F837400F08E828F83A3AE82AF2E
:106C23008374021213A0E02401F0900E067410F096
:106C3300E50E240CF582E4350FF583E04400F50CF2
:106C4300A3E04480F50D780C1210D374041213A042
:106C5300E0F9E50E2402FCE4350FFDE50E240FFAFE
:106C6300E4350FFB1226077402121101E9900E0698
:106C73007400F074171211017F08020DD674F0121C
:106C83000AE074FF1211958A0E8B0F8C0A8D0B7418
:106C9300111213A0E0F508A3E0F509900F09E0FE37
:106CA300A3E0FF8518828519837410F08E828F8389
:106CB3007400F08E828F83A3AE82AF83E50AC0E0B7
:106CC3008E828F83D0E0F08E828F83A3AE82AF83D8
:106CD300A80AA90BE4C9F8E8C0E08E828F83D0E04C
:106CE300F08E828F83A3AE82AF838508828509836A
:106CF300E05407F9850882850983E0A2E4E433C4FC
:106D030054F0F8850882850983E0A2E3E433333342
:106D13003354F84849C0E08E828F83D0E0F08E82EE
:106D23008F83A3AE82AF83850882850983A3E05452
:106D330007F8850882850983A3E0131313541F33CF
:106D4300333354F848C0E08E828F83D0E0F08E82D4
:106D53008F83A3AE82AF83850882850983A3A3E0D3
:106D6300C0E08E828F83D0E0F08E828F83A3AE82C9
:106D7300AF83850882850983A3A3A3E0C0E08E8245
:106D83008F83D0E0F08E828F83A3AE82AF8385089A
:106D930082850983A3A3A3A3E0C0E08E828F83D05F
:106DA300E0F08E828F83A3AE82AF8385088285094C
:106DB30083A3A3A3A3A3E0C0E08E828F83D0E0F0DC
:106DC3008E828F83A3AE82AF83850882850983A3D6
:106DD300A3A3A3A3A3E0C0E08E828F83D0E0F08EB1
:106DE300828F83A3AE82AF83850882850983A3A3A1
:106DF300A3A3A3A3A3E0C0E08E828F83D0E0F08E91
:106E0300828F83A3AE82AF83850882850983A3A380
:106E1300A3A3A3A3A3A3E0F8A3E0F9E8C0E08E82B1
:106E23008F83D0E0F08E828F83A3AE82AF838508F9
:106E330082850983A3A3A3A3A3A3A3A3E0F8A3E049
:106E4300F9E4C9F8E8C0E08E828F83D0E0F08E8247
:106E53008F83A3AE82AF83850882850983A3A3A30F
:106E6300A3A3A3A3A3A3A3E0C0E08E828F83D0E058
:106E7300F08E828F83A3AE82AF83E508240BF58265
:106E8300E43509F583E0C0E08E828F83D0E0F08E95
:106E9300828F83A3AE82AF83E508240CF582E435A9
:106EA30009F583E0C0E08E828F83D0E0F0750C0299
:106EB300750D80780C1210D374021213A0E0F9E55B
:106EC3000E2402FCE4350FFDE50E240FFAE4350F22
:106ED300FB122607740212110174011211017F08BB
:106EE300020DD674F0120AE074FF1211958A0E8B0C
:106EF3000F8C088D0974111213A0E0F50AA3E0F5B5
:106F03000B900F09E0FEA3E0FF85188285198374B7
:106F130005F08E828F837400F08E828F83A3AE82FE
:106F2300AF83E508C0E08E828F83D0E0F08E828F3E
:106F330083A3AE82AF83A808A909E4C9F8E8C0E037
:106F43008E828F83D0E0F08E828F83A3AE82AF8355
:106F5300850A82850B83E0F8A3E0F9E8540FFA85EC
:106F63000A82850B83E0F8A3E0F9E8C4540FC45404
:106F7300F04AC0E08E828F83D0E0F08E828F83A3AD
:106F8300AE82AF83850A82850B83E0F8A3E0F9E440
:106F9300C9F8E8540FF9850A82850B83E0F50CA341
:106FA300E0F50D740C780C12132BE50CC454F04966
:106FB300C0E08E828F83D0E0F08E828F83A3AE8277
:106FC300AF83750C03750D80780C1210D374021205
:106FD30013A0E0F9E50E2402FCE4350FFDE50E24D1
:106FE3000FFAE4350FFB1226077402121101740124
:106FF3001211017F08020DD674F0120AE074FF1219
:107003001195E9C0E0851882851983D0E0F08A0ED6
:107013008B0F8C088D09900F09E0FEA3E0FF851804
:1070230082851983E0703DE50845096037750B0CCF
:1070330075F002850882850983A3A3A3A3A3A3E014
:10704300FA7B00850882850983A3A3A3A3A3A3A333
:10705300A3A3E0F87900EA28F8EB39F9E8A4250BB3
:10706300F50B8003750B04E50BC3944F40057910B2
:107073000273AB851882851983E0C0E08E828F830B
:10708300D0E0F08E828F83A3AE82AF83900D40E079
:10709300F8A3E0F9E8C0E08E828F83D0E0F08E821F
:1070A3008F83A3AE82AF83900D40E0F8A3E0F9E4B1
:1070B300C9F8E8C0E08E828F83D0E0F08E828F83A0
:1070C300A3AE82AF83E50BC39405500302737D74B3
:1070D300FC250BC0E08E828F83D0E0F08E828F83FD
:1070E300A3AE82AF83850882850983E0C0E08E82E8
:1070F3008F83D0E0F08E828F83A3AE82AF83850827
:1071030082850983A3E0F8A3E0F9E8C0E08E828FCB
:1071130083D0E0F08E828F83A3AE82AF8385088213
:10712300850983A3E0F8A3E0F9E4C9F8E8C0E08E99
:10713300828F83D0E0F08E828F83A3AE82AF83856C
:107143000882850983A3A3A3E0F8A3E0F9E8C0E0DC
:107153008E828F83D0E0F08E828F83A3AE82AF8343
:10716300850882850983A3A3A3E0F8A3E0F9E4C912
:10717300F8E8C0E08E828F83D0E0F08E828F83A305
:10718300AE82AF83850882850983A3A3A3A3A3E06B
:10719300C454F0C0E08E828F83D0E0F08E828F8360
:1071A300A3AE82AF83850882850983A3A3A3A3A388
:1071B300A3E0C0E08E828F83D0E0F08E828F83A322
:1071C300AE82AF83850882850983A3A3A3A3A3A368
:1071D300E0700302728B750A00850882850983A318
:1071E300A3A3A3A3A3E0F8E50AC398400302728B09
:1071F300A80A7900E875F002A4C8AAF075F000A403
:107203002AFA75F002E9A42AF9850882850983A37D
:10721300A3A3A3A3A3A3E028FAA3E0398A82F58357
:10722300E0F8A3E0F9E8C0E08E828F83D0E0F08E2F
:10723300828F83A3AE82AF83A80A7900E875F00238
:10724300A4C8AAF075F000A42AFA75F002E9A42AEA
:10725300F9850882850983A3A3A3A3A3A3A3E02895
:10726300FAA3E0398A82F583E0F8A3E0F9E4C9F8E8
:10727300E8C0E08E828F83D0E0F08E828F83A3AE4E
:1072830082AF83050A0271DC850882850983A3A383
:10729300A3A3A3A3A3A3A3E0C0E08E828F83D0E024
:1072A300F08E828F83A3AE82AF83850882850983A4
:1072B300A3A3A3A3A3A3A3A3A3E07003027384754F
:1072C3000A00850882850983A3A3A3A3A3A3A3A379
:1072D300A3E0F8E50AC3984003027384A80A79007F
:1072E300E875F002A4C8AAF075F000A42AFA75F0B4
:1072F30002E9A42AF9850882850983A3A3A3A3A38A
:10730300A3A3A3A3A3E028FAA3E0398A82F583E029
:10731300F8A3E0F9E8C0E08E828F83D0E0F08E829C
:107323008F83A3AE82AF83A80A7900E875F002A425
:10733300C8AAF075F000A42AFA75F002E9A42AF9A4
:10734300850882850983A3A3A3A3A3A3A3A3A3A3BC
:10735300E028FAA3E0398A82F583E0F8A3E0F9E4B0
:10736300C9F8E8C0E08E828F83D0E0F08E828F83ED
:10737300A3AE82AF83050A0272C58E828F83740027
:10738300F0750C04750D80780C1210D3A90BE50E63
:107393002402FCE4350FFDE50E240FFAE4350FFB60
:1073A300122607740212110174011211017F0802DF
:1073B3000DD674F0120AE074FB121195E9C0E07463
:1073C300021213A0D0E0F074031213A0ECF0A3EDAB
:1073D300F08A0E8B0F74161213A0E0F50CA3E0F5E0
:1073E3000D74181213A0E0F50B900F09E0FEA3E053
:1073F300FF74011213A07404F07406650E70047414
:1074030080650F700B8518828519837410F08009CD
:107413008518828519837400F074151213A0E0C0D7
:10742300E08E828F83D0E0F08E828F83A3AE82AF13
:1074330083E50CC0E08E828F83D0E0F08E828F8351
:10744300A3AE82AF83A80CA90DE4C9F8E8C0E08E0F
:10745300828F83D0E0F08E828F83A3AE82AF83E5E9
:107463000BC0E08E828F83D0E0F08E828F83A3AE39
:1074730082AF83E50B602D74011213A0E0250BF09E
:1074830074191213A0E0F508A3E0F509750A007852
:10749300081210CFAC0B7D00EEFAEFFB1221CF7474
:1074A30003121101851882851983E0900E06F07886
:1074B3000E1210D374031213A0E0F974051213A073
:1074C300E0FCA3E0FD7404121157122607740212A4
:1074D3001101E9F508900E067400F0A9087405126D
:1074E30011017F08020DD674F0120AE074FF121125
:1074F30095E9C0E0851882851983D0E0F08A0E8B68
:107503000F8C088D0C74111213A0E0FEA3E0FF741E
:10751300131213A0E0F50AA3E0F50BE508C0E09011
:107523000F09E0F8A3E0F5838882D0E0F0EEC0E035
:10753300900F09E0F8A3E0F5838882A3D0E0F0EE92
:10754300F8EFF9E4C9F8E8C0E0900F09E0F8A3E028
:10755300F5838882A3A3D0E0F0900F09E0F8A3E0BD
:10756300F5838882A3A3A37400F0750904780A1233
:1075730010D3A909AC0EAD0F7402121157122607CE
:10758300740212110174011211017F08020DD674E5
:10759300F0120AE074FC12119574021213A0ECF0BD
:1075A300A3EDF0E9C0E074011213A0D0E0F08A0A61
:1075B3008B0B74161213A0E0F508A3E0F5097418F9
:1075C3001213A0E0F50EA3E0F50F900F09E0FEA360
:1075D300E0FF851882851983740CF0850E82850F70
:1075E30083A3A3A3A3A3A3A3A3E06403700C85189D
:1075F30082851983E02409F0801D850E82850F831F
:10760300A3A3A3A3A3A3A3A3E06401700A85188281
:10761300851983E02402F074141213A0E0FCA3E0A4
:10762300FDEEFAEFFB1223798A0C8B0DAE0CAF0D36
:1076330074011213A0E0C0E08E828F83D0E0F08E3D
:10764300828F83A3AE82AF83E508C0E08E828F83EF
:10765300D0E0F08E828F83A3AE82AF83A808A909FE
:10766300E4C9F8E8C0E08E828F83D0E0F08E828F89
:1076730083A3AE82AF83850E82850F83A3A3A3A3C7
:10768300A3A3A3A3E0C0E08E828F83D0E0F08E8219
:107693008F83A3AE82AF83850E82850F83A3A3A3BB
:1076A300A3A3A3A3A3E064037024AC0EAD0FEEFA6F
:1076B300EFFB1223798A0C8B0DAE0CAF0D741A12EB
:1076C30013A0E0C0E08E828F83D0E0F08052850E5D
:1076D30082850F83A3A3A3A3A3A3A3A3E064017041
:1076E3003F850E82850F83E0F8A3E0F9E8C0E08EC2
:1076F300828F83D0E0F08E828F83A3AE82AF8385A7
:107703000E82850F83E0F8A3E0F9E4C9F8E8C0E04E
:107713008E828F83D0E0F08E828F83A3AE82AF837D
:10772300900E067410F0780A1210D374021213A08C
:10773300E0F974041213A0E0FCA3E0FD7AB57B0D1D
:107743001226077402121101E9F50C900E0674005B
:10775300F0A90C74041211017F08020DD674F01203
:107763000AE074FE121195851882851983EAF0A345
:10777300EBF0890A900E07E0F8A3E0F9880E890F71
:10778300E8FEE9FFEE4F603A8E828F83A3A3E065A4
:107793000A70208E828F83A3A3A3E0F8A3E0F98568
:1077A3001882851983E0687003A3E0697005790086
:1077B30002783C8E0E8F0F8E828F83E0FEA3E0FF54
:1077C30080C27A057B001222718A0C8B0D850C080E
:1077D300850D09E5084509605EE50AC0E085088274
:1077E300850983A3A3D0E0F0851882851983E0F887
:1077F300A3E0F9850882850983A3A3A3E8F0A3E99D
:10780300F08508828509837400F0A37400F0900E5C
:1078130007E0F8A3E0F9E849600F850E82850F833E
:10782300E508F0A3E509F0800A900E07E508F0A348
:10783300E509F079008002791074021211017F08C2
:10784300020DD674F0120AE08A0E8B0F750B0090AE
:107853000E07E0F50CA3E0F50DE50C450D700302F2
:10786300795E850C82850D83A3A3A3E0F8A3E0F9D9
:10787300E50E240CF582E4350FF583E0687003A36D
:10788300E069600302794EE50E2410F582E4350FBA
:10789300F583E0F87900E82415FAE439FB1221EDC9
:1078A3008A088B09AE08AF09EE4F700302794E8543
:1078B3000E08850F09750A0078081210CF7C157D14
:1078C30000EEFAEFFB1221CF7403121101E50E242F
:1078D30010F582E4350FF583E06054EE2415F8E4E7
:1078E3003FF9EE2413F582E43FF583E8F0A3E9F0D2
:1078F300E50E2413F582E4350FF583E0F508A3E0E4
:10790300F509750A0078081210CFE50E2410F582E8
:10791300E4350FF583E0FC7D00EE2413F582E43FAC
:10792300F583E0FAA3E0FB1221CF74031211018E59
:10793300828F8374D3F0EEFAEFFB850C82850D837F
:10794300A3A3E0F91221F9E9750B01850C82850DDA
:1079530083E0F50CA3E0F50D02785CA90B7F080228
:107963000DD674F6120AE074EB121195EAFEEBFFE2
:10797300750900740A1213A07402F08E828F83A318
:10798300A3A3A3A3A3E0F8A3E0F974021213A0E84E
:10799300F0A3E9F0EE2415F582E43FF583E0C0E0BF
:1079A300740B1213A0D0E0F08E828F83A3A3A3A342
:1079B300E0F8A3E0F9740C1213A0E8F0A3E9F0EEE9
:1079C3002419F582E43FF583E0C0E0740E1213A09E
:1079D300D0E0F0EE241FF582E43FF583E0F8A3E066
:1079E300F9E824FFC0E074101213A0D0E0F0EE24F5
:1079F30021F582E43FF583E02401F8A3E03400F9A4
:107A030074131213A0E8F0A3E9F0EE2421F582E445
:107A13003FF583E0F8A3E0F5838882E0C0E0740FCC
:107A23001213A0D0E0F0EE2412F582E43FF583E0D8
:107A3300F8A3E0F974111213A0E8F0A3E9F0AA186F
:107A4300AB19122655E9F508A8097900E875F00481
:107A5300A4C8AAF075F000A42AFA75F004E9A42AD0
:107A6300F974A728F582742D39F583E493F874012A
:107A730093F974FF68700374FF696074A80979004F
:107A8300E875F004A4C8AAF075F000A42AFA75F00A
:107A930004E9A42AF974A728F582742D39F583E43F
:107AA30093F8740193F9740C1213A0E0687003A3A4
:107AB300E0697037AA18AB19A8097900E875F004D2
:107AC300A4C8ACF075F000A42CFC75F004E9A42C58
:107AD300F974A928F582742D39F583E493C0E07411
:107AE3000193F583D08212296680100509027A4B2F
:107AF300E5087007AA18AB19122523741512110192
:107B03007F02020DD674F7120AE07C007D007E002E
:107B13007F00900D1BECF0A3EDF0A3EEF0A3EFF0CC
:107B23007F01020DD674F0120AE074FE12119585DE
:107B33001882851983EAF0A3EBF0890A8C0E8D0F66
:107B4300851882851983E0FAA3E0FBA90A1223258D
:107B53008A0C8B0DAE0CAF0DEE4F60148E828F83AB
:107B6300A3A3E50EF0A3E50FF0EEFAEFFB027C31E1
:107B73007A097B001222718A0C8B0DAE0CAF0DEECD
:107B83004F7003027C2DE50AC0E08E828F83A3A38E
:107B9300A3A3A3A3D0E0F0851882851983E0F8A3FB
:107BA300E0F98E828F83A3A3A3A3E8F0A3E9F08E69
:107BB300828F83A3A3E50EF0A3E50FF08E828F835C
:107BC3007400F0A37400F08E828F83A3A3A3A3A3F6
:107BD300A3A37400F0A37400F0900D19E0F8A3E0E0
:107BE300F9E849700A900D19EEF0A3EFF080359093
:107BF3000D19E0F8A3E0F988088909850882850949
:107C030083E0F8A3E0F9E849600F850882850983DA
:107C1300E0F508A3E0F50980E2850882850983EE93
:107C2300F0A3EFF0EEFAEFFB80047A007B0074021E
:107C33001211017F08020DD674F7120AE0E9FCEA7B
:107C4300FEEBFF900D19E0F8A3E0F9E8FAE9FBEA8F
:107C53004B602A8A828B83A3A3A3A3E06E7003A342
:107C6300E06F700E8A828B83A3A3A3A3A3A3E06C0C
:107C7300600B8A828B83E0FAA3E0FB80D27F010250
:107C83000DD6C082C083EA4B600F8A828B83A3A385
:107C9300A3A37400F0A37400F0D083D0820210B3C6
:107CA30074F0120AE0E9FF8A088B098C0C8D0DA28F
:107CB300AFE433FEC2AFAC0CAD0DAA08AB09EFF9CC
:107CC30012231F8A0A8B0B850A0E850B0FEEF8EE23
:107CD300A2E092AFE50E450F6004790080027908B7
:107CE3007F08020DD674F0120AE0E9FF8A0E8B0FAB
:107CF3008C0C8D0DA2AFE433FEC2AFAC0CAD0DAA5C
:107D03000EAB0FEFF912231F8A0A8B0B850A088526
:107D13000B09E50845096014850882850983A3A337
:107D2300A3A3A3A3A3E50CF0A3E50DF0EEF8EEA245
:107D3300E092AFE508450960047900800279087F85
:107D430008020DD674F2120AE0890B8A088B09A285
:107D5300AFE433F50AC2AFAA08AB09A90B12232576
:107D63008A0C8B0DAE0CAF0DEE4F6007EEFAEFFBF6
:107D730012232BA80AE50AA2E092AFEE4F60047922
:107D830000800279067F06020DD674F0120AE0899C
:107D93000B8A0E8B0F7E007F00A2AFE433F50AC27D
:107DA300AFAA0EAB0FA90B1223258A0C8B0D850CE2
:107DB30008850D09E5084509600D85088285098355
:107DC300A3A3E0FEA3E0FFA80AE50AA2E092AFEEB8
:107DD300FAEFFB7F08020DD674F1120AE074FE126B
:107DE30011958A0C8B0DA2AFE433F50EC2AF850C4F
:107DF30008850D09E4F50AF50B900D1B780812129E
:107E030025850E0BE50EA2E092AF900D19E0F8A3C5
:107E1300E0F9E8497003027FB8900D19E0F8A3E098
:107E2300F9E8FEE9FF8518828519837400F0A374CD
:107E330000F0EE4F7003027FB8750800750900A2C9
:107E4300AFE433F50EC2AF8E828F83A3A3E0F8A312
:107E5300E0F9C3E50C98E50D99400F8E828F83A35B
:107E6300A37400F0A37400F080108E828F83A3A309
:107E7300C3E0950CF0A3E0950DF08E828F83A3A34E
:107E8300E0F8A3E0F9E849705D8E828F83A3A3A392
:107E9300A3A3A3A3E0F8A3E0F9E84960498E828F86
:107EA30083A3A3A3A3E0F8A3E0F9E84960388E8293
:107EB3008F83A3A3A3A3E0FAA3E0FB8E828F83A304
:107EC300A3A3A3A3A3E0F9122229E98E828F83A39C
:107ED300A3A3A3A3A3A3E0F8A3E0F98E828F83A3B4
:107EE300A3E8F0A3E9F08E828F83A3A3E0F8A3E0D5
:107EF300F9E84960118E828F83A3A3A3A3E0F8A3BB
:107F0300E0F9E849704D851882851983E0F8A3E00C
:107F1300F9E84970138E828F83E0F8A3E0F9900D9E
:107F230019E8F0A3E9F0801C8E828F83E0FAA3E0C6
:107F3300FB851882851983E0F8A3E0F5838882EA3C
:107F4300F0A3EBF08E088F098E828F83E0FEA3E00F
:107F5300FF8014851882851983EEF0A3EFF08E82DB
:107F63008F83E0FEA3E0FF850E0AE50EA2E092AF49
:107F7300E50845097003027E35850882850983A3D8
:107F8300A3E0F8A3E0F9E849702185088285098315
:107F9300A3A3A3A3E0FAA3E0FB850882850983A337
:107FA300A3A3A3A3A3E0F9122229E9AA08AB091208
:107FB3002277027E3574021211017F07020DD6C0AB
:107FC30082C083900D1B121365D083D0820210B33D
:107FD300C082C083851882851983E0F8A3E0F9E89D
:107FE3004960128A828B83ECF0A3E824FF18E934FA
:0C7FF300FFF94870F2D083D0820210B376
:108000002B4D41433A253032583A253032583A25E3
:108010003032583A253032583A253032583A2530E5
:1080200032583A253032583A253032580D0A004538
:1080300052523A2042616420636F6D6D616E640D2F
:108040000A002B4C4F474943414C545950453A255F
:10805000750D0A0041542B4C4F474943414C54592C
:108060005045002B4348414E4E454C3A25750D0A6C
:10807000002B48573A4343323533300D0A00811BF9
:1080800071163F1E43296924C12302100F0100010C
:1080900002EB8102FB812B50414E49443A25750D7C
:1080A0000A002B53454E443A25750D0A002B5245C4
:1080B00043563A25750D0A0041542B4348414E4E14
:1080C000454C002B4C494E4B3A25750D0A00415446
:1080D0002B52455345540041542B53454E443D00CB
:1080E00041542B4C494E4B3F000000000000000063
:1080F000000041542B50414E494400253032582550
:108100003032580041542B4D41433F00FFFFFFFFE9
:10811000FFFFFFFF4348414E4E454C00000000006A
:1081200000000000FFFFFFFFFFFFFFFF2564256445
:108130002573002B5244590D0A0025733D25732CDD
:10814000002564256425730041542B48573F005097
:10815000414E49440082003A003B004F4B0D0A005B
:10816000545950450041544531004543484F00257E
:108170002E31660041544530000508050001545970
:108180005045000000964600001646000096451037
:1081900000000054504E00000016479A99993F374E
:1081A000303100005800000100000064000000525F
:1081B000B82F430000804766663BC20000C84200FB
:1081C0000000000000FA420000C0C000000C0000E7
:1081D000009647000000FF080000000000614837DB
:1081E000303100300000000000E04101000200FFDB
:1081F000FFFFFF000080C300000040018002806696
:108200006666409A995941434430004F4430009D7E
:108210004DD33A4F44310043443100413100563090
:1082200000443000443100413700413300257500DF
:10823000413200415400257500413000504E003E4F
:10824000003F003F000674F7120AE0E99004CDF009
:10825000E4900482F01221939004E1E4F0A3F09002
:1082600004CEF0A3F012190B12289512155D1221FD
:1082700099900444E4F0A3F09004FEE07002A3E0BF
:1082800060099004FE12C0F0122966902EF4E49367
:10829000FA79021226D302CCC674F2120AE0EAFE80
:1082A000EBFF74805FF9E47001E960679004CDE052
:1082B000F91221FF8A088B09EA7001EB604C7C00FF
:1082C00080010CEC75F003A4A9F024CBF582E9340D
:1082D0002DF583E49364FF602AE493FA8508828B8A
:1082E00083E06A70DDAA08EC75F003A424CCF58263
:1082F000E9342DF583E493C0E0740193F583D082D3
:10830000122966AA08AB091221F3EEFA74806FFBFA
:108310000284EE74205FF9E47001E9601D12177F9A
:108320008A088B09EA7001EB600A1216A7AA08AB4B
:10833000091221F3EEFA742080D4EE542070030267
:10834000841F750A0012AC327001EB700B7C027D49
:10835000007A207B0012D5CA7C0079047A007B0069
:108360001217498A088B09801874018508828509CB
:1083700083A3A3A3A3A3A3A3A3A3F0850C08850DA4
:1083800009E5087002E50960717C007904AA08AB70
:10839000091217498A0C8B0D750A01E5082404F8A7
:1083A000E5091294D424FFF0A3E034FF12BB8870D7
:1083B00002A3E070C6850882850983A3A3A3A3A3B3
:1083C000A3A3A3A3A3E06401709F8508828509830A
:1083D000A3A3A3A3A3A3E05404708E74068508820C
:1083E000850983A3A3A3A3A3A3A3A3A3F07AB7851B
:1083F000088285098312865180811217197C0079C1
:10840000017A007B00121749EA7001EB7009E50A56
:1084100070057A201284F074206EFAEF02830FEE5A
:1084200054106007121599741080EEEE54406007E6
:10843000121617744080E2EE548060071214A37481
:108440008080D674015FF9E47001E9601A9005003C
:10845000E07002A3E0600990050012C0F0122966E6
:10846000EEFA740102830E74085FF9E47001E960AA
:108470002D121569900E14E06401701B900E15E02A
:108480006015FC75F0E8A4CCAAF075F003A42AFDF1
:108490007A007B0812D5CAEEFA740802830E7410B3
:1084A0005FF9E47001E960129004DFE06005E4F038
:1084B000121569EEFA741002830E74025FF9E4700B
:1084C00001E9600A1218D5EEFA740202830E7404F0
:1084D0005FF9E47001E9601212C49512C3077901D3
:1084E0001299C6EEFA740402830E7A007B008012A1
:1084F0007B009004CDE0F912233D22A90A740312F7
:1085000011017F06020DD6740212110102BC7274B1
:10851000F7120AE074E1121195EAFEEBFFEE70012A
:10852000EF6033851882851983AC82AD831217AF53
:1085300074061213A0E0601E74171213A0E0FD74FD
:10854000011213A0E0FCEEFAEFFB7900122805E916
:10855000600479A48002790002CCC174F6120AE0AA
:10856000EAFEEBFF8E828F83A3A3A3A3A3A3E05411
:1085700040601312C0EC12884B60067AFF7BFF80CC
:1085800069128645805A90046DE0A2E1504F128A2C
:10859000F21294E7E0FA12C49FA3A3E0F9EAFCE91F
:1085A000FD8E828F83A3A3A3A3A3A3A3E05410F9FA
:1085B000E47001E960047940800279007508FE7575
:1085C00009FF78081210D3EE240E1294C3120E95F0
:1085D00012864512156F740412110180031217D30D
:1085E00074FE6A700374FF6B604312C0EC12CA1809
:1085F000121851E98E828F83600612863EE4800550
:1086000012863E7401F07C777D168E828F8312CBAA
:10861000A11226CDE9F5087017EE7001EF60097917
:1086200001EEFAEFFB121725A90802C1087508CD63
:10863000AA088E828F83128651E960DD80EAE024E9
:108640000D12B5AB228E828F8312AF15FAA3E0FB19
:1086500022E0240C128AFDF91216832274F6120A03
:10866000E0E9FEEAFF7A0F7B001221EDEA7001EBF0
:108670006019740C8A828B83F0EEA3A3F0EF8A82D8
:108680008B83A3F012C2F279008028EEF912174F03
:108690008A088B09A808A909E87001E96013740623
:1086A0008882898312E04CE0F9121629EEF912173C
:1086B0002B791002C108EAFCEBFD7A017B009004E3
:1086C000CDE0F912233122C082C083790090046D7D
:1086D000E0A2E1EA500E12AF02120F7001010AF897
:1086E0008600F98612AF02120F70010304F88602A9
:1086F00007F8860AF886F9860902BC7274F2120A33
:10870000E0EAFEEBFF8C088D09890A740E1213A0B3
:1087100012D0F8850C82F583E4F0A3F012882F6064
:1087200020128858701B8E828F83A3A3A3A3A3A3B8
:10873000A3A3A312B40F850C82850D8312C30780F7
:1087400003750A00EE241DF582EF12AF07120E5BCF
:108750000109EB8768878587A087AB879287CE87DB
:10876000EB87F5870F882388780C1210D3AC08ADFF
:1087700009EEFAEFFB1215817402121101E9F50AF4
:10878000A90A028502AC08AD09EEFAEFFB121587C3
:1087900080EE12883E7054EEFAEFFB1215CF80E0A7
:1087A000A90AEEFAEFFB12189380D2EE2417128C6E
:1087B0001164027036E50A700A12D4777003A3E0E0
:1087C0006970BDEEFAEFFBA90A12182180AF12D42E
:1087D000777003A3E0697013EE2417128C11640202
:1087E0007009EEFAEFFB1218098095750A007901FD
:1087F0001221A5808B900502E07002A3E06081EE5B
:10880000FAEFFB90050212C0F0122966028780126F
:10881000D4777003A3E06970D2EEFAEFFB12189FD1
:10882000028780EEFAEFFBA90A1218AB02877DEEF1
:10883000241D12DB7512AF15F9121833E9228E824E
:108840008F83A3A3A3A3A3A3A3A3A312884F22123E
:10885000A40EFB121851E9228E828F83A3A3A3A337
:10886000A3A3A3A3A312884F64022274F4120AE004
:1088700074DE1211958A088B098A828B83A3A3E088
:10888000F912174F8A0A8B0BAE0AAF0BEE7001EF8D
:108890007003028981850882850983A3E064F16001
:1088A00033850882850983A3E064CD60278508822B
:1088B000850983A3E0641A601B850882850983A368
:1088C000E064E9600F850882850983A3E064E160C4
:1088D00003028A298E828F83A3A3A3A3A3A3A3E069
:1088E0005408F9E47001E9700302898974058E82E5
:1088F0008F83A3A3A3A3A3A3A3A3A3F0900506E040
:108900007002A3E0600990050612C0F0122966907B
:108910000508E07002A3E0603990046DE0A2E15028
:10892000318E828F8312DB55A3A3A3A3A3A3A3A39A
:1089300012AD3E888289831294E0EA7001EB6012E6
:10894000850882850983A3E0F990050812C0F0121A
:1089500029668E828F83A3A3A3A3A3A3A3A3A3E0CB
:108960006402701074068E828F83A3A3A3A3A3A3B3
:10897000A3A3A3F0850882850983A3A3E0F91217B6
:108980002B121719742202AC427900121725E970D4
:1089900003028A2990046DE0A2E140030288FC12E0
:1089A0008AF27002A3E070030288FC8E828F831229
:1089B000CBA174031213A012D221850882850983EA
:1089C000A3E064E9701B128AE11210D78508828542
:1089D0000983A3E0F50A780A1210D7129FC5121175
:1089E00001740C1213A0128AD712A40EF5838A8286
:1089F00012C30774081213A0E06004794080027962
:108A000000740E1213A012AD3E740C1213A0129437
:108A1000D870030288FC8E828F83A3A3A3A3A3A391
:108A2000E04420F0A3E00288FB850882850983A347
:108A3000E0C0E074021213A0D0E012953112D3B15D
:108A4000EE240B128C11851882851983AA82AB83C0
:108A500070051214D3800312182D74021213A0E0B3
:108A600064E97014128AE11210D7750AE9780A12C3
:108A700010D7129FC512110190046DE0A2E14003CE
:108A80000289528E828F83A3A3A3A3A3A3A3A3A32C
:108A9000E0640270298E828F83A3A3A3A3A3A3E023
:108AA0005404601A12C0EC12884B700D12C0EC74A2
:108AB000FFF0A3F0740502896674030289668508D5
:108AC00082850983A3E064E96003028952EEFAEF2C
:108AD000FB1218B1028952E0F8A3E0F98E828F836D
:108AE000228E828F8312B423E8FAE9FB750A01789B
:108AF0000A22128AF6228E828F83E0241C12B5AFDE
:108B0000E02274F4120AE0EAFEEBFF750800750932
:108B1000008E828F83A3A3A3A3A3E06040750808FF
:108B20008E828F83A3A3A3A3A3A3A3A312B33170A5
:108B300001EB601075082C8E828F83A3A3A3A3A3DF
:108B4000E0D2E0F08E828F83A3A3A3A3A3E054031B
:108B500064016003028BF9430811028BF9EE2418BB
:108B6000128C116040EE241A128C11701C12D477F2
:108B70007003A3E0697005750822807D900482E08F
:108B8000640470757509018070EE241BF582EF1284
:108B90008C20241A128C18EE24191294CA1215E192
:108BA000E9705680DF128858700375080112D47777
:108BB0007003A3E0697006E508D2E1F508E50860F6
:108BC000158E828F83A3A3E07006E508D2E58004AA
:108BD000E508D2E6F50812883E64017006E508D281
:108BE000E0F5088E828F83A3A3E0600D12882F64C6
:108BF000016006E508C2E0F508E508A2E1400AE5E3
:108C0000097006E508D2E7F508A90802AC45EE248C
:108C10000FF582EF12AF3122F582EF12AF31FA2257
:108C20003400128C2622F58312AD46EE22C082C09B
:108C30008379018A828B83A3A3E0C3940240011944
:108C40008A828B83A3A3A3A3E0C39402400279008A
:108C50008A828B83A3A3A3A3A3A3A3A3A3E064F803
:108C60007004A3E064FF60488A828B83A3A3A3A35C
:108C7000A3A3A3A3A3E064F97004A3E064FF60309E
:108C80008A828B83A3A3A3A3A3A3A3A3A3E064FAD1
:108C90007004A3E064FF60188A828B83A3A3A3A35C
:108CA000A3A3A3A3A3E064FB7004A3E064FF70028A
:108CB00079008A828B83A3A3A3E0FC900470E06C0C
:108CC00060027900902EECE493C394805017E493F3
:108CD000C333C0E0EA2411F582EB128C1BD0E0C351
:108CE0009A5002790002BC7274EA120AE074DC1233
:108CF0001195EAFEEBFF74031213A012C401751460
:108D00000075150074051213A0AC82AD838E828F9E
:108D100083A3A3A3128AD912CB9F1217AFE9600FC6
:108D200074051213A0AA82AB831216A1E970087908
:108D3000011221A50292C4EE241B12B4097412126E
:108D400013A012C307740B1213A0E06021741C124D
:108D500013A0E0FD74061213A0E0FC8E828F831234
:108D6000CB9F7901122805E96004790280C374055C
:108D70001213A0AA82AB8312169BE9F509740B1299
:108D800013A0E0702A90046AE060247422550964FC
:108D900022601C74425509644270CF74221213A0E1
:108DA0001294F9600A74221213A01294FF70BBE9A6
:108DB000A2E6503C74051213A0AA82AB8312168956
:108DC000E97003028D2F74221213A01294F3700C19
:108DD00074221213A012C78F640D6014740512134D
:108DE000A0AA82AB83121887E9640170030292C4BF
:108DF000EE242C1294C3129B817003A3E069701CB3
:108E000075080078081210D778081210D7EE242EB3
:108E10001294CA129506129FDB121101740B1213E1
:108E2000A0E07003028ED01295061294E08A0A8B9D
:108E30000BEA7001EB7003028F5D74061213A0E061
:108E4000F88E828F83A3A3E028F8A3E03400F9749E
:108E50000D28F582E439F583E0FA850A828B83A335
:108E6000A3A3E06A601AEA850A828B83A3A3A3F016
:108E70009081BF780C121349850A828B8312953D2D
:108E8000790474061213A012D18D2AFCA3E03400D9
:108E90008C82F583A3AA82AB831221E18A0C8B0D0D
:108EA0008C0E8D0F850A82850B83A3A3A3A3781054
:108EB0001213497810790C1212DD50030292C490FB
:108EC00081A7780C121238850A82850B8312953D92
:108ED00090046DE0A2E15003028FF9900482E064F7
:108EE000046008E0640960030292C4E509A2E54059
:108EF00003028FA1129553C0E074011213A0D0E0B9
:108F000012954BC0E074021213A0D0E0F074161258
:108F100013A0E06401702074101213A01295177052
:108F200003A3E0697011740E1213A0128865700714
:108F300074161213A0E4F0EE24241294C3120E91BE
:108F400074041213A0AC82AD8374091213A0AA8218
:108F5000AB831214D974041211010292C49004C795
:108F6000E064016003028ED074221213A01294F9FF
:108F70007009E509A2E65003028ED074121213A004
:108F8000E064FF7004A3E064FF70030292C4EEFC8F
:108F9000EFFD74051213A0AA82AB831216AD0292E4
:108FA000C4A2E640030292C474221213A012C81095
:108FB000701E741C1213A0E0640260030292C47459
:108FC000051213A0AA82AB8379001218210292C461
:108FD00074221213A01294FF60030292C4741C1234
:108FE00013A0E0640460030292C474051213A0AAE3
:108FF00082AB831218150292C474161213A0E0609B
:1090000021EE24021294D21294E7A3A3E01412BB1F
:1090100088F8A3129A5FC0E074161213A0D0E0F093
:109020007006E509C2E7F509E509A2E35064751584
:1090300010A2E25018740A1213A0E054E3F0740A6C
:109040001213A0E0131313541FFAE0802FA2E45070
:109050002D740A1213A0E0541C1313543FFA600934
:1090600074076A600A1AEA7006E509C2E7F509EAB8
:10907000333354FCC0E0E054E3FAD0E04AF0740A21
:109080001213A0E0C0E08E828F83A3A312AAC1D0E6
:10909000E0F0900482E064046005E06409706874A4
:1090A0000E1213A012D4847003A3E0696019740E29
:1090B0001213A0128865600F740A1213A0E0540303
:1090C000640160030292C474071213A0E0701B12C3
:1090D0009553C0E074011213A0D0E012954BC0E08C
:1090E00074021213A0D0E0028F3674221213A01261
:1090F000C8107003028FB274221213A01294FF6082
:10910000030292C4028FDD75080074615509700373
:109110000292C9E509A2E0507512AD387405121328
:10912000A0AA82AB8312161DE970601217DFE9F561
:109130000874161213A0E0700F74101213A0129589
:10914000177003A3E069604612AD3674051213A0D0
:10915000AA82AB83121623E96026E509A2E3500B2D
:1091600074031213A074FFF0A3800F740E1213A0E7
:1091700012CD921213A0E8F0A3E9F0751404800E4A
:10918000E509C2E5F509750800800353099FE50963
:10919000A2E5503C129553C0E074011213A0D0E038
:1091A00012954BC0E074021213A0D0E0F0EE24241C
:1091B0001294C3120E9174041213A0AC82AD837486
:1091C000091213A0AA82AB831214D97404121101DC
:1091D000E509A2E6503B74031213A085820A858339
:1091E0000B780A1210D312AD3674071213A0AA829C
:1091F000AB8312168F7402121101E9F50860127424
:10920000221213A012AF0A6401700674104514F5FF
:109210001474031213A0E064FE7004A3E064FF70F2
:1092200003750800E509A2E740030292C4E508704F
:10923000030292C48E828F83A3A3A3A312B7BD8A15
:109240000A8B0BEA7001EB607BEE2404F510EF341F
:1092500000F5118E828F83A31295221210CF8510F4
:1092600082851183E0FC7D0012BB4412110174075A
:109270001213A012956374011213A0E4F01295303A
:1092800085820C85830D780C1210D378141210D3BC
:1092900078081210D7EE24121294C3120E9585107E
:1092A00082851183E0F9740A1213A012AD3EAA0A56
:1092B000AB0B1217977407121101E96007AA0AABEA
:1092C0000B122277742402B59F74071213A0E06476
:1092D00001703474221213A012AF0A64057028744E
:1092E000031213A085820885830978081210D379A8
:1092F0000012AD3874071213A0AA82AB8312168F26
:10930000740212110180BD74161213A0E0700F7464
:10931000221213A01294F36003028F8E80A61217FC
:109320001FE970A0741D1213A0E070030293FB7478
:10933000201213A012AD3E741F1213A0E0FA741E87
:109340001213A0E0F91215E1E970030293E3741F10
:109350001213A0E0701E740E1213A012CD921213FD
:10936000A012C30774031213A012A4B8EA7001EB91
:109370007068806374201213A012CBA1741F1213A3
:10938000A0E0F91215DB74031213A012CA18740DB1
:109390001213A0E06004780880027800E82408FA3C
:1093A000740C1213A0E06004780880027800E82AA8
:1093B000FA740A1213A0E06004780180027800E8D1
:1093C000042AF88E828F83A3A3E028FAA3E0340056
:1093D0008A82F583E014F07514401217DFE9F5086E
:1093E000029211790B740E1213A012AD3E7410127A
:1093F00013A012CBA112188D0292C4740E1213A0E6
:1094000012CD921213A012C307E509A2E35004740F
:10941000408001E4F50878081210D7741E1213A0DA
:10942000AC82AD83740F1213A012CBA1740A121375
:10943000A0E0F912164D7401121101E9600F7514C4
:10944000208E828F83A3A312AF0A543FF0741D12A3
:1094500013A0E06022740E1213A012AD3E741E120F
:1094600013A0AA82AB831217A974031213A012CA05
:109470001874404514F51474071213A0E0640160D9
:1094800015790074101213A012AD3E740E1213A0C1
:1094900012CBA11215E7E509A2E35004794080023E
:1094A000790074101213A012AD3E740E1213A012A4
:1094B00094D870030293DA74204514F5140293DAF9
:1094C000EE240BF582EF12DB7822F582EF12AF313A
:1094D000F922F8EF12C4B8221295FF12157BE92287
:1094E0001295FF12193B22FAA3E0F5838A82A3A307
:1094F000A3A32212AF1564032212AF156406221231
:10950000C0FEE0640722EE242AF582EF3400128CBC
:1095100026241212DB752212B423EE241212AF2E6F
:109520006822A3E0F50CA3E0F50D750E00780C227F
:10953000A312953522F085188285198322A3A312E0
:10954000E3C5A3E50EF0A3E50FF022F0EE24301200
:10955000AF2E22EE242E12DB75129563EE242F120D
:10956000AF2E22E0851882851983F02274F4120A46
:10957000E0EAFEEBFF8C088D09900E14E0600F12FC
:10958000D4777003A3E069700512156980517900E2
:1095900012CB9412163B8A828B83E5827002E5839C
:1095A0006035A3A3A3A3A3A3E05418602AE508246D
:1095B0001BF582E5091294C6120E9512A66E12943E
:1095C000C6120E95EE24181294CA1295E21216597C
:1095D0007404121101800879001295E212159302A9
:1095E000AC458E828F83A3A3A3A3A3A3A3A3A3129B
:1095F0008C28240BF582EF1295FB223400F58312A0
:10960000A40EFB2274F0120AE074EA1211958A0A81
:109610008B0BEA2402F50EEB3400F50F0A0AFB125D
:109620001E2D8A088B09AE08AF09750901850A82CB
:10963000850B83A3E0F50C750801AC0EAD0F851802
:1096400082851983AA82AB8312237974081213A02E
:1096500012C401740A1213A07402F074131213A03E
:10966000E4F0900E8FE07010EE7001EF700AE50CE0
:1096700070067509C302981A900482E064086006B7
:109680007509C2029816850A82850B83A3A3A3A33A
:10969000A3A3A3A3A3A3E0A2E1500EA2E3500575E8
:1096A0000804800C7508038007A2E35003750802C4
:1096B000EE7001EF700302973F8E828F83A3A3A306
:1096C000A3E06404600D8E828F83A3A3A3A3E06450
:1096D00003700C74046508602C7403650860268EA2
:1096E000828F83A3A3A3A3E06402600D8E828F8385
:1096F000A3A3A3A3E0640170287402650860067444
:10970000016508700F8E828F8312A31D1213A012A1
:10971000C307802B8E828F83A3A3A3A3E064026080
:109720000D8E828F83A3A3A3A3E06401700A8E82AF
:109730008F8312A4BF1229661298D97E007F00740D
:10974000081213A0E064FE7004A3E064FF704212EC
:10975000289BE9703CE50C60179004BFE064027040
:109760000F900E9612A31D1213A0E8F0A3E980201B
:10977000850A82850B83A3A3A3A3A3A3A3A3A3A367
:10978000E05402F91215A574081213A0EAF0A3EB35
:10979000F074081213A0E064FE7004A3E064FF708C
:1097A000057509C78070E50CF50D780D1210D78589
:1097B0000A82850B83A3A3A3A3A3A3A3A3A3A3E0CC
:1097C000F91298CE74091213A012CBA11214FD74D1
:1097D00001121101E9703FA9081298CE7408121302
:1097E000A01299BF8A0E8B0FAE0EAF0FEE7001EF75
:1097F000601C7402650C700BEE2405128C1154FB76
:109800004408F0740A1213A0E4F0F5098008740803
:109810001213A012C401E50C700F851882851983FC
:10982000AA82AB831226AF8010FCA9088518828516
:109830001983AA82AB8312180FE9FAEE7001EF6068
:1098400053E50C60208E828F83A3A3A3A3A3E0D251
:10985000E6F07402650C700D8E828F83A3A3A3A320
:10986000A3E0D2E5F0850A82850B83A3A3A3A3A37B
:10987000A3A3A3A3A3E0A2E6500D8E828F83A3A38C
:10988000A3A3A3E0D2E7F08E828F83A3A3A3A3A315
:10989000A3E004F0E5097003EA602EFC7D007A0184
:1098A0007B1012219FEE7001EF60031298D97408AB
:1098B0001213A0E064FE7004A3E064FF600B740860
:1098C0001213A012A4BF122966741602CB3DE50A3A
:1098D0002402FCE50B3400FD22E50A2402FAE50B24
:1098E0003400FB1213CB2274F7120AE074F7121142
:1098F00095EAFEEBFF900482E06403600DE06401F2
:109900006008E0640960030299BA8E828F83A3E045
:1099100060030299967C007D007A027B0012219FF1
:10992000EE2402FAEF12A9CB12CB8912C3077953A6
:109930001226A379001299C6900482E06409600996
:1099400090048012CBA1121935740112C12774043E
:10995000900482F074011213A0AA82AB83794A1298
:10996000269D74011213A0AC82AD837A787B041219
:109970002379790074011213A0AC82AD8390047630
:109980001299BF90046DE0A2E35004D2F08002C2AD
:10999000F012C10D80218E828F83A3AE82AF83FC33
:1099A0007D007A037B1012219F8E828F83E0F91253
:1099B00099C6E4900482F01216FB740902CCC3121B
:1099C00095FF122883229004801295FF1214F7222B
:1099D000C082C083900444E07002A3E07041900410
:1099E00082E0120F70000301F29905019A06109AA5
:1099F0001F9A90044CE07002A3E0606090044C80D9
:109A000055900448E07002A3E060519004488046FD
:109A100090044AE07002A3E0604290044A803790CC
:109A20000444E07002A3E06005129FBC700C8A82BF
:109A30008B83A3E0F91214DF8022900445129A5F11
:109A4000640270051218C98013900504E07002A327
:109A5000E0600990050412C0F012296602BC72127F
:109A6000A7282274F4120AE074FB1211958A088B5D
:109A7000097A0F7B001221ED8A0A8B0BAE0AAF0B1D
:109A8000EE7001EF7003029B7574028E828F831259
:109A9000C77F795012269D850882850983A3E060DF
:109AA00003029B5D900480E064FF7004A3E064FF08
:109AB0006035900480E064FE7004A3E064FF6027DA
:109AC000851882851983129B817003A3E069601752
:109AD00074EA850882850983A312A1D57A807B0464
:109AE00079501226A3807685188285198312D5169F
:109AF00012C3077A737B04795312269D9004731264
:109B0000C3D412C3077A767B04794B12269D7A75EB
:109B10007B0479E112269D900487E0C3940F5022C4
:109B2000900475E0C0E074021213A0D0E0F0740459
:109B30001213A07401F074021213A0AA82AB831254
:109B400026C7750A00780A1210D7780A1210D79023
:109B50000EFCE0F912A733129FDB12110185088277
:109B6000850983129B7AA3F07403900482F0EEFAC5
:109B7000EFFB12C2F2740502AC42A3E08E828F8327
:109B80002212D51AE0682274F0120AE074EB121166
:109B9000958A828B83A3A3A3A3780812134978081C
:109BA0001212CD900483780812129775087F7509F8
:109BB0007F7C00750C01750D00750E00750F00ECB3
:109BC000780C121050900483780C1212849081BF8C
:109BD000780C1211AB602A7D009004CE80118E8229
:109BE0008F83A3A3E06C70010DEE24141294C312B2
:109BF000ADA47001EF70E7EDC3950850048D088C9B
:109C0000090CECC3941B40AB8A828B83A3A3A3A350
:109C1000C082C0839081BF780C121349D083D08258
:109C2000780C1211AB606FEA12B066FAE9FB8A8217
:109C30008B83780C121349900483780C12133A8AA0
:109C4000828B83780C121349851882851983780CCE
:109C500012133A74041213A07401F0900489E0C046
:109C6000E074051213A0D0E0F074071213A0129D47
:109C7000EA807590048012CBA11215218A0A8B0B01
:109C8000A80AA90B900480E8F0A3E912BE1168703D
:109C900003A3E069602C9004CE12ADA47001EF60C4
:109CA000218E828F83129B817003A3E069700B8EDB
:109CB000828F83A3A3E0650960B9EE24141294C3D4
:109CC00080D7E509900475F01216DDE9601AE4907A
:109CD0000482F090044EE07002A3E0600B79C4901F
:109CE000044E12C0F0122966741502CB3D74F412B2
:109CF0000AE074EB1211958A828B83A3A3A3A3A31A
:109D0000A3A3A3A312AD4CFAE9FB7C00750801756F
:109D10000900750A00750B00EC78081210509004C9
:109D20008378081212849081BF78081211AB6037D3
:109D3000900E95E0C0E08C08EA2508F582EB128CC5
:109D400014FDD0E0C39D501F750801750900750A08
:109D500000750B00EC780812105078081212CD90A4
:109D6000048378081212970CECC3941B409E9081D8
:109D7000BF7808121349758304758283780812111D
:109D8000AB604190048378081213498518828519C5
:109D900083780812133A74041213A07401F0740744
:109DA0001213A07401F0900489E0C0E0740512134E
:109DB000A0D0E0F074071213A0129DEA740690047C
:109DC00082F08023E4900482F0FCFD7A047B101280
:109DD000219F90044EE07002A3E0600B79C49004D0
:109DE0004E12C0F012296602AC40E412CBAD12262E
:109DF000BB2274F5120AE074D81211958A088B09F7
:109E00008A828B83A3A3A312D52E74151213A0AC40
:109E100082AD838A828B83A3A3A3A3A3A3A312AE41
:109E2000F212CB9C12170D74151213A0E0706E8500
:109E30000882850983A3A3A3A3A3A3A3A3E0C39438
:109E40000B405A8E828F83A3A3A3A3A3A3A3A3E053
:109E500064027049EE240B128C1164FF703F900471
:109E600082E06402603CE064066037900444E07085
:109E700002A3E06005129FBC6051900482E0640878
:109E80006005E06404701674171213A0E0F9741CE6
:109E90001213A0AC82AD8312CB9412171374280254
:109EA000A73D900444E07002A3E0701F750800789D
:109EB000081210D778081210D7EE24101294C3128B
:109EC000DB6212AAB9129FDB1211018E828F8312FC
:109ED000C77512DB7DA312B40F74021213A012C354
:109EE00007EE240D128C11C0E074041213A0D0E010
:109EF000F01294C0A3E05480F9E47001E96004D248
:109F0000F08002C2F0A2F0E492E0C0E07405121307
:109F1000A0D0E0F074191213A0E0C0E07406121390
:109F2000A0D0E0F0741B1213A0E0C0E0740712137D
:109F3000A0D0E0F074161213A0E0C0E07409121370
:109F4000A0D0E0F074171213A0E0C0E07408121360
:109F5000A0D0E0F0EE2410128C11C0E0740A1213AD
:109F6000A0D0E0F0741A1213A0E0C0E0740B12133A
:109F7000A0D0E0F074271213A0E0C0E0740C12131C
:109F8000A0D0E0F0741C1213A0A982AA8389088AC9
:109F900009750A0078081210CF7C087D0074101231
:109FA00013A0AA82AB8312BB4412110185188285CB
:109FB0001983AA82AB831214F1029E9D900444126D
:109FC000A725640122E508240CF582E50912DB7857
:109FD00012AEF7A3A3A3A3A312CE9B1295FF121751
:109FE000E574022274F4120AE074C9121195900407
:109FF00082E06408700302A0979004BFE0640270DE
:10A0000034902ED2E493900464F0902ED2E4939096
:10A010000462F09081A7780812134990048B7808A5
:10A0200012133A9081A7780812134990048F780888
:10A0300012133A8062900493E0F82487F582E434A6
:10A0400007F583E0FA900464F0E82488F582E434AC
:10A0500007F583E0FB900462F07508FF7509FFEADD
:10A06000780812125EE508F4FCE509F4FD3395E08A
:10A07000FE90048B12A1CA7508FF7509FFEBC39A05
:10A08000780812125EE508F4FCE509F4FD3395E06A
:10A09000FE90048F12A1CAE412C11B79041226A3F8
:10A0A000900493E07009741E1213A074018006746A
:10A0B0001E1213A0E4F0740F851882851983F090A6
:10A0C0000E9412C77F79461226A374011213A0E4DE
:10A0D000F0900F1AE0C0E074021213A0D0E0F090EC
:10A0E0000470E0C0E074031213A0D0E0F074041216
:10A0F00013A0E4F074051213A0E4F074071213A087
:10A10000E4F0900493E0C3940F500CE0C0E07406B8
:10A110001213A0D0E0800774061213A0740FF07C15
:10A12000947D0474081213A0AA82AB831223797C55
:10A13000037D0079FF74101213A0AA82AB83122151
:10A14000DB9004CCE0C0E074131213A0D0E012C284
:10A150003C74011213A012C22B1217FD900487E069
:10A16000C0E0741C1213A0D0E0F0900488E0C0E0BE
:10A17000741D1213A0D0E0F0900475E0C0E0741AD2
:10A180001213A0D0E0F090048012B40F74181213D0
:10A19000A012C30774201213A0E4F090048AE0C058
:10A1A000E0741F1213A0D0E0F074341213A0E4F096
:10A1B00074291213A0E412A1D574141213A0AA8258
:10A1C000AB831226C1743702AC42ECF0A3EDF0A3CE
:10A1D000EEF0A3F022F07A737B04795312A1E0220F
:10A1E0001226A37A767B04794B1226A322C082C062
:10A1F000838A828B83A3E06007E4900482F0804A24
:10A200007408900482F0900493E0701F90044EE074
:10A210007002A3E0600B790090044E12C0F0122986
:10A220006690048012AD3E7A05801A79001214EB14
:10A2300090047312AD3E7A067B0012219F90047643
:10A2400012AD3E7A047B0012219F02BC7274F4129C
:10A250000AE074EA121195EAFEEBFFEE24020A0A04
:10A26000EF3400FB121E2D8A088B09EA7001EB7097
:10A270000302A3188A828B83A3A3A3A3E0640160D3
:10A28000278A828B83A3A3A3A3E06402601A8A8235
:10A290008B83A3A3A3A3E06403600D8A828B83A3B3
:10A2A000A3A3A3E064047070EE2402FCEF3400FD6D
:10A2B00085188285198312C76712A31D1213A01275
:10A2C000C307740A1213A07401F074131213A012BE
:10A2D000C77E1226B5890AAC0A7D007A077B001278
:10A2E000219F850882850983A3A3A3A3A3E0C2E0DD
:10A2F000F07401850882850983A3A3A3A3A3A3A364
:10A30000A3A312DB8F120889E8850882850983A33D
:10A31000A3A3A3A3A3A3A3F0741602AC4212B42375
:10A3200074082274F2120AE074F8121195EAFEEB36
:10A33000FF8C0A8D0B890C851882851983AC82AD40
:10A3400083758381758224740812102FF50DEEFC3D
:10A35000EFFD851882851983AA82AB8312E64570CA
:10A3600003750D019004CE803BEEFCEFFDE5082463
:10A370000BFAE509340012E644601E85088285095F
:10A3800083A3A3E0650C7011850882850983E065CD
:10A390000A7004A3E0650B6038E5082414F582E533
:10A3A000091294C612E650E5087002E5096022E53C
:10A3B0000D70B6850882850983E0650A7004A3E004
:10A3C000650B70D5850882850983A3A3E0650C70B1
:10A3D000C8AA08AB0974080284FFC082C083900435
:10A3E000CE02BC6F74F7120AE09004CE12A40E8065
:10A3F0000CEA241412D528122277EEFAEFFBEA7049
:10A4000001EB70ED9004CEE4F0A3F002CCC6E0FACC
:10A41000A3E02274F4120AE0EAFEEBFFEE2413122A
:10A420008C116403700DEE240BFAEF3400FB121E46
:10A430002D800CE06402707A12D944EF12A4B58A20
:10A44000088B09E5087002E50960678E828F83A397
:10A45000E0700FE4850882850983A3A3A3A3A3A3C7
:10A46000804F64F1600A8E828F83A3E064E17025DF
:10A47000850882850983A3A3A3A3A3A3E064017035
:10A480001485088285098312A4BF122966EE240B65
:10A49000FAEF1298E0850882850983A3A3A3A3A3FA
:10A4A000A3E0600E850882850983A3A3A3A3A3A3C9
:10A4B00014F002AC4512DB781295FF1227DB221252
:10A4C00095FF90045C12C0F42274F1120AE08A082D
:10A4D0008B09ECFEEDFF890A8A828B8312A5938A91
:10A4E000828B83129B7AF0EEF8EFF9A30EAF838A8A
:10A4F000828B83A3A3E0C454F0FA88828983E04A64
:10A5000012A5A5129B7A12A59FE0333354FCFA8E54
:10A51000828F83E04A12A59FA3E033333354F8FAC5
:10A520008E828F83E04AF008EFF9A30EAF8385088F
:10A53000828B83A3A3A3A3A3A3E0A2E0E492E013EE
:10A54000135480FA88828983E04AF0E5082407F5ED
:10A550000CEB12BB4A1210CF7C0812BB3E12110149
:10A5600012A665E508240FF50CE5093400F50D7811
:10A570000C1210CF7C0312BB3E121101E50AC394EA
:10A580000F400D12A66E1294C6129B7BA3A3A3F0DC
:10A5900002AD9FE08E828F83F0A3AE82AF83221242
:10A5A000A5A5A3A322F08508828B83A3A32274F11F
:10A5B000120AE0EAFEEBFF890A8C088D098E828F71
:10A5C00083E08C828D8312AC22AE82AF83E012BC1A
:10A5D0001612BE10C412BC1612A683E054038C825D
:10A5E0008D8312BE0EA2E2E492E08C828D8312BEB5
:10A5F0000D131313541F12BC1612BE0CA2E7E492E3
:10A60000E08C828D83A3A3A3A312A6838E0C8F0D4F
:10A61000750E00780C1210CF7C087D00E508240729
:10A6200012A67712110112A6658E0C8F0D780C12EE
:10A6300010CF7C037D00E508240F12A677121101CC
:10A64000E50AC3940F40148E828F83A3A3A3E0C0B6
:10A65000E012A66E1294C6D0E0800612A66E12B367
:10A6600020F002AD9FEE2408FEEF3400FF22E50843
:10A670002412F582E50922FAE5093400FB1221CF04
:10A68000740322A3A312AC260EAF832274F0120A25
:10A69000E074F9121195EAFEEBFF8908900444E09A
:10A6A0007002A3E0601012A71E64027009EEFAEFB8
:10A6B000FB1218C38063900480E06E7003A3E06F08
:10A6C00070577401650860097A947B0412E645703E
:10A6D000487A007B0212AC367001EB703C90048328
:10A6E000780C121349851882851983780C12133A55
:10A6F000900489E0C0E074041213A0D0E0F0740567
:10A700001213A07401F074061213A0740212C77F12
:10A71000121491E96097121497740702CB3D9004CC
:10A720004412A72522E0F8A312C0FFA3A3A3A3A36A
:10A73000A3E02290048012AD42900476221211010F
:10A740007F03020DD6E0F902BC72EAF0A3EBF0023F
:10A75000BC7274F6120AE09004E0E0701F7C00798D
:10A76000017A007B00121749EA7001EB600E8A82C1
:10A770008B83E07002A3E0600312167D02C108C063
:10A7800082C08312AC13401079FF121743E9FA908C
:10A790002EF2E493C39A500479018002790002BC3E
:10A7A0007274F0120AE08A088B09890B750C008A12
:10A7B000828B83A3A3A3A3A3A3A3A3E0F912174FA0
:10A7C0008A0E8B0FAE0EAF0F750A01EE7001EF60AF
:10A7D0000302A880850882850983A3A3A3A3A3A35A
:10A7E00012AD3E850882850983A3A3A3A3A3A3A3D7
:10A7F00012B94512CBA11217378A0C8B0DAE0CAFD4
:10A800000DEE7001EF700302A9C08E828F83A3A3A7
:10A81000A3A3E4F0A3F0E508240B12A9C8E0C0E06C
:10A820001294C0D0E0F012185DEE240CF582EF1205
:10A83000CA14E508240EF582E50912B40CEE240EC4
:10A84000F582EF12C304750C01EE24061294D25463
:10A850007FF0A3E054FC12BB885404600302A907F4
:10A86000900F1312B8967407780812125E8E828FBA
:10A8700083A3A3A3A3A3A3E04508F0A3E04509F0A5
:10A880008E828F83A3A3A3A3A3A3E05480F508A380
:10A89000E05403F5097407780812132BE50B607A6E
:10A8A00074028E828F83A3A3A3A312BE0C240D1265
:10A8B000B5A7E0A2E2500B90046E12C3D4A3A3127A
:10A8C000C307E508700302A98EEE2406F8EF3400F2
:10A8D000F9E8FAE9FB8A828B83E0547FFCA3E05419
:10A8E000FCFD74FF2508F50874FF3400F5097407B2
:10A8F000780812125EE5084CF8E5094DF98A828B5A
:10A900008312C30702A98E8E828F83A3A3A3A3A35E
:10A91000A3E04480F0A3E002A87FE5087005750A73
:10A9200000806B8E828F83A3A3A3A3A3A3E05420F4
:10A9300060171221E78A08747F5508F8745F288E23
:10A94000828F83A3A3A3A380278E828F83A3A3A335
:10A95000A3A3A3E05410600E1221E78A08740F55D8
:10A9600008F8740A80D88E828F83A3A3A3A37401EE
:10A97000F0A3E4F074048E828F83A3A3A3A3A3A304
:10A98000A3A3A312AC2D7001EB700312C0CB740112
:10A99000650C702F8E828F83A3A3A3A312CD24F9FD
:10A9A000EEFAEFFB12173DE96019EE240C128C1140
:10A9B0007002A3E0600312A9D3EEFAEFFB12227734
:10A9C000750A00A90A02CB40FAE5093400FB8A8225
:10A9D0008B8322EE240C12DB7512A9DD22E0FAA390
:10A9E000E0FB1222772274F4120AE074F712119538
:10A9F0007E0012174FEA7001EB700302AAB28A823E
:10AA00008B83A3A3A3A3A3A3A3A3A3E064066003D0
:10AA100002AAB28A828B83A3A3A3A3A3A3A3E0FF6A
:10AA20008A828B8312AAC1E0C0E074081213A0D0FE
:10AA3000E012AF0E12C6DC12C30712176D74085F66
:10AA4000F9E47001E9606985188285198312AD3EC9
:10AA50007A007B00121731EA7001EB70539004808A
:10AA600012B06F1226DF7C007D007A007B00802A06
:10AA70008E828F8312AF0A64FF7004A3E064FF60CC
:10AA80002F90048012AAB912CBA1121ED5E9641A24
:10AA9000601E7C007D00EEFAEFFB1217318A0A8BF4
:10AAA0000BAE0AAF0BEE7001EF70C579001226E510
:10AAB0007E01EEF9740902AC4212AD428E828F83A0
:10AAC0002212C4A7A3A3A3A3A32274F7120AE0EA45
:10AAD0007001EB70059004E180068A828B83A3A34A
:10AAE00012ACF87001EB602C8A828B83A3A3A3A322
:10AAF000A3A3A3E05408F9E47001E960DDEC700160
:10AB0000ED60158A828B8312AF0A6C7003A3E06D2F
:10AB100070C880047A007B0002CCC674F2120AE08E
:10AB2000EAFEEBFF890A8C088D097A107B0012225D
:10AB300071EA7001EB603CE48A828B83A3A3A3A338
:10AB4000A3A3A3A312AB76E50A12D88612D1098A71
:10AB5000828B83A3A3A3A3E4F012AB76A3A3F0128A
:10AB6000D3ADEA240CF582EB12B32B12D885A3A344
:10AB7000F0A3F002850212D53AA3A3A3A32274F492
:10AB8000120AE0EAFEEBFF89088C0A8D0BEE7001D9
:10AB9000EF605A7401650870147901121743E9FADD
:10ABA000902EF3E493C39A500F7911806474046576
:10ABB00008703412AC1340F18E828F83A3A3A3A339
:10ABC000A3A3A3A3A3E50812BB76E50AF0A3E50BB4
:10ABD00012AC22A3E4F0A3F09004E1E07002A3E041
:10ABE0009004E1601B800A7402650860CB79C18023
:10ABF0002012CE8E7002A3E088828983A3A370F115
:10AC0000EEF0A3EF12AC2D7001EB700312C0CB7904
:10AC10000080327904121743E9FA902EF5E493C3C9
:10AC20009A2212AC2622F08E828F83A322F012ACDD
:10AC300032227A207B009004CDE0F9122343EA22ED
:10AC400074151211017F04020DD6C082C083E9FC85
:10AC500079009004E1801D8A828B83A3A3A3A3A320
:10AC6000A3A3A3A3E06C600574FF6C7001098A8242
:10AC70008B83A3A312ACF87001EB70DB02BC72747F
:10AC8000F7120AE0EA7001EB70059004E180068A91
:10AC9000828B83A3A312ACF87001EB60248A828BB1
:10ACA00083A3A3A3A3A3A3A3A3A3E06970E1EC6080
:10ACB000148A828B83E0240D12D1AAA2E240D080B4
:10ACC000047A007B0002CCC6C082C0839004E1807D
:10ACD000068A828B83A3A312ACF87001EB60128A00
:10ACE000828B83A3A3A3A3A3A3A3A3E06970E280A1
:10ACF000047A007B0002BC721295FFEA22C082C077
:10AD0000839004E1800688828983A3A312AD4C70EE
:10AD100001E9601B88828983E0FCA3E0F5838C82D3
:10AD2000E06A7003A3E06B70DDE8FAE9FB80047A67
:10AD3000007B0002BC72A908EE241212DB7512AD72
:10AD4000422212AD4622E0FCA3E0FD2212B423E829
:10AD50002274F1120AE08A0A8B0B8C0C8D0D750897
:10AD600000750900EA7001EB60319004E180068E05
:10AD7000828F83A3A312ADA47001EF601EAC0CAD53
:10AD80000DEEFAEFFB850A82850B83122966E964D2
:10AD90000170DCEEF8EFF988088909AA08AB097F91
:10ADA00007020DD6E0FEA3E0FFEE2279000210B309
:10ADB00074F7120AE09004E112B40F7C007D008069
:10ADC0000DE8FCE9FD88828983A3A312B40FE87023
:10ADD00001E96030EA687002EB6970E59004E11205
:10ADE000CBA1E86A7002E96B88828983A3A370080B
:10ADF00012B40F9004E1800912B40F8C828D83A3EA
:10AE0000A312C30702CCC674F7120AE0EAFEEBFFF6
:10AE1000EE7001EF601612176712AF1A7002A3E00E
:10AE2000600312A9D3EEFAEFFB12227702CCC674AC
:10AE3000F7120AE08A828B8312AF0AFCA3E0FD902E
:10AE400004E112B40F7508007E0080338882898384
:10AE5000A3A3A3A3A3A3A3A3A3E0640570180E88D0
:10AE6000828983E0FFA3E0F5838F82E06C7003A307
:10AE7000E06D7002050888828983A3A312B40FE8ED
:10AE80007001E970C7902EEEE493FCE508C39C5076
:10AE90000B902EEDE493FCEEC39C400F8A828B83D3
:10AEA000A3A3A3A37401F0A3E4800C90046EE0F8C4
:10AEB00012AEF2E8F0A3E9F074058A828B83A3A3B3
:10AEC000A3A3A3A312D534A3A3E0F0A3E0440812E4
:10AED000AF0E64FF7004A3E064FF600E9004801264
:10AEE000CE941226D9E9641A700579011226E5027A
:10AEF000CCC6A312AEF722E0F98A828B83A3A3A368
:10AF0000A322241DF582EB12DB7812AF152212D892
:10AF10008A12AF152212C0F8E022128AF612A9DEB8
:10AF20008E828F8312A9DDEE240C12AF2E22F582C1
:10AF3000EF3400F583E022C082C083EAFCEBFDEC35
:10AF40007001ED700479058049EC24FBF582ED3445
:10AF5000FFF583E07002A3E0700812AF95E064FF94
:10AF600060051221F380DE9004CDE0C0E012AF95C1
:10AF7000D0E0F0902EE2E493F97AE37B04122223EE
:10AF8000E96401700B7A007B2012C0CF7900800247
:10AF9000790402BC72EC24FFF582ED34FFF58322C4
:10AFA00074F4120AE0A2AFE492E0F508C2AF900494
:10AFB000E312ADA47001EF603DEE24FBF582EF34A7
:10AFC000FFF583E07002A3E07A007B209004CD605F
:10AFD0000512C0D28005E0F912222F750A00750B08
:10AFE00000780A1210D3EEFCEFFD7AE37B04122204
:10AFF0001D7402121101E508A2E092AFEEFAEFFB18
:10B0000002AC4574F7120AE074E1121195EA12D904
:10B010003FEB128C14C0E074111213A0D0E012B4F4
:10B020001A74091213A012B41312B066FCE9FD8C55
:10B03000828D8312B40F740B1213A012B413241454
:10B04000F582EB128C14C0E074121213A0D0E0F061
:10B05000EA240EF582EB1294CD8C828D8312B06FB0
:10B0600012162302CCC12404F8EB3400F9E82212B2
:10B07000AD42851882851983AA82AB832274F012AF
:10B080000AE074FC121195EAFEEBFF750B00750ADD
:10B09000007508FE7509FF12171FE9600579110296
:10B0A000B318EE2415128C11603F900F2CE0C433BE
:10B0B00054E0C0E0E0333354FCFAD0E04AC0E0EEA4
:10B0C00024151294C3D0E012AC2212B3317001EBFC
:10B0D0006014750B017508FF128C0E4404F0A3E098
:10B0E00012C313D2E0F0750A408E828F8312884912
:10B0F0006006EE241212B328EE2413128C11701085
:10B10000902EECE493C0E0EE24131294C3D0E0F050
:10B110008E828F83E0A2E750045403801CEE241437
:10B12000128C11701590045FE0C0E0EE24141294AC
:10B13000C3D0E0F090045FE004F0EE2411128C1113
:10B1400064017016900E09E0600D90046AE0700AC8
:10B150008E828F83E0700312B32590046DE0A2E12C
:10B160005044E50B70188E828F8312884960378EA9
:10B17000828F83E06008EE240B1288326028128CE4
:10B180000E54406014EE2413128C116401700A12E4
:10B190008C0E54FB12C5A9800DEEFAEFFB12178539
:10B1A000E9700302B09D8E828F83E06401700E12FD
:10B1B000D944EF12AF076402700312C5A1128C0EBE
:10B1C0005440600302B284E50B600302B284900431
:10B1D0006DE0A2E1400302B284E50AF50B780B12A0
:10B1E00010D7EE2406FCEF3400FD8E828F8312CB45
:10B1F0009FEE24121294CA12164D7401121101E925
:10B20000600FEE241212B31D12DB6DE0442012C554
:10B21000A98E828F83A3A3A3A3A3A3E0603EEE2401
:10B2200002F50CEF3400F50D850C82128C222407F8
:10B23000FAEF3400FB1217A98A088B09850C828566
:10B240000D83E065087004A3E06509700CE48E824C
:10B250008F83A3A3A3A3A3A3F012C5A18E828F8380
:10B26000E064016008A90A12B33C1215E7A90A8E2E
:10B27000828F8312B33C12157BE96008128C0E4456
:10B280002012C5A9851882851983AC82AD83EEFA98
:10B29000EFFB12179D8A0A8B0B74FE65087004740D
:10B2A000FF6509700312E64AEA7001EB60668E8260
:10B2B0008F83E0C0E074011213A0D0E0F07402129A
:10B2C00013A012D3B174011213A085820C85830DD3
:10B2D000780C1210D3EE240F1294C3120E95EE24A4
:10B2E0000E128C11F50C780C1210D7900473120EFC
:10B2F0009574071213A0E0F9AC08AD091217977402
:10B3000007121101E9FE74106E700BAA0AAB0B1242
:10B31000227780027E10EEF9740402CB3DF582EFB5
:10B3200012DB78E422EE2411F582EF12DB78E4F0F0
:10B3300022A31295FF79FF122829EA22A3A3A3A32F
:10B3400012CD301295FF22C082C08374DE12119597
:10B350008A828B83A3A3A3A312B40F740E1213A02B
:10B36000E8F0A3E912B41A740C1213A012B4132457
:10B370000DF582EB128C14C0E0741A1213A0D0E009
:10B38000F0EA12D945EB12B40C74201213A012B4D7
:10B39000132415F582EB128C14C0E074081213A06C
:10B3A000D0E0F0EA241CF582EB12B40C74121213F4
:10B3B000A012B4132411F582EB128C14C0E07409AE
:10B3C0001213A0D0E0F074FF851882851983F07401
:10B3D000011213A074FFF074021213A074FFF09016
:10B3E00081BF120E9174041213A0AC82AD83740756
:10B3F0001213A0AA82AB831214D97404121101791A
:10B40000007422028509EE240BF582EF12DB78121C
:10B41000B42322E8F0A3E9F0EA2212D88A12B42178
:10B4200022A3A312B42722E0F8A3E0F92274EA12BF
:10B430000AE074EE1211958A148B15ECFEEDFF896B
:10B440000E74281213A012D0F8742A1213A0E0F57B
:10B450000F742B1213A012E650742D1213A0E0F5F6
:10B4600012A3E0F513750A107A1E7B001222717484
:10B47000021213A012CA1874021213A0E07002A3E1
:10B48000E0700302B59B750B00EEFAEFFB1227DBB1
:10B490008A108B11A810A911E87001E96026888232
:10B4A0008983A3A3A3A3E06401600D88828983A399
:10B4B000A3A3A3E06403700CE50854407006740471
:10B4C0004509F50974045509F9E47001E96003754B
:10B4D0000B01851882851983AA82AB83795012BE2D
:10B4E0008912CBA174021213A012AAC1A312CA1806
:10B4F00074101213A012E3C774021213A0E0240BFD
:10B5000012B5A77402F01213A012AAC17402F012AD
:10B5100013A012C0F012D3B174021213A012C80902
:10B52000E50EF074021213A0E0240C12B5A7E50F8B
:10B53000F074021213A0E0241C12B5A7E514F0A3C6
:10B54000E515F074081213A012D10F740A1213A09B
:10B55000E50FF0851282851383C082C083740D12BB
:10B5600013A0AC82AD83D083D082740312102FA9B4
:10B570000B74021213A0AA82AB83121725E964018F
:10B580007011E50B6008A90F12174F121773750A97
:10B5900000800874021213A012A9D9A90A74121209
:10B5A00011017F0E020DD612B5AB2212B5AF22F8F3
:10B5B000A3E012B7B52274EE120AE0EAFEEBFF8CAC
:10B5C000088D0974088E828F83A312C3F8E0600887
:10B5D00074108E828F83A3F0EE2417128C116009F1
:10B5E0008E828F83A3E02408F0EE2415128C116064
:10B5F000088E828F83A3E004F08E828F83A3A3A39F
:10B60000A3A3A3E060198E828F83A3A3A3A3A3A304
:10B61000A3E0C3332402FA8E828F83A3E02AF0EEE4
:10B620002411128C116005750B0E8003750B008EB2
:10B63000828F83A3E0C0E0EE240D1294C3D0E0FA21
:10B64000E02A250B8C828D83F0EE2411128C116080
:10B650000512BB642AF0850882850983E0C39475CE
:10B66000400975080075090002B79D12B7BD8A0828
:10B670008B09EA7001EB700302B79DEEFAEFFB1243
:10B6800017A3EA85088285098312CA19EE2402F8F5
:10B6900012B7B012B93D12B7DFF0EE240408081259
:10B6A000B7B012BDAAA312B7DFA3A3F0EE24131202
:10B6B000B7C5F0EE241412B7C5A3F0750A08EE243E
:10B6C00016128C116010EE241812AD3BE508240808
:10B6D00012DB47750A10EE2417128C116016EE2447
:10B6E0001A12AD3B850A0CE508250C12DB477408DD
:10B6F000250AF50A8E828F83A3A3A3A3A3A3E060E8
:10B7000058EE2407F510EF3400F511851082F5830B
:10B71000E0C0E012B7A41294C6D0E012B7CFE0C0E8
:10B72000E012B7A41294C6D0E012B7CF129522123D
:10B7300010CF851082851183E0C333FCE433FD858F
:10B740000A0CE508250C12A67712110185108285D6
:10B750001183E0C333250AF50AEE2415128C11601B
:10B760000BC0E012B7A41294C6D0E0F01294C0123D
:10B7700095231210CFEE240D128C11FC7D00850B49
:10B780000A8E828F83A3E0F8E50828F8E5093400E3
:10B79000F9E50A28FAE43912BB43121101AA08ABF1
:10B7A0000902D0F3850A0CE508250CF582E509228B
:10B7B000EF12B7B5223400F98882898322E0FA7B40
:10B7C000001222712212DB7512B7EBA3A3A322F0A1
:10B7D000050A8E828F83A3A3A3A3A3A3A3A322A35B
:10B7E000A3F088828983A312B7EB2212BDAEA3A374
:10B7F0002274F6120AE08A828B83E0FC90047012B5
:10B80000B8967402780812125EE5084CFCAD09EA9D
:10B81000241212B8907406780812125EE5084CFCE7
:10B82000E5094DFDEA2415F582EB128C14600478CD
:10B830000180027800E4C84DFDEA2411F582EB1284
:10B840008C14F50888097409780812125EE5094D10
:10B85000FDEA241612B890740B780812125EE509FE
:10B860004DFDEA241712B890740C780812125EE5A8
:10B87000094DFD8A828B83A3A3A3A3A3A312B89629
:10B88000740A780812125EECFAE5094DFB02C10851
:10B89000F582EB12DB78E0F5087509002274F412EA
:10B8A0000AE074FD1211958A088B09ECFEEDFF7415
:10B8B000011213A085820A85830B780A1210D374B3
:10B8C000021213A0AC82AD83EEFAEFFB1215C37423
:10B8D00002121101E9705D85188285198312B93D44
:10B8E000F074011213A0E0F812B945A3A312C30724
:10B8F000851882851983E0602D1485088285098367
:10B90000129530E0C333F8E433F974011213A0E068
:10B9100028F8A3E039F974FE28F58274FF39F5831D
:10B9200012A40EFB8012E4850882850983A3F0EE41
:10B93000FAEF80EF7AFE7BFF740302AC42E08508E9
:10B940008285098322A3E0F9850882850983227410
:10B95000EE120AE08A0A8B0BECFEEDFF750F01E98F
:10B96000C394085005790002BB3B8E828F83E91295
:10B97000D88612BDB7E96003750F0012BDBE8E8276
:10B980008F8312BE1812D944EF12BE01C0E0EE241C
:10B99000111294C3D0E012BDF9C0E0EE241212944B
:10B9A000C3D0E0F074088E828F83A312BB76A3A36A
:10B9B000A3E0601412BD9FEE12D93FEF12C3048EB4
:10B9C000828F83A3E02408F08E828F83A3A3A3A396
:10B9D000A3A3A3A3E0601B8E828F83A38582088527
:10B9E000830912BDDEEE2415F582EF12BDEAE024D4
:10B9F00008F08E828F83A3A3A3A3A3E0601A8E8294
:10BA00008F83A385820885830912BDCD8E828F83A3
:10BA1000A3A3A3A3A312BB7DEE241912B328EE2483
:10BA20001B12B328A312C3F0E0700302BAD5EE24B0
:10BA300019F8EF3400F98E828F83A38582088583FD
:10BA400009E0FAE50A2AF582E50B128C148882894E
:10BA50008312BB7DFAE50A2AF582E50B128C14C02D
:10BA6000E0EE241A1294C3D0E012BB8212BB8860AD
:10BA70005D902EE1E493C0E0EE2419128C18D0E022
:10BA8000C39A500575110C8003E0F5118E828F83E7
:10BA9000A3E0F8E50A28F50CE50B12BB4A1210CF1B
:10BAA000E511C333FCE433FD7AD37B0B12BB4412A4
:10BAB0001101EE241B1294C374D3F0A3740BF0E5B0
:10BAC00011C333FA850882850983E02A8006EE24B3
:10BAD0001812B31DF08E828F83E0C0E0A3E0FAD08D
:10BAE000E0C39A500302B9658A08E50A2508F8E51B
:10BAF0000B3400F9EE241D12BB5412BE11C39AC0C0
:10BB0000E0EE24171294C3D0E012C30D602BEE2494
:10BB100017F8EF3400F9880889098882F583E02452
:10BB2000F212C4AE240EFAA3E03400FB88828983AB
:10BB300012CA1812BB64C39AF0A90F02D0F37D0099
:10BB4000EEFAEFFB1221CF7403223400F50D750ECF
:10BB500000780C22F582EF12BB5B223400F583E8FB
:10BB6000F0A3E92290046BE0F91227FFE9FA8508B7
:10BB700082850983E02212AC26A3A3A32212BB82F2
:10BB8000F02212BDF1E00422F088828983E0227461
:10BB9000F4120AE08A088B09EA12BC1DF0EA1313BA
:10BBA000543F12BC16A3A3A3F0EAC4131312BC1D86
:10BBB000A3A3F0EB12BC0F12BC277409780A12136E
:10BBC0002B12BC0D12BC26740A780A12132BE50A3C
:10BBD0005401C0E0EC2418F582ED1294C6D0E012B6
:10BBE000BC2C740B780A12132B12BC0DA312BC26AA
:10BBF000740C780A12132B12BC0DA3A3A3A3A3A346
:10BC0000A3A3F0740D780812132B028C09E50A54D3
:10BC1000018C828D8322540F8C828D832254038C5D
:10BC2000828D83A3A322A3A3A3A3A3A3F08A0A8B39
:10BC30000B22C082C08379008A828B83A3A3A3A333
:10BC4000A3A3E090046A600FE070228A828B83A332
:10BC5000A3E07019098016E060138A828B8312CBEF
:10BC600098900473E06A7003A3E06B70E78003129E
:10BC7000CBA1D083D0820210B374F0120AE08A0AFA
:10BC80008B0B890C8C088D098A828B8312BDB712AD
:10BC9000BDBE85088285098312BE18E50812D94504
:10BCA000E50912BE01C0E0E5082411F582E509129C
:10BCB00094C6D0E012BDF9C0E012A66E1294C6D0B0
:10BCC000E0F07408850882850983A312C5D360104B
:10BCD00012BD9F12D93DE50912BDEAA3E02408F088
:10BCE000850882850983A3A3A3A3A3A3A3A3E060DC
:10BCF0001B850882850983A312BDDAE5082415F5A2
:10BD000082E50912BB5712BE112408F0850882850E
:10BD10000983A3A3A3A3A3E06019850882850983EF
:10BD2000A3AE82AF8312BDCD85088285098312BE82
:10BD30000C04F0AA08AB091217BBE9F50D705B857E
:10BD40000882850983A3A3A3A3A3A312BDAA701687
:10BD5000E0FA8A0EE50A250EF8E50B340012C2FB64
:10BD6000E50CC39A802412BDDA740E28F8E4391267
:10BD7000C2FB90046BE0F91227FFE9FB8E828F83F0
:10BD8000E0FAE50CC39A24F2C39BC0E0E50824174F
:10BD9000F582E5091294C6D0E0F0A90D02CB40E58A
:10BDA0000A2408F8E50B3400F92212BDAE22E08522
:10BDB0000882850983A3221295FF1217B522850AEE
:10BDC00082850B83A3A312BE2EE0F9EA22E0F8E5F8
:10BDD0000A28F582E50B12AF3122AE82AF83E0F87C
:10BDE000E50A28F8E50B3400F92212BB5B12BDF11D
:10BDF00022F08508828509832212BE41A3A3A3E015
:10BE00002212DB78E812BE3AA3A3E022A3A3A3A3E5
:10BE1000A3F08E828F83E022A3A3A3A3A3A3A3A353
:10BE2000A312BE3A12BE2EA3A3E0F9EAF822E0FA6A
:10BE3000850A82850B83A3A3A322F0A3E912BE4146
:10BE400022F0850A82850B83A3A3A3A322C082C00C
:10BE5000837AF17B0479E212269D7AF17B0402BC9D
:10BE600072C082C08390047302BC6FC082C08374AE
:10BE7000FE121195851882851983AA82AB83794BAE
:10BE800012BE8912CBA102850712269D85188285D4
:10BE9000198322C082C083794A12269D02BC727423
:10BEA000F6120AE09004F9E0FE04F0EEF912174FE2
:10BEB000EA7001EB70EEEE60EBF902C10874EC126F
:10BEC0000AE0EAFEEBFF8C128D13890D7414121335
:10BED000A0E0F50E74151213A0E0F50C750A0075BC
:10BEE0000B0012193B8A088B09EA7001EB7017E509
:10BEF0000C600302BFDAA90DAC12AD13EEFAEFFB32
:10BF000012195F02C09CE50D6023EA2402F582EB62
:10BF1000128C14F8850D10E51028F8E4340013E8AD
:10BF200013F0700974018A828B83A3A3F0E50C706F
:10BF30000302BFC3900506E07002A3E0600990050C
:10BF40000612C0F0122966E50E700EE4850882859F
:10BF50000983F0750B0102BFF390046DE0A2E1408C
:10BF60000302BFFB900508E07002A3E0600FA90E7A
:10BF7000AA08AB0990050812C0F01229668508824C
:10BF8000850983E0FA902EE312DB9FEA98E499C3D7
:10BF900065D0335009850882850983E004F085085F
:10BFA00082850983E0FA902EE3E4936A7045750A6E
:10BFB00001EEFAEFFB12165FE4850882850983A380
:10BFC000F08030900EFCE0C0E08A828B83A3A3E077
:10BFD000FAD0E0C39A501C02BF537401650C701371
:10BFE000E50D600F90046DE0A2E15015EEFAEFFB55
:10BFF00012165F90046DE0A2E140257401650C709B
:10C000001FE50E601690050AE004F0C0E0900F14E2
:10C01000E0FAD0E0C39A4008750A01E490050AF0FE
:10C02000E50B7004E50A607490046DE0A2E15039FC
:10C03000EEFAEFFB1227DB8A088B09A808A909E8AA
:10C040007001E96024E50B600D88828983A3A3A3B6
:10C05000A3A3E0C2E0F0E50A604288828983A3A33B
:10C06000A3A3A3E0D2E0F08004E50A602F90046D62
:10C07000E0A2E15012EEFAEFFB1227F9E96008EEB8
:10C08000FAEFFB79008012900476E06E7003A3E073
:10C090006F7009EEFAEFFB790112150F02CFA9C0FC
:10C0A00082C08374016A7001EB70077A0112C0CDFF
:10C0B0008016900F0B12CA18EA7001EB6005128609
:10C0C000B680057A011284F002BC727A207B00905F
:10C0D00004CDE0F912222922C082C083900F0D0204
:10C0E000A74AC082C083900F0F02A74A8E828F8317
:10C0F00012C0F42212C0F822E0F812C0FE22A3E01F
:10C10000F5838882221211017F02020DD6A2F0E48B
:10C1100092E012C11B79521226A32285188285193A
:10C1200083F0AA82AB832212C11B79421226A3227A
:10C1300074F4120AE074EB12119574021213A0AC9D
:10C1400082AD8312C2739004BFE06402703E7A0431
:10C15000790012288F902ED2E493F8740193F9C3DA
:10C16000EA98EB99501712289BE970117406121384
:10C17000A07401F074081213A07401806674061292
:10C1800013A0E4F074081213A0E480579081BF78E4
:10C190000812134975830475828B78081211AB60FD
:10C1A0000474018001E4851882851983F0E0C0E001
:10C1B00074061213A0D0E0F09081BF7808121349E2
:10C1C00075830475828F78081211AB600474018046
:10C1D00001E4851882851983F0E0C0E07408121329
:10C1E000A0D0E012C23C74021213A012C22B740839
:10C1F0001213A0E0701074061213A0E0700874010E
:10C200001213A0E4800774011213A07401F0900EC1
:10C2100090E0900E8FFAE05AFA74011213A0E05ADF
:10C2200012C12179411226A302AC40AA82AB83122B
:10C2300017077AD07B0479451226A322F0900E943A
:10C24000E0F97CD07D042274F7120AE074ED12113B
:10C2500095E9FE9004CC12C81612C2737412121320
:10C26000A0EE12C23C85188285198312C22B74136A
:10C2700002CCC3900E94E0F97AD07B0412170D2201
:10C2800074F4120AE0EAFEEBFF900E96E064FE7092
:10C2900004A3E064FF70547A1612C48A7001EB6044
:10C2A0004A74018A828B8312C30D60047402800277
:10C2B00074018A828B83A312C7838A828B83A3A390
:10C2C000A3A3A3A3A3A3A312C312FCA3E0FDEA2488
:10C2D000020A0AEB12DB4A12D93DE50912B32B120E
:10C2E000C2EE1294C012CB4512C30702AC45AA0895
:10C2F000AB099004CDE0F91221F922F9E508241DDB
:10C30000F582E50912DB78E8F0A3E9F02212DB837D
:10C31000E022A3F0EE241512AF2E2274F2120AE0EE
:10C3200074FD1211958A088B09890A8C0B7401120D
:10C3300013A0740412C5DB8A0C8B0DAE0CAF0DEE8E
:10C340007001EF607C12B406740788828983F0A3C1
:10C35000A882A983E508240812A9C812C3E58A8225
:10C360008B8312C3E4850882850983A3A3A3A3A3B7
:10C37000A3A3A3A3A3E08882898312C3F874011244
:10C38000C3F012D10F12C5E6EE12D93FEF12CFAEB5
:10C39000650A60067401650A700712C3CC740480D4
:10C3A0000412C3CCE4F0900E9612C3D412C30774E7
:10C3B00001650B700312B325EEFAEFFB12147F80B8
:10C3C000027910900E9612C4010284FD12DB727481
:10C3D00040F0A322E0F8A312C3DB22E0F98E828FA3
:10C3E00083A3A322A3E088828983F0A308A98322E0
:10C3F000F0EE241812DB7522F0EE241612DB752203
:10C40000A374FEF0A374FFF02274F4120AE0EAFEB3
:10C41000EBFF7A007B041284F212C49512C30774F6
:10C4200009900482F01217C78A088B09AC08AD097D
:10C43000EE24131294C312CBA112E6456401704797
:10C440007A0F12C48A7001EB603D74028A828B837A
:10C4500012C4AEFAA3E0FB8A828B83A3E0FC8A823B
:10C460008B83A3A3E0FBEC850882850983A3A31239
:10C47000CA1912C49F12B93D12C312FAA3E0FB7984
:10C480004A1226A312C2EE02AC457B001221ED8AAD
:10C49000088B09EA2290044612B423900F0F2288D9
:10C4A00082898312C4A72212C0F8A3A3A322F0EEAC
:10C4B000241DF8EF12C4B82212B7B5E02274F412AA
:10C4C0000AE074FD1211958A088B0974011213A0F9
:10C4D000740212C5DB8A0A8B0BAE0AAF0BEE700139
:10C4E000EF700302C59512B406740488828983F044
:10C4F000E4A312C5AEE064017008742088828983C9
:10C50000A3F0850882850983A3A3A3A3A3E0640104
:10C51000700988828983A3E0D2E6F08508828509C4
:10C5200083A3A3A3A3A3A3E06401700A88828983E1
:10C53000A3E0D2E78006EE241312E3B312C5AEA344
:10C54000E06401700AEE241612C5BA24188008EEC1
:10C55000241712C5BA241A12BB5412C5D364017031
:10C5600009EE240F12C59AA3E4F085088285098399
:10C5700012884B6008128C0E440412C5A912C5E63D
:10C5800085088285098312C3D412C307EEFAEFFB34
:10C5900012147F8002791002B938F582EF12C5CBF0
:10C5A00022EE240F12AF2E4440F0A3E0F02212C579
:10C5B000B22212BDF1A3A3A3A32212C5C88508828B
:10C5C00085098312B421EE22F582EF3400F58374DD
:10C5D00001F02212C5B2A3A3A3E02212C5DF2212EA
:10C5E000CBB112183922EE241712C5C81217C7EEA4
:10C5F000241A12DB75EAF0A3EBF02274F4120AE0BD
:10C6000074F31211958908EAFEEBFF7C0D7D007929
:10C6100000851882851983AA82AB831221DBEE2460
:10C620001D1294C312C0F0A3E0FA741F5A600A7975
:10C63000011221A5790002C6D6EAA2E55008740CC1
:10C640001213A07401F0EAA2E75008740B1213A0B1
:10C650007401F0EAA2E6740A50081213A07401F003
:10C6600080081213A0E064017005EE24138003EE2D
:10C67000241512AD3B74021213A0AA82AB831223BD
:10C68000791294C012C6DB12C307740A1213A0E019
:10C690006401703312883E703B1217D38A0A8B0BE9
:10C6A000A80AA90BEE240B128C11687003A3E06991
:10C6B00070221217C7EAFCEBFD74021213A0AA82C3
:10C6C000AB8312E645600D851882851983AA82AB7B
:10C6D00083121509A908740D02AC42E012C6E022CB
:10C6E000F8A3E0F98518828519832274F6120AE00E
:10C6F00074F31211958A088B09ECFEEDFF7C0D7D19
:10C70000007900851882851983AA82AB8312DE6DB9
:10C71000A3A3A3A3A3A3A3A3A312C77512C783FABA
:10C72000A2E55008740B1213A07401F0EAA2E750BE
:10C7300008740A1213A07401F0EAA2E6EE50042471
:10C74000138002241512AD3B74021213A012C767A6
:10C75000A3A3E0C0E0740C1213A0D0E012C77F12B4
:10C760001503740D02C105AA82AB831223798508D3
:10C770008285098322E012C6E0E8F0A3E922E412F0
:10C78000CBAD22F0EE241D12AF2EF812C78F22126D
:10C79000C0FEA3E02274F7120AE074E1121195EAD8
:10C7A000FEEBFF8E828F8312A721A2E050588E826B
:10C7B0008F83A3E0F9E8FAE9FB8A828B83A3A3A322
:10C7C000A3A3A3E054FEF0A3E012C8168A828B83D1
:10C7D00012C809E0F98A828B83E0241CFAA3E012D4
:10C7E000A9CB12CBA11217C1E9701B741D1213A0A3
:10C7F00012C8107011851882851983AC82AD83EE42
:10C80000FAEFFB12182702CCC1E0241B12B5AB22B1
:10C8100012AF15640422129535AC82AD8322E9FA79
:10C82000790074046A600A740A6A600574036A70A5
:10C8300001090210B374F6120AE074208A828B8315
:10C84000F07401A3A3F01214858A088B09AE08AF17
:10C8500009EE7001EF600774018E828F83F09004FF
:10C86000C0E0700312C5E6EEFAEFFB02C108C08219
:10C87000C083900E9502A745C082C083E9900E95B3
:10C8800002A74EC082C08374019004E5F0E9A2E3E0
:10C8900050037403F0E9A2E15004E0D2E2F002BCDC
:10C8A0007274F6120AE079007C008A088B09780815
:10C8B000120D90F8FF07D4C8D2C8D2C8D2C8D2C8C7
:10C8C000CBC8CFC8D4C8C8C80C80097C0480050C6C
:10C8D00080F67C089004E5E05C6003098003EC606E
:10C8E000010902C10874F4120AE0EAFEEBFF8908AC
:10C8F000121E2D8A0A8B0BA80AA90BE87001E960A9
:10C900004088828983A3A3A3A3E014C39404503175
:10C9100074016508601A88828983A3A3A3A3E064D5
:10C9200001600D88828983A3A3A3A3E06402700A37
:10C930008882898312A4BF122966EEFAEFFB1213D4
:10C94000CB02AC4574F6120AE08A828B83E0701445
:10C95000A3E07002A3E0600C8A828B8312CBA0124A
:10C9600028D180047A007B0002C108C082C0839075
:10C9700004BFE06402700B900482E064087003124C
:10C98000186F02BC72C082C0837C00EC75F003A4F7
:10C99000A9F024E9F582E93404F583E06A7003A381
:10C9A000E06B701C902EE7E493C0E0EC75F003A4FC
:10C9B00024E8F582E93404F583D0E0F079C58051AC
:10C9C0000CECC3940340C47C00EC75F003A424E990
:10C9D000F582E5F03404F583E064FE7004A3E064BE
:10C9E000FF7016EC12DC3DA312CA18902EE7E493F8
:10C9F00088828983F0790080180CECC3940340C9C5
:10CA00007C00EC12E01960DB0CECC3940340F3797A
:10CA1000C702BC723400F583EAF0A3EBF02274F095
:10CA2000120AE074DD121195EAFEEBFF750A009020
:10CA30000473E06E7003A3E06F7025EE7001EF7079
:10CA40000302CB309004FAE07002A3E0700302CB43
:10CA500030750A019004FA12C0F012296602CB392F
:10CA60001227DB8A088B09EA7001EB700302CB30D6
:10CA70008A828B83A3A3A3A3E0640160108A828BC4
:10CA800083A3A3A3A3E06402600302CB30E4851870
:10CA90008285198312B41A740B1213A012CBA5123B
:10CAA00028BFE9700302CB3085088285098312CB49
:10CAB0004512C30779001215A585088285098312DE
:10CAC000CA1874031213A0AC82AD83740D1213A0A4
:10CAD00012C76712B40F74151213A012C30774178C
:10CAE0001213A0E4F07C02850882850983A3A3A326
:10CAF000A3E0F9740D1213A0AA82AB8312180F855C
:10CB0000088285098312B40F74011213A012CBA5F9
:10CB10001228A1750A019081BF780C121349E5080B
:10CB2000240CF582E5091294C6780C12133A800998
:10CB300090048012D521121923A90A74231211011D
:10CB40007F08020DD612B423900E9622C082C083B5
:10CB500074FE121195790190045812C0F0122966E2
:10CB600085188285198312CA18851882851983123F
:10CB7000CB8912CBA579531226A3851882851983F8
:10CB800012CBA11224F302850712CB8D2212B427F7
:10CB9000900473228E828F83A3A3A3A3A3A3A3A332
:10CBA000A31295FF22E8F0A3E912CBAD2212CBB17C
:10CBB00022129535AA82AB832274F5120AE074F32F
:10CBC0001211958A088B09ECFEEDFF750A12EA70C6
:10CBD00001EB7005790002CCA1900473E065087048
:10CBE00004A3E0650970171217C7EAFCEBFDEEFA23
:10CBF000EF12E6447005750A018003750A00E485AA
:10CC00001882851983F074011213A012D10F8518B0
:10CC100082851983AA82AB83122949E9602A7403A9
:10CC20001213A0AA82AB831227B7E96401701975A9
:10CC30000A0174031213A0AC82AD83EEFAEF12E680
:10CC4000446021750A00801C7412650A70169004F5
:10CC5000BFE06402700EEEFCEFFDAA08AB091228DB
:10CC60007DE970DFEEFCEFFDAA08AB09121941E97E
:10CC7000FA740A6A7005750A01801D74A06A701240
:10CC8000EEFCEFFDAA08AB09121953AA08AB091272
:10CC9000196B7401650A7007AA08AB09121881A9FB
:10CCA0000A740D02A73D74F7120AE0EAFEEBFF12C8
:10CCB000186F790DEEFCEFFD7AFC7BFF12188D806A
:10CCC00005741F1211017F01020DD674F7120AE0DC
:10CCD000EAFEEBFF7508008E828F83A3A3A3A3A3B4
:10CCE000A3A3A3E06014EE24151294C31295EF12CF
:10CCF000187BE9640170037508018E828F83A3A3FA
:10CD0000A3A3A3A3A3E06018EE24131294C312CD2F
:10CD100024FAA3E0FB12187BE96401700375080193
:10CD2000A90880A212CD30A3A3A3A3A3A3A3E022AA
:10CD300012AD468E828F83A3A32274F2120AE0748E
:10CD4000FD1211958A088B09ECFEEDFF890B750A1F
:10CD50000174011213A0740412D94A7001EB602F00
:10CD6000EA12D945EB1294C612CD9288828983F0DB
:10CD7000A3E50BF0EE88828983A3A3F0EF88828974
:10CD800083A3A312D88512D10D12147FE9F50A02EC
:10CD900084FB12B42374032274F2120AE0EAFEEB5D
:10CDA000FF890A750B01EE241D1294C312CE8EFA70
:10CDB00088828983A3A3A3E0F9EAF508E9F509EEDF
:10CDC0002417128C116404600879011221A502CE87
:10CDD00089EE241D1294C312C78F120F7002000235
:10CDE000F2CD030B62CE030C5ACE0D47CE0E62CEAF
:10CDF0005FCE7900AB0912163BEA7001EB603D8A09
:10CE0000828B83A3A3A3A3A3A3E05418602E129440
:10CE1000C0120E958A828B83A3A3120E9579008E81
:10CE2000828F83A3A3A3A3A3A3A3A3A312CE94122D
:10CE300016597404121101750B0080267901AA0895
:10CE4000AB09121515801BAB09121863AA08AB09B0
:10CE5000121869E964C5700A80DD12251780037510
:10CE60000A0012883E6022EE2411128C11C3940233
:10CE700040171294C012D4847003A3E069600A744E
:10CE800001650B7004A90A8002790002850212DB99
:10CE900059A3E02212CE9B1295FF2212AD468A8240
:10CEA0008B832274EC120AE074F51211958A0C8BB4
:10CEB0000D890A8C0E8D0F741F1213A0E0F50B74F0
:10CEC000201213A0E0F510A3E0F5117E01EE12137D
:10CED000A0740AF0E97007E50BC333240AF0851843
:10CEE00082851983AA82AB831218398A088B09EAD2
:10CEF0007001EB700302CFA2EA240B12D52874094B
:10CF00008E828F8312D100450B12A598AC0EAD0F07
:10CF1000EEFAEFFB12237912A665E50A702D7C006C
:10CF20008023ECC333F8E433F9E51028F8E5113930
:10CF3000F98882898312A59388828983129B7AF06B
:10CF4000A30EAF830CECC3950B40D7E5082417F56F
:10CF500082E50912C59D1217C7E508241AF582E576
:10CF60000912CA1474031213A0AC82AD83AA0CABCD
:10CF70000D1227B1E96019E5082416F582E50912BA
:10CF8000CFAE1213A0A882A983E508241812C3000B
:10CF900085088285098312E3C5AA08AB0912147FAC
:10CFA000E9FEEEF9740B1211017F0C020DD612C5C9
:10CFB000CB74032274F0120AE074F81211958A08F7
:10CFC0008B0912D197F50A74E05AF50BA3AE82AF24
:10CFD0008312D1616079E50B7070E50AC333FA7B87
:10CFE0000012D7947001EB60667C0080278E828FE0
:10CFF0008312A40EF9E42AE9FBEC33F8E433F9E5F3
:10D000000C28F582E50D3912CA16EE24020E0EEF39
:10D010003400FF0CECC3950A40D3780C1210D3787F
:10D020000A1210D774031213A0AC82AD837900E505
:10D030000812D945E5091294C612D470740312116E
:10D0400001AA0CAB0D122277800579011221A5747B
:10D050000802CB3D74EE120AE08A0C8B0D890E8C0F
:10D06000088D0974121213A0E0F50F74131213A0A7
:10D07000E0F50AA3E0F50B900D77E07002A3E06005
:10D0800072E50FC333F8E433F9740E28FAE439FB80
:10D090001221ED8A108B11AE10AF11EE7001EF600E
:10D0A0005274D48E828F83F0A3A312E3B9E50EF0FD
:10D0B000AC08AD09EE2405FAEF12DB4AEE240D129E
:10D0C00094C3E50FF0850A08850B09750A007808F6
:10D0D0001210CFE50FC333FCE433FDEE240EFAEF5C
:10D0E00012A67A121101EEFAEFFB900D7712C0F042
:10D0F0001229667F0A020DD6E0F50CA3E0F50D2299
:10D10000F0A3E50AC43354E022A3A3A3A3A3A3E599
:10D1100008F0A3E509F02274F6120AE074F812117F
:10D1200095890812D197FB74E05AF509A3AE82AF36
:10D130008374016B600979011221A57900801D12A9
:10D14000D16160F7E50970EE8E828F83A312D18DD5
:10D15000FB8E828F83E0F91218BDA908740802C102
:10D1600005EEFCEFFD851882851983AA82AB831238
:10D170002379EE2408FEEF3400FF85188285198399
:10D18000AC82AD837A947B04122373E922E0FA8E99
:10D19000828F83A3A3E022EA241DF582EB12AF3134
:10D1A000240112D1AAFA741F5A22FEA3E03400FF10
:10D1B0008E828F83E02274F6120AE074E1121195D8
:10D1C000EAFEEBFF128AF27002A3E0604F8E828FBC
:10D1D0008312CBA185188285198312D2217409127A
:10D1E00013A012D4847003A3E069603012C0EC1263
:10D1F0000E957508FE7509FF78081210D3741C127D
:10D2000013A0E0F9740D1213A012AD3E740F1213A7
:10D21000A012CBA11216597404121101741F02C17D
:10D2200005AC82AD83EA241BF582EB12AF31F9EA3B
:10D23000241CF582EB1295FB1217AF2274F7120A29
:10D24000E0E9FE7C007D0078007900800C12D2FDC0
:10D250002CFCA3E03DFD12DDCA12E289502EE8FA53
:10D26000E9FBEA75F012A4FAAFF075F012EBA42F07
:10D2700012E23964FF60DF12D2FD7002A3E060D6D3
:10D28000EE60CA12D302E4F0A3F080CA78007900FD
:10D29000800C12D2DC2CFCA3E03DFD12DDCA12E2B0
:10D2A0007C5032E8FAE9FBEA75F017A4FAAFF075A2
:10D2B000F017EBA42F12E2617004A3E064FF60DBBF
:10D2C00012D2DC7002A3E060D2EE60C612D2E1E4BA
:10D2D000F0A3F080C6ECFAEDFB02CCC612D2E1E07E
:10D2E00022E8FAE9FBEA75F017A4FA75F017EBA447
:10D2F0002FFBEA2418F582EB3409F5832212D302BE
:10D30000E022E8FAE9FBEA75F012A4FA75F012EBF4
:10D31000A42FFBEA2499F582EB3407F5832274F7F6
:10D32000120AE08908EAFEEBFF9004CCE0C39508FE
:10D33000501B1218039004FC12D3B1900466E075E0
:10D34000F064A4FCADF07A007B021286BE02CCC66B
:10D3500074F6120AE0EAFEEBFF9004E6801388827E
:10D360008983E06E7003A3E06F603F88828983A3A6
:10D37000A312AD4C7001E970E57A047B00122271B2
:10D380008A088B09A808A909E87001E9601C88824D
:10D39000898312D3B19004E612CBA188828983A33A
:10D3A000A312CA189004E612C30702C1088A828B2E
:10D3B00083EEF0A3EFF02274F4120AE07E009004F2
:10D3C000E680070E88828983A3A312AD4C7001E921
:10D3D00070F1EEC333FAE433FB1222718A088B0931
:10D3E000EA7001EB700302D46A7F009004E68024A7
:10D3F0008882898312AD3EEFC333FAE433FBE5083C
:10D400002AF582E5093BF583ECF0A3EDF00F888265
:10D410008983A3A312AD4C7001E970D49004C812A3
:10D42000D4847003A3E069780870191210D3EEF564
:10D430000A780A1210D77C947D0479009004C812EF
:10D44000D470801A1210D3EEF50A780A1210D77C25
:10D45000947D0479009004C812CBA112189974032A
:10D46000121101AA08AB0912227712149702AC45D7
:10D470001295FF1218A5228E828F83A3A3A3A3A3C4
:10D48000A3A3A3A312CB8DE06822C082C083801225
:10D490008A828B83A3A312B40F9004E612C30712EF
:10D4A00022779004E612ACF87001EB70E302BC72D4
:10D4B00074F6120AE090048012D52E9004FC12D566
:10D4C0001612C3077AFC7B0479501226A39004FC41
:10D4D00012D5211219659004FC12D52E900D79E019
:10D4E0007002A3E0602D7A067B001221EDEA700144
:10D4F000EB602074D58A828B83F0E4A3A3F07401DF
:10D500008A828B8312D53412D3B1900D7912C0F078
:10D5100012296602C10812D51A2212B4279004807B
:10D5200022128C28FAEFFB22F582EB12DB78E0FE68
:10D53000A3E0FF22A3A312D53A22A312D88AA3A361
:10D54000A3A322C082C0839004FE74E7F0A37418E2
:10D55000F090050074E1F0A37418F090050274FFD8
:10D56000F0A3741802A74EC082C083900473E064D5
:10D57000FE7004A3E064FF600E90046DE0A2E15031
:10D58000061219471218ED02BC7274F6120AE090E6
:10D5900004C1E06032FE75F0E8A4CEAAF075F00395
:10D5A000A42AFF1221E78A088B09A808A909902E4E
:10D5B000D8E49358F8A3E49359F9E82EFCE93FFD29
:10D5C0007A007B0112D5CA02C1089004CDE0F9129D
:10D5D00023372274EE120AE0750B00750C00750DEE
:10D5E000001213E97A04790012288F8A08AE087AAB
:10D5F00002790112288F8A087A03790312288FEEA4
:10D60000C39508C39AFE12191DEAF50E2EFF8E0867
:10D61000EA2508F8E43400F9E87001E9700302D65D
:10D62000FB8F087509007402780812125EAA08AB15
:10D630000912D7947001EB700302D6F98F087509AF
:10D64000007402780812125EAC08AD0979FF12214D
:10D65000DB750A008052A90A1213E38A088B09EAD3
:10D660007001EB60418A828B83A3A3A3A3E06004D3
:10D6700064047032050B8A828B83A3A3A3A3A3A3A4
:10D68000A3A3A3A3E0F9121959780C1210D3EFFD4C
:10D69000850882850983A3A3A3A3A3A3A3A3A3E0CF
:10D6A00012D79D121101050A850A0812E0295006B9
:10D6B000E50BC39E40A0750A00E50AC3950E503BDA
:10D6C000AA0A7B001219298A088B09EA7001EB600B
:10D6D00024780C1210D3EA240EF582EB128C14FE7F
:10D6E000EA240FF582EB1294CD121959EFFDEE12D8
:10D6F000D79D121101050A80C07F00750B6290044E
:10D700006BE0600CF91227FFE9FA7454C39AF50B29
:10D7100075F003E50B84F50E94204003750E1F850C
:10D720000C08850D09750F00E50B6006750F207557
:10D730000B00E50EC39F5004AE0E8008EFFEE50F10
:10D74000D2E6F50FAC08AD09AA0FEEF91218F9E907
:10D75000F510E50FA2E6401F1E750A00800EE508D1
:10D760002404F508E5093400F509050AE50AC39E15
:10D7700040ECEECFC39FFFE97006E50FA2E650A58F
:10D78000E50C7002E50D6007AA0CAB0D122277A91B
:10D790001002D0F31222718A0C8B0DEA22FC85084C
:10D7A000828509831295FF1218F374022274F21213
:10D7B0000AE0EAFEEBFF89088C098D0A740E121349
:10D7C000A012CBA17C007D008C0B800EEAFCEBFD4F
:10D7D000EA2404FAEB3400FB050BE50BC3950A5071
:10D7E000238A828B83E064FF7004A3E064FF7017D8
:10D7F00012D3AD8A828B83A3A3E50912D886A3A393
:10D80000A3E508F0028502EC7001ED600C8C828DBE
:10D8100083C3E09EA3E09F50B38A828B8312DBF622
:10D82000EE98EF9950A6EAF8EBF988828983E064D4
:10D83000FF7004A3E064FF6011E82404F8E93400F9
:10D84000F9050BE50BC3950A40E0E8FCE9FDE82487
:10D85000FCF8E934FFF98882898312D0F88C828D34
:10D860008312E3C788828983A3A3E08C828D83120D
:10D87000E05CE08C828D83A3A3A3F0C3EA98EB99CC
:10D8800040C802D7F0A312D88A22F08A828B832262
:10D8900074F2120AE074FD12119589088A09ECFEEF
:10D8A000EDFF750A0175F003E9A42402C0E07401DC
:10D8B0001213A0D0E012D94A7001EB607DEA12D9B0
:10D8C00045EB1294C612A31D88828983F0741F55FC
:10D8D000084509A3F012DB34750A00803D8E828F63
:10D8E00083E088828983F0A3A882A9838E828F83B4
:10D8F00012C3E48E828F83A3A3E05407C4C0E08EDA
:10D90000828F83A3A3A3E05407FCD0E04C12C3E6AC
:10D91000EE2404FEEF3400FF050AE50AC395084033
:10D92000BC8A828B83A3A374FC12C403EA12D93F7E
:10D93000EB12C59D12147FE9F50A0284FBE5082469
:10D9400013F58222EE240BF5822212C5DFEA22743F
:10D95000F1120AE08A0A8B0B7508007AFE7BFF7CC5
:10D96000FE7DFFE50A241DF582E50B1294C612DB4D
:10D9700055E0F509741F5509F50C12DB34E509A2D1
:10D98000E74017E50A2417F582E50B128C14FE75A3
:10D99000F003E50CA424026E600879011221A502AF
:10D9A000DB31E50C600B88828983E0FEA3E0FBEEAF
:10D9B000FA750D00803488828983E0FEA3E0FDFFC4
:10D9C000E824020808E91294D4548870CDE0540782
:10D9D000F50EA3A882A983EEFC900473E06E700399
:10D9E000A3E06F7003850E08050DE50DC3950C408F
:10D9F000C5E508700BA909121905E9700302DB31AE
:10DA000012DB3E12A4B58A0C8B0DAE0CAF0DEE707E
:10DA100001EF604EE48E828F83A3A3A3A3A3A3A3ED
:10DA200012DB7DE0C0E0902EE3E493FAD0E0C39AED
:10DA3000401D12DB51120889E88E828F83A3A3A3B5
:10DA4000A3A3A3A3A3F0E508C39407500205088E7F
:10DA5000828F83A3A3A3A3A3A3A3A3A3E508F00298
:10DA6000DB317CFF7DFF12DB3E1294C612CBA1128C
:10DA700019118A0C8B0DAE0CAF0DEE7001EF704BCF
:10DA80001219178A0C8B0DAE0CAF0DEE7001EF70F2
:10DA90000302DB317C177D0079001221DB12DB3EB3
:10DAA0001294C6128AD712C307900480E0F8A3121A
:10DAB000DB62A3E8F0A3E912DB6D740112DB8F12C5
:10DAC000088912E3AAEE240E12C59AEE240D128CD8
:10DAD00011C0E0902EE3E493FAD0E0C39A40121212
:10DAE000DB5112088912E3AAE508C3940750020526
:10DAF00008EE240E1294C3E508F0EE240C12B328AD
:10DB0000EE2402FAEF3400FB1227B7E97023850AEE
:10DB100082850B83A3A3A3A3A3A3A3A3E06012E521
:10DB20000A2415F582E50B128C202402FAEF12DB91
:10DB30004A02AD9FE824020808E93400F922E50A08
:10DB4000240BF582E50B22FAE5093400FB12237958
:10DB50002212DB972212DB592212B4278882898392
:10DB6000A32212C3DBA3A3A3A3A3A3A322F012DBCC
:10DB70007222EE240FF582EF3400F5832212DB834C
:10DB8000A3A322F08E828F83A3A3A3A3A3A322F037
:10DB9000902EE312DB972212DB9F7A027B0022E4B5
:10DBA00093F874012808E43400F92274F7120AE0AB
:10DBB000E9FE74FE6A700374FF6B700479018033B0
:10DBC00074605E646060F5EEA2E5500E900473121E
:10DBD000DBF6EC98ED99401980E2A2E690047350D0
:10DBE00008C3E09AA3E09B80EDC3E09AA3E09B50BA
:10DBF000DB790002CCC612B423C32274F7120AE008
:10DC00007E00800412DC2C0E902EE0E493FAEEC32A
:10DC10009A40F17E00EE12DC3D12C400E488828955
:10DC200083F00EEEC3940340EC02CCC6EE75F01701
:10DC3000A42403FAE5F03409FB12192F2275F0032E
:10DC4000A424E8F8E5F03404F9888289832274F783
:10DC5000120AE078007900800312DDCA902EE0E419
:10DC600093FEC3E89EE994005069E8FEE9FFEE7573
:10DC7000F017A4FE85F00875F017EFA42508FFEE55
:10DC800012E271EF12E4846A7003A3E06B70CAE8D9
:10DC9000FEE9FFEE75F017A4FE75F017EFA4250856
:10DCA000FFEE240DF582EF3409F583E06C7003A3D9
:10DCB000E06D600A74FF6C700374FF6D709BE87513
:10DCC000F017A4F8AAF075F017E9A42AF9E812DE13
:10DCD0003780047A007B0002CCC674F6120AE07C1E
:10DCE000FF7DFF7AFE7BFF121911EA7001EB6003E2
:10DCF00002DD797E007F008072EEF8EFF9E875F0C2
:10DD000017A4F8ACF075F017E9A42CF9E82412F583
:10DD100082E93409F583E0601EEEF8EFF9E875F06A
:10DD200017A4F875F017E9A42CF9E82411F582E995
:10DD30003409F583E0702CEEF8EFF9E875F017A4DC
:10DD4000F8AAF075F017E9A42AF9E82403F508E920
:10DD50003409F509850882F58312CBA112165FAA52
:10DD600008AB09EE24010EEF3400FF902EE0E4939F
:10DD7000F8C3EE98EF9400408002C10874F7120ACD
:10DD8000E07A007B0078007900802EE8FCE9FDEC69
:10DD900075F017A4FCAEF075F017EDA42EFDEC1293
:10DDA000E271ED12E2767004A3E064FF6008EA24F9
:10DDB000010AEB3400FB12DDCA902EE0E493FCC3B1
:10DDC000E89CE9940040C402CCC6E8240108E93488
:10DDD00000F92274F4120AE08A088B09ECFEEDFFC8
:10DDE000800B12192FEEFCEFFDAA08AB09121911D6
:10DDF000EA7001EB70EC02AC4574F6120AE07D00AB
:10DE00007E0080020D0E902EE0E493FCEEC39C5049
:10DE10001B12E0107004A3E064FF60E98D08EA655E
:10DE2000087001EB70DEEE12DE3380047A007B00B6
:10DE300002C10875F017A42403FAE93409FB22741F
:10DE4000F7120AE0EAFEEBFFEE7001EF601612DE59
:10DE50006712C4018E828F83A3A3A3A3A3A3A3A34A
:10DE6000A312C40002CCC67C177D0079001221DB0E
:10DE70008E828F832274F7120AE0EAFEEBFF7508A8
:10DE8000008018A808E875F017A4A9F012E436700D
:10DE900003A3E06F600312E43C0508902EE0E493D6
:10DEA000FAE508C39A40DC02CCC674F4120AE08A90
:10DEB000088B09ECFEEDFF900480E06E7003A3E098
:10DEC0006F701B1227DB8A0A8B0BA80AA90BE8705C
:10DED00001E9600AE82408FAE93400FB8022EEFC3C
:10DEE000EFFDAA08AB091219118A088B09A808A925
:10DEF00009E87001E96005E8240D80DB7A007B0009
:10DF000002AC4574F4120AE08A0A8B0BECFEEDFFBA
:10DF10007508007509008039E50975F017A4240516
:10DF2000FAE5F03409FB1227B7E96023A80912E4E7
:10DF30007B650A7004A3E0650B700375080AEEFCAC
:10DF4000EFFDE875F017A412E63E60034308A00554
:10DF500009902EE0E493FAE509C39A5004E50860BD
:10DF6000B7028C0974F6120AE07E00803DEEF912C9
:10DF700013E3EAF8EBF9EA7001EB602D88828983FC
:10DF8000A3A3A3A3E06401602088828983A3A3A341
:10DF9000A3E064026013E8240712E03A500BE4881F
:10DFA000828983A312E04CA3F00E8E0812E0294070
:10DFB000BC7E00803C12E0107004A3E064FF60307F
:10DFC000EE75F017A42403F8E93409F9E8240C12DB
:10DFD000E03A501CE8240FF582E912B32BE8240E36
:10DFE000F582E912B32012BB88FAA3E0FB12165F98
:10DFF0000E902EE0E493FAEEC39A40B97E00EE1242
:10E00000E019600214F00EEEC3940340F102C1085F
:10E01000EE12E26BE912E2762275F003A424E8F531
:10E0200082E5F03404F583E022902ED2E493F87474
:10E030000193F9C3E50898E49922F582E912AF311A
:10E04000FA74012AF09004C2E0C39A22A3A3A3A306
:10E05000A3A3A312E05CA3A3A3A3A322A3A3F0887A
:10E06000828983A3A3A32274F2120AE08A088B098F
:10E07000ECFEEDFF740E1213A0E0F50AA3E0F50B21
:10E08000750C007C007D0180101221E7E50CF5F095
:10E09000EA84ACF0750C007D0078007900800312F2
:10E0A000DDCA12E27C400302E13CE8FAE9FBEA75D2
:10E0B000F017A4FA85F00D75F017EBA4250D12E208
:10E0C000617004A3E064FF60D612E2466508700444
:10E0D000A3E0650960C912E2466E7003A3E06F60B9
:10E0E000BE12E246650A7004A3E0650B60B1E8FA6F
:10E0F000E9FBEA75F017A4FA75F017EBA4250DFB00
:10E10000EA2411F582EB3409F583E014C394065038
:10E110008E74016D050C6087E50CC39C4081E87529
:10E12000F017A4F8AAF075F017E9A42AF9E812E2AA
:10E1300071E93409F58312CBA102E2187800790065
:10E14000800312DDCA12E289400302E1FFE8FAE926
:10E15000FBEA75F012A4FA85F00D12E22564FE7058
:10E1600004A3E064FF60DB12E21B65087004A3E017
:10E17000650960CE12E21B6E7003A3E06F60C312EC
:10E18000E21B650A7004A3E0650B60B6E8FAE9FBE0
:10E19000EA75F012A4FA75F012EBA4250DFBEA243F
:10E1A00092F582EB3407F583E014C394065093E8AC
:10E1B000FAE9FBEA75F012A4FA75F012EBA4250D4A
:10E1C00012E2396401700302E142E064027003026A
:10E1D000E14274016D050C700302E142E50CC39C41
:10E1E000500302E142E875F012A4F8AAF075F012AB
:10E1F000E9A42AF9E82489F582E9340702E134E543
:10E200000C6011EC700E7401650C600302E0897CF7
:10E210000102E0947AFE7BFF028502E8FAE9FBEA5C
:10E2200075F012A4FA75F012EBA4250DFBEA24890F
:10E23000F582EB3407F583E022FBEA248DF582EBCF
:10E240003407F583E022E8FAE9FBEA75F017A4FA4F
:10E2500075F017EBA4250DFBEA12E271EB12E484D2
:10E2600022FBEA12E271EB12E2762275F017A4A902
:10E27000F02403F5822212E48464FE22902EE0E46E
:10E2800093FAC3E89AE9940022902ED2E493FA74A8
:10E290000193FBC3E89AE99B2274F4120AE08A0A0C
:10E2A0008B0BECFEEDFF750800750900800CE5088E
:10E2B0002401F508E5093400F509902EE0E493F80F
:10E2C000C3E50898E50994005040EEFCEFFDE50831
:10E2D00075F017A4F8AAF075F017E509A42AF9E873
:10E2E00012E63E60C9E50875F017A4F508AAF075B6
:10E2F000F017E509A42AF509E50812E271E50934E9
:10E3000009F583E50AF0A3E50BF002AC45E9FA79DB
:10E3100007C3940D400479018019EAC394074004AF
:10E320007903800FEAC39403400419198005EA7049
:10E330000279000210B374F0120AE08A0C8B0D8C83
:10E34000088D09890A1219178A0E8B0FAE0EAF0FAE
:10E35000EE7001EF605112DE6712E3B912D109E5E8
:10E360000A600AEE240F1294C3E50A8006EE240F19
:10E3700012E3B3F0900500E07002A3E0601A90048D
:10E38000C7E064017008EE240E12B31D8010EE2465
:10E390000E1294C374078006EE240E12E3B312DB50
:10E3A0008F12088912E3AA02CB40EE240D12DB750E
:10E3B000E8F02212DB7574012212E3C78E828F838C
:10E3C000A3A3A3A322A3A3E50CF0A3E50DF022745D
:10E3D000F5120AE08A088B09ECFEEDFF750A008051
:10E3E00014E875F017A412E4367003A3E06F60031D
:10E3F00012E43C050A902EE0E493FAE50AC39A5031
:10E4000024A80AE875F017A4A9F012E428E065082A
:10E410007004A3E0650970C9E875F017A412E42838
:10E4200012D3B180CE02A74012E42C22240DF58233
:10E43000E93409F5832212E42CE06E22E812DE337F
:10E4400012192F2274F7120AE0EAFEEBFF7508009A
:10E45000801AA80812E47B6E7003A3E06F700BE8CB
:10E4600012E4B67005E50812DC2D0508902EE0E4F4
:10E4700093FAE508C39A40DA02CCC6E812E26BE9E7
:10E4800012E484223409F583E02274F7120AE07E54
:10E4900000801512E0107004A3E064FF6009EE1222
:10E4A000E4B6700312DC2C0E902EE0E493FAEEC377
:10E4B0009A40E002CCC675F017A42405FAE93409A5
:10E4C000FB1227B7E922C082C083900504747DF057
:10E4D000A37419F09005067483F0A37419F09005E5
:10E4E000087489F0A3741902A74E74F4120AE0EAC2
:10E4F000FEEBFF12A71E70358E828F83A3A3A3A30A
:10E50000A3A3A3A3A3120E9590044412C0F078080D
:10E51000121349AA08AB09AC0AAD0B8E828F83A3F4
:10E52000E0F912151B740212110112149702AC4586
:10E53000C082C0839004CA12E5FBF09004CAE07068
:10E5400002A3E0700579011218B702BC7274F612CA
:10E550000AE074FC121195E9FE902EE8E49370082D
:10E5600074E16E600302E5F6EA2408F8EB12B7B135
:10E5700012E5FB12BB887002A3E0700E9004CAE49F
:10E58000F0A3F079011218B7806C900F34E0606648
:10E59000FA9004CA12DBF6EA98E49950597900120D
:10E5A00018B78A088B09AC08AD09ECF8EDF9E875E5
:10E5B000F064A4F8AAF075F064E9A42AF99004CAFA
:10E5C00012CBA1120891E8941AE994004028900D0A
:10E5D00071E07002A3E0601E9004CA12C6DB12C391
:10E5E0000774021213A0ECF0A3ED12C77F900D7117
:10E5F00012C0F0122966740402C105E02401F0A3E0
:10E60000E0340022C082C08374F81211958518820C
:10E61000851983AC82AD8375838175821C74081261
:10E62000102F851882851983AC82AD8312E645646C
:10E6300001700479008002790174080285092405BB
:10E64000FAE93409FB122373E9228E828F83A3A394
:10E65000E0F508A3E0F5092274F4120AE08908E560
:10E6600008900D5CF0900D487402F0900D4074FE1F
:10E67000F0A374FFF01217C78A0A8B0BAE0AAF0B18
:10E680001224871225657A037B0F121CA1E9900DD5
:10E690005FE0600A7A007B0012246FE980157AFF40
:10E6A0007BFF12246FE97CF47D017B327A007908CC
:10E6B000121E8712254D1224997F04020DD674F77D
:10E6C000120AE0E9FEEEF91226617F01020DD6740E
:10E6D000F2120AE08908EAFEEBFFEE5400F8EF546C
:10E6E00080F9E8496034900D5CE0F91221FF8A0C52
:10E6F0008B0DA80CA90D880A890BE8496011AA0A9C
:10E70000AB0B12248DAA0AAB0B1221F3E980D7EED2
:10E710006400FAEF6480FB02E7FDEEA2E050249073
:10E720000D5F7401F07C0F7B0F900D60E0FA900D8F
:10E7300062E05407F9122571EE6401FAEF6400FB00
:10E7400002E7FD900E20E06008900E20E06401706A
:10E7500048EE5402600E12247BEE6402FAEF64006D
:10E76000FB02E7FDEE54206030900D5DE0701390E9
:10E770000D5FE064067006900D5F7407F07900127B
:10E7800023137A107B00900D5CE0F9122229E9EE48
:10E790006420FAEF6400FB8064EE5410602B900D4F
:10E7A0005FE0F912257D900E14E0640170117C6425
:10E7B0007D007A007B089004CDE0F9122331E9EE68
:10E7C0006410FAEF6400FB8034EE5408600AEE64D3
:10E7D00008FAEF6400FB8025EE5400F8EF5402F9CC
:10E7E000E849600D122481EE6400FAEF6402FB80B8
:10E7F0000CEE540460031213BC7A007B007F060207
:10E800000DD674F4120AE074FE12119585188285F3
:10E810001983EAF0A3EBF07508017E007F00900DEC
:10E820005FE07005790012267F122553900D64E099
:10E8300090046DF074016508702E1224751221E7A2
:10E840008A0A8B0BA80AA90B851882851983E854BC
:10E850007FF8E95400F9E028F8A3E039F9E82464E6
:10E86000F8500109E8FEE9FFA9081224638518821F
:10E87000851983E064FF7004A3E064FF603A900DA3
:10E880005F7401F01224ABAC18AD197A5F7B0D12E6
:10E8900024B7900D5FE070197A0279FF12268BE998
:10E8A0007A107B00900D5CE0F9122229E979028050
:10E8B00011EEFAEFFB122529900D64E0F912184BC6
:10E8C000A90874021211017F04020DD6C082C08310
:10E8D000900E20E0700F900D607402F0900D62E0D9
:10E8E00054F8F08042900E20E06401700E900D62AA
:10E8F000E054F84401900D62F08014900E20E06422
:10E9000002700C900D62E054F84402900D62F07AAF
:10E91000057B0412198FE97008900D607400F08077
:10E9200006900D607403F0D083D0820210B3C082D1
:10E93000C083900D5DE07022900D5FE0640870066A
:10E94000900D5F7409F079001223137A107B009008
:10E950000D5CE0F9122229E9804A12183FE9F879A2
:10E9600000E82410F8500109C3E894FFE99400A2DC
:10E97000D265D033501B12183FE9F8741028F912F1
:10E9800018457A017B00900D5CE0F9122229E9809C
:10E9900013900D5F7401F07A107B00900D5CE0F92C
:10E9A000122229E9D083D0820210B30210B3C082B0
:10E9B000C083121E69E964017006900D5F7400F057
:10E9C000D083D0820210B374F0120AE074FF1211E7
:10E9D000958A088B09850882850983E014606B1489
:10E9E000700302EC0714700302EC1C24E9600B2492
:10E9F00047601124D6601702EC56AA08AB0912260C
:10EA00005B02EC56AA08AB0912249302EC56850867
:10EA10000A85090B850A82850B83A3A3E0F50F8580
:10EA20000A82850B83A3E0F50E900D73E0F8A3E056
:10EA3000F9E8496012AA0AAB0B900D73E0F8A3E065
:10EA4000F583888212296602EC56900D5FE064021D
:10EA5000600302EC56900E20E06401600B900E20E3
:10EA6000E06402600302EC561224D58A0C8B0DA8D8
:10EA70000CA90DE8FEE9FFE849700302EBDB900FFB
:10EA800001E0C39403500302EBDB900D60E06003F0
:10EA900002EB1D900D5F7403F08E828F83A3A3A3FE
:10EAA000A3A3A3E0F912252F8E828F83A3A3A3A390
:10EAB000A3A3A3A3A3A3E0F50C780C1210D78E8216
:10EAC0008F83A3A3A3A3A3A3A3120E95900D64E029
:10EAD000F50C780C1210D78E828F83A3A3E0F98EE9
:10EAE000828F83E0FCA3E0FDEE240BFAE43FFB12EF
:10EAF00014BB7404121101E9700302EBBC1221E78C
:10EB00008A0C8B0DA80CA90DE8547FF8E95400F984
:10EB1000E82464FAE439FB12252902EBBC900D606D
:10EB2000E06403600302EBBC900D5F7404F090049A
:10EB300073E064FE7004A3E064FF70151221E79097
:10EB40000473EAF0A3EBF07A737B0479531226A3E3
:10EB5000E9900480E064FE7004A3E064FF701B8E03
:10EB6000828F83E0F8A3E0F9900480E8F0A3E9F055
:10EB70007A807B0479501226A3E98518828519834F
:10EB80007401F0AA18AB1979521226A3E98E828F6C
:10EB900083A3A3E0F97A4A7B0D1214B5E9601D1234
:10EBA00021E78A0C8B0DA80CA90DE8547FF8E954D5
:10EBB00000F9E82464FAE439FB122529900D64E099
:10EBC000A2E350417A007B001217EB7A007B00121F
:10EBD00017F17A007B001217F7807B900F02E0603C
:10EBE00075900F01E02401F01221E78A0C8B0DA82B
:10EBF0000CA90DE854FFF8E95400F9E82464FAE49C
:10EC000039FB122529804F900E20E06401600890A6
:10EC10000E20E06402703F12249F803A900E20E0A4
:10EC200064016008900E20E06402702A900D617407
:10EC300000F0900D607401F0900D497401F07C9427
:10EC40007D047A4A7B0D122379900F197402F07AB1
:10EC5000007B0012252974011211017F08020DD6D4
:10EC600074F4120AE074D4121195EAFEEBFFEE245C
:10EC70000CF582E43FF583E0F508A3E0F509780898
:10EC8000120CF8030021002200E1EC008001809FBB
:10EC9000EC21802280FCEC010020004CED8EEDEE9A
:10ECA000FAEFFB1225F58A0A8B0B850A08850B09FA
:10ECB000E50845096028850882850983E07018E524
:10ECC000082403FCE43509FD850882850983A3E057
:10ECD000FAA3E0FB1225B9AA08AB0912227702EDCC
:10ECE0008E741712115FEEFAEFFB1225EF741712F4
:10ECF000115FEEFAEFFB1225B302ED8E900E20E0CD
:10ED00007048900DB1E0F8A3E0F9E849603CEE24CA
:10ED10000CF582E43FF583E064217004A3E0648095
:10ED20007004790380027902EE240FF582E43FF546
:10ED300083E0FBEE2413F582E43FF583E0F8A3E0E3
:10ED4000F5838882E0FA1225DDE98042900E20E00A
:10ED5000703CAC18AD19EEFAEFFB1225E9AA18AB1E
:10ED6000191225CB74111213A0E0600D7412121346
:10ED7000A0E0FAA3E0FB12227774141213A0E06063
:10ED80000D74151213A0E0FAA3E0FB122277742C85
:10ED90001211017F04020DD6C082C0837A017B80EC
:10EDA000900D5CE0F912264FE97A007B80900D5CB3
:10EDB000E0F912264FE97A217B80900D5CE0F91290
:10EDC000264FE97A227B80900D5CE0F912264FE90C
:10EDD0007A207B00900D5CE0F912264FE97A217BC6
:10EDE00000900D5CE0F912264FE97A227B00900D2D
:10EDF0005CE0F912264FE9D083D0820210B374F69A
:10EE0000120AE074FE121195900D5FE06403601821
:10EE1000900D5FE0640A600302EF52900D62E054CF
:10EE2000076401600302EF52900D5DE0706F7A108D
:10EE30007B00900D5CE0F9122229E9900E20E06041
:10EE400008900E20E064017018900D5FE0640A7075
:10EE500010900D62E054076402600690048274080A
:10EE6000F0900D5FE064037003122535900D5F7420
:10EE700006F0900E20E0600B900E20E0640160032D
:10EE800002F057900D62E054076402700302F057DD
:10EE90007B007A0079001214C1E902F057900D60EE
:10EEA000E06401703F900D61E02401900D61F0C3BA
:10EEB00094034030900480E064FF7004A3E064FF9A
:10EEC000600E900480E064FE7004A3E064FF7008AC
:10EED000900D607400F0800C900D607403F0900D44
:10EEE000497401F01217CD8A088B0974FE65087009
:10EEF0000474FF6509700E900473E064FE7004A34F
:10EF0000E064FF602185188285198374FEF0A37484
:10EF1000FFF090047374FEF0A374FFF0AA18AB190D
:10EF200079531226A3E912190B121497900F01744A
:10EF300001F01221E78A088B09A808A909E8547F83
:10EF4000F8E95400F9E82464FAE439FB12252902AF
:10EF5000F057900D5FE0640A600B900D5FE0640471
:10EF6000600302F03F900D5DE07058900D5F7406F5
:10EF7000F07A107B00900D5CE0F9122229E9900DE7
:10EF800064E0A2E350157A007B001217EB7A007B55
:10EF9000001217F17A007B001217F7900E20E06044
:10EFA00008900E20E064017014900D62E054076434
:10EFB00002600A7B007A0079001214C1E91225353B
:10EFC00002F057900D60E06401704F900D61E024F5
:10EFD00001900D61F0C394045032900480E064FF0E
:10EFE0007004A3E064FF600E900480E064FE70048F
:10EFF000A3E064FF7008900D607400F0801C900D19
:10F00000607403F0900D497401F0800E90040DE0DF
:10F0100064017006900D607400F012190B121497C1
:10F020001221E78A088B09A808A909E8547FF8E9A2
:10F030005400F9E82464FAE439FB12252980189079
:10F0400004BFE0640270101225357A107B00900D29
:10F050005CE0F9122229E974021211017F02020D0B
:10F06000D674F7120AE0EAFEEBFFEEFCEFFD7A043D
:10F070007B00900D5CE0F9122331E97F01020DD68F
:10F0800074F6120AE0900D5E7400F075085E750962
:10F090000D78081210D37C017D007A857B00122246
:10F0A000F57402121101E9FEEE702775085E75090C
:10F0B0000D78081210D37508017509007808121030
:10F0C000D37C007D007A857B001223077404121123
:10F0D00001E97F02020DD674F6120AE0E9FE900DF6
:10F0E0005E7401F074016E7007900D5EE0D2E1F085
:10F0F00075085E75090D78081210D3750801750939
:10F100000078081210D37C007D007A857B001223E2
:10F11000017404121101E97F02020DD674F4120A7F
:10F12000E08A088B09ECFEEDFF8E828F837400F07D
:10F13000A37400F0900D5EE0A2E0504B900D5EE0F5
:10F14000A2E1500D8E828F837488F0A37413F08037
:10F15000098508828509837400F0900D5E7400F0C3
:10F16000750A5E750B0D780A1210D3750A01750BBE
:10F1700000780A1210D37C007D007A857B00122370
:10F18000017404121101E97F04020DD674F7120A0A
:10F19000E0E9FEEEF91224B17A887B131224A57FF0
:10F1A00001020DD674F5120AE08A088B09ECFEED17
:10F1B000FF890A900E20E06008900E20E064017044
:10F1C00009A90AEEFAEFFB1218577F03020DD67455
:10F1D000F0120AE0890D8A0C8B0B8C0E8D0FAA0B96
:10F1E0007B001221ED8A088B09AE08AF09EE4F6053
:10F1F0003DE50B6024E50E450F601E850E08850F6A
:10F2000009750A0078081210CFAC0B7D00EEFAEFFA
:10F21000FB1221CF7403121101E50CC0E08E828F26
:10F2200083D0E0F0EEFAEFFBA90D1221F9E97F0897
:10F23000020DD6C082C08374FD121195E9C0E0852D
:10F240001882851983D0E0F0900D56E0F8A3E0F91C
:10F25000E8496014AA18AB19900D56E0F8A3E0F540
:10F26000838882122966801974021213A07400F038
:10F27000740112115F7B027A01900D5CE0F9122497
:10F28000C979007403121101D083D0820210B374C3
:10F29000F1120AE07509001216F58A0A8B0BAE0A04
:10F2A000AF0BEE4F60120509EE2414F582E43FF532
:10F2B00083E0FEA3E0FF80EA750800750D00750E7F
:10F2C00000E50EC39402400302F3EF1216F58A0A1A
:10F2D0008B0BAE0AAF0B750C00E50CC39509400310
:10F2E00002F3D4900F31E064FF7004A3E064FF6088
:10F2F000188E828F83E0F8A3E0F9900F31E06870F8
:10F3000003A3E069600302F3C17A4A7B0D12198FEF
:10F31000E964017014EE240BFCE43FFD7A4A7B0D96
:10F32000122373E9700302F3C1900E20E06008908D
:10F330000E20E06401701DE508700C8E828F83A39F
:10F34000A3A3E07022807A8E828F83A3A3A3A3E07D
:10F350007015806D900E20E06402700B8E828F839A
:10F36000A3A3A3A3E0605A8E828F83A3A3A3A3A326
:10F37000E0F8900470E06870488E828F83A3A3A3A6
:10F38000A3A3A3E0F8900F1AE0686048900F1AE07A
:10F390006401700F8E828F83A3A3A3A3A3A3E06451
:10F3A000026017900F1AE0640270128E828F83A39E
:10F3B000A3A3A3A3A3E064017003750801E50E7085
:10F3C00013050CEE2414F582E43FF583E0FEA3E080
:10F3D000FF02F2D9E50CC395095005750D01800FA8
:10F3E0007401650D6009E5086005050E02F2C1E5CE
:10F3F00009650C70067A007B008004EEFAEFFB7F53
:10F4000007020DD674F7120AE0E9FEEE900D5DF0EA
:10F41000EE700C900D5FE07006900D5F7408F07A4E
:10F42000027B00900D5CE0F9122229E97F01020DB8
:10F43000D674F0120AE08A088B09900D58E0F8A300
:10F44000E0F9E8496015AA08AB09900D58E0F8A367
:10F45000E0F583888212296602F799750A00900404
:10F46000CEE0F8A3E0F9E8FEE9FF9004CEE0F8A3CF
:10F47000E0F9880E890FEE4F60498E828F83E0F8A5
:10F48000A3E0F9850882850983A3A3E0687003A33C
:10F49000E069701B8E828F83A3A3E0F885088285C4
:10F4A0000983A3A3A3A3E0687005750A0180148EE5
:10F4B0000E8F0FEE2414F582E43FF583E0FEA3E007
:10F4C000FF80B3E50A706C7A167B001222718A0CF9
:10F4D0008B0DAE0CAF0DEE4F700302F7997C167DCD
:10F4E000007900EEFAEFFB1221DB8E828F83A3A35B
:10F4F000A3A3A3A3A374FEF0A374FFF08E828F8353
:10F50000A3A3A3A3A3A3A3A3A3A374FFF09004CED8
:10F51000E0F8A3E0F9E849700A9004CEEEF0A3EF1A
:10F52000F08010E50E2414F582E4350FF583EEF03B
:10F53000A3EFF0850882850983A3A3A3A3A3A3A3B4
:10F54000A3A3E0C0E08E828F83A3A3A3A3A3A3D031
:10F55000E0F0850882850983A3A3A3A3A3A3A3A3A3
:10F56000E0C0E08E828F83A3A3A3A3A3D0E0F085A5
:10F570000882850983A3A3A3A3E0C0E08E828F83C2
:10F58000A3A3D0E0F0850882850983A3A3E0F8A3B4
:10F59000E0F98E828F83E8F0A3E9F0E508240CF50A
:10F5A00082E43509F583E0C0E0EE2413F582E43F00
:10F5B000F583D0E0F0850882850983A3A3A3A3A3E4
:10F5C000A3A3A3E064016015E508240DFCE435095C
:10F5D000FDEE240BFAE43FFB12237980107C087DBA
:10F5E0000079FFEE240BFAE43FFB1221DB85088251
:10F5F000850983A3A3A3A3A3A3A3A3A3A3E0F89034
:10F600000EFCE0C398400302F799850882850983C0
:10F61000A3A3A3A3A3E064016009900D49E07003D4
:10F6200002F799780079009004BFE06402707C854D
:10F630000882850983A3A3A3A3A3A3A3A3A3A3E0F1
:10F64000FA8E828F83A3A3A3A3A3A3A3A3A3E0C340
:10F650009A5011E508240BF582E43509F583E0C3DF
:10F6600094144043850882850983A3A3A3A3A3A37D
:10F67000A3A3A3A3E0FA8E828F83A3A3A3A3A3A330
:10F68000A3A3A3E06A70468E828F83A3A3A3A3A340
:10F69000A3A3A3A3A3E0FAE508240BF582E43509AC
:10F6A000F583E0C39A5026780180228E828F83A34F
:10F6B000A3A3A3A3A3A3A3A3A3E0FAE508240BF5A4
:10F6C00082E43509F583E0C39A50027801900E2058
:10F6D000E06008900E20E0640170108508828509C2
:10F6E00083A3A3A3A3A3A3E0F98017900E20E06453
:10F6F00002700F850882850983A3A3A3A3A3A3A3F4
:10F70000E0F9E96060E8605D850882850983E0FAD8
:10F71000A3E0FB8E828F83A3A3A3A3A3A3A3EAF0FA
:10F72000A3EBF0850882850983A3A3A3A3A3A3A3C6
:10F73000A3A3A3E0C0E08E828F83A3A3A3A3A3A36C
:10F74000A3A3A3D0E0F0E508240BF582E43509F586
:10F7500083E0C0E08E828F83A3A3A3A3A3A3A3A36C
:10F76000A3A3D0E0F0850882850983A3A3A3A3A364
:10F77000A3A3E0600B8E828F83A3A3A3A37401F0E5
:10F78000850882850983A3A3A3A3A3A3E0600A8EAF
:10F79000828F83A3A3A37401F07F08020DD674F7B0
:10F7A000120AE0E9FEEE900D5DF0EE700C900D5F38
:10F7B000E07006900D5F7406F07A207B00900D5C7F
:10F7C000E0F9122229E97F01020DD674F7120AE04E
:10F7D00074FB121195EAFEEBFF8908E508900D5DB8
:10F7E000F0E508700F900D5FE07006900D5F7403F8
:10F7F000F012253B900D5AE0F8A3E0F9E849604388
:10F80000E508C0E0851882851983D0E0F090047384
:10F81000E0F8A3E0F974011213A0E8F0A3E9F09076
:10F820000476E0F8A3E0F974031213A0E8F0A3E96A
:10F83000F0AA18AB19900D5AE0F8A3E0F58388827E
:10F840001229667C007D007B027A02900D5CE0F953
:10F850001224C974051211017F01020DD674F7122A
:10F860000AE0EAFEEBFF12253B7A107B00900D5C6C
:10F87000E0F9122229E91225357F01020DD674F52F
:10F88000120AE0EAFEEBFF8C088D09890A12253B7B
:10F8900079007F03020DD674F5120AE074FB121191
:10F8A000958A088B09ECFEEDFF890A851882851977
:10F8B00083E508F0A3E509F074021213A0EEF0A3AB
:10F8C000EFF0E50AC0E074041213A0D0E0F0900D50
:10F8D00054E0F8A3E0F9E8496012AA18AB19900DBA
:10F8E00054E0F8A3E0F583888212296674051211AA
:10F8F000017F03020DD674F6120AE0EAFEEBFF1256
:10F9000017C78A088B09AC08AD09EE2402FAE43F58
:10F91000FB122373E964017010EE240BF582E43FBF
:10F92000F583E0F91224BD8031900E20E06008904C
:10F930000E20E0640170238E828F83A3A3A3A3A370
:10F94000A3A3A3A3A3E0F9EE2402FCE43FFD8E826F
:10F950008F83E0FAA3E0FB1224C37F02020DD6746A
:10F96000F4120AE074FE121195EAFEEBFF8E828F0C
:10F9700083A3A3A3A3A3A3A3A3A3A3E06401704FA2
:10F98000900E20E06008900E20E064017031EE24BB
:10F990000CF582E43FF583E0C0E074011213A0D0BF
:10F9A000E0F0EE240BF582E43FF583E0C0E085183B
:10F9B00082851983D0E0F0AA18AB191214C7E9EEBA
:10F9C000240CF582E43FF583E0F91224BD806A75CA
:10F9D00008001217D38A0A8B0BA80AA90B8E828FF4
:10F9E00083E0687003A3E069701BEE240BF582E4EA
:10F9F0003FF583E06401600A900D62E05407640201
:10FA00007003750801740165087010EE240CF5820E
:10FA1000E43FF583E0F91224BD801EEE240BF5824D
:10FA2000E43FF583E0F9EE2402FCE43FFD8E828F93
:10FA300083E0FAA3E0FB1224C374021211017F04D5
:10FA4000020DD674F7120AE08908EAFEEBFF900E69
:10FA500020E064026016900E20E06008900E20E026
:10FA60006401702190046DE0A2E140197401650801
:10FA7000701312190B7C007D007B027A03900D5CE1
:10FA8000E0F91224C97F01020DD6C082C08312158D
:10FA900069D083D0820210B30210B374F6120AE068
:10FAA000EAFEEBFFEE240CF582E43FF583E0540020
:10FAB000F8A3E05480F9E849706BEE240BF582E47A
:10FAC0003FF583E0705FEE240CF582E43FF583E0C0
:10FAD00064137004A3E06400604BEE240CF582E430
:10FAE0003FF583E04400F508A3E04480F509780879
:10FAF0001210D3E4F508F50978081210D3EE240E9D
:10FB0000F582E43FF583E0FD7C84EE2402FAE43FD5
:10FB1000FBEE240FF582E43FF583E0F912264374EF
:10FB200004121101E97F02020DD674F7120AE0EA0D
:10FB3000FEEBFFEE4F6013EEFCEFFD7A017B0090D1
:10FB40000D5CE0F9122331E9800D7A017B00900D04
:10FB50005CE0F9122229E97F01020DD674F7120A3E
:10FB6000E0E9FE900D64E0A2E15021900F1AE06EF2
:10FB7000601A900D62E054F84402900D62F0900D0E
:10FB800064740CF0900D64E0F912184B7F01020DC3
:10FB9000D674F6120AE07A007B001229011217C708
:10FBA0008A088B09AE08AF091217CD8A088B09AAFB
:10FBB00008AB0975080078081210D7900D64E0F9B9
:10FBC000EEFCEFFD12261F7401121101E97A007B91
:10FBD000001229017F02020DD60210B3EA2401FAB5
:10FBE00050010B0210B374F5120AE074FB12119568
:10FBF0008A088B09890AECFEEDFF85188285198336
:10FC0000E508F0A3E509F0E50AC0E074021213A0CC
:10FC1000D0E0F074031213A0EEF0A3EFF0900D52B9
:10FC2000E0F8A3E0F9E8496012AA18AB19900D5268
:10FC3000E0F8A3E0F58388821229667405121101A9
:10FC40007F03020DD6C082C0837A00EAC3940550B8
:10FC50002DEAF87900E875F002A4C8ABF075F00061
:10FC6000A42BFB75F002E9A42BF9745228F58274D9
:10FC70000D39F5837400F0A37400F00A80CDD083B1
:10FC8000D0820210B3C082C08375A1FDA2AFE4335D
:10FC9000FAC2AF75C300A8A2A9A3900722E0C3943B
:10FCA000125007E87004E970010875C30388A2893F
:10FCB000A3EAFBEAA2E092AFD083D0820210B37431
:10FCC000F6120AE08909E509C394154003121E21C2
:10FCD00075A1FDA2AFE433F508C2AF75C303A8094F
:10FCE0007900E875F000A4C8AAF075F002A42AFA19
:10FCF00075F000E9A42AF9E8FEE9FF900722E0C3C5
:10FD000094125009EE4F70050EEE70010FEEF5A241
:10FD1000EEF8EFF9E4C9F8E8F5A3A808E508A2E0D1
:10FD200092AF7F02020DD6A2AFE433FCC2AF75C31F
:10FD300000A8A2AAA3ECFDECA2E092AF7B00E4CA6B
:10FD4000FB7900EA48F8EB49F97A007B021208894E
:10FD5000E8F90210B3C082C0839061A4E0A2E4502D
:10FD600003121E21759C019061E47401F075E1E2BB
:10FD700075E1FFA2AFE433F9C2AF759B007591EF57
:10FD8000E9FAE9A2E092AFA2AFE433F8C2AF759B03
:10FD9000007591F7E8FBE8A2E092AFD083D0820231
:10FDA00010B3C082C083121F5F75E1BC75E1B875E6
:10FDB000E10F75E11075E1D275E1D975E10175E1E9
:10FDC0000975E1BA75E10175E1C575E1D2D083D05D
:10FDD000820210B3C082C083121F5F75E1BC75E15F
:10FDE0001775E18175E11075E1D275E18175E1105A
:10FDF00075E1D275E1D975E10175E10975E1BA7571
:10FE0000E10175E1C575E1D2D083D0820210B3C0A3
:10FE100082C083900782E09061E2F0121F4D9061F2
:10FE2000A4E0D2E4F09061A4E0D2E3F012212775BF
:10FE3000E1E1D083D0820210B3C082C083121F5F81
:10FE400075E1BC75E1D975E10175E10975E1BA7536
:10FE5000E10175E1C575E1D2D083D0820210B3749F
:10FE6000F6120AE09061A4E0D2E4F09061A4E0D23E
:10FE7000E3F0A2AFE433F509C2AF75C300AEA285CB
:10FE8000A408740F5508F8740FC398FFEF9061E24F
:10FE9000F012211590077D7401F075E1E175C30042
:10FEA000A8A2E5A46508600DEFC39402400774FFA3
:10FEB0002F9061E2F0A809E509A2E092AF7F02026B
:10FEC0000DD6C082C0839061E4E0701D9061A4E013
:10FED000A2E450159061A4E0C2E4F09061A4E0A215
:10FEE000E35003121F95122169D083D0820210B310
:10FEF00074F5120AE09061A4E0A2E45003121E21FE
:10FF0000121F59E9F50990072AE0FEEEC394155037
:10FF100003121E2174EC25092EFE75F014EE84FFE9
:10FF200075F014EFA4CEC39EFE0F9061E47402F04E
:10FF3000EF9061E2F0EEF9121F5375E1E275E1FF17
:10FF4000A2AFE433F508C2AF759B007591EF850849
:10FF50000AE508A2E092AF75E1BC75E1B875E1D29F
:10FF60009061A4E0D2E4F075E1E1121F59E9C39574
:10FF700009500E9061E2E06F70079061E2E024FFAB
:10FF8000F07F03020DD6C082C0839061A4E0C2E47A
:10FF9000F075E1E275E1FFD083D0820210B3C08238
:10FFA000C0839061A4E0C2E3F0122181D083D082AB
:10FFB0000210B3C082C0839061A4E0C2E4F09061FB
:10FFC000E4E07005122169801B9061E4E064017037
:10FFD00005122163800E9061E4E064026003121E4A
:10FFE00021122175D083D0820210B353F3F743FD61
:0BFFF00008C2830210B379FF0210B3B7
:020000040001F9
:100000007401028BF2C082C0838A828B83E0D2E7C4
:10001000F012251D029D2FC082C08379001284EB4F
:1000200012BF74C082C08390043012AE61D083D0FE
:1000300082C3E09CA3E09D500C12A867FAA3E012D3
:100040008419600109029D2F74F7120AE0890812D1
:1000500084EB128575ACF075F00BE9A42CF99004D3
:1000600032E028FEA3E039FF7401650860067402DF
:10007000650870208A828B8312856112A0E3740266
:10008000650870181283FA12859E7010E48E828FB4
:1000900083F08008EA2403FCEB128547EEFAEFFBBD
:1000A0001227ED0299E774F4120AE0129A797900A6
:1000B0008E828F83E06071890A890B8060E50A7502
:1000C000F00BA4FAACF075F00BE50B128426704A25
:1000D000E50A75F00BA4F8AAF075F00BE50B128594
:1000E000568E828F83E08C828509831286608C8293
:1000F000850983A3E8F0A3E9128656E5082403FAEC
:10010000E50912854F12885512BB80AA08AB091267
:1001100027ED790190043012B5861295C112841131
:10012000E50A9AE50B9B4095029A8F74F5120AE056
:10013000EAFEEBFF740B1213A01296B4750A01ECE1
:100140007001ED602DEC12BCE5ED12BF7412A0DC65
:1001500079011227D5E5087002E5096072850882E9
:10016000850983A3129A837902AA08AB091227D5BD
:10017000805DE5087002E509602B12840212A76D0C
:10018000128856128588700CEEFAEFFB1227CFE921
:10019000F50A80C9EE2403FA1284E670327903EE80
:1001A000FAEFFB80C88E828F83A3E064FE7004A305
:1001B000E064FF700BEE24030A0A0A1284E6700C56
:1001C000EEFAEFFB1227CFE9F50A8003750A00A9C2
:1001D0000A0285A974F7120AE090043012A0ECEA32
:1001E0007001EB6031EA75F00BA4FAACF075F00B1E
:1001F000EBA42CFBEAFEEBFF12227190043212A05A
:10020000EC900432E07002A3E06012EEFCEFFD79A6
:10021000001221DB8007900432E4F0A3F00299E79A
:1002200090043012A168C3EE98EF9922C082C08377
:10023000EC7001ED600512237980097C087D00795E
:10024000001221DB029D2F74F6120AE07900EA7099
:1002500001EB60147C008C0812B820600479017CEA
:10026000080CECC3940840EE028BF574F7120AE018
:1002700074F3121195ECFEEDFFE485188285198365
:10028000F074011213A01296C812294974031213B4
:10029000A0AC82AD83EEFAEFFB1227BDEEFAEFFBC6
:1002A0001227B70299E274F7120AE074F31211955B
:1002B000ECFEEDFFE4851882851983F0EAFCEBFD86
:1002C00074031213A01296FF74011213A012A164FA
:1002D0008E828F8312A0E374FE68700374FF6960DE
:1002E000047901800279000299E274F7120AE0EAC7
:1002F000FEEBFF128339701012834464FFFC8A8284
:100300008B83E05CF01227EDA9080299E774F712DD
:100310000AE0EAFEEBFF7508008E828F83E060172B
:1003200012833970121283448A828B83FCE05C70E2
:1003300006E04CF01227ED80CF1227E7E9F50874AC
:1003400001650822129F461285791284C5FAA3E03E
:1003500039FB8E828F83E02274F4120AE08A088BC4
:10036000097C007D001283FA12854F128409129ACB
:10037000807900850882850983A3E064FE7004A368
:10038000E064FF60727E007F008063EEFAEF12840B
:10039000196058EEFAEFFBEA75F00BA4FAACF075B1
:1003A000F00BEBA42CFB900432E02AF50AA3E03B0F
:1003B000F50B850882850983A312AC9E850A828588
:1003C0000B83A3E06A7003A3E06B701FE50A2403AC
:1003D000FAE50B1284E770061284D412854F12845A
:1003E00002EEF0A3EFF0790112C0C5129326128439
:1003F00011EE9AEF9B4094029A8FEA24030A0A0AAC
:10040000EB2212840912B3D122E50812BCE5E509FA
:100410002290043012BCDEC322FBEA75F00BA4FA72
:10042000ACF075F00BEBA42CFB90043212CE23F54C
:1004300083E0540F2274F3120AE08A088B098A823F
:100440008B83A3129A831284EB129A80750C00128C
:1004500083FA1284E770597E007F00804E1284B7C1
:10046000FAA3E0398A82F583E0540F603B1284B727
:10047000F50AA3E039F50B1284D43400FB12237380
:10048000E964017023850A82850B83A312A1648528
:100490000882850983A3E8F0A3E912AB10EEF0A36C
:1004A000EFF0750C0112C0C512932612822040ADE8
:1004B000A90C7F05020DD6EEF8EFF9E875F00BA454
:1004C000F81284C522AAF075F00BE9A42AF9900469
:1004D00032E02822E50A2403FCE50B3400FDE508A0
:1004E0002403FAE50922EF1285982212BCE4EB22DC
:1004F00074F5120AE0EAFEEBFF8E828F83A3129A54
:10050000837C007D00EE24030A0A0A12854EEEFA6F
:10051000EFFB1227E7E9F50A7401650A7026129FBE
:1005200042128575AAF075F00BE91285568508828E
:10053000F583128561128588700AE5082403FCE5BD
:10054000091285470281CF3400FDEE2403FAEF340F
:1005500000FB1227BD221284CBF508A3E039F50970
:1005600022A31285662212856A22E0F8A3E0F98EA2
:10057000828F83A322128579223400F58312A16D24
:10058000F9E875F00BA4F822E8F0A3E9F0E50824F7
:1005900003FAE5091285982212859E64012234002F
:1005A000FB1227B7E9221211017F03020DD674F264
:1005B000120AE074E6121195129A79750A0175080B
:1005C00000750900750C00750D00E4851882851909
:1005D0008312865674031213A012989E640170232E
:1005E000740B1213A012A0DC74011213A012B82B0A
:1005F0007003A3E06960518518828519838582089C
:10060000858309740D1213A0E4128660740E121310
:10061000A012A0E3740D1213A0AA82AB8312294981
:10062000E96401700B740D1213A085820C85830D93
:10063000780C1210D3AC08AD09EEFAEFFB1227C903
:100640007402121101E9F50AEEFAEFFB121DAFA9CF
:100650000A741A02A680F0EE2403FCEF3400FD2297
:1006600012A0D112A16822C082C0837800790080D4
:1006700003128EA2128411E89AE99B500CE8FAE961
:1006800012841970EC790080027901029D2FC082DA
:10069000C083902ED2128DF175F012A4FCAAF075D1
:1006A000F012EDA42AFD79FF7A897B071221DB0283
:1006B0009D2F74F7120AE0E9FEEAFF7A007B0078CA
:1006C0000079008025E8FCE9FDEC75F012A4FC85BA
:1006D000F00875F012EDA42508128C509E40081207
:1006E000A7F74003128BE1128EA21286F240D602C7
:1006F00099E7902ED212901AC3E89CE99D22C082FD
:10070000C083780079008003128EA2902ED2128EC0
:10071000305020128B4164FF70EEE875F012A4F89F
:10072000AAF075F012E9A42AF9E82489FAE9340755
:10073000FB80047A007B00029D2F74F0120AE074A3
:10074000F31211958A0A8B0B8C0C8D0D8908EC70B5
:1007500001ED6015AA0CAB0D121E2D8A0E8B0FAE8B
:100760000EAF0FEE7001EF704A1228898A0E8B0FC0
:10077000A80EA90FE8FEE9FFE87001E960357401F1
:10078000851882851983F01213A012BB80AC0CADC2
:100790000D74031213A01288CF740B1213A0129FB2
:1007A0004C12A0E3E48E828F83A3A312BB6D1219B7
:1007B000238006EE7001EF60767A0074FF2508C38F
:1007C000940450027A048E828F8312BB808E828FB3
:1007D00083A3A3A3A3E508F0EA8E828F83A3A3A338
:1007E000A3A312BB88120889E88E828F83A3A3A3D8
:1007F000A3A3A3A3A3F074018E828F83A3A3A3A3B7
:10080000A3A3A3A312885AA3A3A3F0EE241012BF9C
:1008100071E4F012885AF0128855E4F09081BF78A4
:100820000C121349EE240C12BF71780C12133A12F9
:1008300088434005E4900E90F01217FDEEFAEFFBAE
:1008400002AB187A04790012288F902ED2129414D9
:10085000EA98EB9922EE12B3CC22A312A4DAA322D7
:1008600074F2120AE074F31211958A088B09ECFEF7
:10087000EDFF750A00EEFAEFFB121E2D8A0C8B0DB0
:10088000A80CA90DE87001E9603E88828983E065C3
:10089000087004A3E06509602F88828983A3A3A35D
:1008A000A3E0C39405502112BF7874018518828596
:1008B0001983F01213A012BF7CEEFCEFFD7403123B
:1008C00013A01288CF750A01A90A740D02A680121E
:1008D000970A1228A12274F6120AE012891A7002ED
:1008E000E583600FA3A3A3A3E014C3940450047989
:1008F0000180027900028BF574F6120AE012891A5F
:100900007002E583600FA3A3A3A3E014C394025075
:1009100004790180027900028BF51227DB8A828B31
:1009200083E5822274F6120AE012891A7002E583C6
:10093000600BA3A3A3A3E0700479018002790002F5
:100940008BF5C082C083EAFCEBFD7A007B001213BA
:10095000C5029D2FC082C0837C007D0080F074F4AE
:10096000120AE074F3121195EAFEEBFF8C0A8D0B6C
:10097000C3EC94F8ED94FF4009EE7001EF700302B0
:100980008A15750800750900803074018518828504
:100990001983F0E50875F012A4128A321213A0121E
:1009A0008A41601374031213A0AC82AD83EEFAEF98
:1009B000FB122373E9703F128A25902ED212940AFB
:1009C0005053E50875F012A4F8AAF075F012E50985
:1009D000128C0260E2EE7001EF70AF74FF650A7076
:1009E0000474FF650B60D0E508128A1C650A700468
:1009F000A3E0650B70C1E50875F012A4F508AAF034
:100A000075F012E509A42AF509E5082489FAE50933
:100A10003407FB80047A007B00029A8A75F012A4E6
:100A200012C9F6E022E5082401F508E5093400F5CD
:100A30000922248BF582E93407F58312A168740B2F
:100A400022E8F0A3E91297241228BFE92274F412D5
:100A50000AE074F3121195750800121E2D8A0A8B94
:100A60000BAE0AAF0BEE7001EF602A74018518829D
:100A700085198312A0D6F8A3E0F9740B1213A01203
:100A8000971C1227A57C127D0079FFEEFAEFFB126E
:100A900021DB75080112884350097401900E90F013
:100AA0001217FDA908029A8A74F7120AE0E9FE7487
:100AB000FE6A700374FF6B78007900700580551230
:100AC0008EA21286F2504DE8FCE9FDEC75F012A4FE
:100AD000FCAFF075F012EDA42F128B3AED12C79512
:100AE00060DDE8FCE9FDEC75F012A4FC75F012ED98
:100AF000A42FFDEC2489F582ED3407F583E06A70BC
:100B000003A3E06B70B98009128B4114C3940440B5
:100B10001A128EA2902ED2128E305017EE70E91259
:100B20008B4164016005E0640370E6128D5F12ACD6
:100B30009C80047AFE7BFF0299E7FDEC248DF58210
:100B400022E8FAE9FBEA75F012A4FAACF075F012AB
:100B5000EBA42CFBEA128B3CEB12C9F0221213D14E
:100B6000029D2FC082C083790180F274F0120AE0E6
:100B70008A0A8B0B7A04790112288F8A0CEA700199
:100B8000EB6040EAC333FAEB33FB1222718A088B25
:100B900009AE08AF09EE7001EF60237AFE7BFF1209
:100BA00013D774FE6A700374FF6B601B850882851F
:100BB000098312A0ECE5082402128A2980E1750C51
:100BC0000080047E007F00850A82850B83E50C127D
:100BD0009F6302AB1D902ED212901AC3EA9CEB9D2C
:100BE00022EA24010AEB3400FB22128C0C121101C0
:100BF00074021211017F02020DD67B0012230774CA
:100C00000422A42A12C9E664FF227A417B0012233F
:100C10000174042274F7120AE07A007B0080041940
:100C2000128BE1128BD55021EAFCEBFDEC75F01232
:100C3000A4FCAEF075F012EDA42E128C5094055069
:100C4000DFE970DB128C5980047A007B000299E79F
:100C5000128B3AED12C9F0C322EA75F012A4FAAC75
:100C6000F075F012EBA42CFBEA2489FAEB3407FBB5
:100C70002274F7120AE074F31211957E007F0002CD
:100C80008D15E50875F017A42403F582E5F0340905
:100C900012AC9CEEF8EFF9E875F012A4F8ACF07520
:100CA000F012E9A42CF9E8128A206A7003A3E06B21
:100CB000603EE50875F017A4F8AAF0EAF9E812CA50
:100CC0000112981E1213A0E0687003A3E06960206F
:100CD000E50875F017A4F8EAF9E82405FCE93409F9
:100CE000FD74031213A0AA82AB83122373E960116F
:100CF000E50875F017A42403FAE5F03409FB12198E
:100D00002F0508902EE0E493FAE508C39A500302F9
:100D10008C82129326902ED212CD60503FEEF8EFC7
:100D2000F9128D5FF583E064FF7004A3E064FF6057
:100D3000E17401851882851983F0EEF8EFF9E87502
:100D4000F012A4F875F012E9A42AF9E8128A321216
:100D500013A0128A4160BB75080080A70299E2E8DF
:100D600075F012A4F8AAF075F012E9A42AF9E812B5
:100D70008D73222489F582E934072274F6120AE081
:100D800012945E128DF18508F0A4CCAAF08509F0CA
:100D9000A42AFA8508F0EDA42AFD79FF7AA07B0C3D
:100DA0001221DB9004357401F0A37414F090043721
:100DB00074FBF0A37413F09004397425F0A3741439
:100DC000F090043B7437F0A37414F090043D743D2C
:100DD000F0A37414F090043F7443F0A37414F090E3
:100DE00004417449F0A37414F0E4900434F0028BCD
:100DF000F512901AEC22C082C0837800790080033B
:100E0000128EA2128E2D501EE8FAE9FBEA75F00E42
:100E1000A4FAACF075F00EEBA42C12921164FF70E2
:100E2000DF12925980047A007B00029D2F902ED60B
:100E3000128E39C3E89AE99B22E493FA740193FB7A
:100E40002274F7120AE07A007B007800790080476C
:100E5000E8FCE9FDEC75F00EA4FCAEF075F00EEDCB
:100E6000A42EFDEC24A0F582ED12939964FF60247A
:100E7000E8FCE9FDEC75F00EA4FC75F00EEDA42E77
:100E8000FDEC24A5F582ED340CF583E0FCEA2CFAA8
:100E9000EB3400FB128EA2902ED61286F540B102E2
:100EA00099E7E8240108E93400F92274EC120AE019
:100EB000890B8A088B098C118D0A74141213A0E017
:100EC000F50EA3E0F50F7E007F00121461AA08ABB7
:100ED000091214678A0C8B0D850882850983A3A3E8
:100EE000A3A3A3A3A3A3E0640170077510018E0858
:100EF00080058E1085110874FE650C700474FF6502
:100F00000D7003028FF48E09800205098509129085
:100F10002ED6E412CBE95074A809E875F00EA4A906
:100F2000F0129394650B70E2E875F00EA412931B17
:100F3000651070D6E875F00EA4129308650C700465
:100F4000A3E0650D70C4E875F00EA424A4F582E951
:100F5000340CF583E0650870B1E875F00EA424A0A8
:100F6000FEE9340CFF750900E509C3950A40030248
:100F70008FF412CE0912140DE9700D12CE0912145D
:100F800019E970047E007F00050980DC1213F58AE0
:100F9000128B13AE12AF13EE7001EF60578E828F7B
:100FA00083E50BF0A3E51012A0CDA3E50CF0A3E5BB
:100FB0000D12C61DE508F0902EEFE493C3950A507C
:100FC00004E493F50A8E828F83A3A3A3A3A3E50A67
:100FD000F0850E0C850F0D750E00780C1210CFE504
:100FE0000AC333FCE433FDEE2406FAEF3400128F1B
:100FF000FB121101EEFAEFFB02CBD7FB1221CF74EB
:101000000322C082C08312901379FF1221DB790181
:10101000029D2F902ED412901A22E493FC74019317
:10102000FD2274F7120AE0EA7001EB60498A828BB4
:1010300083A3A3A3A3A3A3E5827002E58360377E05
:101040000080010E8A828B83A3A3A3A3A3E0FFEEFB
:10105000C39F5022EEC333F8E433F9EA28F582EB5C
:1010600039F583A3A3A3A3A3A3E06C7003A3E06D4E
:1010700070D17901800279000299E774F5120AE0D3
:10108000EA7001EB60618A828B83A3A3A3A3A3E030
:101090006065EA2406F8EB3400F98A828B83A3A307
:1010A000A3A3A3E0F509750800800DEA2405F582E5
:1010B000EB12B77B60410508E508C395095028E5A8
:1010C0000812913DE06C7003A3E06D60DE12914365
:1010D00012C0C888828983EEF0A3EFF0E8240208EA
:1010E00008E93400F980CF8A828B83A3A3A3A3A34A
:1010F000E060047901800279000285A974F7120A80
:10110000E0EA7001EB60318A828B83A3A3A3A3A3DF
:10111000E0C0E0902EEFE493FED0E0C39E5019EAC9
:101120002405F8EB12B81312913DECF0A3ED12A9CF
:1011300036E004F07901800279000299E7C333FEBA
:10114000E433FFEA2EF582EB3FF583A3A3A3A3A329
:10115000A32274F4120AE08908EAFEEBFF8C098EE0
:10116000828F83A3A3A3A3A3A3A3A3E06401700915
:101170008E828F8312AE618007129313AC0AAD0B7F
:1011800074FE6C700374FF6D70067A007B00807EC5
:1011900078007900801412921C6401700A12923A4D
:1011A0007003A3E06D6064128EA2128E2D50DBE8F6
:1011B000FAE9FBEA75F00EA4FA85F00A75F00EEB79
:1011C000A4250A129211650870DD8E828F83A3A375
:1011D000A3A3A3A3A3A3E0640160BB12921C70C7E6
:1011E00012923A7003A3E06D70BDE8FAE9FBEA756C
:1011F000F00EA4FA75F00EEBA4250AFBEA24A4F580
:1012000082EB340CF583E06509709C129259029AC6
:101210008FFBEA24A0F582EB12939922E8FAE9FB0E
:10122000EA75F00EA4FA75F00EEBA4250AFBEA2489
:10123000A1F582EB340CF583E022E8FAE9FBEA75CC
:10124000F00EA4FA75F00EEBA4250AFBEA24A2F531
:1012500082EB340CF583E06C2212925D22E875F08B
:101260000EA4F8AAF075F00EE9A42AF9E824A0FA71
:10127000E9340CFB2274F2120AE08A088B098A8294
:101280008B83A3A3A3A3A3A3A3A3E0640170098AF0
:10129000828B8312B586800312931374FE650A70E5
:1012A0000474FF650B605E7E007F008053850882BA
:1012B000850983A3A3A3A3A3A3A3A3E06401703A16
:1012C000EEF8EFF9E875F00EA4F8AAF075F00EE963
:1012D000A42AF9E812931B64017022EEF8EFF9E8F2
:1012E00075F00EA4F875F00EE9A42AF9E812930837
:1012F000650A7004A3E0650B700312933312932602
:1013000012CD5D40A802A68324A2F582E9340CF533
:1013100083E02212144F8A0A8B0B2224A1F582E962
:10132000340CF583E02212932BFF22EE24010EEF02
:10133000340022EEF8EFF912925D1214072274F3D2
:10134000120AE0890C8A0A8B0B7508007509007E69
:10135000007F00801B12937C650C7011AC0AAD0BF2
:10136000AA82AB8312140DE96003128A2512932618
:1013700012CD5D40E0AA08AB090284B2EEF8EFF9A5
:10138000E875F00EA4F8AAF075F00EE9A42AF9E8C1
:101390001293942224A0F582E9340CF583E02274A0
:1013A000F1120AE0890D8A0A8B0B8C0E750C007500
:1013B00008007509008005050C128A25902ED612AA
:1013C000940A503DE50875F00EA4F8AAF075F00EE9
:1013D000E509A42AF9E824A0FEE9340CFF8E828FE7
:1013E00083E0650D70D3AC0AAD0BEEFAEFFB12147F
:1013F0000DE960C5E50CC3950E40BCEEFAEFFB802D
:10140000047A007B007F07020DD6129414E5089839
:10141000E5099922E493F8740193F9C32274F61252
:101420000AE075080075090078081210D312945E5E
:1014300012967BE9A42AF975832E7582D4E4932849
:10144000FCA3E49339FD7A417B001222F574021269
:101450001101E9FE600312143DEEF9028BF5902EA6
:10146000D4129468902ED622E493F508740193F573
:10147000092274F6120AE074FE121195851882850D
:101480001983E4F0A31296BC858208858309780845
:101490001210D375080275090078081210D37C0069
:1014A0007D007A41028BEA74F4120AE074E71211AB
:1014B000957E007F00851882851983858208858343
:1014C0000978081210D37508028E0978081210D313
:1014D0007C007D007A41128BFA121101E96003024F
:1014E00095B38E0A8E0B805874021213A0AC82AD95
:1014F00083740D1213A012AC9E121455740A1213A9
:10150000A0E0603974111213A085820885830978E0
:10151000081210D374121213A0E0FD74111213A05C
:10152000E0FC74041213A0AA82AB83740D1213A002
:10153000E0F912140174021211011293261295C1DE
:101540001295CEE50A98E50B995068740B1213A01A
:1015500085820885830978081210D3902ED4120E44
:10156000C2902ED41295BCE8850AF0A4C8AAF085D2
:101570000BF0A42AFA850AF01296987A41128BFA97
:10158000121101E970B7740A1213A0E4F0740C127E
:1015900013A0E070030294E8740A1213A07401F01F
:1015A000740D1213A012A16474021213A012A0E30E
:1015B000029504EEFAEFFB7419029A8CE4129691EC
:1015C00022E50A2401F50AE50B3400F50B22851803
:1015D0008285198312A168C32274F5120AE074F09F
:1015E000121195851882851983E4F0A3F0FE805AC4
:1015F00012937C64FF6050858208858309750A0018
:1016000078081210CF12901374051213A0AA82AB9F
:1016100083128FFC12110174021213A085820885B7
:10162000830978081210D3902ED4120EC2740412BB
:1016300013A01296B4902ED412967B129698128C08
:101640000A1211011296A412932BFF12CD5D40A035
:101650008518828519838582088583097808121088
:10166000D375080275090078081210D37C007D003C
:10167000128C0A12110174100285A6129690E88548
:1016800008F0A4C8AAF08509F0A42AFA8508F02277
:10169000E493F8740193F922E9A42AF9740228FC6E
:1016A000E439FD22851882851983E02401F0A3E046
:1016B0003400F022E0F508A3E0F509221296C022DA
:1016C000F085188285198322EAF0A3EB1297242271
:1016D000C082C08374F31211951298A370128A828B
:1016E0008B8312981E1213A012971C122949800C8A
:1016F000EAFCEBFD74031213A01296FF029D221266
:1017000097032212970A1228DD22AA82AB8312279E
:10171000BD851882851983AA82AB8322E8F0A3E9EC
:1017200012972422F0851882851983AA82AB83221E
:1017300074F7120AE074F3121195ECFEEDFF7404D5
:10174000851882851983F0740B1213A0EAF0A3EBBD
:10175000128A45F508601D74038E828F83A3A3A3AC
:10176000A3A3A3A3A3F01213A0AC82AD83EEFAEF60
:10177000FB122379A9080299E2C082C08374F31294
:1017800011957404851882851983F0740B1213A0C7
:101790001296C81228BF7401029D2474F6120AE042
:1017A00074F3121195900434E0706E7404851882FD
:1017B000851983F090047312981E1213A012A0E3EF
:1017C0001217C7EAFCEBFD74031213A01288CF12A4
:1017D00017D38A088B09A808A90974011213A0E07D
:1017E000687003A3E069602B74FE68700374FF697E
:1017F000602174011213A012A0E374031213A0AAB3
:1018000082AB831217D9851882851983AA82AB838C
:101810001228A17401900434F0740D028BF212A10D
:1018200068740122C082C08374F31211951298A3C8
:101830008A828B83701E12981E1213A0E8F0A3E90F
:1018400012B8D97056851882851983AA82AB831283
:1018500028A18047A3A3A3A3A3A3A3A3E064037029
:1018600010EAFCEBFD74031213A012989E702C80FA
:10187000D48A828B83A3A3A3A3A3A3A3A3E064011D
:1018800070108A828B83128A3B1213A0E8F0A3E9BE
:101890008008740B1213A012A913F0029D22129754
:1018A00003E922740485188285198312C613A3A341
:1018B000A3A3E064022274F5120AE07C007D008C90
:1018C000088C09780079008003128EA212992A50A0
:1018D0003112990960F3AE08AF0974012EF508E4DE
:1018E0003FF509EA6E7002EB6F70DEE875F00EA44A
:1018F000F8AAF075F00EE9A42AF9E824A0FCE9346E
:101900000CFDECFAEDFB0285A9E8FEE9FFEE75F0AF
:101910000EA4FE85F00A75F00EEFA4250AFFEE2452
:10192000A0F582EF12939964FF22902ED6E493FEE5
:10193000740193FFC3E89EE99F22C082C083900494
:101940004874D1F0A37416F090044A74CBF0A374D9
:1019500016F090044E74E5F0A37414F0029D2FC0AD
:1019600082C08390044C74C5F0A37416F0029D2FBE
:1019700074F7120AE0EAFEEBFF900482E06408606C
:101980001BE0640460168E828F83E0540364017050
:101990004412885512AE6CE0640670398E828F83D3
:1019A000A3A3E064FE7004A3E064FF60288E828F2E
:1019B00083A3A312CA147003A3E069700BEE24156D
:1019C000F582EF12B826600812178BE9F508800837
:1019D00012179180F67508C2EEFAEFFB1222770219
:1019E0008308740D1211017F01020DD674F4120ADE
:1019F000E08A088B098A828B8312A16D28FAE4346D
:101A000000FB1222718A0A8B0BAE0AAF0BEE70013B
:101A1000EF6060850882850983E0FC7D0079001213
:101A200021DB8E828F83A3A3129A831217CD8E821D
:101A30008F83A3A3A3A312A0EC850882850983E06A
:101A4000F8EE28F8EF340012A0DF850882850983BC
:101A5000A3E0C0E012BF6ED0E0F01217DFEE240E5C
:101A600012BF71E9129F55E0C0E0EE241112BF7160
:101A7000D0E0F0EEFAEFFB8016EAFEEBFF129F4695
:101A800012B3D174FE12A915F022740D1211017F48
:101A900004020DD674F4120AE074EB1211958A0850
:101AA0008B098C0A8D0BE9FE900482E064046005CA
:101AB000E06408700479C2803090048378081213BF
:101AC0003AEE900489129DBA12133A74051213A0CB
:101AD000E9F074041213A07401F074071213A0E467
:101AE000F07402900482129D007415809F74F412A9
:101AF0000AE074EB121195EAFEEBFF900444E070EB
:101B000002A3E06003029BB77A077B001222719068
:101B1000044412A0EC900444E07002A3E0700302BD
:101B20009BB38E828F83780812134990044412AEBF
:101B30006C780812133AEE2404F8EF3400F9E8FA4E
:101B4000E9FB8A828B83E0C0E090044412B207A3D1
:101B5000A3A3D0E0F0EE2405F8EF3400F9E8FCE9A7
:101B6000FD8C828D83E0C0E0129BBCD0E012A4D536
:101B7000C0E0129BBCA3D0E012A15C78081213490C
:101B8000851882851983780812133A8A828B83E03C
:101B9000C0E074051213A0D0E0F08C828D83E0C009
:101BA000E074041213A0D0E0F074071213A0129C8A
:101BB000FF8006791080027901029AE990044412AC
:101BC000AE70A3A3A3A3A322C082C083900444E069
:101BD0007002A3E0600D90044412BCEC900444E455
:101BE000F0A3F01216FB1218CF029D2F74F0120A08
:101BF000E074EB121195ECFEEDFF74251213A07842
:101C00000C12134974291213A0E0FC742A1213A0B9
:101C1000E0FD742B1213A0E0F509740F6C700574CD
:101C20000F6D6012900F22E06402700579C1029C72
:101C3000FAECC39D40F6900483780C12133AE990B5
:101C40000489F0EC900487F0ED900488F0E50990A9
:101C5000048AF074FF6A700374FF6B701F900F3179
